{
  "_format": "hh-sol-artifact-1",
  "contractName": "UserInfo",
  "sourceName": "contracts/User.sol",
  "abi": [
    {
      "inputs": [
        {
          "internalType": "string",
          "name": "_name",
          "type": "string"
        },
        {
          "internalType": "uint256",
          "name": "_electionid",
          "type": "uint256"
        },
        {
          "internalType": "string",
          "name": "_party",
          "type": "string"
        },
        {
          "internalType": "string",
          "name": "_image_url",
          "type": "string"
        },
        {
          "internalType": "string",
          "name": "_party_image_url",
          "type": "string"
        },
        {
          "internalType": "string",
          "name": "_aadhar",
          "type": "string"
        },
        {
          "internalType": "string",
          "name": "_password",
          "type": "string"
        }
      ],
      "name": "addCandidates",
      "outputs": [],
      "stateMutability": "nonpayable",
      "type": "function"
    },
    {
      "inputs": [
        {
          "internalType": "string",
          "name": "_aadhar",
          "type": "string"
        },
        {
          "internalType": "string",
          "name": "password",
          "type": "string"
        }
      ],
      "name": "checkCredentials",
      "outputs": [
        {
          "internalType": "bool",
          "name": "",
          "type": "bool"
        }
      ],
      "stateMutability": "view",
      "type": "function"
    },
    {
      "inputs": [
        {
          "internalType": "string",
          "name": "_image_url",
          "type": "string"
        },
        {
          "internalType": "string",
          "name": "_aadhar",
          "type": "string"
        },
        {
          "internalType": "string",
          "name": "_name",
          "type": "string"
        },
        {
          "internalType": "uint256",
          "name": "_start_date",
          "type": "uint256"
        },
        {
          "internalType": "uint256",
          "name": "_end_date",
          "type": "uint256"
        },
        {
          "internalType": "string",
          "name": "_password",
          "type": "string"
        }
      ],
      "name": "createElection",
      "outputs": [
        {
          "internalType": "uint256",
          "name": "",
          "type": "uint256"
        }
      ],
      "stateMutability": "nonpayable",
      "type": "function"
    },
    {
      "inputs": [
        {
          "internalType": "string",
          "name": "_name",
          "type": "string"
        },
        {
          "internalType": "string",
          "name": "_dob",
          "type": "string"
        },
        {
          "internalType": "string",
          "name": "_aadhar",
          "type": "string"
        },
        {
          "internalType": "string",
          "name": "password",
          "type": "string"
        }
      ],
      "name": "createUser",
      "outputs": [
        {
          "internalType": "bytes32",
          "name": "",
          "type": "bytes32"
        }
      ],
      "stateMutability": "nonpayable",
      "type": "function"
    },
    {
      "inputs": [
        {
          "internalType": "uint256",
          "name": "_electionid",
          "type": "uint256"
        },
        {
          "internalType": "uint256",
          "name": "_candidateID",
          "type": "uint256"
        },
        {
          "internalType": "string",
          "name": "_aadhar",
          "type": "string"
        },
        {
          "internalType": "string",
          "name": "_password",
          "type": "string"
        }
      ],
      "name": "doVote",
      "outputs": [
        {
          "internalType": "uint256[]",
          "name": "",
          "type": "uint256[]"
        }
      ],
      "stateMutability": "nonpayable",
      "type": "function"
    },
    {
      "inputs": [
        {
          "internalType": "uint256",
          "name": "",
          "type": "uint256"
        }
      ],
      "name": "elections",
      "outputs": [
        {
          "internalType": "string",
          "name": "name",
          "type": "string"
        },
        {
          "internalType": "uint256",
          "name": "start_date",
          "type": "uint256"
        },
        {
          "internalType": "uint256",
          "name": "end_date",
          "type": "uint256"
        },
        {
          "internalType": "uint256",
          "name": "noOfCandidates",
          "type": "uint256"
        },
        {
          "internalType": "string",
          "name": "image_url",
          "type": "string"
        },
        {
          "internalType": "uint256",
          "name": "totalVoted",
          "type": "uint256"
        },
        {
          "internalType": "enum ElectionInfo.Phase",
          "name": "currPhase",
          "type": "uint8"
        },
        {
          "internalType": "bytes32",
          "name": "aadharhash",
          "type": "bytes32"
        }
      ],
      "stateMutability": "view",
      "type": "function"
    },
    {
      "inputs": [
        {
          "internalType": "uint256",
          "name": "_electionid",
          "type": "uint256"
        },
        {
          "internalType": "string",
          "name": "_aadhar",
          "type": "string"
        },
        {
          "internalType": "string",
          "name": "_password",
          "type": "string"
        }
      ],
      "name": "endVoting",
      "outputs": [],
      "stateMutability": "nonpayable",
      "type": "function"
    },
    {
      "inputs": [],
      "name": "getAllElections",
      "outputs": [
        {
          "components": [
            {
              "internalType": "uint256",
              "name": "id",
              "type": "uint256"
            },
            {
              "internalType": "string",
              "name": "name",
              "type": "string"
            },
            {
              "internalType": "uint256",
              "name": "start_date",
              "type": "uint256"
            },
            {
              "internalType": "uint256",
              "name": "end_date",
              "type": "uint256"
            },
            {
              "internalType": "uint256",
              "name": "noOfCandidates",
              "type": "uint256"
            },
            {
              "components": [
                {
                  "internalType": "string",
                  "name": "name",
                  "type": "string"
                },
                {
                  "internalType": "string",
                  "name": "party",
                  "type": "string"
                },
                {
                  "internalType": "string",
                  "name": "image_url",
                  "type": "string"
                },
                {
                  "internalType": "string",
                  "name": "party_image_url",
                  "type": "string"
                }
              ],
              "internalType": "struct ElectionInfo.Candidate[]",
              "name": "candidates",
              "type": "tuple[]"
            },
            {
              "internalType": "string",
              "name": "image_url",
              "type": "string"
            },
            {
              "internalType": "uint256",
              "name": "totalVoted",
              "type": "uint256"
            },
            {
              "internalType": "enum ElectionInfo.Phase",
              "name": "currPhase",
              "type": "uint8"
            }
          ],
          "internalType": "struct ElectionInfo.returnElection[]",
          "name": "",
          "type": "tuple[]"
        }
      ],
      "stateMutability": "view",
      "type": "function"
    },
    {
      "inputs": [
        {
          "internalType": "uint256",
          "name": "_electionid",
          "type": "uint256"
        },
        {
          "internalType": "string",
          "name": "_aadhar",
          "type": "string"
        }
      ],
      "name": "getCandidates",
      "outputs": [
        {
          "components": [
            {
              "internalType": "string",
              "name": "name",
              "type": "string"
            },
            {
              "internalType": "string",
              "name": "party",
              "type": "string"
            },
            {
              "internalType": "string",
              "name": "image_url",
              "type": "string"
            },
            {
              "internalType": "string",
              "name": "party_image_url",
              "type": "string"
            }
          ],
          "internalType": "struct ElectionInfo.Candidate[]",
          "name": "",
          "type": "tuple[]"
        }
      ],
      "stateMutability": "view",
      "type": "function"
    },
    {
      "inputs": [
        {
          "internalType": "uint256",
          "name": "_id",
          "type": "uint256"
        }
      ],
      "name": "getElectionById",
      "outputs": [
        {
          "components": [
            {
              "internalType": "uint256",
              "name": "id",
              "type": "uint256"
            },
            {
              "internalType": "string",
              "name": "name",
              "type": "string"
            },
            {
              "internalType": "uint256",
              "name": "start_date",
              "type": "uint256"
            },
            {
              "internalType": "uint256",
              "name": "end_date",
              "type": "uint256"
            },
            {
              "internalType": "uint256",
              "name": "noOfCandidates",
              "type": "uint256"
            },
            {
              "components": [
                {
                  "internalType": "string",
                  "name": "name",
                  "type": "string"
                },
                {
                  "internalType": "string",
                  "name": "party",
                  "type": "string"
                },
                {
                  "internalType": "string",
                  "name": "image_url",
                  "type": "string"
                },
                {
                  "internalType": "string",
                  "name": "party_image_url",
                  "type": "string"
                }
              ],
              "internalType": "struct ElectionInfo.Candidate[]",
              "name": "candidates",
              "type": "tuple[]"
            },
            {
              "internalType": "string",
              "name": "image_url",
              "type": "string"
            },
            {
              "internalType": "uint256",
              "name": "totalVoted",
              "type": "uint256"
            },
            {
              "internalType": "enum ElectionInfo.Phase",
              "name": "currPhase",
              "type": "uint8"
            }
          ],
          "internalType": "struct ElectionInfo.returnElection",
          "name": "",
          "type": "tuple"
        }
      ],
      "stateMutability": "view",
      "type": "function"
    },
    {
      "inputs": [
        {
          "internalType": "uint256",
          "name": "_electionid",
          "type": "uint256"
        }
      ],
      "name": "getElectionResults",
      "outputs": [
        {
          "components": [
            {
              "internalType": "string",
              "name": "name",
              "type": "string"
            },
            {
              "internalType": "string",
              "name": "party",
              "type": "string"
            },
            {
              "internalType": "string",
              "name": "image_url",
              "type": "string"
            },
            {
              "internalType": "string",
              "name": "party_image_url",
              "type": "string"
            }
          ],
          "internalType": "struct ElectionInfo.Candidate[]",
          "name": "",
          "type": "tuple[]"
        },
        {
          "internalType": "uint256[]",
          "name": "",
          "type": "uint256[]"
        }
      ],
      "stateMutability": "view",
      "type": "function"
    },
    {
      "inputs": [
        {
          "internalType": "string",
          "name": "_aadhar",
          "type": "string"
        }
      ],
      "name": "getElections",
      "outputs": [
        {
          "components": [
            {
              "internalType": "uint256",
              "name": "id",
              "type": "uint256"
            },
            {
              "internalType": "string",
              "name": "name",
              "type": "string"
            },
            {
              "internalType": "uint256",
              "name": "start_date",
              "type": "uint256"
            },
            {
              "internalType": "uint256",
              "name": "end_date",
              "type": "uint256"
            },
            {
              "internalType": "uint256",
              "name": "noOfCandidates",
              "type": "uint256"
            },
            {
              "components": [
                {
                  "internalType": "string",
                  "name": "name",
                  "type": "string"
                },
                {
                  "internalType": "string",
                  "name": "party",
                  "type": "string"
                },
                {
                  "internalType": "string",
                  "name": "image_url",
                  "type": "string"
                },
                {
                  "internalType": "string",
                  "name": "party_image_url",
                  "type": "string"
                }
              ],
              "internalType": "struct ElectionInfo.Candidate[]",
              "name": "candidates",
              "type": "tuple[]"
            },
            {
              "internalType": "string",
              "name": "image_url",
              "type": "string"
            },
            {
              "internalType": "uint256",
              "name": "totalVoted",
              "type": "uint256"
            },
            {
              "internalType": "enum ElectionInfo.Phase",
              "name": "currPhase",
              "type": "uint8"
            }
          ],
          "internalType": "struct ElectionInfo.returnElection[]",
          "name": "",
          "type": "tuple[]"
        }
      ],
      "stateMutability": "view",
      "type": "function"
    },
    {
      "inputs": [],
      "name": "getPhase",
      "outputs": [
        {
          "internalType": "enum ElectionInfo.Phase[]",
          "name": "",
          "type": "uint8[]"
        }
      ],
      "stateMutability": "view",
      "type": "function"
    },
    {
      "inputs": [
        {
          "internalType": "string",
          "name": "_aadhar",
          "type": "string"
        }
      ],
      "name": "getUser",
      "outputs": [
        {
          "components": [
            {
              "internalType": "uint256",
              "name": "userId",
              "type": "uint256"
            },
            {
              "internalType": "string",
              "name": "name",
              "type": "string"
            },
            {
              "internalType": "string",
              "name": "dob",
              "type": "string"
            },
            {
              "internalType": "bytes32",
              "name": "aadharHash",
              "type": "bytes32"
            },
            {
              "internalType": "uint256",
              "name": "noOfElections",
              "type": "uint256"
            },
            {
              "internalType": "uint256[]",
              "name": "elections",
              "type": "uint256[]"
            }
          ],
          "internalType": "struct UserInfo.User",
          "name": "",
          "type": "tuple"
        }
      ],
      "stateMutability": "view",
      "type": "function"
    },
    {
      "inputs": [
        {
          "internalType": "string",
          "name": "_aadhar",
          "type": "string"
        }
      ],
      "name": "hashAadhar",
      "outputs": [
        {
          "internalType": "bytes32",
          "name": "",
          "type": "bytes32"
        }
      ],
      "stateMutability": "pure",
      "type": "function"
    },
    {
      "inputs": [
        {
          "internalType": "string",
          "name": "_name",
          "type": "string"
        },
        {
          "internalType": "string",
          "name": "_image_url",
          "type": "string"
        },
        {
          "internalType": "uint256",
          "name": "_start_date",
          "type": "uint256"
        },
        {
          "internalType": "uint256",
          "name": "_end_date",
          "type": "uint256"
        },
        {
          "internalType": "string",
          "name": "_aadhar",
          "type": "string"
        }
      ],
      "name": "init",
      "outputs": [
        {
          "internalType": "uint256",
          "name": "",
          "type": "uint256"
        }
      ],
      "stateMutability": "nonpayable",
      "type": "function"
    },
    {
      "inputs": [],
      "name": "initializer",
      "outputs": [],
      "stateMutability": "nonpayable",
      "type": "function"
    },
    {
      "inputs": [],
      "name": "noOfUsers",
      "outputs": [
        {
          "internalType": "uint256",
          "name": "",
          "type": "uint256"
        }
      ],
      "stateMutability": "view",
      "type": "function"
    },
    {
      "inputs": [],
      "name": "numberOfElections",
      "outputs": [
        {
          "internalType": "uint256",
          "name": "",
          "type": "uint256"
        }
      ],
      "stateMutability": "view",
      "type": "function"
    },
    {
      "inputs": [
        {
          "internalType": "uint256",
          "name": "_electionid",
          "type": "uint256"
        },
        {
          "internalType": "string",
          "name": "_aadhar",
          "type": "string"
        },
        {
          "internalType": "string",
          "name": "_password",
          "type": "string"
        }
      ],
      "name": "startVoting",
      "outputs": [],
      "stateMutability": "nonpayable",
      "type": "function"
    }
  ],
  "bytecode": "0x608060405234801561001057600080fd5b50612d6a806100206000396000f3fe608060405234801561001057600080fd5b506004361061012c5760003560e01c80637fd5f268116100ad578063c6958b1211610071578063c6958b12146102a3578063cdc389f6146102c3578063dec65678146102cc578063e8ededa6146102df578063eced02801461030057600080fd5b80637fd5f2681461023857806392721cff1461024d578063929f78d21461026d5780639bd7d56f146102805780639ce110d71461029357600080fd5b806331feb671116100f457806331feb671146101b8578063450a0a4b146101d857806353812c8c146101eb5780635e6fef01146101fe5780636f7fcddb1461022557600080fd5b8063012ab8f11461013157806301934a831461015957806305f2cb1a14610170578063075022721461019057806314e0d72b146101a5575b600080fd5b61014461013f36600461220e565b610315565b60405190151581526020015b60405180910390f35b61016260045481565b604051908152602001610150565b61018361017e366004612271565b610398565b6040516101509190612322565b6101a361019e36600461233c565b6103e2565b005b6101626101b33660046123a8565b61041c565b6101cb6101c63660046123a8565b61044c565b6040516101509190612440565b6101626101e63660046124e8565b6106ab565b6101626101f9366004612583565b610803565b61021161020c366004612641565b610956565b604051610150989796959493929190612692565b6101626102333660046126f5565b610aac565b610240610ba9565b60405161015091906128b3565b61026061025b366004612915565b610c4f565b6040516101509190612951565b61024061027b3660046123a8565b610f7f565b6101a361028e36600461233c565b6110cf565b6101a36001600481905560009055565b6102b66102b1366004612641565b611104565b6040516101509190612964565b61016260015481565b6101a36102da366004612977565b6114f3565b6102f26102ed366004612641565b611535565b604051610150929190612a76565b6103086118c0565b6040516101509190612a9b565b6000806103218461041c565b9050826040516020016103349190612ae6565b60408051601f198184030181528282528051602091820120600085815260038352929092209192610366929101612b37565b60405160208183030381529060405280519060200120141561038c576001915050610392565b60009150505b92915050565b60606103a48383610315565b15156001146103ce5760405162461bcd60e51b81526004016103c590612bd3565b60405180910390fd5b6103d9858585611984565b95945050505050565b6103ec8282610315565b151560011461040d5760405162461bcd60e51b81526004016103c590612bd3565b6104178383611c05565b505050565b60008160405160200161042f9190612ae6565b604051602081830303815290604052805190602001209050919050565b6104886040518060c001604052806000815260200160608152602001606081526020016000801916815260200160008152602001606081525090565b60006104938361041c565b60008181526002602052604090206003015490915081146104e55760405162461bcd60e51b815260206004820152600c60248201526b24b73b30b634b2103ab9b2b960a11b60448201526064016103c5565b6000600260008381526020019081526020016000209050806040518060c00160405290816000820154815260200160018201805461052290612b02565b80601f016020809104026020016040519081016040528092919081815260200182805461054e90612b02565b801561059b5780601f106105705761010080835404028352916020019161059b565b820191906000526020600020905b81548152906001019060200180831161057e57829003601f168201915b505050505081526020016002820180546105b490612b02565b80601f01602080910402602001604051908101604052809291908181526020018280546105e090612b02565b801561062d5780601f106106025761010080835404028352916020019161062d565b820191906000526020600020905b81548152906001019060200180831161061057829003601f168201915b5050505050815260200160038201548152602001600482015481526020016005820180548060200260200160405190810160405280929190818152602001828054801561069957602002820191906000526020600020905b815481526020019060010190808311610685575b50505050508152505092505050919050565b600154600090815260208190526040812042851161071b5760405162461bcd60e51b815260206004820152602760248201527f54686520737461727420646174652073686f756c64206265206461746520696e6044820152662066757475726560c81b60648201526084016103c5565b8484116107815760405162461bcd60e51b815260206004820152602e60248201527f54686520656e6420646174652073686f756c64206265206168656164206f662060448201526d746865207374617274206461746560901b60648201526084016103c5565b865161079390829060208a0190612077565b5060018101859055600281018490556107ab8361041c565b600a82015560098101805460ff191690556000600782018190556003820181905560018054916107da83612c19565b909155505085516107f49060068301906020890190612077565b50506001549695505050505050565b60008061080f8761041c565b60008181526002602052604090206003015490915081146108615760405162461bcd60e51b815260206004820152600c60248201526b24b73b30b634b2103ab9b2b960a11b60448201526064016103c5565b61086b8784610315565b151560011461088c5760405162461bcd60e51b81526004016103c590612bd3565b8385106108e75760405162461bcd60e51b8152602060048201526024808201527f537461727420446174652073686f756c64206265206265666f726520456e64206044820152634461746560e01b60648201526084016103c5565b600081815260026020526040812060040180549161090483612c19565b91905055506000600161091a888b89898d6106ab565b6109249190612c34565b600092835260026020908152604084206005018054600181018255908552932090920182905550979650505050505050565b60006020819052908152604090208054819061097190612b02565b80601f016020809104026020016040519081016040528092919081815260200182805461099d90612b02565b80156109ea5780601f106109bf576101008083540402835291602001916109ea565b820191906000526020600020905b8154815290600101906020018083116109cd57829003601f168201915b505050505090806001015490806002015490806003015490806006018054610a1190612b02565b80601f0160208091040260200160405190810160405280929190818152602001828054610a3d90612b02565b8015610a8a5780601f10610a5f57610100808354040283529160200191610a8a565b820191906000526020600020905b815481529060010190602001808311610a6d57829003601f168201915b5050505060078301546009840154600a909401549293909260ff909116915088565b600080610ab88461041c565b600081815260026020526040902060030154909150811415610b1c5760405162461bcd60e51b815260206004820152601c60248201527f416164686172732063616e6e6f74206265207573656420616761696e0000000060448201526064016103c5565b600081815260026020908152604090912087519091610b429160018401918a0190612077565b508551610b589060028301906020890190612077565b506003808201839055600060048084018290555483558381526020918252604090208551610b8892870190612077565b5060048054906000610b9983612c19565b9091555091979650505050505050565b606060006001546001600160401b03811115610bc757610bc761216c565b604051908082528060200260200182016040528015610c0057816020015b610bed6120fb565b815260200190600190039081610be55790505b50905060005b600154811015610c4957610c1981611104565b828281518110610c2b57610c2b612c4b565b60200260200101819052508080610c4190612c19565b915050610c06565b50919050565b606082826001548210610c745760405162461bcd60e51b81526004016103c590612c61565b6000828152602081905260409020600a0154610c8f8261041c565b14610cac5760405162461bcd60e51b81526004016103c590612c8e565b6001548510610ccd5760405162461bcd60e51b81526004016103c590612c61565b60008581526020818152604080832060040180548251818502810185019093528083529193909284015b82821015610f715783829060005260206000209060040201604051806080016040529081600082018054610d2a90612b02565b80601f0160208091040260200160405190810160405280929190818152602001828054610d5690612b02565b8015610da35780601f10610d7857610100808354040283529160200191610da3565b820191906000526020600020905b815481529060010190602001808311610d8657829003601f168201915b50505050508152602001600182018054610dbc90612b02565b80601f0160208091040260200160405190810160405280929190818152602001828054610de890612b02565b8015610e355780601f10610e0a57610100808354040283529160200191610e35565b820191906000526020600020905b815481529060010190602001808311610e1857829003601f168201915b50505050508152602001600282018054610e4e90612b02565b80601f0160208091040260200160405190810160405280929190818152602001828054610e7a90612b02565b8015610ec75780601f10610e9c57610100808354040283529160200191610ec7565b820191906000526020600020905b815481529060010190602001808311610eaa57829003601f168201915b50505050508152602001600382018054610ee090612b02565b80601f0160208091040260200160405190810160405280929190818152602001828054610f0c90612b02565b8015610f595780601f10610f2e57610100808354040283529160200191610f59565b820191906000526020600020905b815481529060010190602001808311610f3c57829003601f168201915b50505050508152505081526020019060010190610cf7565b505050509250505092915050565b60606000610f8c8361041c565b6000818152600260205260409020600301549091508114610fde5760405162461bcd60e51b815260206004820152600c60248201526b24b73b30b634b2102ab9b2b960a11b60448201526064016103c5565b6000818152600260205260408120600401546001600160401b038111156110075761100761216c565b60405190808252806020026020018201604052801561104057816020015b61102d6120fb565b8152602001906001900390816110255790505b50905060005b6000838152600260205260409020600401548110156110c7576000838152600260205260409020600501805461109791908390811061108757611087612c4b565b9060005260206000200154611104565b8282815181106110a9576110a9612c4b565b602002602001018190525080806110bf90612c19565b915050611046565b509392505050565b6110d98282610315565b15156001146110fa5760405162461bcd60e51b81526004016103c590612bd3565b6104178383611d05565b61110c6120fb565b600154821061112d5760405162461bcd60e51b81526004016103c590612c61565b6111356120fb565b828152600083815260208190526040902080546111d9919061115690612b02565b80601f016020809104026020016040519081016040528092919081815260200182805461118290612b02565b80156111cf5780601f106111a4576101008083540402835291602001916111cf565b820191906000526020600020905b8154815290600101906020018083116111b257829003601f168201915b5050505050611dfb565b60208083019190915260008481528082526040808220600181015491850191909152600281015460608501528582529152600301546001600160401b038111156112255761122561216c565b60405190808252806020026020018201604052801561128157816020015b61126e6040518060800160405280606081526020016060815260200160608152602001606081525090565b8152602001906001900390816112435790505b5060a082015260005b60008481526020819052604090206003015481101561145e576112e860008086815260200190815260200160002060040182815481106112cc576112cc612c4b565b9060005260206000209060040201600001805461115690612b02565b8260a0015182815181106112fe576112fe612c4b565b602002602001015160000181905250611352600080868152602001908152602001600020600401828154811061133657611336612c4b565b9060005260206000209060040201600101805461115690612b02565b8260a00151828151811061136857611368612c4b565b6020026020010151602001819052506113bc60008086815260200190815260200160002060040182815481106113a0576113a0612c4b565b9060005260206000209060040201600201805461115690612b02565b8260a0015182815181106113d2576113d2612c4b565b602002602001015160400181905250611426600080868152602001908152602001600020600401828154811061140a5761140a612c4b565b9060005260206000209060040201600301805461115690612b02565b8260a00151828151811061143c5761143c612c4b565b602002602001015160600181905250808061145690612c19565b91505061128a565b5060008381526020819052604090206006018054611480919061115690612b02565b60c08201526000838152602081815260408220600381015460808501528583529190526009015461010082019060ff1660028111156114c1576114c161265a565b908160028111156114d4576114d461265a565b9052506000928352602083905260409092206007015460e08301525090565b6114fd8282610315565b151560011461151e5760405162461bcd60e51b81526004016103c590612bd3565b61152c878787878787611e84565b50505050505050565b606080600283600154811061155c5760405162461bcd60e51b81526004016103c590612c61565b81600281111561156e5761156e61265a565b60008281526020819052604090206009015460ff1660028111156115945761159461265a565b146115b15760405162461bcd60e51b81526004016103c590612cf7565b600085815260208181526040808320600481018054835181860281018601909452808452909460059092019385929084015b8282101561185d578382906000526020600020906004020160405180608001604052908160008201805461161690612b02565b80601f016020809104026020016040519081016040528092919081815260200182805461164290612b02565b801561168f5780601f106116645761010080835404028352916020019161168f565b820191906000526020600020905b81548152906001019060200180831161167257829003601f168201915b505050505081526020016001820180546116a890612b02565b80601f01602080910402602001604051908101604052809291908181526020018280546116d490612b02565b80156117215780601f106116f657610100808354040283529160200191611721565b820191906000526020600020905b81548152906001019060200180831161170457829003601f168201915b5050505050815260200160028201805461173a90612b02565b80601f016020809104026020016040519081016040528092919081815260200182805461176690612b02565b80156117b35780601f10611788576101008083540402835291602001916117b3565b820191906000526020600020905b81548152906001019060200180831161179657829003601f168201915b505050505081526020016003820180546117cc90612b02565b80601f01602080910402602001604051908101604052809291908181526020018280546117f890612b02565b80156118455780601f1061181a57610100808354040283529160200191611845565b820191906000526020600020905b81548152906001019060200180831161182857829003601f168201915b505050505081525050815260200190600101906115e3565b505050509150808054806020026020016040519081016040528092919081815260200182805480156118ae57602002820191906000526020600020905b81548152602001906001019080831161189a575b50505050509050935093505050915091565b606060006001546001600160401b038111156118de576118de61216c565b604051908082528060200260200182016040528015611907578160200160208202803683370190505b50905060005b600154811015610c4957600081815260208190526040902060090154825160ff9091169083908390811061194357611943612c4b565b6020026020010190600281111561195c5761195c61265a565b9081600281111561196f5761196f61265a565b9052508061197c81612c19565b91505061190d565b606060018460015481106119aa5760405162461bcd60e51b81526004016103c590612c61565b8160028111156119bc576119bc61265a565b60008281526020819052604090206009015460ff1660028111156119e2576119e261265a565b146119ff5760405162461bcd60e51b81526004016103c590612cf7565b60008681526020819052604090206003015485108015611a1d575060015b611a605760405162461bcd60e51b8152602060048201526014602482015273125b9d985b1a590810d85b991a59185d1948125160621b60448201526064016103c5565b600080878152602001908152602001600020600801600085604051602001611a889190612ae6565b60408051601f198184030181529181528151602092830120835290820192909252016000205460ff1615611afe5760405162461bcd60e51b815260206004820152601760248201527f566f7465722068617320616c726561647920766f74656400000000000000000060448201526064016103c5565b6000868152602081905260409020600501805486908110611b2157611b21612c4b565b60009182526020822001805491611b3783612c19565b919050555060016000808881526020019081526020016000206008016000611b5e8761041c565b815260208082019290925260409081016000908120805460ff191694151594909417909355888352908290528120600701805491611b9b83612c19565b90915550506000868152602081815260409182902060050180548351818402810184019094528084529091830182828015611bf557602002820191906000526020600020905b815481526020019060010190808311611be1575b5050505050925050509392505050565b81816001548210611c285760405162461bcd60e51b81526004016103c590612c61565b6000828152602081905260409020600a0154611c438261041c565b14611c605760405162461bcd60e51b81526004016103c590612c8e565b6001846001548110611c845760405162461bcd60e51b81526004016103c590612c61565b816002811115611c9657611c9661265a565b60008281526020819052604090206009015460ff166002811115611cbc57611cbc61265a565b14611cd95760405162461bcd60e51b81526004016103c590612cf7565b600086815260208190526040902060090180546002919060ff19166001835b0217905550505050505050565b81816001548210611d285760405162461bcd60e51b81526004016103c590612c61565b6000828152602081905260409020600a0154611d438261041c565b14611d605760405162461bcd60e51b81526004016103c590612c8e565b6000846001548110611d845760405162461bcd60e51b81526004016103c590612c61565b816002811115611d9657611d9661265a565b60008281526020819052604090206009015460ff166002811115611dbc57611dbc61265a565b14611dd95760405162461bcd60e51b81526004016103c590612cf7565b600086815260208190526040902060090180546001919060ff19168280611cf8565b6060600082516001600160401b03811115611e1857611e1861216c565b6040519080825280601f01601f191660200182016040528015611e42576020820181803683370190505b50905060008351601f611e559190612d1c565b905060205b818111611e7b578481015183820152611e74602082612d1c565b9050611e5a565b50909392505050565b84816001548210611ea75760405162461bcd60e51b81526004016103c590612c61565b6000828152602081905260409020600a0154611ec28261041c565b14611edf5760405162461bcd60e51b81526004016103c590612c8e565b6000876001548110611f035760405162461bcd60e51b81526004016103c590612c61565b816002811115611f1557611f1561265a565b60008281526020819052604090206009015460ff166002811115611f3b57611f3b61265a565b14611f585760405162461bcd60e51b81526004016103c590612cf7565b611f836040518060800160405280606081526020016060815260200160608152602001606081525090565b8a815260208082018a905260408083018a90526060830189905260008c815280835290812060049081018054600181018255908352918390208451805186959490930290910192611fd992849290910190612077565b506020828101518051611ff29260018501920190612077565b506040820151805161200e916002840191602090910190612077565b506060820151805161202a916003840191602090910190612077565b50505060008a81526020818152604082206005810180546001810182559084529183209091018290558b825260030180549161206583612c19565b91905055505050505050505050505050565b82805461208390612b02565b90600052602060002090601f0160209004810192826120a557600085556120eb565b82601f106120be57805160ff19168380011785556120eb565b828001600101855582156120eb579182015b828111156120eb5782518255916020019190600101906120d0565b506120f7929150612157565b5090565b6040518061012001604052806000815260200160608152602001600081526020016000815260200160008152602001606081526020016060815260200160008152602001600060028111156121525761215261265a565b905290565b5b808211156120f75760008155600101612158565b634e487b7160e01b600052604160045260246000fd5b600082601f83011261219357600080fd5b81356001600160401b03808211156121ad576121ad61216c565b604051601f8301601f19908116603f011681019082821181831017156121d5576121d561216c565b816040528381528660208588010111156121ee57600080fd5b836020870160208301376000602085830101528094505050505092915050565b6000806040838503121561222157600080fd5b82356001600160401b038082111561223857600080fd5b61224486838701612182565b9350602085013591508082111561225a57600080fd5b5061226785828601612182565b9150509250929050565b6000806000806080858703121561228757600080fd5b843593506020850135925060408501356001600160401b03808211156122ac57600080fd5b6122b888838901612182565b935060608701359150808211156122ce57600080fd5b506122db87828801612182565b91505092959194509250565b600081518084526020808501945080840160005b83811015612317578151875295820195908201906001016122fb565b509495945050505050565b60208152600061233560208301846122e7565b9392505050565b60008060006060848603121561235157600080fd5b8335925060208401356001600160401b038082111561236f57600080fd5b61237b87838801612182565b9350604086013591508082111561239157600080fd5b5061239e86828701612182565b9150509250925092565b6000602082840312156123ba57600080fd5b81356001600160401b038111156123d057600080fd5b6123dc84828501612182565b949350505050565b60005b838110156123ff5781810151838201526020016123e7565b8381111561240e576000848401525b50505050565b6000815180845261242c8160208601602086016123e4565b601f01601f19169290920160200192915050565b600060208083528351818401528084015160c0604085015261246560e0850182612414565b90506040850151601f19808684030160608701526124838383612414565b606088015160808881019190915288015160a08089019190915288015187820390920160c088015281518082529185019350600092508401905b808310156124dd57835182529284019260019290920191908401906124bd565b509695505050505050565b600080600080600060a0868803121561250057600080fd5b85356001600160401b038082111561251757600080fd5b61252389838a01612182565b9650602088013591508082111561253957600080fd5b61254589838a01612182565b95506040880135945060608801359350608088013591508082111561256957600080fd5b5061257688828901612182565b9150509295509295909350565b60008060008060008060c0878903121561259c57600080fd5b86356001600160401b03808211156125b357600080fd5b6125bf8a838b01612182565b975060208901359150808211156125d557600080fd5b6125e18a838b01612182565b965060408901359150808211156125f757600080fd5b6126038a838b01612182565b9550606089013594506080890135935060a089013591508082111561262757600080fd5b5061263489828a01612182565b9150509295509295509295565b60006020828403121561265357600080fd5b5035919050565b634e487b7160e01b600052602160045260246000fd5b6003811061268e57634e487b7160e01b600052602160045260246000fd5b9052565b60006101008083526126a68184018c612414565b905089602084015288604084015287606084015282810360808401526126cc8188612414565b9150508460a08301526126e260c0830185612670565b8260e08301529998505050505050505050565b6000806000806080858703121561270b57600080fd5b84356001600160401b038082111561272257600080fd5b61272e88838901612182565b9550602087013591508082111561274457600080fd5b61275088838901612182565b945060408701359150808211156122ac57600080fd5b600081518084526020808501808196508360051b8101915082860160005b8581101561280a5782840389528151608081518187526127a682880182612414565b91505086820151868203888801526127be8282612414565b915050604080830151878303828901526127d88382612414565b92505050606080830151925086820381880152506127f68183612414565b9a87019a9550505090840190600101612784565b5091979650505050505050565b600061012082518452602083015181602086015261283782860182612414565b91505060408301516040850152606083015160608501526080830151608085015260a083015184820360a086015261286f8282612766565b91505060c083015184820360c08601526128898282612414565b91505060e083015160e0850152610100808401516128a982870182612670565b5090949350505050565b6000602080830181845280855180835260408601915060408160051b870101925083870160005b8281101561290857603f198886030184526128f6858351612817565b945092850192908501906001016128da565b5092979650505050505050565b6000806040838503121561292857600080fd5b8235915060208301356001600160401b0381111561294557600080fd5b61226785828601612182565b6020815260006123356020830184612766565b6020815260006123356020830184612817565b600080600080600080600060e0888a03121561299257600080fd5b87356001600160401b03808211156129a957600080fd5b6129b58b838c01612182565b985060208a0135975060408a01359150808211156129d257600080fd5b6129de8b838c01612182565b965060608a01359150808211156129f457600080fd5b612a008b838c01612182565b955060808a0135915080821115612a1657600080fd5b612a228b838c01612182565b945060a08a0135915080821115612a3857600080fd5b612a448b838c01612182565b935060c08a0135915080821115612a5a57600080fd5b50612a678a828b01612182565b91505092959891949750929550565b604081526000612a896040830185612766565b82810360208401526103d981856122e7565b6020808252825182820181905260009190848201906040850190845b81811015612ada57612aca838551612670565b9284019291840191600101612ab7565b50909695505050505050565b60008251612af88184602087016123e4565b9190910192915050565b600181811c90821680612b1657607f821691505b60208210811415610c4957634e487b7160e01b600052602260045260246000fd5b600080835481600182811c915080831680612b5357607f831692505b6020808410821415612b7357634e487b7160e01b86526022600452602486fd5b818015612b875760018114612b9857612bc5565b60ff19861689528489019650612bc5565b60008a81526020902060005b86811015612bbd5781548b820152908501908301612ba4565b505084890196505b509498975050505050505050565b602080825260169082015275155cd95c881b9bdd08185d5d1a195b9d1a58d85d195960521b604082015260600190565b634e487b7160e01b600052601160045260246000fd5b6000600019821415612c2d57612c2d612c03565b5060010190565b600082821015612c4657612c46612c03565b500390565b634e487b7160e01b600052603260045260246000fd5b602080825260139082015272125b9d985b1a5908115b1958dd1a5bdb881251606a1b604082015260600190565b60208082526043908201527f41636573732044656e6965642c796f75206172656e277420746865206f776e6560408201527f72206f662074686520656c656374696f6e2e20496e636f7272656374204161646060820152623430b960e91b608082015260a00190565b6020808252600b908201526a57726f6e6720706861736560a81b604082015260600190565b60008219821115612d2f57612d2f612c03565b50019056fea264697066735822122038379e2b019bb191766777517c947af9fdc11e4fc61483d0ecae2b22f1016d3364736f6c63430008090033",
  "linkReferences": {},
  "deployedLinkReferences": {}
}