{
  "_format": "hh-sol-artifact-1",
  "contractName": "UserInfo",
  "sourceName": "contracts/User.sol",
  "abi": [
    {
      "inputs": [
        {
          "internalType": "string",
          "name": "_name",
          "type": "string"
        },
        {
          "internalType": "uint256",
          "name": "_electionid",
          "type": "uint256"
        },
        {
          "internalType": "string",
          "name": "_party",
          "type": "string"
        },
        {
          "internalType": "string",
          "name": "_image_url",
          "type": "string"
        },
        {
          "internalType": "string",
          "name": "_party_image_url",
          "type": "string"
        }
      ],
      "name": "addCandidates",
      "outputs": [],
      "stateMutability": "nonpayable",
      "type": "function"
    },
    {
      "inputs": [
        {
          "internalType": "string",
          "name": "_aadhar",
          "type": "string"
        },
        {
          "internalType": "string",
          "name": "password",
          "type": "string"
        }
      ],
      "name": "checkCredentials",
      "outputs": [
        {
          "internalType": "bool",
          "name": "",
          "type": "bool"
        }
      ],
      "stateMutability": "view",
      "type": "function"
    },
    {
      "inputs": [
        {
          "internalType": "string",
          "name": "_image_url",
          "type": "string"
        },
        {
          "internalType": "string",
          "name": "_aadhar",
          "type": "string"
        },
        {
          "internalType": "string",
          "name": "_name",
          "type": "string"
        },
        {
          "internalType": "uint256",
          "name": "_start_date",
          "type": "uint256"
        },
        {
          "internalType": "uint256",
          "name": "_end_date",
          "type": "uint256"
        }
      ],
      "name": "createElection",
      "outputs": [
        {
          "internalType": "uint256",
          "name": "",
          "type": "uint256"
        }
      ],
      "stateMutability": "nonpayable",
      "type": "function"
    },
    {
      "inputs": [
        {
          "internalType": "string",
          "name": "_name",
          "type": "string"
        },
        {
          "internalType": "string",
          "name": "_dob",
          "type": "string"
        },
        {
          "internalType": "string",
          "name": "_aadhar",
          "type": "string"
        },
        {
          "internalType": "address",
          "name": "_addr",
          "type": "address"
        },
        {
          "internalType": "string",
          "name": "password",
          "type": "string"
        }
      ],
      "name": "createUser",
      "outputs": [
        {
          "internalType": "bytes32",
          "name": "",
          "type": "bytes32"
        }
      ],
      "stateMutability": "nonpayable",
      "type": "function"
    },
    {
      "inputs": [
        {
          "internalType": "uint256",
          "name": "_electionid",
          "type": "uint256"
        },
        {
          "internalType": "uint256",
          "name": "_candidateID",
          "type": "uint256"
        },
        {
          "internalType": "string",
          "name": "_aadhar",
          "type": "string"
        }
      ],
      "name": "doVote",
      "outputs": [
        {
          "internalType": "uint256[]",
          "name": "",
          "type": "uint256[]"
        }
      ],
      "stateMutability": "nonpayable",
      "type": "function"
    },
    {
      "inputs": [
        {
          "internalType": "uint256",
          "name": "",
          "type": "uint256"
        }
      ],
      "name": "elections",
      "outputs": [
        {
          "internalType": "string",
          "name": "name",
          "type": "string"
        },
        {
          "internalType": "uint256",
          "name": "start_date",
          "type": "uint256"
        },
        {
          "internalType": "uint256",
          "name": "end_date",
          "type": "uint256"
        },
        {
          "internalType": "uint256",
          "name": "noOfCandidates",
          "type": "uint256"
        },
        {
          "internalType": "string",
          "name": "image_url",
          "type": "string"
        },
        {
          "internalType": "uint256",
          "name": "totalVoted",
          "type": "uint256"
        },
        {
          "internalType": "enum ElectionInfo.Phase",
          "name": "currPhase",
          "type": "uint8"
        },
        {
          "internalType": "address",
          "name": "ownerAddress",
          "type": "address"
        }
      ],
      "stateMutability": "view",
      "type": "function"
    },
    {
      "inputs": [
        {
          "internalType": "uint256",
          "name": "_electionid",
          "type": "uint256"
        }
      ],
      "name": "endVoting",
      "outputs": [],
      "stateMutability": "nonpayable",
      "type": "function"
    },
    {
      "inputs": [],
      "name": "getAllElections",
      "outputs": [
        {
          "components": [
            {
              "internalType": "string",
              "name": "name",
              "type": "string"
            },
            {
              "internalType": "uint256",
              "name": "start_date",
              "type": "uint256"
            },
            {
              "internalType": "uint256",
              "name": "end_date",
              "type": "uint256"
            },
            {
              "internalType": "uint256",
              "name": "noOfCandidates",
              "type": "uint256"
            },
            {
              "components": [
                {
                  "internalType": "string",
                  "name": "name",
                  "type": "string"
                },
                {
                  "internalType": "string",
                  "name": "party",
                  "type": "string"
                },
                {
                  "internalType": "string",
                  "name": "image_url",
                  "type": "string"
                },
                {
                  "internalType": "string",
                  "name": "party_image_url",
                  "type": "string"
                }
              ],
              "internalType": "struct ElectionInfo.Candidate[]",
              "name": "candidates",
              "type": "tuple[]"
            },
            {
              "internalType": "string",
              "name": "image_url",
              "type": "string"
            },
            {
              "internalType": "uint256",
              "name": "totalVoted",
              "type": "uint256"
            },
            {
              "internalType": "enum ElectionInfo.Phase",
              "name": "currPhase",
              "type": "uint8"
            }
          ],
          "internalType": "struct ElectionInfo.returnElection[]",
          "name": "",
          "type": "tuple[]"
        }
      ],
      "stateMutability": "view",
      "type": "function"
    },
    {
      "inputs": [
        {
          "internalType": "uint256",
          "name": "_electionid",
          "type": "uint256"
        }
      ],
      "name": "getCandidates",
      "outputs": [
        {
          "components": [
            {
              "internalType": "string",
              "name": "name",
              "type": "string"
            },
            {
              "internalType": "string",
              "name": "party",
              "type": "string"
            },
            {
              "internalType": "string",
              "name": "image_url",
              "type": "string"
            },
            {
              "internalType": "string",
              "name": "party_image_url",
              "type": "string"
            }
          ],
          "internalType": "struct ElectionInfo.Candidate[]",
          "name": "",
          "type": "tuple[]"
        }
      ],
      "stateMutability": "view",
      "type": "function"
    },
    {
      "inputs": [
        {
          "internalType": "uint256",
          "name": "_id",
          "type": "uint256"
        }
      ],
      "name": "getElectionById",
      "outputs": [
        {
          "components": [
            {
              "internalType": "string",
              "name": "name",
              "type": "string"
            },
            {
              "internalType": "uint256",
              "name": "start_date",
              "type": "uint256"
            },
            {
              "internalType": "uint256",
              "name": "end_date",
              "type": "uint256"
            },
            {
              "internalType": "uint256",
              "name": "noOfCandidates",
              "type": "uint256"
            },
            {
              "components": [
                {
                  "internalType": "string",
                  "name": "name",
                  "type": "string"
                },
                {
                  "internalType": "string",
                  "name": "party",
                  "type": "string"
                },
                {
                  "internalType": "string",
                  "name": "image_url",
                  "type": "string"
                },
                {
                  "internalType": "string",
                  "name": "party_image_url",
                  "type": "string"
                }
              ],
              "internalType": "struct ElectionInfo.Candidate[]",
              "name": "candidates",
              "type": "tuple[]"
            },
            {
              "internalType": "string",
              "name": "image_url",
              "type": "string"
            },
            {
              "internalType": "uint256",
              "name": "totalVoted",
              "type": "uint256"
            },
            {
              "internalType": "enum ElectionInfo.Phase",
              "name": "currPhase",
              "type": "uint8"
            }
          ],
          "internalType": "struct ElectionInfo.returnElection",
          "name": "",
          "type": "tuple"
        }
      ],
      "stateMutability": "view",
      "type": "function"
    },
    {
      "inputs": [
        {
          "internalType": "uint256",
          "name": "_electionid",
          "type": "uint256"
        }
      ],
      "name": "getElectionResults",
      "outputs": [
        {
          "components": [
            {
              "internalType": "string",
              "name": "name",
              "type": "string"
            },
            {
              "internalType": "string",
              "name": "party",
              "type": "string"
            },
            {
              "internalType": "string",
              "name": "image_url",
              "type": "string"
            },
            {
              "internalType": "string",
              "name": "party_image_url",
              "type": "string"
            }
          ],
          "internalType": "struct ElectionInfo.Candidate[]",
          "name": "",
          "type": "tuple[]"
        },
        {
          "internalType": "uint256[]",
          "name": "",
          "type": "uint256[]"
        }
      ],
      "stateMutability": "view",
      "type": "function"
    },
    {
      "inputs": [
        {
          "internalType": "string",
          "name": "_aadhar",
          "type": "string"
        }
      ],
      "name": "getElections",
      "outputs": [
        {
          "internalType": "uint256[]",
          "name": "",
          "type": "uint256[]"
        }
      ],
      "stateMutability": "view",
      "type": "function"
    },
    {
      "inputs": [
        {
          "internalType": "string",
          "name": "_aadhar",
          "type": "string"
        },
        {
          "internalType": "address",
          "name": "_addr",
          "type": "address"
        }
      ],
      "name": "getUser",
      "outputs": [
        {
          "components": [
            {
              "internalType": "uint256",
              "name": "userId",
              "type": "uint256"
            },
            {
              "internalType": "string",
              "name": "name",
              "type": "string"
            },
            {
              "internalType": "string",
              "name": "dob",
              "type": "string"
            },
            {
              "internalType": "bytes32",
              "name": "aadharHash",
              "type": "bytes32"
            },
            {
              "internalType": "bytes32",
              "name": "metamaskHash",
              "type": "bytes32"
            },
            {
              "internalType": "uint256",
              "name": "noOfElections",
              "type": "uint256"
            },
            {
              "internalType": "uint256[]",
              "name": "elections",
              "type": "uint256[]"
            }
          ],
          "internalType": "struct UserInfo.User",
          "name": "",
          "type": "tuple"
        }
      ],
      "stateMutability": "view",
      "type": "function"
    },
    {
      "inputs": [
        {
          "internalType": "string",
          "name": "_aadhar",
          "type": "string"
        }
      ],
      "name": "hashAadhar",
      "outputs": [
        {
          "internalType": "bytes32",
          "name": "",
          "type": "bytes32"
        }
      ],
      "stateMutability": "pure",
      "type": "function"
    },
    {
      "inputs": [
        {
          "internalType": "string",
          "name": "_name",
          "type": "string"
        },
        {
          "internalType": "string",
          "name": "_image_url",
          "type": "string"
        },
        {
          "internalType": "uint256",
          "name": "_start_date",
          "type": "uint256"
        },
        {
          "internalType": "uint256",
          "name": "_end_date",
          "type": "uint256"
        }
      ],
      "name": "init",
      "outputs": [
        {
          "internalType": "uint256",
          "name": "",
          "type": "uint256"
        }
      ],
      "stateMutability": "nonpayable",
      "type": "function"
    },
    {
      "inputs": [],
      "name": "initializer",
      "outputs": [],
      "stateMutability": "nonpayable",
      "type": "function"
    },
    {
      "inputs": [],
      "name": "noOfUsers",
      "outputs": [
        {
          "internalType": "uint256",
          "name": "",
          "type": "uint256"
        }
      ],
      "stateMutability": "view",
      "type": "function"
    },
    {
      "inputs": [],
      "name": "numberOfElections",
      "outputs": [
        {
          "internalType": "uint256",
          "name": "",
          "type": "uint256"
        }
      ],
      "stateMutability": "view",
      "type": "function"
    },
    {
      "inputs": [
        {
          "internalType": "uint256",
          "name": "_electionid",
          "type": "uint256"
        }
      ],
      "name": "startVoting",
      "outputs": [],
      "stateMutability": "nonpayable",
      "type": "function"
    }
  ],
  "bytecode": "0x608060405234801561001057600080fd5b50612a92806100206000396000f3fe608060405234801561001057600080fd5b50600436106101215760003560e01c8063649f89a5116100ad578063b7c6fb6511610071578063b7c6fb6514610278578063c6958b1214610298578063cdc389f6146102b8578063e8ededa6146102c1578063ee50344a146102e257600080fd5b8063649f89a51461020d5780637fd5f2681461022057806387c8046414610235578063929f78d2146102485780639ce110d71461026857600080fd5b806319b99e03116100f457806319b99e031461018b578063244fac271461019e5780633d2f5bda146101b35780633e39a7a5146101c65780635e6fef01146101e657600080fd5b80630114effb14610126578063012ab8f11461014c57806301934a831461016f57806314e0d72b14610178575b600080fd5b6101396101343660046120c0565b6102f5565b6040519081526020015b60405180910390f35b61015f61015a36600461217e565b61040c565b6040519015158152602001610143565b61013960045481565b6101396101863660046121e2565b61048f565b61013961019936600461221f565b6104bf565b6101b16101ac3660046122b9565b610655565b005b6101b16101c1366004612340565b61084b565b6101d96101d4366004612340565b61094d565b6040516101439190612466565b6101f96101f4366004612340565b610c81565b6040516101439897969594939291906124b8565b6101b161021b366004612340565b610dde565b610228610eda565b60405161014391906125b5565b610139610243366004612617565b610f7b565b61025b6102563660046121e2565b6110d4565b60405161014391906126c6565b6101b16001600481905560009055565b61028b6102863660046126d9565b611197565b6040516101439190612727565b6102ab6102a6366004612340565b611474565b60405161014391906127b1565b61013960015481565b6102d46102cf366004612340565b61185b565b6040516101439291906127c4565b61025b6102f03660046127e9565b611be6565b6000806103018561048f565b60008181526002602052604090206003015490915081141561036a5760405162461bcd60e51b815260206004820152601c60248201527f416164686172732063616e6e6f74206265207573656420616761696e0000000060448201526064015b60405180910390fd5b6000818152600260209081526040909120885190916103909160018401918b0190611f13565b5086516103a690600283019060208a0190611f13565b50600381018290556103b785611e67565b6004808301919091556000600583018190559054825582815260036020908152604090912085516103ea92870190611f13565b50600480549060006103fb8361284f565b909155509198975050505050505050565b6000806104188461048f565b90508260405160200161042b919061286a565b60408051601f19818403018152828252805160209182012060008581526003835292909220919261045d9291016128bb565b604051602081830303815290604052805190602001201415610483576001915050610489565b60009150505b92915050565b6000816040516020016104a2919061286a565b604051602081830303815290604052805190602001209050919050565b6000806104cb8661048f565b600081815260026020526040902060030154909150811461051d5760405162461bcd60e51b815260206004820152600c60248201526b24b73b30b634b2103ab9b2b960a11b6044820152606401610361565b8284106105785760405162461bcd60e51b8152602060048201526024808201527f537461727420446174652073686f756c64206265206265666f726520456e64206044820152634461746560e01b6064820152608401610361565b600081815260026020908152604091829020915133916105ad9183910160609190911b6001600160601b031916815260140190565b604051602081830303815290604052805190602001208260040154146105e55760405162461bcd60e51b815260040161036190612957565b60008381526002602052604081206005018054916106028361284f565b919050555060006001610617898c8a8a610f7b565b61062191906129c5565b6000948552600260209081526040862060060180546001810182559087529520909401849055509198975050505050505050565b8360015481106106775760405162461bcd60e51b8152600401610361906129dc565b60008181526020819052604090206009015461010090046001600160a01b031633146106b55760405162461bcd60e51b815260040161036190612957565b60008560015481106106d95760405162461bcd60e51b8152600401610361906129dc565b8160028111156106eb576106eb612480565b60008281526020819052604090206009015460ff16600281111561071157610711612480565b1461072e5760405162461bcd60e51b815260040161036190612a09565b6107596040518060800160405280606081526020016060815260200160608152602001606081525090565b888152602080820188905260408083018890526060830187905260008a8152808352908120600490810180546001810182559083529183902084518051869594909302909101926107af92849290910190611f13565b5060208281015180516107c89260018501920190611f13565b50604082015180516107e4916002840191602090910190611f13565b5060608201518051610800916003840191602090910190611f13565b505050600088815260208181526040822060058101805460018101825590845291832090910182905589825260030180549161083b8361284f565b9190505550505050505050505050565b80600154811061086d5760405162461bcd60e51b8152600401610361906129dc565b60008181526020819052604090206009015461010090046001600160a01b031633146108ab5760405162461bcd60e51b815260040161036190612957565b60008260015481106108cf5760405162461bcd60e51b8152600401610361906129dc565b8160028111156108e1576108e1612480565b60008281526020819052604090206009015460ff16600281111561090757610907612480565b146109245760405162461bcd60e51b815260040161036190612a09565b600084815260208190526040902060090180546001919060ff191682805b021790555050505050565b60608160015481106109715760405162461bcd60e51b8152600401610361906129dc565b60008181526020819052604090206009015461010090046001600160a01b031633146109af5760405162461bcd60e51b815260040161036190612957565b60015483106109d05760405162461bcd60e51b8152600401610361906129dc565b60008381526020818152604080832060040180548251818502810185019093528083529193909284015b82821015610c745783829060005260206000209060040201604051806080016040529081600082018054610a2d90612886565b80601f0160208091040260200160405190810160405280929190818152602001828054610a5990612886565b8015610aa65780601f10610a7b57610100808354040283529160200191610aa6565b820191906000526020600020905b815481529060010190602001808311610a8957829003601f168201915b50505050508152602001600182018054610abf90612886565b80601f0160208091040260200160405190810160405280929190818152602001828054610aeb90612886565b8015610b385780601f10610b0d57610100808354040283529160200191610b38565b820191906000526020600020905b815481529060010190602001808311610b1b57829003601f168201915b50505050508152602001600282018054610b5190612886565b80601f0160208091040260200160405190810160405280929190818152602001828054610b7d90612886565b8015610bca5780601f10610b9f57610100808354040283529160200191610bca565b820191906000526020600020905b815481529060010190602001808311610bad57829003601f168201915b50505050508152602001600382018054610be390612886565b80601f0160208091040260200160405190810160405280929190818152602001828054610c0f90612886565b8015610c5c5780601f10610c3157610100808354040283529160200191610c5c565b820191906000526020600020905b815481529060010190602001808311610c3f57829003601f168201915b505050505081525050815260200190600101906109fa565b5050505091505b50919050565b600060208190529081526040902080548190610c9c90612886565b80601f0160208091040260200160405190810160405280929190818152602001828054610cc890612886565b8015610d155780601f10610cea57610100808354040283529160200191610d15565b820191906000526020600020905b815481529060010190602001808311610cf857829003601f168201915b505050505090806001015490806002015490806003015490806006018054610d3c90612886565b80601f0160208091040260200160405190810160405280929190818152602001828054610d6890612886565b8015610db55780601f10610d8a57610100808354040283529160200191610db5565b820191906000526020600020905b815481529060010190602001808311610d9857829003601f168201915b50505050600783015460099093015491929160ff8116915061010090046001600160a01b031688565b806001548110610e005760405162461bcd60e51b8152600401610361906129dc565b60008181526020819052604090206009015461010090046001600160a01b03163314610e3e5760405162461bcd60e51b815260040161036190612957565b6001826001548110610e625760405162461bcd60e51b8152600401610361906129dc565b816002811115610e7457610e74612480565b60008281526020819052604090206009015460ff166002811115610e9a57610e9a612480565b14610eb75760405162461bcd60e51b815260040161036190612a09565b600084815260208190526040902060090180546002919060ff1916600183610942565b6060600060015467ffffffffffffffff811115610ef957610ef9612001565b604051908082528060200260200182016040528015610f3257816020015b610f1f611f97565b815260200190600190039081610f175790505b50905060005b600154811015610c7b57610f4b81611474565b828281518110610f5d57610f5d612a2e565b60200260200101819052508080610f739061284f565b915050610f38565b6001546000908152602081905260408120428411610feb5760405162461bcd60e51b815260206004820152602760248201527f54686520737461727420646174652073686f756c64206265206461746520696e6044820152662066757475726560c81b6064820152608401610361565b8383116110515760405162461bcd60e51b815260206004820152602e60248201527f54686520656e6420646174652073686f756c64206265206168656164206f662060448201526d746865207374617274206461746560901b6064820152608401610361565b85516110639082906020890190611f13565b506001818101859055600282018490556009820180546001600160a81b031916336101000260ff191617905560006007830181905560038301819055815491906110ac8361284f565b909155505084516110c69060068301906020880190611f13565b505060015495945050505050565b606060006110e18361048f565b60008181526002602052604090206003015490915081146111335760405162461bcd60e51b815260206004820152600c60248201526b24b73b30b634b2102ab9b2b960a11b6044820152606401610361565b6000818152600260209081526040918290206006018054835181840281018401909452808452909183018282801561118a57602002820191906000526020600020905b815481526020019060010190808311611176575b5050505050915050919050565b6040805160e08101825260008082526060602083018190529282018390528282018190526080820181905260a082015260c081019190915260006111da8461048f565b600081815260026020526040902060030154909150811461122c5760405162461bcd60e51b815260206004820152600c60248201526b24b73b30b634b2103ab9b2b960a11b6044820152606401610361565b60008181526002602090815260409182902091516001600160601b0319606087901b1691810191909152603401604051602081830303815290604052805190602001208160040154146112ba5760405162461bcd60e51b815260206004820152601660248201527557726f6e67206d6574616d61736b206164647265737360501b6044820152606401610361565b806040518060e0016040529081600082015481526020016001820180546112e090612886565b80601f016020809104026020016040519081016040528092919081815260200182805461130c90612886565b80156113595780601f1061132e57610100808354040283529160200191611359565b820191906000526020600020905b81548152906001019060200180831161133c57829003601f168201915b5050505050815260200160028201805461137290612886565b80601f016020809104026020016040519081016040528092919081815260200182805461139e90612886565b80156113eb5780601f106113c0576101008083540402835291602001916113eb565b820191906000526020600020905b8154815290600101906020018083116113ce57829003601f168201915b505050505081526020016003820154815260200160048201548152602001600582015481526020016006820180548060200260200160405190810160405280929190818152602001828054801561146157602002820191906000526020600020905b81548152602001906001019080831161144d575b5050505050815250509250505092915050565b61147c611f97565b600154821061149d5760405162461bcd60e51b8152600401610361906129dc565b6114a5611f97565b6000838152602081905260409020805461154691906114c390612886565b80601f01602080910402602001604051908101604052809291908181526020018280546114ef90612886565b801561153c5780601f106115115761010080835404028352916020019161153c565b820191906000526020600020905b81548152906001019060200180831161151f57829003601f168201915b5050505050611e89565b81526000838152602081815260408083206001810154838601526002810154918501919091528583529190526003015467ffffffffffffffff81111561158e5761158e612001565b6040519080825280602002602001820160405280156115ea57816020015b6115d76040518060800160405280606081526020016060815260200160608152602001606081525090565b8152602001906001900390816115ac5790505b50608082015260005b6000848152602081905260409020600301548110156117c757611651600080868152602001908152602001600020600401828154811061163557611635612a2e565b906000526020600020906004020160000180546114c390612886565b8260800151828151811061166757611667612a2e565b6020026020010151600001819052506116bb600080868152602001908152602001600020600401828154811061169f5761169f612a2e565b906000526020600020906004020160010180546114c390612886565b826080015182815181106116d1576116d1612a2e565b602002602001015160200181905250611725600080868152602001908152602001600020600401828154811061170957611709612a2e565b906000526020600020906004020160020180546114c390612886565b8260800151828151811061173b5761173b612a2e565b60200260200101516040018190525061178f600080868152602001908152602001600020600401828154811061177357611773612a2e565b906000526020600020906004020160030180546114c390612886565b826080015182815181106117a5576117a5612a2e565b60200260200101516060018190525080806117bf9061284f565b9150506115f3565b50600083815260208190526040902060060180546117e991906114c390612886565b60a08201526000838152602081815260408220600381015460608501528583529190526009015460e082019060ff16600281111561182957611829612480565b9081600281111561183c5761183c612480565b9052506000928352602083905260409092206007015460c08301525090565b60608060028360015481106118825760405162461bcd60e51b8152600401610361906129dc565b81600281111561189457611894612480565b60008281526020819052604090206009015460ff1660028111156118ba576118ba612480565b146118d75760405162461bcd60e51b815260040161036190612a09565b600085815260208181526040808320600481018054835181860281018601909452808452909460059092019385929084015b82821015611b83578382906000526020600020906004020160405180608001604052908160008201805461193c90612886565b80601f016020809104026020016040519081016040528092919081815260200182805461196890612886565b80156119b55780601f1061198a576101008083540402835291602001916119b5565b820191906000526020600020905b81548152906001019060200180831161199857829003601f168201915b505050505081526020016001820180546119ce90612886565b80601f01602080910402602001604051908101604052809291908181526020018280546119fa90612886565b8015611a475780601f10611a1c57610100808354040283529160200191611a47565b820191906000526020600020905b815481529060010190602001808311611a2a57829003601f168201915b50505050508152602001600282018054611a6090612886565b80601f0160208091040260200160405190810160405280929190818152602001828054611a8c90612886565b8015611ad95780601f10611aae57610100808354040283529160200191611ad9565b820191906000526020600020905b815481529060010190602001808311611abc57829003601f168201915b50505050508152602001600382018054611af290612886565b80601f0160208091040260200160405190810160405280929190818152602001828054611b1e90612886565b8015611b6b5780601f10611b4057610100808354040283529160200191611b6b565b820191906000526020600020905b815481529060010190602001808311611b4e57829003601f168201915b50505050508152505081526020019060010190611909565b50505050915080805480602002602001604051908101604052809291908181526020018280548015611bd457602002820191906000526020600020905b815481526020019060010190808311611bc0575b50505050509050935093505050915091565b60606001846001548110611c0c5760405162461bcd60e51b8152600401610361906129dc565b816002811115611c1e57611c1e612480565b60008281526020819052604090206009015460ff166002811115611c4457611c44612480565b14611c615760405162461bcd60e51b815260040161036190612a09565b60008681526020819052604090206003015485108015611c7f575060015b611cc25760405162461bcd60e51b8152602060048201526014602482015273125b9d985b1a590810d85b991a59185d1948125160621b6044820152606401610361565b600080878152602001908152602001600020600801600085604051602001611cea919061286a565b60408051601f198184030181529181528151602092830120835290820192909252016000205460ff1615611d605760405162461bcd60e51b815260206004820152601760248201527f566f7465722068617320616c726561647920766f7465640000000000000000006044820152606401610361565b6000868152602081905260409020600501805486908110611d8357611d83612a2e565b60009182526020822001805491611d998361284f565b919050555060016000808881526020019081526020016000206008016000611dc08761048f565b815260208082019290925260409081016000908120805460ff191694151594909417909355888352908290528120600701805491611dfd8361284f565b90915550506000868152602081815260409182902060050180548351818402810184019094528084529091830182828015611e5757602002820191906000526020600020905b815481526020019060010190808311611e43575b5050505050925050509392505050565b6040516001600160601b0319606083901b1660208201526000906034016104a2565b60606000825167ffffffffffffffff811115611ea757611ea7612001565b6040519080825280601f01601f191660200182016040528015611ed1576020820181803683370190505b50905060008351601f611ee49190612a44565b905060205b818111611f0a578481015183820152611f03602082612a44565b9050611ee9565b50909392505050565b828054611f1f90612886565b90600052602060002090601f016020900481019282611f415760008555611f87565b82601f10611f5a57805160ff1916838001178555611f87565b82800160010185558215611f87579182015b82811115611f87578251825591602001919060010190611f6c565b50611f93929150611fec565b5090565b6040518061010001604052806060815260200160008152602001600081526020016000815260200160608152602001606081526020016000815260200160006002811115611fe757611fe7612480565b905290565b5b80821115611f935760008155600101611fed565b634e487b7160e01b600052604160045260246000fd5b600082601f83011261202857600080fd5b813567ffffffffffffffff8082111561204357612043612001565b604051601f8301601f19908116603f0116810190828211818310171561206b5761206b612001565b8160405283815286602085880101111561208457600080fd5b836020870160208301376000602085830101528094505050505092915050565b80356001600160a01b03811681146120bb57600080fd5b919050565b600080600080600060a086880312156120d857600080fd5b853567ffffffffffffffff808211156120f057600080fd5b6120fc89838a01612017565b9650602088013591508082111561211257600080fd5b61211e89838a01612017565b9550604088013591508082111561213457600080fd5b61214089838a01612017565b945061214e606089016120a4565b9350608088013591508082111561216457600080fd5b5061217188828901612017565b9150509295509295909350565b6000806040838503121561219157600080fd5b823567ffffffffffffffff808211156121a957600080fd5b6121b586838701612017565b935060208501359150808211156121cb57600080fd5b506121d885828601612017565b9150509250929050565b6000602082840312156121f457600080fd5b813567ffffffffffffffff81111561220b57600080fd5b61221784828501612017565b949350505050565b600080600080600060a0868803121561223757600080fd5b853567ffffffffffffffff8082111561224f57600080fd5b61225b89838a01612017565b9650602088013591508082111561227157600080fd5b61227d89838a01612017565b9550604088013591508082111561229357600080fd5b506122a088828901612017565b9598949750949560608101359550608001359392505050565b600080600080600060a086880312156122d157600080fd5b853567ffffffffffffffff808211156122e957600080fd5b6122f589838a01612017565b965060208801359550604088013591508082111561231257600080fd5b61231e89838a01612017565b9450606088013591508082111561233457600080fd5b61214e89838a01612017565b60006020828403121561235257600080fd5b5035919050565b60005b8381101561237457818101518382015260200161235c565b83811115612383576000848401525b50505050565b600081518084526123a1816020860160208601612359565b601f01601f19169290920160200192915050565b600081518084526020808501808196508360051b8101915082860160005b858110156124595782840389528151608081518187526123f582880182612389565b915050868201518682038888015261240d8282612389565b915050604080830151878303828901526124278382612389565b92505050606080830151925086820381880152506124458183612389565b9a87019a95505050908401906001016123d3565b5091979650505050505050565b60208152600061247960208301846123b5565b9392505050565b634e487b7160e01b600052602160045260246000fd5b600381106124b457634e487b7160e01b600052602160045260246000fd5b9052565b60006101008083526124cc8184018c612389565b905089602084015288604084015287606084015282810360808401526124f28188612389565b9150508460a083015261250860c0830185612496565b6001600160a01b039290921660e09190910152979650505050505050565b6000610100825181855261253c82860182612389565b9150506020830151602085015260408301516040850152606083015160608501526080830151848203608086015261257482826123b5565b91505060a083015184820360a086015261258e8282612389565b91505060c083015160c085015260e08301516125ad60e0860182612496565b509392505050565b6000602080830181845280855180835260408601915060408160051b870101925083870160005b8281101561260a57603f198886030184526125f8858351612526565b945092850192908501906001016125dc565b5092979650505050505050565b6000806000806080858703121561262d57600080fd5b843567ffffffffffffffff8082111561264557600080fd5b61265188838901612017565b9550602087013591508082111561266757600080fd5b5061267487828801612017565b949794965050505060408301359260600135919050565b600081518084526020808501945080840160005b838110156126bb5781518752958201959082019060010161269f565b509495945050505050565b602081526000612479602083018461268b565b600080604083850312156126ec57600080fd5b823567ffffffffffffffff81111561270357600080fd5b61270f85828601612017565b92505061271e602084016120a4565b90509250929050565b60208152815160208201526000602083015160e0604084015261274e610100840182612389565b90506040840151601f198085840301606086015261276c8383612389565b925060608601516080860152608086015160a086015260a086015160c086015260c08601519150808584030160e0860152506127a8828261268b565b95945050505050565b6020815260006124796020830184612526565b6040815260006127d760408301856123b5565b82810360208401526127a8818561268b565b6000806000606084860312156127fe57600080fd5b8335925060208401359150604084013567ffffffffffffffff81111561282357600080fd5b61282f86828701612017565b9150509250925092565b634e487b7160e01b600052601160045260246000fd5b600060001982141561286357612863612839565b5060010190565b6000825161287c818460208701612359565b9190910192915050565b600181811c9082168061289a57607f821691505b60208210811415610c7b57634e487b7160e01b600052602260045260246000fd5b600080835481600182811c9150808316806128d757607f831692505b60208084108214156128f757634e487b7160e01b86526022600452602486fd5b81801561290b576001811461291c57612949565b60ff19861689528489019650612949565b60008a81526020902060005b868110156129415781548b820152908501908301612928565b505084890196505b509498975050505050505050565b60208082526048908201527f41636573732044656e6965642c796f75206172656e277420746865206f776e6560408201527f72206f662074686520656c656374696f6e2e77726f6e67206d6574616d61736b606082015267206164647265737360c01b608082015260a00190565b6000828210156129d7576129d7612839565b500390565b602080825260139082015272125b9d985b1a5908115b1958dd1a5bdb881251606a1b604082015260600190565b6020808252600b908201526a57726f6e6720706861736560a81b604082015260600190565b634e487b7160e01b600052603260045260246000fd5b60008219821115612a5757612a57612839565b50019056fea2646970667358221220dc451791507edd83042affd139429212c4484d38019ced40f19bf1bcb6a7c73364736f6c63430008090033",
  "linkReferences": {},
  "deployedLinkReferences": {}
}