{
  "_format": "hh-sol-artifact-1",
  "contractName": "UserInfo",
  "sourceName": "contracts/User.sol",
  "abi": [
    {
      "inputs": [
        {
          "internalType": "string",
          "name": "_name",
          "type": "string"
        },
        {
          "internalType": "uint256",
          "name": "_electionid",
          "type": "uint256"
        },
        {
          "internalType": "string",
          "name": "_party",
          "type": "string"
        },
        {
          "internalType": "string",
          "name": "_image_url",
          "type": "string"
        },
        {
          "internalType": "string",
          "name": "_party_image_url",
          "type": "string"
        }
      ],
      "name": "addCandidates",
      "outputs": [],
      "stateMutability": "nonpayable",
      "type": "function"
    },
    {
      "inputs": [
        {
          "internalType": "uint256",
          "name": "_userid",
          "type": "uint256"
        },
        {
          "internalType": "string",
          "name": "_image_url",
          "type": "string"
        },
        {
          "internalType": "string",
          "name": "_aadhar",
          "type": "string"
        },
        {
          "internalType": "string",
          "name": "_name",
          "type": "string"
        },
        {
          "internalType": "uint256",
          "name": "_start_date",
          "type": "uint256"
        },
        {
          "internalType": "uint256",
          "name": "_end_date",
          "type": "uint256"
        }
      ],
      "name": "createElection",
      "outputs": [],
      "stateMutability": "nonpayable",
      "type": "function"
    },
    {
      "inputs": [
        {
          "internalType": "string",
          "name": "_name",
          "type": "string"
        },
        {
          "internalType": "string",
          "name": "_dob",
          "type": "string"
        },
        {
          "internalType": "string",
          "name": "_aadhar",
          "type": "string"
        },
        {
          "internalType": "address",
          "name": "_addr",
          "type": "address"
        }
      ],
      "name": "createUser",
      "outputs": [
        {
          "internalType": "uint256",
          "name": "",
          "type": "uint256"
        }
      ],
      "stateMutability": "nonpayable",
      "type": "function"
    },
    {
      "inputs": [
        {
          "internalType": "uint256",
          "name": "_electionid",
          "type": "uint256"
        },
        {
          "internalType": "uint256",
          "name": "_candidateID",
          "type": "uint256"
        },
        {
          "internalType": "string",
          "name": "_aadhar",
          "type": "string"
        }
      ],
      "name": "doVote",
      "outputs": [
        {
          "internalType": "uint256[]",
          "name": "",
          "type": "uint256[]"
        }
      ],
      "stateMutability": "nonpayable",
      "type": "function"
    },
    {
      "inputs": [
        {
          "internalType": "uint256",
          "name": "",
          "type": "uint256"
        }
      ],
      "name": "elections",
      "outputs": [
        {
          "internalType": "string",
          "name": "name",
          "type": "string"
        },
        {
          "internalType": "uint256",
          "name": "start_date",
          "type": "uint256"
        },
        {
          "internalType": "uint256",
          "name": "end_date",
          "type": "uint256"
        },
        {
          "internalType": "uint256",
          "name": "noOfCandidates",
          "type": "uint256"
        },
        {
          "internalType": "string",
          "name": "image_url",
          "type": "string"
        },
        {
          "internalType": "uint256",
          "name": "totalVoted",
          "type": "uint256"
        },
        {
          "internalType": "enum ElectionInfo.Phase",
          "name": "currPhase",
          "type": "uint8"
        },
        {
          "internalType": "address",
          "name": "ownerAddress",
          "type": "address"
        }
      ],
      "stateMutability": "view",
      "type": "function"
    },
    {
      "inputs": [
        {
          "internalType": "uint256",
          "name": "_electionid",
          "type": "uint256"
        }
      ],
      "name": "endVoting",
      "outputs": [],
      "stateMutability": "nonpayable",
      "type": "function"
    },
    {
      "inputs": [
        {
          "internalType": "uint256",
          "name": "_electionid",
          "type": "uint256"
        }
      ],
      "name": "getCandidates",
      "outputs": [
        {
          "components": [
            {
              "internalType": "string",
              "name": "name",
              "type": "string"
            },
            {
              "internalType": "string",
              "name": "party",
              "type": "string"
            },
            {
              "internalType": "string",
              "name": "image_url",
              "type": "string"
            },
            {
              "internalType": "string",
              "name": "party_image_url",
              "type": "string"
            }
          ],
          "internalType": "struct ElectionInfo.Candidate[]",
          "name": "",
          "type": "tuple[]"
        }
      ],
      "stateMutability": "view",
      "type": "function"
    },
    {
      "inputs": [
        {
          "internalType": "uint256",
          "name": "_electionid",
          "type": "uint256"
        }
      ],
      "name": "getElectionResults",
      "outputs": [
        {
          "components": [
            {
              "internalType": "string",
              "name": "name",
              "type": "string"
            },
            {
              "internalType": "string",
              "name": "party",
              "type": "string"
            },
            {
              "internalType": "string",
              "name": "image_url",
              "type": "string"
            },
            {
              "internalType": "string",
              "name": "party_image_url",
              "type": "string"
            }
          ],
          "internalType": "struct ElectionInfo.Candidate[]",
          "name": "",
          "type": "tuple[]"
        },
        {
          "internalType": "uint256[]",
          "name": "",
          "type": "uint256[]"
        }
      ],
      "stateMutability": "view",
      "type": "function"
    },
    {
      "inputs": [
        {
          "internalType": "uint256",
          "name": "_id",
          "type": "uint256"
        }
      ],
      "name": "getElections",
      "outputs": [
        {
          "internalType": "uint256[]",
          "name": "",
          "type": "uint256[]"
        }
      ],
      "stateMutability": "view",
      "type": "function"
    },
    {
      "inputs": [
        {
          "internalType": "uint256",
          "name": "_id",
          "type": "uint256"
        },
        {
          "internalType": "string",
          "name": "_aadhar",
          "type": "string"
        },
        {
          "internalType": "address",
          "name": "_addr",
          "type": "address"
        }
      ],
      "name": "getUser",
      "outputs": [
        {
          "components": [
            {
              "internalType": "uint256",
              "name": "userId",
              "type": "uint256"
            },
            {
              "internalType": "string",
              "name": "name",
              "type": "string"
            },
            {
              "internalType": "string",
              "name": "dob",
              "type": "string"
            },
            {
              "internalType": "bytes32",
              "name": "aadharHash",
              "type": "bytes32"
            },
            {
              "internalType": "bytes32",
              "name": "metamaskHash",
              "type": "bytes32"
            },
            {
              "internalType": "uint256",
              "name": "noOfElections",
              "type": "uint256"
            },
            {
              "internalType": "uint256[]",
              "name": "elections",
              "type": "uint256[]"
            }
          ],
          "internalType": "struct UserInfo.User",
          "name": "",
          "type": "tuple"
        }
      ],
      "stateMutability": "view",
      "type": "function"
    },
    {
      "inputs": [
        {
          "internalType": "string",
          "name": "_aadhar",
          "type": "string"
        }
      ],
      "name": "hashAadhar",
      "outputs": [
        {
          "internalType": "bytes32",
          "name": "",
          "type": "bytes32"
        }
      ],
      "stateMutability": "pure",
      "type": "function"
    },
    {
      "inputs": [
        {
          "internalType": "string",
          "name": "_name",
          "type": "string"
        },
        {
          "internalType": "string",
          "name": "_image_url",
          "type": "string"
        },
        {
          "internalType": "uint256",
          "name": "_start_date",
          "type": "uint256"
        },
        {
          "internalType": "uint256",
          "name": "_end_date",
          "type": "uint256"
        }
      ],
      "name": "init",
      "outputs": [
        {
          "internalType": "uint256",
          "name": "",
          "type": "uint256"
        }
      ],
      "stateMutability": "nonpayable",
      "type": "function"
    },
    {
      "inputs": [],
      "name": "initializer",
      "outputs": [],
      "stateMutability": "nonpayable",
      "type": "function"
    },
    {
      "inputs": [],
      "name": "noOfUsers",
      "outputs": [
        {
          "internalType": "uint256",
          "name": "",
          "type": "uint256"
        }
      ],
      "stateMutability": "view",
      "type": "function"
    },
    {
      "inputs": [],
      "name": "numberOfElections",
      "outputs": [
        {
          "internalType": "uint256",
          "name": "",
          "type": "uint256"
        }
      ],
      "stateMutability": "view",
      "type": "function"
    },
    {
      "inputs": [
        {
          "internalType": "uint256",
          "name": "_electionid",
          "type": "uint256"
        }
      ],
      "name": "startVoting",
      "outputs": [],
      "stateMutability": "nonpayable",
      "type": "function"
    }
  ],
  "bytecode": "0x608060405234801561001057600080fd5b506122ce806100206000396000f3fe608060405234801561001057600080fd5b50600436106101005760003560e01c806387c8046411610097578063cdc389f611610066578063cdc389f61461022b578063cdff0b7b14610234578063e8ededa614610247578063ee50344a1461026857600080fd5b806387c80464146101d6578063960dde81146101e95780639ce110d7146101fc578063b1c0fbf61461020b57600080fd5b80633e39a7a5116100d35780633e39a7a51461015c57806345a360211461017c5780635e6fef011461019c578063649f89a5146101c357600080fd5b806301934a831461010557806314e0d72b14610121578063244fac27146101345780633d2f5bda14610149575b600080fd5b61010e60035481565b6040519081526020015b60405180910390f35b61010e61012f366004611ae6565b61027b565b610147610142366004611b23565b6102ab565b005b610147610157366004611bda565b6104aa565b61016f61016a366004611bda565b6105ac565b6040516101189190611d03565b61018f61018a366004611d39565b6108e0565b6040516101189190611dcb565b6101af6101aa366004611bda565b610c0d565b604051610118989796959493929190611e6b565b6101476101d1366004611bda565b610d6a565b61010e6101e4366004611ef0565b610e66565b61010e6101f7366004611f64565b610fbf565b61014760006003819055600155565b61021e610219366004611bda565b6110fb565b6040516101189190611ffd565b61010e60015481565b610147610242366004612010565b6111a2565b61025a610255366004611bda565b61137c565b6040516101189291906120b4565b61021e6102763660046120d9565b611707565b60008160405160200161028e9190612129565b604051602081830303815290604052805190602001209050919050565b8360015481106102d65760405162461bcd60e51b81526004016102cd90612145565b60405180910390fd5b60008181526020819052604090206009015461010090046001600160a01b031633146103145760405162461bcd60e51b81526004016102cd90612172565b60008560015481106103385760405162461bcd60e51b81526004016102cd90612145565b81600281111561034a5761034a611e55565b60008281526020819052604090206009015460ff16600281111561037057610370611e55565b1461038d5760405162461bcd60e51b81526004016102cd906121e0565b6103b86040518060800160405280606081526020016060815260200160608152602001606081525090565b888152602080820188905260408083018890526060830187905260008a81528083529081206004908101805460018101825590835291839020845180518695949093029091019261040e928492909101906119aa565b50602082810151805161042792600185019201906119aa565b50604082015180516104439160028401916020909101906119aa565b506060820151805161045f9160038401916020909101906119aa565b505050600088815260208181526040822060058101805460018101825590845291832090910182905589825260030180549161049a8361221b565b9190505550505050505050505050565b8060015481106104cc5760405162461bcd60e51b81526004016102cd90612145565b60008181526020819052604090206009015461010090046001600160a01b0316331461050a5760405162461bcd60e51b81526004016102cd90612172565b600082600154811061052e5760405162461bcd60e51b81526004016102cd90612145565b81600281111561054057610540611e55565b60008281526020819052604090206009015460ff16600281111561056657610566611e55565b146105835760405162461bcd60e51b81526004016102cd906121e0565b600084815260208190526040902060090180546001919060ff191682805b021790555050505050565b60608160015481106105d05760405162461bcd60e51b81526004016102cd90612145565b60008181526020819052604090206009015461010090046001600160a01b0316331461060e5760405162461bcd60e51b81526004016102cd90612172565b600154831061062f5760405162461bcd60e51b81526004016102cd90612145565b60008381526020818152604080832060040180548251818502810185019093528083529193909284015b828210156108d3578382906000526020600020906004020160405180608001604052908160008201805461068c90612236565b80601f01602080910402602001604051908101604052809291908181526020018280546106b890612236565b80156107055780601f106106da57610100808354040283529160200191610705565b820191906000526020600020905b8154815290600101906020018083116106e857829003601f168201915b5050505050815260200160018201805461071e90612236565b80601f016020809104026020016040519081016040528092919081815260200182805461074a90612236565b80156107975780601f1061076c57610100808354040283529160200191610797565b820191906000526020600020905b81548152906001019060200180831161077a57829003601f168201915b505050505081526020016002820180546107b090612236565b80601f01602080910402602001604051908101604052809291908181526020018280546107dc90612236565b80156108295780601f106107fe57610100808354040283529160200191610829565b820191906000526020600020905b81548152906001019060200180831161080c57829003601f168201915b5050505050815260200160038201805461084290612236565b80601f016020809104026020016040519081016040528092919081815260200182805461086e90612236565b80156108bb5780601f10610890576101008083540402835291602001916108bb565b820191906000526020600020905b81548152906001019060200180831161089e57829003601f168201915b50505050508152505081526020019060010190610659565b5050505091505b50919050565b6040805160e08101825260008082526060602083018190529282018390528282018190526080820181905260a082015260c0810191909152600354841061095a5760405162461bcd60e51b815260206004820152600e60248201526d125b9d985b1a59081d5cd95c925160921b60448201526064016102cd565b600084815260026020908152604091829020915161097a91869101612129565b604051602081830303815290604052805190602001208160030154146109d85760405162461bcd60e51b81526020600482015260136024820152722bb937b7339030b0b23430b910373ab6b132b960691b60448201526064016102cd565b6040516001600160601b0319606085901b16602082015260340160405160208183030381529060405280519060200120816004015414610a535760405162461bcd60e51b815260206004820152601660248201527557726f6e67206d6574616d61736b206164647265737360501b60448201526064016102cd565b806040518060e001604052908160008201548152602001600182018054610a7990612236565b80601f0160208091040260200160405190810160405280929190818152602001828054610aa590612236565b8015610af25780601f10610ac757610100808354040283529160200191610af2565b820191906000526020600020905b815481529060010190602001808311610ad557829003601f168201915b50505050508152602001600282018054610b0b90612236565b80601f0160208091040260200160405190810160405280929190818152602001828054610b3790612236565b8015610b845780601f10610b5957610100808354040283529160200191610b84565b820191906000526020600020905b815481529060010190602001808311610b6757829003601f168201915b5050505050815260200160038201548152602001600482015481526020016005820154815260200160068201805480602002602001604051908101604052809291908181526020018280548015610bfa57602002820191906000526020600020905b815481526020019060010190808311610be6575b5050505050815250509150509392505050565b600060208190529081526040902080548190610c2890612236565b80601f0160208091040260200160405190810160405280929190818152602001828054610c5490612236565b8015610ca15780601f10610c7657610100808354040283529160200191610ca1565b820191906000526020600020905b815481529060010190602001808311610c8457829003601f168201915b505050505090806001015490806002015490806003015490806006018054610cc890612236565b80601f0160208091040260200160405190810160405280929190818152602001828054610cf490612236565b8015610d415780601f10610d1657610100808354040283529160200191610d41565b820191906000526020600020905b815481529060010190602001808311610d2457829003601f168201915b50505050600783015460099093015491929160ff8116915061010090046001600160a01b031688565b806001548110610d8c5760405162461bcd60e51b81526004016102cd90612145565b60008181526020819052604090206009015461010090046001600160a01b03163314610dca5760405162461bcd60e51b81526004016102cd90612172565b6001826001548110610dee5760405162461bcd60e51b81526004016102cd90612145565b816002811115610e0057610e00611e55565b60008281526020819052604090206009015460ff166002811115610e2657610e26611e55565b14610e435760405162461bcd60e51b81526004016102cd906121e0565b600084815260208190526040902060090180546002919060ff19166001836105a1565b6001546000908152602081905260408120428411610ed65760405162461bcd60e51b815260206004820152602760248201527f54686520737461727420646174652073686f756c64206265206461746520696e6044820152662066757475726560c81b60648201526084016102cd565b838311610f3c5760405162461bcd60e51b815260206004820152602e60248201527f54686520656e6420646174652073686f756c64206265206168656164206f662060448201526d746865207374617274206461746560901b60648201526084016102cd565b8551610f4e90829060208901906119aa565b506001818101859055600282018490556009820180546001600160a81b031916336101000260ff19161790556000600783018190556003830181905581549190610f978361221b565b90915550508451610fb190600683019060208801906119aa565b505060015495945050505050565b6000805b6003548110156110665783604051602001610fde9190612129565b60408051601f1981840301815291815281516020928301206000848152600290935291206003015414156110545760405162461bcd60e51b815260206004820152601c60248201527f416164686172732063616e6e6f74206265207573656420616761696e0000000060448201526064016102cd565b8061105e8161221b565b915050610fc3565b506003546000908152600260209081526040909120865190916110909160018401918901906119aa565b5084516110a690600283019060208801906119aa565b506110b08461027b565b60038201556110be83611988565b600482015560006005820181905560038054808455916110dd8361221b565b919050555060016003546110f1919061226b565b9695505050505050565b6060600354821061113f5760405162461bcd60e51b815260206004820152600e60248201526d125b9d985b1a5908155cd95c925160921b60448201526064016102cd565b6000828152600260209081526040918290206006018054835181840281018401909452808452909183018282801561119657602002820191906000526020600020905b815481526020019060010190808311611182575b50505050509050919050565b60035486106111e45760405162461bcd60e51b815260206004820152600e60248201526d125b9d985b1a59081d5cd95c925160921b60448201526064016102cd565b80821061123f5760405162461bcd60e51b8152602060048201526024808201527f537461727420446174652073686f756c64206265206265666f726520456e64206044820152634461746560e01b60648201526084016102cd565b6000868152600260209081526040918290209151339161126191889101612129565b604051602081830303815290604052805190602001208260030154146112bf5760405162461bcd60e51b81526020600482015260136024820152722bb937b7339030b0b23430b910373ab6b132b960691b60448201526064016102cd565b6040516001600160601b0319606083901b166020820152603401604051602081830303815290604052805190602001208260040154146113115760405162461bcd60e51b81526004016102cd90612172565b600088815260026020526040812060050180549161132e8361221b565b909155505060008881526002602052604090206006016001611352878a8888610e66565b61135c919061226b565b815460018101835560009283526020909220909101555050505050505050565b60608060028360015481106113a35760405162461bcd60e51b81526004016102cd90612145565b8160028111156113b5576113b5611e55565b60008281526020819052604090206009015460ff1660028111156113db576113db611e55565b146113f85760405162461bcd60e51b81526004016102cd906121e0565b600085815260208181526040808320600481018054835181860281018601909452808452909460059092019385929084015b828210156116a4578382906000526020600020906004020160405180608001604052908160008201805461145d90612236565b80601f016020809104026020016040519081016040528092919081815260200182805461148990612236565b80156114d65780601f106114ab576101008083540402835291602001916114d6565b820191906000526020600020905b8154815290600101906020018083116114b957829003601f168201915b505050505081526020016001820180546114ef90612236565b80601f016020809104026020016040519081016040528092919081815260200182805461151b90612236565b80156115685780601f1061153d57610100808354040283529160200191611568565b820191906000526020600020905b81548152906001019060200180831161154b57829003601f168201915b5050505050815260200160028201805461158190612236565b80601f01602080910402602001604051908101604052809291908181526020018280546115ad90612236565b80156115fa5780601f106115cf576101008083540402835291602001916115fa565b820191906000526020600020905b8154815290600101906020018083116115dd57829003601f168201915b5050505050815260200160038201805461161390612236565b80601f016020809104026020016040519081016040528092919081815260200182805461163f90612236565b801561168c5780601f106116615761010080835404028352916020019161168c565b820191906000526020600020905b81548152906001019060200180831161166f57829003601f168201915b5050505050815250508152602001906001019061142a565b505050509150808054806020026020016040519081016040528092919081815260200182805480156116f557602002820191906000526020600020905b8154815260200190600101908083116116e1575b50505050509050935093505050915091565b6060600184600154811061172d5760405162461bcd60e51b81526004016102cd90612145565b81600281111561173f5761173f611e55565b60008281526020819052604090206009015460ff16600281111561176557611765611e55565b146117825760405162461bcd60e51b81526004016102cd906121e0565b600086815260208190526040902060030154851080156117a0575060015b6117e35760405162461bcd60e51b8152602060048201526014602482015273125b9d985b1a590810d85b991a59185d1948125160621b60448201526064016102cd565b60008087815260200190815260200160002060080160008560405160200161180b9190612129565b60408051601f198184030181529181528151602092830120835290820192909252016000205460ff16156118815760405162461bcd60e51b815260206004820152601760248201527f566f7465722068617320616c726561647920766f74656400000000000000000060448201526064016102cd565b60008681526020819052604090206005018054869081106118a4576118a4612282565b600091825260208220018054916118ba8361221b565b9190505550600160008088815260200190815260200160002060080160006118e18761027b565b815260208082019290925260409081016000908120805460ff19169415159490941790935588835290829052812060070180549161191e8361221b565b9091555050600086815260208181526040918290206005018054835181840281018401909452808452909183018282801561197857602002820191906000526020600020905b815481526020019060010190808311611964575b5050505050925050509392505050565b6040516001600160601b0319606083901b16602082015260009060340161028e565b8280546119b690612236565b90600052602060002090601f0160209004810192826119d85760008555611a1e565b82601f106119f157805160ff1916838001178555611a1e565b82800160010185558215611a1e579182015b82811115611a1e578251825591602001919060010190611a03565b50611a2a929150611a2e565b5090565b5b80821115611a2a5760008155600101611a2f565b634e487b7160e01b600052604160045260246000fd5b600082601f830112611a6a57600080fd5b813567ffffffffffffffff80821115611a8557611a85611a43565b604051601f8301601f19908116603f01168101908282118183101715611aad57611aad611a43565b81604052838152866020858801011115611ac657600080fd5b836020870160208301376000602085830101528094505050505092915050565b600060208284031215611af857600080fd5b813567ffffffffffffffff811115611b0f57600080fd5b611b1b84828501611a59565b949350505050565b600080600080600060a08688031215611b3b57600080fd5b853567ffffffffffffffff80821115611b5357600080fd5b611b5f89838a01611a59565b9650602088013595506040880135915080821115611b7c57600080fd5b611b8889838a01611a59565b94506060880135915080821115611b9e57600080fd5b611baa89838a01611a59565b93506080880135915080821115611bc057600080fd5b50611bcd88828901611a59565b9150509295509295909350565b600060208284031215611bec57600080fd5b5035919050565b60005b83811015611c0e578181015183820152602001611bf6565b83811115611c1d576000848401525b50505050565b60008151808452611c3b816020860160208601611bf3565b601f01601f19169290920160200192915050565b600082825180855260208086019550808260051b84010181860160005b84811015611cf657601f19868403018952815160808151818652611c9282870182611c23565b9150508582015185820387870152611caa8282611c23565b91505060408083015186830382880152611cc48382611c23565b9250505060608083015192508582038187015250611ce28183611c23565b9a86019a9450505090830190600101611c6c565b5090979650505050505050565b602081526000611d166020830184611c4f565b9392505050565b80356001600160a01b0381168114611d3457600080fd5b919050565b600080600060608486031215611d4e57600080fd5b83359250602084013567ffffffffffffffff811115611d6c57600080fd5b611d7886828701611a59565b925050611d8760408501611d1d565b90509250925092565b600081518084526020808501945080840160005b83811015611dc057815187529582019590820190600101611da4565b509495945050505050565b60208152815160208201526000602083015160e06040840152611df2610100840182611c23565b90506040840151601f1980858403016060860152611e108383611c23565b925060608601516080860152608086015160a086015260a086015160c086015260c08601519150808584030160e086015250611e4c8282611d90565b95945050505050565b634e487b7160e01b600052602160045260246000fd5b6000610100808352611e7f8184018c611c23565b90508960208401528860408401528760608401528281036080840152611ea58188611c23565b9150508460a083015260038410611ecc57634e487b7160e01b600052602160045260246000fd5b60c08201939093526001600160a01b039190911660e0909101529695505050505050565b60008060008060808587031215611f0657600080fd5b843567ffffffffffffffff80821115611f1e57600080fd5b611f2a88838901611a59565b95506020870135915080821115611f4057600080fd5b50611f4d87828801611a59565b949794965050505060408301359260600135919050565b60008060008060808587031215611f7a57600080fd5b843567ffffffffffffffff80821115611f9257600080fd5b611f9e88838901611a59565b95506020870135915080821115611fb457600080fd5b611fc088838901611a59565b94506040870135915080821115611fd657600080fd5b50611fe387828801611a59565b925050611ff260608601611d1d565b905092959194509250565b602081526000611d166020830184611d90565b60008060008060008060c0878903121561202957600080fd5b86359550602087013567ffffffffffffffff8082111561204857600080fd5b6120548a838b01611a59565b9650604089013591508082111561206a57600080fd5b6120768a838b01611a59565b9550606089013591508082111561208c57600080fd5b5061209989828a01611a59565b9350506080870135915060a087013590509295509295509295565b6040815260006120c76040830185611c4f565b8281036020840152611e4c8185611d90565b6000806000606084860312156120ee57600080fd5b8335925060208401359150604084013567ffffffffffffffff81111561211357600080fd5b61211f86828701611a59565b9150509250925092565b6000825161213b818460208701611bf3565b9190910192915050565b602080825260139082015272125b9d985b1a5908115b1958dd1a5bdb881251606a1b604082015260600190565b60208082526048908201527f41636573732044656e6965642c796f75206172656e277420746865206f776e6560408201527f72206f662074686520656c656374696f6e2e77726f6e67206d6574616d61736b606082015267206164647265737360c01b608082015260a00190565b6020808252600b908201526a57726f6e6720706861736560a81b604082015260600190565b634e487b7160e01b600052601160045260246000fd5b600060001982141561222f5761222f612205565b5060010190565b600181811c9082168061224a57607f821691505b602082108114156108da57634e487b7160e01b600052602260045260246000fd5b60008282101561227d5761227d612205565b500390565b634e487b7160e01b600052603260045260246000fdfea26469706673582212208c0d6660dcf812ec17952c4d60b74ae57a30fc280bc22f11adefd2ba4da2bf1564736f6c63430008090033",
  "linkReferences": {},
  "deployedLinkReferences": {}
}