{
  "_format": "hh-sol-artifact-1",
  "contractName": "ElectionInfo",
  "sourceName": "contracts/Election.sol",
  "abi": [
    {
      "inputs": [
        {
          "internalType": "string",
          "name": "_name",
          "type": "string"
        },
        {
          "internalType": "uint256",
          "name": "_electionid",
          "type": "uint256"
        },
        {
          "internalType": "string",
          "name": "_party",
          "type": "string"
        },
        {
          "internalType": "string",
          "name": "_image_url",
          "type": "string"
        },
        {
          "internalType": "string",
          "name": "_party_image_url",
          "type": "string"
        }
      ],
      "name": "addCandidates",
      "outputs": [],
      "stateMutability": "nonpayable",
      "type": "function"
    },
    {
      "inputs": [
        {
          "internalType": "uint256",
          "name": "_electionid",
          "type": "uint256"
        },
        {
          "internalType": "uint256",
          "name": "_candidateID",
          "type": "uint256"
        },
        {
          "internalType": "string",
          "name": "_aadhar",
          "type": "string"
        }
      ],
      "name": "doVote",
      "outputs": [
        {
          "internalType": "uint256[]",
          "name": "",
          "type": "uint256[]"
        }
      ],
      "stateMutability": "nonpayable",
      "type": "function"
    },
    {
      "inputs": [
        {
          "internalType": "uint256",
          "name": "",
          "type": "uint256"
        }
      ],
      "name": "elections",
      "outputs": [
        {
          "internalType": "string",
          "name": "name",
          "type": "string"
        },
        {
          "internalType": "uint256",
          "name": "start_date",
          "type": "uint256"
        },
        {
          "internalType": "uint256",
          "name": "end_date",
          "type": "uint256"
        },
        {
          "internalType": "uint256",
          "name": "noOfCandidates",
          "type": "uint256"
        },
        {
          "internalType": "string",
          "name": "image_url",
          "type": "string"
        },
        {
          "internalType": "uint256",
          "name": "totalVoted",
          "type": "uint256"
        },
        {
          "internalType": "enum ElectionInfo.Phase",
          "name": "currPhase",
          "type": "uint8"
        },
        {
          "internalType": "address",
          "name": "ownerAddress",
          "type": "address"
        }
      ],
      "stateMutability": "view",
      "type": "function"
    },
    {
      "inputs": [
        {
          "internalType": "uint256",
          "name": "_electionid",
          "type": "uint256"
        }
      ],
      "name": "endVoting",
      "outputs": [],
      "stateMutability": "nonpayable",
      "type": "function"
    },
    {
      "inputs": [],
      "name": "getAllElections",
      "outputs": [
        {
          "components": [
            {
              "internalType": "string",
              "name": "name",
              "type": "string"
            },
            {
              "internalType": "uint256",
              "name": "start_date",
              "type": "uint256"
            },
            {
              "internalType": "uint256",
              "name": "end_date",
              "type": "uint256"
            },
            {
              "internalType": "uint256",
              "name": "noOfCandidates",
              "type": "uint256"
            },
            {
              "components": [
                {
                  "internalType": "string",
                  "name": "name",
                  "type": "string"
                },
                {
                  "internalType": "string",
                  "name": "party",
                  "type": "string"
                },
                {
                  "internalType": "string",
                  "name": "image_url",
                  "type": "string"
                },
                {
                  "internalType": "string",
                  "name": "party_image_url",
                  "type": "string"
                }
              ],
              "internalType": "struct ElectionInfo.Candidate[]",
              "name": "candidates",
              "type": "tuple[]"
            },
            {
              "internalType": "string",
              "name": "image_url",
              "type": "string"
            },
            {
              "internalType": "uint256",
              "name": "totalVoted",
              "type": "uint256"
            },
            {
              "internalType": "enum ElectionInfo.Phase",
              "name": "currPhase",
              "type": "uint8"
            }
          ],
          "internalType": "struct ElectionInfo.returnElection[]",
          "name": "",
          "type": "tuple[]"
        }
      ],
      "stateMutability": "view",
      "type": "function"
    },
    {
      "inputs": [
        {
          "internalType": "uint256",
          "name": "_electionid",
          "type": "uint256"
        }
      ],
      "name": "getCandidates",
      "outputs": [
        {
          "components": [
            {
              "internalType": "string",
              "name": "name",
              "type": "string"
            },
            {
              "internalType": "string",
              "name": "party",
              "type": "string"
            },
            {
              "internalType": "string",
              "name": "image_url",
              "type": "string"
            },
            {
              "internalType": "string",
              "name": "party_image_url",
              "type": "string"
            }
          ],
          "internalType": "struct ElectionInfo.Candidate[]",
          "name": "",
          "type": "tuple[]"
        }
      ],
      "stateMutability": "view",
      "type": "function"
    },
    {
      "inputs": [
        {
          "internalType": "uint256",
          "name": "_id",
          "type": "uint256"
        }
      ],
      "name": "getElectionById",
      "outputs": [
        {
          "components": [
            {
              "internalType": "string",
              "name": "name",
              "type": "string"
            },
            {
              "internalType": "uint256",
              "name": "start_date",
              "type": "uint256"
            },
            {
              "internalType": "uint256",
              "name": "end_date",
              "type": "uint256"
            },
            {
              "internalType": "uint256",
              "name": "noOfCandidates",
              "type": "uint256"
            },
            {
              "components": [
                {
                  "internalType": "string",
                  "name": "name",
                  "type": "string"
                },
                {
                  "internalType": "string",
                  "name": "party",
                  "type": "string"
                },
                {
                  "internalType": "string",
                  "name": "image_url",
                  "type": "string"
                },
                {
                  "internalType": "string",
                  "name": "party_image_url",
                  "type": "string"
                }
              ],
              "internalType": "struct ElectionInfo.Candidate[]",
              "name": "candidates",
              "type": "tuple[]"
            },
            {
              "internalType": "string",
              "name": "image_url",
              "type": "string"
            },
            {
              "internalType": "uint256",
              "name": "totalVoted",
              "type": "uint256"
            },
            {
              "internalType": "enum ElectionInfo.Phase",
              "name": "currPhase",
              "type": "uint8"
            }
          ],
          "internalType": "struct ElectionInfo.returnElection",
          "name": "",
          "type": "tuple"
        }
      ],
      "stateMutability": "view",
      "type": "function"
    },
    {
      "inputs": [
        {
          "internalType": "uint256",
          "name": "_electionid",
          "type": "uint256"
        }
      ],
      "name": "getElectionResults",
      "outputs": [
        {
          "components": [
            {
              "internalType": "string",
              "name": "name",
              "type": "string"
            },
            {
              "internalType": "string",
              "name": "party",
              "type": "string"
            },
            {
              "internalType": "string",
              "name": "image_url",
              "type": "string"
            },
            {
              "internalType": "string",
              "name": "party_image_url",
              "type": "string"
            }
          ],
          "internalType": "struct ElectionInfo.Candidate[]",
          "name": "",
          "type": "tuple[]"
        },
        {
          "internalType": "uint256[]",
          "name": "",
          "type": "uint256[]"
        }
      ],
      "stateMutability": "view",
      "type": "function"
    },
    {
      "inputs": [
        {
          "internalType": "string",
          "name": "_aadhar",
          "type": "string"
        }
      ],
      "name": "hashAadhar",
      "outputs": [
        {
          "internalType": "bytes32",
          "name": "",
          "type": "bytes32"
        }
      ],
      "stateMutability": "pure",
      "type": "function"
    },
    {
      "inputs": [
        {
          "internalType": "string",
          "name": "_name",
          "type": "string"
        },
        {
          "internalType": "string",
          "name": "_image_url",
          "type": "string"
        },
        {
          "internalType": "uint256",
          "name": "_start_date",
          "type": "uint256"
        },
        {
          "internalType": "uint256",
          "name": "_end_date",
          "type": "uint256"
        }
      ],
      "name": "init",
      "outputs": [
        {
          "internalType": "uint256",
          "name": "",
          "type": "uint256"
        }
      ],
      "stateMutability": "nonpayable",
      "type": "function"
    },
    {
      "inputs": [],
      "name": "numberOfElections",
      "outputs": [
        {
          "internalType": "uint256",
          "name": "",
          "type": "uint256"
        }
      ],
      "stateMutability": "view",
      "type": "function"
    },
    {
      "inputs": [
        {
          "internalType": "uint256",
          "name": "_electionid",
          "type": "uint256"
        }
      ],
      "name": "startVoting",
      "outputs": [],
      "stateMutability": "nonpayable",
      "type": "function"
    }
  ],
  "bytecode": "0x608060405234801561001057600080fd5b50612013806100206000396000f3fe608060405234801561001057600080fd5b50600436106100b45760003560e01c80637fd5f268116100715780637fd5f2681461016157806387c8046414610176578063c6958b1214610189578063cdc389f6146101a9578063e8ededa6146101b2578063ee50344a146101d357600080fd5b806314e0d72b146100b9578063244fac27146100df5780633d2f5bda146100f45780633e39a7a5146101075780635e6fef0114610127578063649f89a51461014e575b600080fd5b6100cc6100c73660046118b9565b6101f3565b6040519081526020015b60405180910390f35b6100f26100ed3660046118f6565b610223565b005b6100f26101023660046119ad565b610422565b61011a6101153660046119ad565b610524565b6040516100d69190611ad0565b61013a6101353660046119ad565b610858565b6040516100d6989796959493929190611b22565b6100f261015c3660046119ad565b6109b5565b610169610ab1565b6040516100d69190611cb8565b6100cc610184366004611d1a565b610b52565b61019c6101973660046119ad565b610cab565b6040516100d69190611d8e565b6100cc60015481565b6101c56101c03660046119ad565b611092565b6040516100d6929190611ddc565b6101e66101e1366004611e0a565b61141d565b6040516100d69190611e5a565b6000816040516020016102069190611e6d565b604051602081830303815290604052805190602001209050919050565b83600154811061024e5760405162461bcd60e51b815260040161024590611e89565b60405180910390fd5b60008181526020819052604090206009015461010090046001600160a01b0316331461028c5760405162461bcd60e51b815260040161024590611eb6565b60008560015481106102b05760405162461bcd60e51b815260040161024590611e89565b8160028111156102c2576102c2611aea565b60008281526020819052604090206009015460ff1660028111156102e8576102e8611aea565b146103055760405162461bcd60e51b815260040161024590611f24565b6103306040518060800160405280606081526020016060815260200160608152602001606081525090565b888152602080820188905260408083018890526060830187905260008a81528083529081206004908101805460018101825590835291839020845180518695949093029091019261038692849290910190611728565b50602082810151805161039f9260018501920190611728565b50604082015180516103bb916002840191602090910190611728565b50606082015180516103d7916003840191602090910190611728565b505050600088815260208181526040822060058101805460018101825590845291832090910182905589825260030180549161041283611f5f565b9190505550505050505050505050565b8060015481106104445760405162461bcd60e51b815260040161024590611e89565b60008181526020819052604090206009015461010090046001600160a01b031633146104825760405162461bcd60e51b815260040161024590611eb6565b60008260015481106104a65760405162461bcd60e51b815260040161024590611e89565b8160028111156104b8576104b8611aea565b60008281526020819052604090206009015460ff1660028111156104de576104de611aea565b146104fb5760405162461bcd60e51b815260040161024590611f24565b600084815260208190526040902060090180546001919060ff191682805b021790555050505050565b60608160015481106105485760405162461bcd60e51b815260040161024590611e89565b60008181526020819052604090206009015461010090046001600160a01b031633146105865760405162461bcd60e51b815260040161024590611eb6565b60015483106105a75760405162461bcd60e51b815260040161024590611e89565b60008381526020818152604080832060040180548251818502810185019093528083529193909284015b8282101561084b578382906000526020600020906004020160405180608001604052908160008201805461060490611f7a565b80601f016020809104026020016040519081016040528092919081815260200182805461063090611f7a565b801561067d5780601f106106525761010080835404028352916020019161067d565b820191906000526020600020905b81548152906001019060200180831161066057829003601f168201915b5050505050815260200160018201805461069690611f7a565b80601f01602080910402602001604051908101604052809291908181526020018280546106c290611f7a565b801561070f5780601f106106e45761010080835404028352916020019161070f565b820191906000526020600020905b8154815290600101906020018083116106f257829003601f168201915b5050505050815260200160028201805461072890611f7a565b80601f016020809104026020016040519081016040528092919081815260200182805461075490611f7a565b80156107a15780601f10610776576101008083540402835291602001916107a1565b820191906000526020600020905b81548152906001019060200180831161078457829003601f168201915b505050505081526020016003820180546107ba90611f7a565b80601f01602080910402602001604051908101604052809291908181526020018280546107e690611f7a565b80156108335780601f1061080857610100808354040283529160200191610833565b820191906000526020600020905b81548152906001019060200180831161081657829003601f168201915b505050505081525050815260200190600101906105d1565b5050505091505b50919050565b60006020819052908152604090208054819061087390611f7a565b80601f016020809104026020016040519081016040528092919081815260200182805461089f90611f7a565b80156108ec5780601f106108c1576101008083540402835291602001916108ec565b820191906000526020600020905b8154815290600101906020018083116108cf57829003601f168201915b50505050509080600101549080600201549080600301549080600601805461091390611f7a565b80601f016020809104026020016040519081016040528092919081815260200182805461093f90611f7a565b801561098c5780601f106109615761010080835404028352916020019161098c565b820191906000526020600020905b81548152906001019060200180831161096f57829003601f168201915b50505050600783015460099093015491929160ff8116915061010090046001600160a01b031688565b8060015481106109d75760405162461bcd60e51b815260040161024590611e89565b60008181526020819052604090206009015461010090046001600160a01b03163314610a155760405162461bcd60e51b815260040161024590611eb6565b6001826001548110610a395760405162461bcd60e51b815260040161024590611e89565b816002811115610a4b57610a4b611aea565b60008281526020819052604090206009015460ff166002811115610a7157610a71611aea565b14610a8e5760405162461bcd60e51b815260040161024590611f24565b600084815260208190526040902060090180546002919060ff1916600183610519565b6060600060015467ffffffffffffffff811115610ad057610ad0611816565b604051908082528060200260200182016040528015610b0957816020015b610af66117ac565b815260200190600190039081610aee5790505b50905060005b60015481101561085257610b2281610cab565b828281518110610b3457610b34611faf565b60200260200101819052508080610b4a90611f5f565b915050610b0f565b6001546000908152602081905260408120428411610bc25760405162461bcd60e51b815260206004820152602760248201527f54686520737461727420646174652073686f756c64206265206461746520696e6044820152662066757475726560c81b6064820152608401610245565b838311610c285760405162461bcd60e51b815260206004820152602e60248201527f54686520656e6420646174652073686f756c64206265206168656164206f662060448201526d746865207374617274206461746560901b6064820152608401610245565b8551610c3a9082906020890190611728565b506001818101859055600282018490556009820180546001600160a81b031916336101000260ff19161790556000600783018190556003830181905581549190610c8383611f5f565b90915550508451610c9d9060068301906020880190611728565b505060015495945050505050565b610cb36117ac565b6001548210610cd45760405162461bcd60e51b815260040161024590611e89565b610cdc6117ac565b60008381526020819052604090208054610d7d9190610cfa90611f7a565b80601f0160208091040260200160405190810160405280929190818152602001828054610d2690611f7a565b8015610d735780601f10610d4857610100808354040283529160200191610d73565b820191906000526020600020905b815481529060010190602001808311610d5657829003601f168201915b505050505061169e565b81526000838152602081815260408083206001810154838601526002810154918501919091528583529190526003015467ffffffffffffffff811115610dc557610dc5611816565b604051908082528060200260200182016040528015610e2157816020015b610e0e6040518060800160405280606081526020016060815260200160608152602001606081525090565b815260200190600190039081610de35790505b50608082015260005b600084815260208190526040902060030154811015610ffe57610e886000808681526020019081526020016000206004018281548110610e6c57610e6c611faf565b90600052602060002090600402016000018054610cfa90611f7a565b82608001518281518110610e9e57610e9e611faf565b602002602001015160000181905250610ef26000808681526020019081526020016000206004018281548110610ed657610ed6611faf565b90600052602060002090600402016001018054610cfa90611f7a565b82608001518281518110610f0857610f08611faf565b602002602001015160200181905250610f5c6000808681526020019081526020016000206004018281548110610f4057610f40611faf565b90600052602060002090600402016002018054610cfa90611f7a565b82608001518281518110610f7257610f72611faf565b602002602001015160400181905250610fc66000808681526020019081526020016000206004018281548110610faa57610faa611faf565b90600052602060002090600402016003018054610cfa90611f7a565b82608001518281518110610fdc57610fdc611faf565b6020026020010151606001819052508080610ff690611f5f565b915050610e2a565b50600083815260208190526040902060060180546110209190610cfa90611f7a565b60a08201526000838152602081815260408220600381015460608501528583529190526009015460e082019060ff16600281111561106057611060611aea565b9081600281111561107357611073611aea565b9052506000928352602083905260409092206007015460c08301525090565b60608060028360015481106110b95760405162461bcd60e51b815260040161024590611e89565b8160028111156110cb576110cb611aea565b60008281526020819052604090206009015460ff1660028111156110f1576110f1611aea565b1461110e5760405162461bcd60e51b815260040161024590611f24565b600085815260208181526040808320600481018054835181860281018601909452808452909460059092019385929084015b828210156113ba578382906000526020600020906004020160405180608001604052908160008201805461117390611f7a565b80601f016020809104026020016040519081016040528092919081815260200182805461119f90611f7a565b80156111ec5780601f106111c1576101008083540402835291602001916111ec565b820191906000526020600020905b8154815290600101906020018083116111cf57829003601f168201915b5050505050815260200160018201805461120590611f7a565b80601f016020809104026020016040519081016040528092919081815260200182805461123190611f7a565b801561127e5780601f106112535761010080835404028352916020019161127e565b820191906000526020600020905b81548152906001019060200180831161126157829003601f168201915b5050505050815260200160028201805461129790611f7a565b80601f01602080910402602001604051908101604052809291908181526020018280546112c390611f7a565b80156113105780601f106112e557610100808354040283529160200191611310565b820191906000526020600020905b8154815290600101906020018083116112f357829003601f168201915b5050505050815260200160038201805461132990611f7a565b80601f016020809104026020016040519081016040528092919081815260200182805461135590611f7a565b80156113a25780601f10611377576101008083540402835291602001916113a2565b820191906000526020600020905b81548152906001019060200180831161138557829003601f168201915b50505050508152505081526020019060010190611140565b5050505091508080548060200260200160405190810160405280929190818152602001828054801561140b57602002820191906000526020600020905b8154815260200190600101908083116113f7575b50505050509050935093505050915091565b606060018460015481106114435760405162461bcd60e51b815260040161024590611e89565b81600281111561145557611455611aea565b60008281526020819052604090206009015460ff16600281111561147b5761147b611aea565b146114985760405162461bcd60e51b815260040161024590611f24565b600086815260208190526040902060030154851080156114b6575060015b6114f95760405162461bcd60e51b8152602060048201526014602482015273125b9d985b1a590810d85b991a59185d1948125160621b6044820152606401610245565b6000808781526020019081526020016000206008016000856040516020016115219190611e6d565b60408051601f198184030181529181528151602092830120835290820192909252016000205460ff16156115975760405162461bcd60e51b815260206004820152601760248201527f566f7465722068617320616c726561647920766f7465640000000000000000006044820152606401610245565b60008681526020819052604090206005018054869081106115ba576115ba611faf565b600091825260208220018054916115d083611f5f565b9190505550600160008088815260200190815260200160002060080160006115f7876101f3565b815260208082019290925260409081016000908120805460ff19169415159490941790935588835290829052812060070180549161163483611f5f565b9091555050600086815260208181526040918290206005018054835181840281018401909452808452909183018282801561168e57602002820191906000526020600020905b81548152602001906001019080831161167a575b5050505050925050509392505050565b60606000825167ffffffffffffffff8111156116bc576116bc611816565b6040519080825280601f01601f1916602001820160405280156116e6576020820181803683370190505b50905060008351601f6116f99190611fc5565b905060205b81811161171f578481015183820152611718602082611fc5565b90506116fe565b50909392505050565b82805461173490611f7a565b90600052602060002090601f016020900481019282611756576000855561179c565b82601f1061176f57805160ff191683800117855561179c565b8280016001018555821561179c579182015b8281111561179c578251825591602001919060010190611781565b506117a8929150611801565b5090565b60405180610100016040528060608152602001600081526020016000815260200160008152602001606081526020016060815260200160008152602001600060028111156117fc576117fc611aea565b905290565b5b808211156117a85760008155600101611802565b634e487b7160e01b600052604160045260246000fd5b600082601f83011261183d57600080fd5b813567ffffffffffffffff8082111561185857611858611816565b604051601f8301601f19908116603f0116810190828211818310171561188057611880611816565b8160405283815286602085880101111561189957600080fd5b836020870160208301376000602085830101528094505050505092915050565b6000602082840312156118cb57600080fd5b813567ffffffffffffffff8111156118e257600080fd5b6118ee8482850161182c565b949350505050565b600080600080600060a0868803121561190e57600080fd5b853567ffffffffffffffff8082111561192657600080fd5b61193289838a0161182c565b965060208801359550604088013591508082111561194f57600080fd5b61195b89838a0161182c565b9450606088013591508082111561197157600080fd5b61197d89838a0161182c565b9350608088013591508082111561199357600080fd5b506119a08882890161182c565b9150509295509295909350565b6000602082840312156119bf57600080fd5b5035919050565b60005b838110156119e15781810151838201526020016119c9565b838111156119f0576000848401525b50505050565b60008151808452611a0e8160208601602086016119c6565b601f01601f19169290920160200192915050565b6000815180845260208085019450848260051b860182860160005b85811015611ac3578383038952815160808151818652611a5f828701826119f6565b9150508682015185820388870152611a7782826119f6565b91505060408083015186830382880152611a9183826119f6565b9250505060608083015192508582038187015250611aaf81836119f6565b9a87019a9450505090840190600101611a3d565b5090979650505050505050565b602081526000611ae36020830184611a22565b9392505050565b634e487b7160e01b600052602160045260246000fd5b60038110611b1e57634e487b7160e01b600052602160045260246000fd5b9052565b6000610100808352611b368184018c6119f6565b90508960208401528860408401528760608401528281036080840152611b5c81886119f6565b9150508460a0830152611b7260c0830185611b00565b6001600160a01b039290921660e09190910152979650505050505050565b60006101008251818552611ba6828601826119f6565b915050602080840151818601526040808501518187015260608086015181880152608080870151888603828a01528581518088528688019150868160051b890101878401935060005b82811015611c7057898203601f1901845284518051878452611c13888501826119f6565b90508a8201518482038c860152611c2a82826119f6565b915050898201518482038b860152611c4282826119f6565b91505088820151915083810389850152611c5c81836119f6565b968b0196958b019593505050600101611bef565b5060a08b015198508b810360a08d0152611c8a818a6119f6565b9850505050505050505060c083015160c085015260e0830151611cb060e0860182611b00565b509392505050565b6000602080830181845280855180835260408601915060408160051b870101925083870160005b82811015611d0d57603f19888603018452611cfb858351611b90565b94509285019290850190600101611cdf565b5092979650505050505050565b60008060008060808587031215611d3057600080fd5b843567ffffffffffffffff80821115611d4857600080fd5b611d548883890161182c565b95506020870135915080821115611d6a57600080fd5b50611d778782880161182c565b949794965050505060408301359260600135919050565b602081526000611ae36020830184611b90565b600081518084526020808501945080840160005b83811015611dd157815187529582019590820190600101611db5565b509495945050505050565b604081526000611def6040830185611a22565b8281036020840152611e018185611da1565b95945050505050565b600080600060608486031215611e1f57600080fd5b8335925060208401359150604084013567ffffffffffffffff811115611e4457600080fd5b611e508682870161182c565b9150509250925092565b602081526000611ae36020830184611da1565b60008251611e7f8184602087016119c6565b9190910192915050565b602080825260139082015272125b9d985b1a5908115b1958dd1a5bdb881251606a1b604082015260600190565b60208082526048908201527f41636573732044656e6965642c796f75206172656e277420746865206f776e6560408201527f72206f662074686520656c656374696f6e2e77726f6e67206d6574616d61736b606082015267206164647265737360c01b608082015260a00190565b6020808252600b908201526a57726f6e6720706861736560a81b604082015260600190565b634e487b7160e01b600052601160045260246000fd5b6000600019821415611f7357611f73611f49565b5060010190565b600181811c90821680611f8e57607f821691505b6020821081141561085257634e487b7160e01b600052602260045260246000fd5b634e487b7160e01b600052603260045260246000fd5b60008219821115611fd857611fd8611f49565b50019056fea264697066735822122084f0840fb40116e0797298afb2b715024c84f509462760d5119d257a542c5da164736f6c63430008090033",
  "linkReferences": {},
  "deployedLinkReferences": {}
}