{
  "_format": "hh-sol-artifact-1",
  "contractName": "ElectionInfo",
  "sourceName": "contracts/Election.sol",
  "abi": [
    {
      "inputs": [
        {
          "internalType": "string",
          "name": "_name",
          "type": "string"
        },
        {
          "internalType": "uint256",
          "name": "_electionid",
          "type": "uint256"
        },
        {
          "internalType": "string",
          "name": "_party",
          "type": "string"
        },
        {
          "internalType": "string",
          "name": "_image_url",
          "type": "string"
        },
        {
          "internalType": "string",
          "name": "_party_image_url",
          "type": "string"
        }
      ],
      "name": "addCandidates",
      "outputs": [],
      "stateMutability": "nonpayable",
      "type": "function"
    },
    {
      "inputs": [
        {
          "internalType": "uint256",
          "name": "_electionid",
          "type": "uint256"
        },
        {
          "internalType": "uint256",
          "name": "_candidateID",
          "type": "uint256"
        },
        {
          "internalType": "string",
          "name": "_aadhar",
          "type": "string"
        }
      ],
      "name": "doVote",
      "outputs": [
        {
          "internalType": "uint256[]",
          "name": "",
          "type": "uint256[]"
        }
      ],
      "stateMutability": "nonpayable",
      "type": "function"
    },
    {
      "inputs": [
        {
          "internalType": "uint256",
          "name": "",
          "type": "uint256"
        }
      ],
      "name": "elections",
      "outputs": [
        {
          "internalType": "string",
          "name": "name",
          "type": "string"
        },
        {
          "internalType": "uint256",
          "name": "start_date",
          "type": "uint256"
        },
        {
          "internalType": "uint256",
          "name": "end_date",
          "type": "uint256"
        },
        {
          "internalType": "uint256",
          "name": "noOfCandidates",
          "type": "uint256"
        },
        {
          "internalType": "string",
          "name": "image_url",
          "type": "string"
        },
        {
          "internalType": "uint256",
          "name": "totalVoted",
          "type": "uint256"
        },
        {
          "internalType": "enum ElectionInfo.Phase",
          "name": "currPhase",
          "type": "uint8"
        },
        {
          "internalType": "address",
          "name": "ownerAddress",
          "type": "address"
        }
      ],
      "stateMutability": "view",
      "type": "function"
    },
    {
      "inputs": [
        {
          "internalType": "uint256",
          "name": "_electionid",
          "type": "uint256"
        }
      ],
      "name": "endVoting",
      "outputs": [],
      "stateMutability": "nonpayable",
      "type": "function"
    },
    {
      "inputs": [
        {
          "internalType": "uint256",
          "name": "_electionid",
          "type": "uint256"
        }
      ],
      "name": "getCandidates",
      "outputs": [
        {
          "components": [
            {
              "internalType": "string",
              "name": "name",
              "type": "string"
            },
            {
              "internalType": "string",
              "name": "party",
              "type": "string"
            },
            {
              "internalType": "string",
              "name": "image_url",
              "type": "string"
            },
            {
              "internalType": "string",
              "name": "party_image_url",
              "type": "string"
            }
          ],
          "internalType": "struct ElectionInfo.Candidate[]",
          "name": "",
          "type": "tuple[]"
        }
      ],
      "stateMutability": "view",
      "type": "function"
    },
    {
      "inputs": [
        {
          "internalType": "uint256",
          "name": "_electionid",
          "type": "uint256"
        }
      ],
      "name": "getElectionResults",
      "outputs": [
        {
          "components": [
            {
              "internalType": "string",
              "name": "name",
              "type": "string"
            },
            {
              "internalType": "string",
              "name": "party",
              "type": "string"
            },
            {
              "internalType": "string",
              "name": "image_url",
              "type": "string"
            },
            {
              "internalType": "string",
              "name": "party_image_url",
              "type": "string"
            }
          ],
          "internalType": "struct ElectionInfo.Candidate[]",
          "name": "",
          "type": "tuple[]"
        },
        {
          "internalType": "uint256[]",
          "name": "",
          "type": "uint256[]"
        }
      ],
      "stateMutability": "view",
      "type": "function"
    },
    {
      "inputs": [
        {
          "internalType": "string",
          "name": "_aadhar",
          "type": "string"
        }
      ],
      "name": "hashAadhar",
      "outputs": [
        {
          "internalType": "bytes32",
          "name": "",
          "type": "bytes32"
        }
      ],
      "stateMutability": "pure",
      "type": "function"
    },
    {
      "inputs": [
        {
          "internalType": "string",
          "name": "_name",
          "type": "string"
        },
        {
          "internalType": "string",
          "name": "_image_url",
          "type": "string"
        },
        {
          "internalType": "uint256",
          "name": "_start_date",
          "type": "uint256"
        },
        {
          "internalType": "uint256",
          "name": "_end_date",
          "type": "uint256"
        }
      ],
      "name": "init",
      "outputs": [
        {
          "internalType": "uint256",
          "name": "",
          "type": "uint256"
        }
      ],
      "stateMutability": "nonpayable",
      "type": "function"
    },
    {
      "inputs": [],
      "name": "numberOfElections",
      "outputs": [
        {
          "internalType": "uint256",
          "name": "",
          "type": "uint256"
        }
      ],
      "stateMutability": "view",
      "type": "function"
    },
    {
      "inputs": [
        {
          "internalType": "uint256",
          "name": "_electionid",
          "type": "uint256"
        }
      ],
      "name": "startVoting",
      "outputs": [],
      "stateMutability": "nonpayable",
      "type": "function"
    }
  ],
  "bytecode": "0x608060405234801561001057600080fd5b50611899806100206000396000f3fe608060405234801561001057600080fd5b506004361061009e5760003560e01c8063649f89a511610066578063649f89a51461013857806387c804641461014b578063cdc389f61461015e578063e8ededa614610167578063ee50344a1461018857600080fd5b806314e0d72b146100a3578063244fac27146100c95780633d2f5bda146100de5780633e39a7a5146100f15780635e6fef0114610111575b600080fd5b6100b66100b1366004611307565b6101a8565b6040519081526020015b60405180910390f35b6100dc6100d7366004611344565b6101d8565b005b6100dc6100ec3660046113fb565b6103d7565b6101046100ff3660046113fb565b6104d9565b6040516100c0919061151e565b61012461011f3660046113fb565b61080d565b6040516100c098979695949392919061154e565b6100dc6101463660046113fb565b61096a565b6100b66101593660046115d3565b610a66565b6100b660015481565b61017a6101753660046113fb565b610bbf565b6040516100c0929190611682565b61019b6101963660046116b0565b610f4a565b6040516100c09190611700565b6000816040516020016101bb9190611713565b604051602081830303815290604052805190602001209050919050565b8360015481106102035760405162461bcd60e51b81526004016101fa9061172f565b60405180910390fd5b60008181526020819052604090206009015461010090046001600160a01b031633146102415760405162461bcd60e51b81526004016101fa9061175c565b60008560015481106102655760405162461bcd60e51b81526004016101fa9061172f565b81600281111561027757610277611538565b60008281526020819052604090206009015460ff16600281111561029d5761029d611538565b146102ba5760405162461bcd60e51b81526004016101fa906117ca565b6102e56040518060800160405280606081526020016060815260200160608152602001606081525090565b888152602080820188905260408083018890526060830187905260008a81528083529081206004908101805460018101825590835291839020845180518695949093029091019261033b928492909101906111cb565b50602082810151805161035492600185019201906111cb565b50604082015180516103709160028401916020909101906111cb565b506060820151805161038c9160038401916020909101906111cb565b50505060008881526020818152604082206005810180546001810182559084529183209091018290558982526003018054916103c7836117ef565b9190505550505050505050505050565b8060015481106103f95760405162461bcd60e51b81526004016101fa9061172f565b60008181526020819052604090206009015461010090046001600160a01b031633146104375760405162461bcd60e51b81526004016101fa9061175c565b600082600154811061045b5760405162461bcd60e51b81526004016101fa9061172f565b81600281111561046d5761046d611538565b60008281526020819052604090206009015460ff16600281111561049357610493611538565b146104b05760405162461bcd60e51b81526004016101fa906117ca565b600084815260208190526040902060090180546001919060ff191682805b021790555050505050565b60608160015481106104fd5760405162461bcd60e51b81526004016101fa9061172f565b60008181526020819052604090206009015461010090046001600160a01b0316331461053b5760405162461bcd60e51b81526004016101fa9061175c565b600154831061055c5760405162461bcd60e51b81526004016101fa9061172f565b60008381526020818152604080832060040180548251818502810185019093528083529193909284015b8282101561080057838290600052602060002090600402016040518060800160405290816000820180546105b990611818565b80601f01602080910402602001604051908101604052809291908181526020018280546105e590611818565b80156106325780601f1061060757610100808354040283529160200191610632565b820191906000526020600020905b81548152906001019060200180831161061557829003601f168201915b5050505050815260200160018201805461064b90611818565b80601f016020809104026020016040519081016040528092919081815260200182805461067790611818565b80156106c45780601f10610699576101008083540402835291602001916106c4565b820191906000526020600020905b8154815290600101906020018083116106a757829003601f168201915b505050505081526020016002820180546106dd90611818565b80601f016020809104026020016040519081016040528092919081815260200182805461070990611818565b80156107565780601f1061072b57610100808354040283529160200191610756565b820191906000526020600020905b81548152906001019060200180831161073957829003601f168201915b5050505050815260200160038201805461076f90611818565b80601f016020809104026020016040519081016040528092919081815260200182805461079b90611818565b80156107e85780601f106107bd576101008083540402835291602001916107e8565b820191906000526020600020905b8154815290600101906020018083116107cb57829003601f168201915b50505050508152505081526020019060010190610586565b5050505091505b50919050565b60006020819052908152604090208054819061082890611818565b80601f016020809104026020016040519081016040528092919081815260200182805461085490611818565b80156108a15780601f10610876576101008083540402835291602001916108a1565b820191906000526020600020905b81548152906001019060200180831161088457829003601f168201915b5050505050908060010154908060020154908060030154908060060180546108c890611818565b80601f01602080910402602001604051908101604052809291908181526020018280546108f490611818565b80156109415780601f1061091657610100808354040283529160200191610941565b820191906000526020600020905b81548152906001019060200180831161092457829003601f168201915b50505050600783015460099093015491929160ff8116915061010090046001600160a01b031688565b80600154811061098c5760405162461bcd60e51b81526004016101fa9061172f565b60008181526020819052604090206009015461010090046001600160a01b031633146109ca5760405162461bcd60e51b81526004016101fa9061175c565b60018260015481106109ee5760405162461bcd60e51b81526004016101fa9061172f565b816002811115610a0057610a00611538565b60008281526020819052604090206009015460ff166002811115610a2657610a26611538565b14610a435760405162461bcd60e51b81526004016101fa906117ca565b600084815260208190526040902060090180546002919060ff19166001836104ce565b6001546000908152602081905260408120428411610ad65760405162461bcd60e51b815260206004820152602760248201527f54686520737461727420646174652073686f756c64206265206461746520696e6044820152662066757475726560c81b60648201526084016101fa565b838311610b3c5760405162461bcd60e51b815260206004820152602e60248201527f54686520656e6420646174652073686f756c64206265206168656164206f662060448201526d746865207374617274206461746560901b60648201526084016101fa565b8551610b4e90829060208901906111cb565b506001818101859055600282018490556009820180546001600160a81b031916336101000260ff19161790556000600783018190556003830181905581549190610b97836117ef565b90915550508451610bb190600683019060208801906111cb565b505060015495945050505050565b6060806002836001548110610be65760405162461bcd60e51b81526004016101fa9061172f565b816002811115610bf857610bf8611538565b60008281526020819052604090206009015460ff166002811115610c1e57610c1e611538565b14610c3b5760405162461bcd60e51b81526004016101fa906117ca565b600085815260208181526040808320600481018054835181860281018601909452808452909460059092019385929084015b82821015610ee75783829060005260206000209060040201604051806080016040529081600082018054610ca090611818565b80601f0160208091040260200160405190810160405280929190818152602001828054610ccc90611818565b8015610d195780601f10610cee57610100808354040283529160200191610d19565b820191906000526020600020905b815481529060010190602001808311610cfc57829003601f168201915b50505050508152602001600182018054610d3290611818565b80601f0160208091040260200160405190810160405280929190818152602001828054610d5e90611818565b8015610dab5780601f10610d8057610100808354040283529160200191610dab565b820191906000526020600020905b815481529060010190602001808311610d8e57829003601f168201915b50505050508152602001600282018054610dc490611818565b80601f0160208091040260200160405190810160405280929190818152602001828054610df090611818565b8015610e3d5780601f10610e1257610100808354040283529160200191610e3d565b820191906000526020600020905b815481529060010190602001808311610e2057829003601f168201915b50505050508152602001600382018054610e5690611818565b80601f0160208091040260200160405190810160405280929190818152602001828054610e8290611818565b8015610ecf5780601f10610ea457610100808354040283529160200191610ecf565b820191906000526020600020905b815481529060010190602001808311610eb257829003601f168201915b50505050508152505081526020019060010190610c6d565b50505050915080805480602002602001604051908101604052809291908181526020018280548015610f3857602002820191906000526020600020905b815481526020019060010190808311610f24575b50505050509050935093505050915091565b60606001846001548110610f705760405162461bcd60e51b81526004016101fa9061172f565b816002811115610f8257610f82611538565b60008281526020819052604090206009015460ff166002811115610fa857610fa8611538565b14610fc55760405162461bcd60e51b81526004016101fa906117ca565b60008681526020819052604090206003015485108015610fe3575060015b6110265760405162461bcd60e51b8152602060048201526014602482015273125b9d985b1a590810d85b991a59185d1948125160621b60448201526064016101fa565b60008087815260200190815260200160002060080160008560405160200161104e9190611713565b60408051601f198184030181529181528151602092830120835290820192909252016000205460ff16156110c45760405162461bcd60e51b815260206004820152601760248201527f566f7465722068617320616c726561647920766f74656400000000000000000060448201526064016101fa565b60008681526020819052604090206005018054869081106110e7576110e761184d565b600091825260208220018054916110fd836117ef565b919050555060016000808881526020019081526020016000206008016000611124876101a8565b815260208082019290925260409081016000908120805460ff191694151594909417909355888352908290528120600701805491611161836117ef565b909155505060008681526020818152604091829020600501805483518184028101840190945280845290918301828280156111bb57602002820191906000526020600020905b8154815260200190600101908083116111a7575b5050505050925050509392505050565b8280546111d790611818565b90600052602060002090601f0160209004810192826111f9576000855561123f565b82601f1061121257805160ff191683800117855561123f565b8280016001018555821561123f579182015b8281111561123f578251825591602001919060010190611224565b5061124b92915061124f565b5090565b5b8082111561124b5760008155600101611250565b634e487b7160e01b600052604160045260246000fd5b600082601f83011261128b57600080fd5b813567ffffffffffffffff808211156112a6576112a6611264565b604051601f8301601f19908116603f011681019082821181831017156112ce576112ce611264565b816040528381528660208588010111156112e757600080fd5b836020870160208301376000602085830101528094505050505092915050565b60006020828403121561131957600080fd5b813567ffffffffffffffff81111561133057600080fd5b61133c8482850161127a565b949350505050565b600080600080600060a0868803121561135c57600080fd5b853567ffffffffffffffff8082111561137457600080fd5b61138089838a0161127a565b965060208801359550604088013591508082111561139d57600080fd5b6113a989838a0161127a565b945060608801359150808211156113bf57600080fd5b6113cb89838a0161127a565b935060808801359150808211156113e157600080fd5b506113ee8882890161127a565b9150509295509295909350565b60006020828403121561140d57600080fd5b5035919050565b60005b8381101561142f578181015183820152602001611417565b8381111561143e576000848401525b50505050565b6000815180845261145c816020860160208601611414565b601f01601f19169290920160200192915050565b6000815180845260208085019450848260051b860182860160005b858110156115115783830389528151608081518186526114ad82870182611444565b91505086820151858203888701526114c58282611444565b915050604080830151868303828801526114df8382611444565b92505050606080830151925085820381870152506114fd8183611444565b9a87019a945050509084019060010161148b565b5090979650505050505050565b6020815260006115316020830184611470565b9392505050565b634e487b7160e01b600052602160045260246000fd5b60006101008083526115628184018c611444565b905089602084015288604084015287606084015282810360808401526115888188611444565b9150508460a0830152600384106115af57634e487b7160e01b600052602160045260246000fd5b60c08201939093526001600160a01b039190911660e0909101529695505050505050565b600080600080608085870312156115e957600080fd5b843567ffffffffffffffff8082111561160157600080fd5b61160d8883890161127a565b9550602087013591508082111561162357600080fd5b506116308782880161127a565b949794965050505060408301359260600135919050565b600081518084526020808501945080840160005b838110156116775781518752958201959082019060010161165b565b509495945050505050565b6040815260006116956040830185611470565b82810360208401526116a78185611647565b95945050505050565b6000806000606084860312156116c557600080fd5b8335925060208401359150604084013567ffffffffffffffff8111156116ea57600080fd5b6116f68682870161127a565b9150509250925092565b6020815260006115316020830184611647565b60008251611725818460208701611414565b9190910192915050565b602080825260139082015272125b9d985b1a5908115b1958dd1a5bdb881251606a1b604082015260600190565b60208082526048908201527f41636573732044656e6965642c796f75206172656e277420746865206f776e6560408201527f72206f662074686520656c656374696f6e2e77726f6e67206d6574616d61736b606082015267206164647265737360c01b608082015260a00190565b6020808252600b908201526a57726f6e6720706861736560a81b604082015260600190565b600060001982141561181157634e487b7160e01b600052601160045260246000fd5b5060010190565b600181811c9082168061182c57607f821691505b6020821081141561080757634e487b7160e01b600052602260045260246000fd5b634e487b7160e01b600052603260045260246000fdfea264697066735822122014dda4163da13d8b2726fb1955cc631a35afd8a8e9346149eb9e49df28aac83364736f6c63430008090033",
  "linkReferences": {},
  "deployedLinkReferences": {}
}