{
  "_format": "hh-sol-artifact-1",
  "contractName": "ElectionInfo",
  "sourceName": "contracts/Election.sol",
  "abi": [
    {
      "inputs": [
        {
          "internalType": "uint256",
          "name": "_electionid",
          "type": "uint256"
        },
        {
          "internalType": "uint256",
          "name": "_candidateID",
          "type": "uint256"
        },
        {
          "internalType": "string",
          "name": "_aadhar",
          "type": "string"
        }
      ],
      "name": "doVote",
      "outputs": [
        {
          "internalType": "uint256[]",
          "name": "",
          "type": "uint256[]"
        }
      ],
      "stateMutability": "nonpayable",
      "type": "function"
    },
    {
      "inputs": [
        {
          "internalType": "uint256",
          "name": "",
          "type": "uint256"
        }
      ],
      "name": "elections",
      "outputs": [
        {
          "internalType": "string",
          "name": "name",
          "type": "string"
        },
        {
          "internalType": "uint256",
          "name": "start_date",
          "type": "uint256"
        },
        {
          "internalType": "uint256",
          "name": "end_date",
          "type": "uint256"
        },
        {
          "internalType": "uint256",
          "name": "noOfCandidates",
          "type": "uint256"
        },
        {
          "internalType": "string",
          "name": "image_url",
          "type": "string"
        },
        {
          "internalType": "uint256",
          "name": "totalVoted",
          "type": "uint256"
        },
        {
          "internalType": "enum ElectionInfo.Phase",
          "name": "currPhase",
          "type": "uint8"
        },
        {
          "internalType": "bytes32",
          "name": "aadharhash",
          "type": "bytes32"
        }
      ],
      "stateMutability": "view",
      "type": "function"
    },
    {
      "inputs": [],
      "name": "getAllElections",
      "outputs": [
        {
          "components": [
            {
              "internalType": "string",
              "name": "name",
              "type": "string"
            },
            {
              "internalType": "uint256",
              "name": "start_date",
              "type": "uint256"
            },
            {
              "internalType": "uint256",
              "name": "end_date",
              "type": "uint256"
            },
            {
              "internalType": "uint256",
              "name": "noOfCandidates",
              "type": "uint256"
            },
            {
              "components": [
                {
                  "internalType": "string",
                  "name": "name",
                  "type": "string"
                },
                {
                  "internalType": "string",
                  "name": "party",
                  "type": "string"
                },
                {
                  "internalType": "string",
                  "name": "image_url",
                  "type": "string"
                },
                {
                  "internalType": "string",
                  "name": "party_image_url",
                  "type": "string"
                }
              ],
              "internalType": "struct ElectionInfo.Candidate[]",
              "name": "candidates",
              "type": "tuple[]"
            },
            {
              "internalType": "string",
              "name": "image_url",
              "type": "string"
            },
            {
              "internalType": "uint256",
              "name": "totalVoted",
              "type": "uint256"
            },
            {
              "internalType": "enum ElectionInfo.Phase",
              "name": "currPhase",
              "type": "uint8"
            }
          ],
          "internalType": "struct ElectionInfo.returnElection[]",
          "name": "",
          "type": "tuple[]"
        }
      ],
      "stateMutability": "view",
      "type": "function"
    },
    {
      "inputs": [
        {
          "internalType": "uint256",
          "name": "_electionid",
          "type": "uint256"
        },
        {
          "internalType": "string",
          "name": "_aadhar",
          "type": "string"
        }
      ],
      "name": "getCandidates",
      "outputs": [
        {
          "components": [
            {
              "internalType": "string",
              "name": "name",
              "type": "string"
            },
            {
              "internalType": "string",
              "name": "party",
              "type": "string"
            },
            {
              "internalType": "string",
              "name": "image_url",
              "type": "string"
            },
            {
              "internalType": "string",
              "name": "party_image_url",
              "type": "string"
            }
          ],
          "internalType": "struct ElectionInfo.Candidate[]",
          "name": "",
          "type": "tuple[]"
        }
      ],
      "stateMutability": "view",
      "type": "function"
    },
    {
      "inputs": [
        {
          "internalType": "uint256",
          "name": "_id",
          "type": "uint256"
        }
      ],
      "name": "getElectionById",
      "outputs": [
        {
          "components": [
            {
              "internalType": "string",
              "name": "name",
              "type": "string"
            },
            {
              "internalType": "uint256",
              "name": "start_date",
              "type": "uint256"
            },
            {
              "internalType": "uint256",
              "name": "end_date",
              "type": "uint256"
            },
            {
              "internalType": "uint256",
              "name": "noOfCandidates",
              "type": "uint256"
            },
            {
              "components": [
                {
                  "internalType": "string",
                  "name": "name",
                  "type": "string"
                },
                {
                  "internalType": "string",
                  "name": "party",
                  "type": "string"
                },
                {
                  "internalType": "string",
                  "name": "image_url",
                  "type": "string"
                },
                {
                  "internalType": "string",
                  "name": "party_image_url",
                  "type": "string"
                }
              ],
              "internalType": "struct ElectionInfo.Candidate[]",
              "name": "candidates",
              "type": "tuple[]"
            },
            {
              "internalType": "string",
              "name": "image_url",
              "type": "string"
            },
            {
              "internalType": "uint256",
              "name": "totalVoted",
              "type": "uint256"
            },
            {
              "internalType": "enum ElectionInfo.Phase",
              "name": "currPhase",
              "type": "uint8"
            }
          ],
          "internalType": "struct ElectionInfo.returnElection",
          "name": "",
          "type": "tuple"
        }
      ],
      "stateMutability": "view",
      "type": "function"
    },
    {
      "inputs": [
        {
          "internalType": "uint256",
          "name": "_electionid",
          "type": "uint256"
        }
      ],
      "name": "getElectionResults",
      "outputs": [
        {
          "components": [
            {
              "internalType": "string",
              "name": "name",
              "type": "string"
            },
            {
              "internalType": "string",
              "name": "party",
              "type": "string"
            },
            {
              "internalType": "string",
              "name": "image_url",
              "type": "string"
            },
            {
              "internalType": "string",
              "name": "party_image_url",
              "type": "string"
            }
          ],
          "internalType": "struct ElectionInfo.Candidate[]",
          "name": "",
          "type": "tuple[]"
        },
        {
          "internalType": "uint256[]",
          "name": "",
          "type": "uint256[]"
        }
      ],
      "stateMutability": "view",
      "type": "function"
    },
    {
      "inputs": [],
      "name": "getPhase",
      "outputs": [
        {
          "internalType": "enum ElectionInfo.Phase[]",
          "name": "",
          "type": "uint8[]"
        }
      ],
      "stateMutability": "view",
      "type": "function"
    },
    {
      "inputs": [
        {
          "internalType": "string",
          "name": "_aadhar",
          "type": "string"
        }
      ],
      "name": "hashAadhar",
      "outputs": [
        {
          "internalType": "bytes32",
          "name": "",
          "type": "bytes32"
        }
      ],
      "stateMutability": "pure",
      "type": "function"
    },
    {
      "inputs": [
        {
          "internalType": "string",
          "name": "_name",
          "type": "string"
        },
        {
          "internalType": "string",
          "name": "_image_url",
          "type": "string"
        },
        {
          "internalType": "uint256",
          "name": "_start_date",
          "type": "uint256"
        },
        {
          "internalType": "uint256",
          "name": "_end_date",
          "type": "uint256"
        },
        {
          "internalType": "string",
          "name": "_aadhar",
          "type": "string"
        }
      ],
      "name": "init",
      "outputs": [
        {
          "internalType": "uint256",
          "name": "",
          "type": "uint256"
        }
      ],
      "stateMutability": "nonpayable",
      "type": "function"
    },
    {
      "inputs": [],
      "name": "numberOfElections",
      "outputs": [
        {
          "internalType": "uint256",
          "name": "",
          "type": "uint256"
        }
      ],
      "stateMutability": "view",
      "type": "function"
    }
  ],
  "bytecode": "0x608060405234801561001057600080fd5b50611ca4806100206000396000f3fe608060405234801561001057600080fd5b506004361061009e5760003560e01c8063c6958b1211610066578063c6958b1214610138578063cdc389f614610158578063e8ededa614610161578063eced028014610182578063ee50344a1461019757600080fd5b806314e0d72b146100a3578063450a0a4b146100c95780635e6fef01146100dc5780637fd5f2681461010357806392721cff14610118575b600080fd5b6100b66100b13660046115e2565b6101b7565b6040519081526020015b60405180910390f35b6100b66100d736600461161f565b6101e7565b6100ef6100ea3660046116bb565b610344565b6040516100c0989796959493929190611768565b61010b61049a565b6040516100c091906118f3565b61012b610126366004611955565b610541565b6040516100c09190611a4d565b61014b6101463660046116bb565b6108d3565b6040516100c09190611a67565b6100b660015481565b61017461016f3660046116bb565b610cba565b6040516100c0929190611ab5565b61018a611063565b6040516100c09190611ae3565b6101aa6101a5366004611b2e565b611128565b6040516100c09190611b7e565b6000816040516020016101ca9190611b91565b604051602081830303815290604052805190602001209050919050565b600154600090815260208190526040812042851161025c5760405162461bcd60e51b815260206004820152602760248201527f54686520737461727420646174652073686f756c64206265206461746520696e6044820152662066757475726560c81b60648201526084015b60405180910390fd5b8484116102c25760405162461bcd60e51b815260206004820152602e60248201527f54686520656e6420646174652073686f756c64206265206168656164206f662060448201526d746865207374617274206461746560901b6064820152608401610253565b86516102d490829060208a0190611451565b5060018101859055600281018490556102ec836101b7565b600a82015560098101805460ff1916905560006007820181905560038201819055600180549161031b83611bc3565b909155505085516103359060068301906020890190611451565b50506001549695505050505050565b60006020819052908152604090208054819061035f90611bde565b80601f016020809104026020016040519081016040528092919081815260200182805461038b90611bde565b80156103d85780601f106103ad576101008083540402835291602001916103d8565b820191906000526020600020905b8154815290600101906020018083116103bb57829003601f168201915b5050505050908060010154908060020154908060030154908060060180546103ff90611bde565b80601f016020809104026020016040519081016040528092919081815260200182805461042b90611bde565b80156104785780601f1061044d57610100808354040283529160200191610478565b820191906000526020600020905b81548152906001019060200180831161045b57829003601f168201915b5050505060078301546009840154600a909401549293909260ff909116915088565b6060600060015467ffffffffffffffff8111156104b9576104b961153f565b6040519080825280602002602001820160405280156104f257816020015b6104df6114d5565b8152602001906001900390816104d75790505b50905060005b60015481101561053b5761050b816108d3565b82828151811061051d5761051d611c13565b6020026020010181905250808061053390611bc3565b9150506104f8565b50919050565b6060828260015482106105665760405162461bcd60e51b815260040161025390611c29565b6000828152602081905260409020600a0154610581826101b7565b146106005760405162461bcd60e51b815260206004820152604360248201527f41636573732044656e6965642c796f75206172656e277420746865206f776e6560448201527f72206f662074686520656c656374696f6e2e20496e636f7272656374204161646064820152623430b960e91b608482015260a401610253565b60015485106106215760405162461bcd60e51b815260040161025390611c29565b60008581526020818152604080832060040180548251818502810185019093528083529193909284015b828210156108c5578382906000526020600020906004020160405180608001604052908160008201805461067e90611bde565b80601f01602080910402602001604051908101604052809291908181526020018280546106aa90611bde565b80156106f75780601f106106cc576101008083540402835291602001916106f7565b820191906000526020600020905b8154815290600101906020018083116106da57829003601f168201915b5050505050815260200160018201805461071090611bde565b80601f016020809104026020016040519081016040528092919081815260200182805461073c90611bde565b80156107895780601f1061075e57610100808354040283529160200191610789565b820191906000526020600020905b81548152906001019060200180831161076c57829003601f168201915b505050505081526020016002820180546107a290611bde565b80601f01602080910402602001604051908101604052809291908181526020018280546107ce90611bde565b801561081b5780601f106107f05761010080835404028352916020019161081b565b820191906000526020600020905b8154815290600101906020018083116107fe57829003601f168201915b5050505050815260200160038201805461083490611bde565b80601f016020809104026020016040519081016040528092919081815260200182805461086090611bde565b80156108ad5780601f10610882576101008083540402835291602001916108ad565b820191906000526020600020905b81548152906001019060200180831161089057829003601f168201915b5050505050815250508152602001906001019061064b565b505050509250505092915050565b6108db6114d5565b60015482106108fc5760405162461bcd60e51b815260040161025390611c29565b6109046114d5565b600083815260208190526040902080546109a5919061092290611bde565b80601f016020809104026020016040519081016040528092919081815260200182805461094e90611bde565b801561099b5780601f106109705761010080835404028352916020019161099b565b820191906000526020600020905b81548152906001019060200180831161097e57829003601f168201915b50505050506113c7565b81526000838152602081815260408083206001810154838601526002810154918501919091528583529190526003015467ffffffffffffffff8111156109ed576109ed61153f565b604051908082528060200260200182016040528015610a4957816020015b610a366040518060800160405280606081526020016060815260200160608152602001606081525090565b815260200190600190039081610a0b5790505b50608082015260005b600084815260208190526040902060030154811015610c2657610ab06000808681526020019081526020016000206004018281548110610a9457610a94611c13565b9060005260206000209060040201600001805461092290611bde565b82608001518281518110610ac657610ac6611c13565b602002602001015160000181905250610b1a6000808681526020019081526020016000206004018281548110610afe57610afe611c13565b9060005260206000209060040201600101805461092290611bde565b82608001518281518110610b3057610b30611c13565b602002602001015160200181905250610b846000808681526020019081526020016000206004018281548110610b6857610b68611c13565b9060005260206000209060040201600201805461092290611bde565b82608001518281518110610b9a57610b9a611c13565b602002602001015160400181905250610bee6000808681526020019081526020016000206004018281548110610bd257610bd2611c13565b9060005260206000209060040201600301805461092290611bde565b82608001518281518110610c0457610c04611c13565b6020026020010151606001819052508080610c1e90611bc3565b915050610a52565b5060008381526020819052604090206006018054610c48919061092290611bde565b60a08201526000838152602081815260408220600381015460608501528583529190526009015460e082019060ff166002811115610c8857610c88611730565b90816002811115610c9b57610c9b611730565b9052506000928352602083905260409092206007015460c08301525090565b6060806002836001548110610ce15760405162461bcd60e51b815260040161025390611c29565b816002811115610cf357610cf3611730565b60008281526020819052604090206009015460ff166002811115610d1957610d19611730565b14610d545760405162461bcd60e51b815260206004820152600b60248201526a57726f6e6720706861736560a81b6044820152606401610253565b600085815260208181526040808320600481018054835181860281018601909452808452909460059092019385929084015b828210156110005783829060005260206000209060040201604051806080016040529081600082018054610db990611bde565b80601f0160208091040260200160405190810160405280929190818152602001828054610de590611bde565b8015610e325780601f10610e0757610100808354040283529160200191610e32565b820191906000526020600020905b815481529060010190602001808311610e1557829003601f168201915b50505050508152602001600182018054610e4b90611bde565b80601f0160208091040260200160405190810160405280929190818152602001828054610e7790611bde565b8015610ec45780601f10610e9957610100808354040283529160200191610ec4565b820191906000526020600020905b815481529060010190602001808311610ea757829003601f168201915b50505050508152602001600282018054610edd90611bde565b80601f0160208091040260200160405190810160405280929190818152602001828054610f0990611bde565b8015610f565780601f10610f2b57610100808354040283529160200191610f56565b820191906000526020600020905b815481529060010190602001808311610f3957829003601f168201915b50505050508152602001600382018054610f6f90611bde565b80601f0160208091040260200160405190810160405280929190818152602001828054610f9b90611bde565b8015610fe85780601f10610fbd57610100808354040283529160200191610fe8565b820191906000526020600020905b815481529060010190602001808311610fcb57829003601f168201915b50505050508152505081526020019060010190610d86565b5050505091508080548060200260200160405190810160405280929190818152602001828054801561105157602002820191906000526020600020905b81548152602001906001019080831161103d575b50505050509050935093505050915091565b6060600060015467ffffffffffffffff8111156110825761108261153f565b6040519080825280602002602001820160405280156110ab578160200160208202803683370190505b50905060005b60015481101561053b57600081815260208190526040902060090154825160ff909116908390839081106110e7576110e7611c13565b6020026020010190600281111561110057611100611730565b9081600281111561111357611113611730565b9052508061112081611bc3565b9150506110b1565b6060600184600154811061114e5760405162461bcd60e51b815260040161025390611c29565b81600281111561116057611160611730565b60008281526020819052604090206009015460ff16600281111561118657611186611730565b146111c15760405162461bcd60e51b815260206004820152600b60248201526a57726f6e6720706861736560a81b6044820152606401610253565b600086815260208190526040902060030154851080156111df575060015b6112225760405162461bcd60e51b8152602060048201526014602482015273125b9d985b1a590810d85b991a59185d1948125160621b6044820152606401610253565b60008087815260200190815260200160002060080160008560405160200161124a9190611b91565b60408051601f198184030181529181528151602092830120835290820192909252016000205460ff16156112c05760405162461bcd60e51b815260206004820152601760248201527f566f7465722068617320616c726561647920766f7465640000000000000000006044820152606401610253565b60008681526020819052604090206005018054869081106112e3576112e3611c13565b600091825260208220018054916112f983611bc3565b919050555060016000808881526020019081526020016000206008016000611320876101b7565b815260208082019290925260409081016000908120805460ff19169415159490941790935588835290829052812060070180549161135d83611bc3565b909155505060008681526020818152604091829020600501805483518184028101840190945280845290918301828280156113b757602002820191906000526020600020905b8154815260200190600101908083116113a3575b5050505050925050509392505050565b60606000825167ffffffffffffffff8111156113e5576113e561153f565b6040519080825280601f01601f19166020018201604052801561140f576020820181803683370190505b50905060008351601f6114229190611c56565b905060205b818111611448578481015183820152611441602082611c56565b9050611427565b50909392505050565b82805461145d90611bde565b90600052602060002090601f01602090048101928261147f57600085556114c5565b82601f1061149857805160ff19168380011785556114c5565b828001600101855582156114c5579182015b828111156114c55782518255916020019190600101906114aa565b506114d192915061152a565b5090565b604051806101000160405280606081526020016000815260200160008152602001600081526020016060815260200160608152602001600081526020016000600281111561152557611525611730565b905290565b5b808211156114d1576000815560010161152b565b634e487b7160e01b600052604160045260246000fd5b600082601f83011261156657600080fd5b813567ffffffffffffffff808211156115815761158161153f565b604051601f8301601f19908116603f011681019082821181831017156115a9576115a961153f565b816040528381528660208588010111156115c257600080fd5b836020870160208301376000602085830101528094505050505092915050565b6000602082840312156115f457600080fd5b813567ffffffffffffffff81111561160b57600080fd5b61161784828501611555565b949350505050565b600080600080600060a0868803121561163757600080fd5b853567ffffffffffffffff8082111561164f57600080fd5b61165b89838a01611555565b9650602088013591508082111561167157600080fd5b61167d89838a01611555565b9550604088013594506060880135935060808801359150808211156116a157600080fd5b506116ae88828901611555565b9150509295509295909350565b6000602082840312156116cd57600080fd5b5035919050565b60005b838110156116ef5781810151838201526020016116d7565b838111156116fe576000848401525b50505050565b6000815180845261171c8160208601602086016116d4565b601f01601f19169290920160200192915050565b634e487b7160e01b600052602160045260246000fd5b6003811061176457634e487b7160e01b600052602160045260246000fd5b9052565b600061010080835261177c8184018c611704565b905089602084015288604084015287606084015282810360808401526117a28188611704565b9150508460a08301526117b860c0830185611746565b8260e08301529998505050505050505050565b600061010082518185526117e182860182611704565b915050602080840151818601526040808501518187015260608086015181880152608080870151888603828a01528581518088528688019150868160051b890101878401935060005b828110156118ab57898203601f190184528451805187845261184e88850182611704565b90508a8201518482038c8601526118658282611704565b915050898201518482038b86015261187d8282611704565b915050888201519150838103898501526118978183611704565b968b0196958b01959350505060010161182a565b5060a08b015198508b810360a08d01526118c5818a611704565b9850505050505050505060c083015160c085015260e08301516118eb60e0860182611746565b509392505050565b6000602080830181845280855180835260408601915060408160051b870101925083870160005b8281101561194857603f198886030184526119368583516117cb565b9450928501929085019060010161191a565b5092979650505050505050565b6000806040838503121561196857600080fd5b82359150602083013567ffffffffffffffff81111561198657600080fd5b61199285828601611555565b9150509250929050565b600081518084526020808501808196508360051b8101915082860160005b85811015611a405782840389528151608081518187526119dc82880182611704565b91505086820151868203888801526119f48282611704565b91505060408083015187830382890152611a0e8382611704565b9250505060608083015192508682038188015250611a2c8183611704565b9a87019a95505050908401906001016119ba565b5091979650505050505050565b602081526000611a60602083018461199c565b9392505050565b602081526000611a6060208301846117cb565b600081518084526020808501945080840160005b83811015611aaa57815187529582019590820190600101611a8e565b509495945050505050565b604081526000611ac8604083018561199c565b8281036020840152611ada8185611a7a565b95945050505050565b6020808252825182820181905260009190848201906040850190845b81811015611b2257611b12838551611746565b9284019291840191600101611aff565b50909695505050505050565b600080600060608486031215611b4357600080fd5b8335925060208401359150604084013567ffffffffffffffff811115611b6857600080fd5b611b7486828701611555565b9150509250925092565b602081526000611a606020830184611a7a565b60008251611ba38184602087016116d4565b9190910192915050565b634e487b7160e01b600052601160045260246000fd5b6000600019821415611bd757611bd7611bad565b5060010190565b600181811c90821680611bf257607f821691505b6020821081141561053b57634e487b7160e01b600052602260045260246000fd5b634e487b7160e01b600052603260045260246000fd5b602080825260139082015272125b9d985b1a5908115b1958dd1a5bdb881251606a1b604082015260600190565b60008219821115611c6957611c69611bad565b50019056fea2646970667358221220dca4864150787fe815893a81e142e592bcac04e5208ef6a8df3685242bd041c264736f6c63430008090033",
  "linkReferences": {},
  "deployedLinkReferences": {}
}