{
  "_format": "hh-sol-artifact-1",
  "contractName": "ElectionInfo",
  "sourceName": "contracts/Election.sol",
  "abi": [
    {
      "inputs": [
        {
          "internalType": "string",
          "name": "_name",
          "type": "string"
        },
        {
          "internalType": "uint256",
          "name": "_electionid",
          "type": "uint256"
        },
        {
          "internalType": "string",
          "name": "_party",
          "type": "string"
        },
        {
          "internalType": "string",
          "name": "_image_url",
          "type": "string"
        },
        {
          "internalType": "string",
          "name": "_party_image_url",
          "type": "string"
        },
        {
          "internalType": "string",
          "name": "_aadhar",
          "type": "string"
        }
      ],
      "name": "addCandidates",
      "outputs": [],
      "stateMutability": "nonpayable",
      "type": "function"
    },
    {
      "inputs": [
        {
          "internalType": "uint256",
          "name": "_electionid",
          "type": "uint256"
        },
        {
          "internalType": "uint256",
          "name": "_candidateID",
          "type": "uint256"
        },
        {
          "internalType": "string",
          "name": "_aadhar",
          "type": "string"
        }
      ],
      "name": "doVote",
      "outputs": [
        {
          "internalType": "uint256[]",
          "name": "",
          "type": "uint256[]"
        }
      ],
      "stateMutability": "nonpayable",
      "type": "function"
    },
    {
      "inputs": [
        {
          "internalType": "uint256",
          "name": "",
          "type": "uint256"
        }
      ],
      "name": "elections",
      "outputs": [
        {
          "internalType": "string",
          "name": "name",
          "type": "string"
        },
        {
          "internalType": "uint256",
          "name": "start_date",
          "type": "uint256"
        },
        {
          "internalType": "uint256",
          "name": "end_date",
          "type": "uint256"
        },
        {
          "internalType": "uint256",
          "name": "noOfCandidates",
          "type": "uint256"
        },
        {
          "internalType": "string",
          "name": "image_url",
          "type": "string"
        },
        {
          "internalType": "uint256",
          "name": "totalVoted",
          "type": "uint256"
        },
        {
          "internalType": "enum ElectionInfo.Phase",
          "name": "currPhase",
          "type": "uint8"
        },
        {
          "internalType": "bytes32",
          "name": "aadharhash",
          "type": "bytes32"
        }
      ],
      "stateMutability": "view",
      "type": "function"
    },
    {
      "inputs": [
        {
          "internalType": "uint256",
          "name": "_electionid",
          "type": "uint256"
        },
        {
          "internalType": "string",
          "name": "_aadhar",
          "type": "string"
        }
      ],
      "name": "endVoting",
      "outputs": [],
      "stateMutability": "nonpayable",
      "type": "function"
    },
    {
      "inputs": [],
      "name": "getAllElections",
      "outputs": [
        {
          "components": [
            {
              "internalType": "string",
              "name": "name",
              "type": "string"
            },
            {
              "internalType": "uint256",
              "name": "start_date",
              "type": "uint256"
            },
            {
              "internalType": "uint256",
              "name": "end_date",
              "type": "uint256"
            },
            {
              "internalType": "uint256",
              "name": "noOfCandidates",
              "type": "uint256"
            },
            {
              "components": [
                {
                  "internalType": "string",
                  "name": "name",
                  "type": "string"
                },
                {
                  "internalType": "string",
                  "name": "party",
                  "type": "string"
                },
                {
                  "internalType": "string",
                  "name": "image_url",
                  "type": "string"
                },
                {
                  "internalType": "string",
                  "name": "party_image_url",
                  "type": "string"
                }
              ],
              "internalType": "struct ElectionInfo.Candidate[]",
              "name": "candidates",
              "type": "tuple[]"
            },
            {
              "internalType": "string",
              "name": "image_url",
              "type": "string"
            },
            {
              "internalType": "uint256",
              "name": "totalVoted",
              "type": "uint256"
            },
            {
              "internalType": "enum ElectionInfo.Phase",
              "name": "currPhase",
              "type": "uint8"
            }
          ],
          "internalType": "struct ElectionInfo.returnElection[]",
          "name": "",
          "type": "tuple[]"
        }
      ],
      "stateMutability": "view",
      "type": "function"
    },
    {
      "inputs": [
        {
          "internalType": "uint256",
          "name": "_electionid",
          "type": "uint256"
        },
        {
          "internalType": "string",
          "name": "_aadhar",
          "type": "string"
        }
      ],
      "name": "getCandidates",
      "outputs": [
        {
          "components": [
            {
              "internalType": "string",
              "name": "name",
              "type": "string"
            },
            {
              "internalType": "string",
              "name": "party",
              "type": "string"
            },
            {
              "internalType": "string",
              "name": "image_url",
              "type": "string"
            },
            {
              "internalType": "string",
              "name": "party_image_url",
              "type": "string"
            }
          ],
          "internalType": "struct ElectionInfo.Candidate[]",
          "name": "",
          "type": "tuple[]"
        }
      ],
      "stateMutability": "view",
      "type": "function"
    },
    {
      "inputs": [
        {
          "internalType": "uint256",
          "name": "_id",
          "type": "uint256"
        }
      ],
      "name": "getElectionById",
      "outputs": [
        {
          "components": [
            {
              "internalType": "string",
              "name": "name",
              "type": "string"
            },
            {
              "internalType": "uint256",
              "name": "start_date",
              "type": "uint256"
            },
            {
              "internalType": "uint256",
              "name": "end_date",
              "type": "uint256"
            },
            {
              "internalType": "uint256",
              "name": "noOfCandidates",
              "type": "uint256"
            },
            {
              "components": [
                {
                  "internalType": "string",
                  "name": "name",
                  "type": "string"
                },
                {
                  "internalType": "string",
                  "name": "party",
                  "type": "string"
                },
                {
                  "internalType": "string",
                  "name": "image_url",
                  "type": "string"
                },
                {
                  "internalType": "string",
                  "name": "party_image_url",
                  "type": "string"
                }
              ],
              "internalType": "struct ElectionInfo.Candidate[]",
              "name": "candidates",
              "type": "tuple[]"
            },
            {
              "internalType": "string",
              "name": "image_url",
              "type": "string"
            },
            {
              "internalType": "uint256",
              "name": "totalVoted",
              "type": "uint256"
            },
            {
              "internalType": "enum ElectionInfo.Phase",
              "name": "currPhase",
              "type": "uint8"
            }
          ],
          "internalType": "struct ElectionInfo.returnElection",
          "name": "",
          "type": "tuple"
        }
      ],
      "stateMutability": "view",
      "type": "function"
    },
    {
      "inputs": [
        {
          "internalType": "uint256",
          "name": "_electionid",
          "type": "uint256"
        }
      ],
      "name": "getElectionResults",
      "outputs": [
        {
          "components": [
            {
              "internalType": "string",
              "name": "name",
              "type": "string"
            },
            {
              "internalType": "string",
              "name": "party",
              "type": "string"
            },
            {
              "internalType": "string",
              "name": "image_url",
              "type": "string"
            },
            {
              "internalType": "string",
              "name": "party_image_url",
              "type": "string"
            }
          ],
          "internalType": "struct ElectionInfo.Candidate[]",
          "name": "",
          "type": "tuple[]"
        },
        {
          "internalType": "uint256[]",
          "name": "",
          "type": "uint256[]"
        }
      ],
      "stateMutability": "view",
      "type": "function"
    },
    {
      "inputs": [],
      "name": "getPhase",
      "outputs": [
        {
          "internalType": "enum ElectionInfo.Phase[]",
          "name": "",
          "type": "uint8[]"
        }
      ],
      "stateMutability": "view",
      "type": "function"
    },
    {
      "inputs": [
        {
          "internalType": "string",
          "name": "_aadhar",
          "type": "string"
        }
      ],
      "name": "hashAadhar",
      "outputs": [
        {
          "internalType": "bytes32",
          "name": "",
          "type": "bytes32"
        }
      ],
      "stateMutability": "pure",
      "type": "function"
    },
    {
      "inputs": [
        {
          "internalType": "string",
          "name": "_name",
          "type": "string"
        },
        {
          "internalType": "string",
          "name": "_image_url",
          "type": "string"
        },
        {
          "internalType": "uint256",
          "name": "_start_date",
          "type": "uint256"
        },
        {
          "internalType": "uint256",
          "name": "_end_date",
          "type": "uint256"
        },
        {
          "internalType": "string",
          "name": "_aadhar",
          "type": "string"
        }
      ],
      "name": "init",
      "outputs": [
        {
          "internalType": "uint256",
          "name": "",
          "type": "uint256"
        }
      ],
      "stateMutability": "nonpayable",
      "type": "function"
    },
    {
      "inputs": [],
      "name": "numberOfElections",
      "outputs": [
        {
          "internalType": "uint256",
          "name": "",
          "type": "uint256"
        }
      ],
      "stateMutability": "view",
      "type": "function"
    },
    {
      "inputs": [
        {
          "internalType": "uint256",
          "name": "_electionid",
          "type": "uint256"
        },
        {
          "internalType": "string",
          "name": "_aadhar",
          "type": "string"
        }
      ],
      "name": "startVoting",
      "outputs": [],
      "stateMutability": "nonpayable",
      "type": "function"
    }
  ],
  "bytecode": "0x608060405234801561001057600080fd5b5061212e806100206000396000f3fe608060405234801561001057600080fd5b50600436106100cf5760003560e01c806392721cff1161008c578063cdc389f611610066578063cdc389f6146101c4578063e8ededa6146101cd578063eced0280146101ee578063ee50344a1461020357600080fd5b806392721cff14610171578063b1330ca914610191578063c6958b12146101a457600080fd5b806314e0d72b146100d457806327271a91146100fa578063450a0a4b1461010f5780635e6fef01146101225780637b4d5c1b146101495780637fd5f2681461015c575b600080fd5b6100e76100e236600461199d565b610223565b6040519081526020015b60405180910390f35b61010d6101083660046119da565b610253565b005b6100e761011d366004611ab4565b61044f565b610135610130366004611b50565b6105a7565b6040516100f1989796959493929190611bfd565b61010d610157366004611c60565b6106fd565b6101646107fd565b6040516100f19190611de7565b61018461017f366004611c60565b6108a4565b6040516100f19190611e49565b61010d61019f366004611c60565b610bd4565b6101b76101b2366004611b50565b610cca565b6040516100f19190611e63565b6100e760015481565b6101e06101db366004611b50565b6110b1565b6040516100f1929190611eb1565b6101f661143c565b6040516100f19190611edf565b610216610211366004611f2a565b611501565b6040516100f19190611f7a565b6000816040516020016102369190611f8d565b604051602081830303815290604052805190602001209050919050565b8481600154821061027f5760405162461bcd60e51b815260040161027690611fa9565b60405180910390fd5b6000828152602081905260409020600a015461029a82610223565b146102b75760405162461bcd60e51b815260040161027690611fd6565b60008760015481106102db5760405162461bcd60e51b815260040161027690611fa9565b8160028111156102ed576102ed611bc5565b60008281526020819052604090206009015460ff16600281111561031357610313611bc5565b146103305760405162461bcd60e51b81526004016102769061203f565b61035b6040518060800160405280606081526020016060815260200160608152602001606081525090565b8a815260208082018a905260408083018a90526060830189905260008c8152808352908120600490810180546001810182559083529183902084518051869594909302909101926103b19284929091019061180c565b5060208281015180516103ca926001850192019061180c565b50604082015180516103e691600284019160209091019061180c565b506060820151805161040291600384019160209091019061180c565b50505060008a81526020818152604082206005810180546001810182559084529183209091018290558b825260030180549161043d8361207a565b91905055505050505050505050505050565b60015460009081526020819052604081204285116104bf5760405162461bcd60e51b815260206004820152602760248201527f54686520737461727420646174652073686f756c64206265206461746520696e6044820152662066757475726560c81b6064820152608401610276565b8484116105255760405162461bcd60e51b815260206004820152602e60248201527f54686520656e6420646174652073686f756c64206265206168656164206f662060448201526d746865207374617274206461746560901b6064820152608401610276565b865161053790829060208a019061180c565b50600181018590556002810184905561054f83610223565b600a82015560098101805460ff1916905560006007820181905560038201819055600180549161057e8361207a565b90915550508551610598906006830190602089019061180c565b50506001549695505050505050565b6000602081905290815260409020805481906105c290612095565b80601f01602080910402602001604051908101604052809291908181526020018280546105ee90612095565b801561063b5780601f106106105761010080835404028352916020019161063b565b820191906000526020600020905b81548152906001019060200180831161061e57829003601f168201915b50505050509080600101549080600201549080600301549080600601805461066290612095565b80601f016020809104026020016040519081016040528092919081815260200182805461068e90612095565b80156106db5780601f106106b0576101008083540402835291602001916106db565b820191906000526020600020905b8154815290600101906020018083116106be57829003601f168201915b5050505060078301546009840154600a909401549293909260ff909116915088565b818160015482106107205760405162461bcd60e51b815260040161027690611fa9565b6000828152602081905260409020600a015461073b82610223565b146107585760405162461bcd60e51b815260040161027690611fd6565b600184600154811061077c5760405162461bcd60e51b815260040161027690611fa9565b81600281111561078e5761078e611bc5565b60008281526020819052604090206009015460ff1660028111156107b4576107b4611bc5565b146107d15760405162461bcd60e51b81526004016102769061203f565b600086815260208190526040902060090180546002919060ff19166001835b0217905550505050505050565b6060600060015467ffffffffffffffff81111561081c5761081c6118fa565b60405190808252806020026020018201604052801561085557816020015b610842611890565b81526020019060019003908161083a5790505b50905060005b60015481101561089e5761086e81610cca565b828281518110610880576108806120ca565b602002602001018190525080806108969061207a565b91505061085b565b50919050565b6060828260015482106108c95760405162461bcd60e51b815260040161027690611fa9565b6000828152602081905260409020600a01546108e482610223565b146109015760405162461bcd60e51b815260040161027690611fd6565b60015485106109225760405162461bcd60e51b815260040161027690611fa9565b60008581526020818152604080832060040180548251818502810185019093528083529193909284015b82821015610bc6578382906000526020600020906004020160405180608001604052908160008201805461097f90612095565b80601f01602080910402602001604051908101604052809291908181526020018280546109ab90612095565b80156109f85780601f106109cd576101008083540402835291602001916109f8565b820191906000526020600020905b8154815290600101906020018083116109db57829003601f168201915b50505050508152602001600182018054610a1190612095565b80601f0160208091040260200160405190810160405280929190818152602001828054610a3d90612095565b8015610a8a5780601f10610a5f57610100808354040283529160200191610a8a565b820191906000526020600020905b815481529060010190602001808311610a6d57829003601f168201915b50505050508152602001600282018054610aa390612095565b80601f0160208091040260200160405190810160405280929190818152602001828054610acf90612095565b8015610b1c5780601f10610af157610100808354040283529160200191610b1c565b820191906000526020600020905b815481529060010190602001808311610aff57829003601f168201915b50505050508152602001600382018054610b3590612095565b80601f0160208091040260200160405190810160405280929190818152602001828054610b6190612095565b8015610bae5780601f10610b8357610100808354040283529160200191610bae565b820191906000526020600020905b815481529060010190602001808311610b9157829003601f168201915b5050505050815250508152602001906001019061094c565b505050509250505092915050565b81816001548210610bf75760405162461bcd60e51b815260040161027690611fa9565b6000828152602081905260409020600a0154610c1282610223565b14610c2f5760405162461bcd60e51b815260040161027690611fd6565b6000846001548110610c535760405162461bcd60e51b815260040161027690611fa9565b816002811115610c6557610c65611bc5565b60008281526020819052604090206009015460ff166002811115610c8b57610c8b611bc5565b14610ca85760405162461bcd60e51b81526004016102769061203f565b600086815260208190526040902060090180546001919060ff191682806107f0565b610cd2611890565b6001548210610cf35760405162461bcd60e51b815260040161027690611fa9565b610cfb611890565b60008381526020819052604090208054610d9c9190610d1990612095565b80601f0160208091040260200160405190810160405280929190818152602001828054610d4590612095565b8015610d925780601f10610d6757610100808354040283529160200191610d92565b820191906000526020600020905b815481529060010190602001808311610d7557829003601f168201915b5050505050611782565b81526000838152602081815260408083206001810154838601526002810154918501919091528583529190526003015467ffffffffffffffff811115610de457610de46118fa565b604051908082528060200260200182016040528015610e4057816020015b610e2d6040518060800160405280606081526020016060815260200160608152602001606081525090565b815260200190600190039081610e025790505b50608082015260005b60008481526020819052604090206003015481101561101d57610ea76000808681526020019081526020016000206004018281548110610e8b57610e8b6120ca565b90600052602060002090600402016000018054610d1990612095565b82608001518281518110610ebd57610ebd6120ca565b602002602001015160000181905250610f116000808681526020019081526020016000206004018281548110610ef557610ef56120ca565b90600052602060002090600402016001018054610d1990612095565b82608001518281518110610f2757610f276120ca565b602002602001015160200181905250610f7b6000808681526020019081526020016000206004018281548110610f5f57610f5f6120ca565b90600052602060002090600402016002018054610d1990612095565b82608001518281518110610f9157610f916120ca565b602002602001015160400181905250610fe56000808681526020019081526020016000206004018281548110610fc957610fc96120ca565b90600052602060002090600402016003018054610d1990612095565b82608001518281518110610ffb57610ffb6120ca565b60200260200101516060018190525080806110159061207a565b915050610e49565b506000838152602081905260409020600601805461103f9190610d1990612095565b60a08201526000838152602081815260408220600381015460608501528583529190526009015460e082019060ff16600281111561107f5761107f611bc5565b9081600281111561109257611092611bc5565b9052506000928352602083905260409092206007015460c08301525090565b60608060028360015481106110d85760405162461bcd60e51b815260040161027690611fa9565b8160028111156110ea576110ea611bc5565b60008281526020819052604090206009015460ff16600281111561111057611110611bc5565b1461112d5760405162461bcd60e51b81526004016102769061203f565b600085815260208181526040808320600481018054835181860281018601909452808452909460059092019385929084015b828210156113d9578382906000526020600020906004020160405180608001604052908160008201805461119290612095565b80601f01602080910402602001604051908101604052809291908181526020018280546111be90612095565b801561120b5780601f106111e05761010080835404028352916020019161120b565b820191906000526020600020905b8154815290600101906020018083116111ee57829003601f168201915b5050505050815260200160018201805461122490612095565b80601f016020809104026020016040519081016040528092919081815260200182805461125090612095565b801561129d5780601f106112725761010080835404028352916020019161129d565b820191906000526020600020905b81548152906001019060200180831161128057829003601f168201915b505050505081526020016002820180546112b690612095565b80601f01602080910402602001604051908101604052809291908181526020018280546112e290612095565b801561132f5780601f106113045761010080835404028352916020019161132f565b820191906000526020600020905b81548152906001019060200180831161131257829003601f168201915b5050505050815260200160038201805461134890612095565b80601f016020809104026020016040519081016040528092919081815260200182805461137490612095565b80156113c15780601f10611396576101008083540402835291602001916113c1565b820191906000526020600020905b8154815290600101906020018083116113a457829003601f168201915b5050505050815250508152602001906001019061115f565b5050505091508080548060200260200160405190810160405280929190818152602001828054801561142a57602002820191906000526020600020905b815481526020019060010190808311611416575b50505050509050935093505050915091565b6060600060015467ffffffffffffffff81111561145b5761145b6118fa565b604051908082528060200260200182016040528015611484578160200160208202803683370190505b50905060005b60015481101561089e57600081815260208190526040902060090154825160ff909116908390839081106114c0576114c06120ca565b602002602001019060028111156114d9576114d9611bc5565b908160028111156114ec576114ec611bc5565b905250806114f98161207a565b91505061148a565b606060018460015481106115275760405162461bcd60e51b815260040161027690611fa9565b81600281111561153957611539611bc5565b60008281526020819052604090206009015460ff16600281111561155f5761155f611bc5565b1461157c5760405162461bcd60e51b81526004016102769061203f565b6000868152602081905260409020600301548510801561159a575060015b6115dd5760405162461bcd60e51b8152602060048201526014602482015273125b9d985b1a590810d85b991a59185d1948125160621b6044820152606401610276565b6000808781526020019081526020016000206008016000856040516020016116059190611f8d565b60408051601f198184030181529181528151602092830120835290820192909252016000205460ff161561167b5760405162461bcd60e51b815260206004820152601760248201527f566f7465722068617320616c726561647920766f7465640000000000000000006044820152606401610276565b600086815260208190526040902060050180548690811061169e5761169e6120ca565b600091825260208220018054916116b48361207a565b9190505550600160008088815260200190815260200160002060080160006116db87610223565b815260208082019290925260409081016000908120805460ff1916941515949094179093558883529082905281206007018054916117188361207a565b9091555050600086815260208181526040918290206005018054835181840281018401909452808452909183018282801561177257602002820191906000526020600020905b81548152602001906001019080831161175e575b5050505050925050509392505050565b60606000825167ffffffffffffffff8111156117a0576117a06118fa565b6040519080825280601f01601f1916602001820160405280156117ca576020820181803683370190505b50905060008351601f6117dd91906120e0565b905060205b8181116118035784810151838201526117fc6020826120e0565b90506117e2565b50909392505050565b82805461181890612095565b90600052602060002090601f01602090048101928261183a5760008555611880565b82601f1061185357805160ff1916838001178555611880565b82800160010185558215611880579182015b82811115611880578251825591602001919060010190611865565b5061188c9291506118e5565b5090565b60405180610100016040528060608152602001600081526020016000815260200160008152602001606081526020016060815260200160008152602001600060028111156118e0576118e0611bc5565b905290565b5b8082111561188c57600081556001016118e6565b634e487b7160e01b600052604160045260246000fd5b600082601f83011261192157600080fd5b813567ffffffffffffffff8082111561193c5761193c6118fa565b604051601f8301601f19908116603f01168101908282118183101715611964576119646118fa565b8160405283815286602085880101111561197d57600080fd5b836020870160208301376000602085830101528094505050505092915050565b6000602082840312156119af57600080fd5b813567ffffffffffffffff8111156119c657600080fd5b6119d284828501611910565b949350505050565b60008060008060008060c087890312156119f357600080fd5b863567ffffffffffffffff80821115611a0b57600080fd5b611a178a838b01611910565b9750602089013596506040890135915080821115611a3457600080fd5b611a408a838b01611910565b95506060890135915080821115611a5657600080fd5b611a628a838b01611910565b94506080890135915080821115611a7857600080fd5b611a848a838b01611910565b935060a0890135915080821115611a9a57600080fd5b50611aa789828a01611910565b9150509295509295509295565b600080600080600060a08688031215611acc57600080fd5b853567ffffffffffffffff80821115611ae457600080fd5b611af089838a01611910565b96506020880135915080821115611b0657600080fd5b611b1289838a01611910565b955060408801359450606088013593506080880135915080821115611b3657600080fd5b50611b4388828901611910565b9150509295509295909350565b600060208284031215611b6257600080fd5b5035919050565b60005b83811015611b84578181015183820152602001611b6c565b83811115611b93576000848401525b50505050565b60008151808452611bb1816020860160208601611b69565b601f01601f19169290920160200192915050565b634e487b7160e01b600052602160045260246000fd5b60038110611bf957634e487b7160e01b600052602160045260246000fd5b9052565b6000610100808352611c118184018c611b99565b90508960208401528860408401528760608401528281036080840152611c378188611b99565b9150508460a0830152611c4d60c0830185611bdb565b8260e08301529998505050505050505050565b60008060408385031215611c7357600080fd5b82359150602083013567ffffffffffffffff811115611c9157600080fd5b611c9d85828601611910565b9150509250929050565b600081518084526020808501808196508360051b8101915082860160005b85811015611d4b578284038952815160808151818752611ce782880182611b99565b9150508682015186820388880152611cff8282611b99565b91505060408083015187830382890152611d198382611b99565b9250505060608083015192508682038188015250611d378183611b99565b9a87019a9550505090840190600101611cc5565b5091979650505050505050565b60006101008251818552611d6e82860182611b99565b91505060208301516020850152604083015160408501526060830151606085015260808301518482036080860152611da68282611ca7565b91505060a083015184820360a0860152611dc08282611b99565b91505060c083015160c085015260e0830151611ddf60e0860182611bdb565b509392505050565b6000602080830181845280855180835260408601915060408160051b870101925083870160005b82811015611e3c57603f19888603018452611e2a858351611d58565b94509285019290850190600101611e0e565b5092979650505050505050565b602081526000611e5c6020830184611ca7565b9392505050565b602081526000611e5c6020830184611d58565b600081518084526020808501945080840160005b83811015611ea657815187529582019590820190600101611e8a565b509495945050505050565b604081526000611ec46040830185611ca7565b8281036020840152611ed68185611e76565b95945050505050565b6020808252825182820181905260009190848201906040850190845b81811015611f1e57611f0e838551611bdb565b9284019291840191600101611efb565b50909695505050505050565b600080600060608486031215611f3f57600080fd5b8335925060208401359150604084013567ffffffffffffffff811115611f6457600080fd5b611f7086828701611910565b9150509250925092565b602081526000611e5c6020830184611e76565b60008251611f9f818460208701611b69565b9190910192915050565b602080825260139082015272125b9d985b1a5908115b1958dd1a5bdb881251606a1b604082015260600190565b60208082526043908201527f41636573732044656e6965642c796f75206172656e277420746865206f776e6560408201527f72206f662074686520656c656374696f6e2e20496e636f7272656374204161646060820152623430b960e91b608082015260a00190565b6020808252600b908201526a57726f6e6720706861736560a81b604082015260600190565b634e487b7160e01b600052601160045260246000fd5b600060001982141561208e5761208e612064565b5060010190565b600181811c908216806120a957607f821691505b6020821081141561089e57634e487b7160e01b600052602260045260246000fd5b634e487b7160e01b600052603260045260246000fd5b600082198211156120f3576120f3612064565b50019056fea2646970667358221220c28ba13e419a707e31c80273ae6d7b8e9ff9378f46bd27cf80a86157b38d9ea764736f6c63430008090033",
  "linkReferences": {},
  "deployedLinkReferences": {}
}