{
  "_format": "hh-sol-artifact-1",
  "contractName": "ElectionInfo",
  "sourceName": "contracts/Election.sol",
  "abi": [
    {
      "inputs": [
        {
          "internalType": "uint256",
          "name": "",
          "type": "uint256"
        }
      ],
      "name": "elections",
      "outputs": [
        {
          "internalType": "string",
          "name": "name",
          "type": "string"
        },
        {
          "internalType": "uint256",
          "name": "start_date",
          "type": "uint256"
        },
        {
          "internalType": "uint256",
          "name": "end_date",
          "type": "uint256"
        },
        {
          "internalType": "uint256",
          "name": "noOfCandidates",
          "type": "uint256"
        },
        {
          "internalType": "string",
          "name": "image_url",
          "type": "string"
        },
        {
          "internalType": "uint256",
          "name": "totalVoted",
          "type": "uint256"
        },
        {
          "internalType": "enum ElectionInfo.Phase",
          "name": "currPhase",
          "type": "uint8"
        },
        {
          "internalType": "bytes32",
          "name": "aadharhash",
          "type": "bytes32"
        }
      ],
      "stateMutability": "view",
      "type": "function"
    },
    {
      "inputs": [],
      "name": "getAllElections",
      "outputs": [
        {
          "components": [
            {
              "internalType": "uint256",
              "name": "id",
              "type": "uint256"
            },
            {
              "internalType": "string",
              "name": "name",
              "type": "string"
            },
            {
              "internalType": "uint256",
              "name": "start_date",
              "type": "uint256"
            },
            {
              "internalType": "uint256",
              "name": "end_date",
              "type": "uint256"
            },
            {
              "internalType": "uint256",
              "name": "noOfCandidates",
              "type": "uint256"
            },
            {
              "components": [
                {
                  "internalType": "string",
                  "name": "name",
                  "type": "string"
                },
                {
                  "internalType": "string",
                  "name": "party",
                  "type": "string"
                },
                {
                  "internalType": "string",
                  "name": "image_url",
                  "type": "string"
                },
                {
                  "internalType": "string",
                  "name": "party_image_url",
                  "type": "string"
                }
              ],
              "internalType": "struct ElectionInfo.Candidate[]",
              "name": "candidates",
              "type": "tuple[]"
            },
            {
              "internalType": "string",
              "name": "image_url",
              "type": "string"
            },
            {
              "internalType": "uint256",
              "name": "totalVoted",
              "type": "uint256"
            },
            {
              "internalType": "enum ElectionInfo.Phase",
              "name": "currPhase",
              "type": "uint8"
            }
          ],
          "internalType": "struct ElectionInfo.returnElection[]",
          "name": "",
          "type": "tuple[]"
        }
      ],
      "stateMutability": "view",
      "type": "function"
    },
    {
      "inputs": [
        {
          "internalType": "uint256",
          "name": "_electionid",
          "type": "uint256"
        },
        {
          "internalType": "string",
          "name": "_aadhar",
          "type": "string"
        }
      ],
      "name": "getCandidates",
      "outputs": [
        {
          "components": [
            {
              "internalType": "string",
              "name": "name",
              "type": "string"
            },
            {
              "internalType": "string",
              "name": "party",
              "type": "string"
            },
            {
              "internalType": "string",
              "name": "image_url",
              "type": "string"
            },
            {
              "internalType": "string",
              "name": "party_image_url",
              "type": "string"
            }
          ],
          "internalType": "struct ElectionInfo.Candidate[]",
          "name": "",
          "type": "tuple[]"
        }
      ],
      "stateMutability": "view",
      "type": "function"
    },
    {
      "inputs": [
        {
          "internalType": "uint256",
          "name": "_id",
          "type": "uint256"
        }
      ],
      "name": "getElectionById",
      "outputs": [
        {
          "components": [
            {
              "internalType": "uint256",
              "name": "id",
              "type": "uint256"
            },
            {
              "internalType": "string",
              "name": "name",
              "type": "string"
            },
            {
              "internalType": "uint256",
              "name": "start_date",
              "type": "uint256"
            },
            {
              "internalType": "uint256",
              "name": "end_date",
              "type": "uint256"
            },
            {
              "internalType": "uint256",
              "name": "noOfCandidates",
              "type": "uint256"
            },
            {
              "components": [
                {
                  "internalType": "string",
                  "name": "name",
                  "type": "string"
                },
                {
                  "internalType": "string",
                  "name": "party",
                  "type": "string"
                },
                {
                  "internalType": "string",
                  "name": "image_url",
                  "type": "string"
                },
                {
                  "internalType": "string",
                  "name": "party_image_url",
                  "type": "string"
                }
              ],
              "internalType": "struct ElectionInfo.Candidate[]",
              "name": "candidates",
              "type": "tuple[]"
            },
            {
              "internalType": "string",
              "name": "image_url",
              "type": "string"
            },
            {
              "internalType": "uint256",
              "name": "totalVoted",
              "type": "uint256"
            },
            {
              "internalType": "enum ElectionInfo.Phase",
              "name": "currPhase",
              "type": "uint8"
            }
          ],
          "internalType": "struct ElectionInfo.returnElection",
          "name": "",
          "type": "tuple"
        }
      ],
      "stateMutability": "view",
      "type": "function"
    },
    {
      "inputs": [
        {
          "internalType": "uint256",
          "name": "_electionid",
          "type": "uint256"
        }
      ],
      "name": "getElectionResults",
      "outputs": [
        {
          "components": [
            {
              "internalType": "string",
              "name": "name",
              "type": "string"
            },
            {
              "internalType": "string",
              "name": "party",
              "type": "string"
            },
            {
              "internalType": "string",
              "name": "image_url",
              "type": "string"
            },
            {
              "internalType": "string",
              "name": "party_image_url",
              "type": "string"
            }
          ],
          "internalType": "struct ElectionInfo.Candidate[]",
          "name": "",
          "type": "tuple[]"
        },
        {
          "internalType": "uint256[]",
          "name": "",
          "type": "uint256[]"
        }
      ],
      "stateMutability": "view",
      "type": "function"
    },
    {
      "inputs": [],
      "name": "getPhase",
      "outputs": [
        {
          "internalType": "enum ElectionInfo.Phase[]",
          "name": "",
          "type": "uint8[]"
        }
      ],
      "stateMutability": "view",
      "type": "function"
    },
    {
      "inputs": [
        {
          "internalType": "string",
          "name": "_aadhar",
          "type": "string"
        }
      ],
      "name": "hashAadhar",
      "outputs": [
        {
          "internalType": "bytes32",
          "name": "",
          "type": "bytes32"
        }
      ],
      "stateMutability": "pure",
      "type": "function"
    },
    {
      "inputs": [
        {
          "internalType": "string",
          "name": "_name",
          "type": "string"
        },
        {
          "internalType": "string",
          "name": "_image_url",
          "type": "string"
        },
        {
          "internalType": "uint256",
          "name": "_start_date",
          "type": "uint256"
        },
        {
          "internalType": "uint256",
          "name": "_end_date",
          "type": "uint256"
        },
        {
          "internalType": "string",
          "name": "_aadhar",
          "type": "string"
        }
      ],
      "name": "init",
      "outputs": [
        {
          "internalType": "uint256",
          "name": "",
          "type": "uint256"
        }
      ],
      "stateMutability": "nonpayable",
      "type": "function"
    },
    {
      "inputs": [],
      "name": "numberOfElections",
      "outputs": [
        {
          "internalType": "uint256",
          "name": "",
          "type": "uint256"
        }
      ],
      "stateMutability": "view",
      "type": "function"
    }
  ],
  "bytecode": "0x608060405234801561001057600080fd5b5061198d806100206000396000f3fe608060405234801561001057600080fd5b50600436106100935760003560e01c806392721cff1161006657806392721cff1461010d578063c6958b121461012d578063cdc389f61461014d578063e8ededa614610156578063eced02801461017757600080fd5b806314e0d72b14610098578063450a0a4b146100be5780635e6fef01146100d15780637fd5f268146100f8575b600080fd5b6100ab6100a6366004611328565b61018c565b6040519081526020015b60405180910390f35b6100ab6100cc366004611365565b6101bc565b6100e46100df366004611401565b610319565b6040516100b59897969594939291906114ae565b61010061046f565b6040516100b5919061165e565b61012061011b3660046116c0565b610516565b6040516100b591906117ab565b61014061013b366004611401565b6108a8565b6040516100b591906117c5565b6100ab60015481565b610169610164366004611401565b610c98565b6040516100b59291906117d8565b61017f611041565b6040516100b5919061182f565b60008160405160200161019f919061187a565b604051602081830303815290604052805190602001209050919050565b60015460009081526020819052604081204285116102315760405162461bcd60e51b815260206004820152602760248201527f54686520737461727420646174652073686f756c64206265206461746520696e6044820152662066757475726560c81b60648201526084015b60405180910390fd5b8484116102975760405162461bcd60e51b815260206004820152602e60248201527f54686520656e6420646174652073686f756c64206265206168656164206f662060448201526d746865207374617274206461746560901b6064820152608401610228565b86516102a990829060208a0190611190565b5060018101859055600281018490556102c18361018c565b600a82015560098101805460ff191690556000600782018190556003820181905560018054916102f0836118ac565b9091555050855161030a9060068301906020890190611190565b50506001549695505050505050565b600060208190529081526040902080548190610334906118c7565b80601f0160208091040260200160405190810160405280929190818152602001828054610360906118c7565b80156103ad5780601f10610382576101008083540402835291602001916103ad565b820191906000526020600020905b81548152906001019060200180831161039057829003601f168201915b5050505050908060010154908060020154908060030154908060060180546103d4906118c7565b80601f0160208091040260200160405190810160405280929190818152602001828054610400906118c7565b801561044d5780601f106104225761010080835404028352916020019161044d565b820191906000526020600020905b81548152906001019060200180831161043057829003601f168201915b5050505060078301546009840154600a909401549293909260ff909116915088565b6060600060015467ffffffffffffffff81111561048e5761048e611285565b6040519080825280602002602001820160405280156104c757816020015b6104b4611214565b8152602001906001900390816104ac5790505b50905060005b600154811015610510576104e0816108a8565b8282815181106104f2576104f26118fc565b60200260200101819052508080610508906118ac565b9150506104cd565b50919050565b60608282600154821061053b5760405162461bcd60e51b815260040161022890611912565b6000828152602081905260409020600a01546105568261018c565b146105d55760405162461bcd60e51b815260206004820152604360248201527f41636573732044656e6965642c796f75206172656e277420746865206f776e6560448201527f72206f662074686520656c656374696f6e2e20496e636f7272656374204161646064820152623430b960e91b608482015260a401610228565b60015485106105f65760405162461bcd60e51b815260040161022890611912565b60008581526020818152604080832060040180548251818502810185019093528083529193909284015b8282101561089a5783829060005260206000209060040201604051806080016040529081600082018054610653906118c7565b80601f016020809104026020016040519081016040528092919081815260200182805461067f906118c7565b80156106cc5780601f106106a1576101008083540402835291602001916106cc565b820191906000526020600020905b8154815290600101906020018083116106af57829003601f168201915b505050505081526020016001820180546106e5906118c7565b80601f0160208091040260200160405190810160405280929190818152602001828054610711906118c7565b801561075e5780601f106107335761010080835404028352916020019161075e565b820191906000526020600020905b81548152906001019060200180831161074157829003601f168201915b50505050508152602001600282018054610777906118c7565b80601f01602080910402602001604051908101604052809291908181526020018280546107a3906118c7565b80156107f05780601f106107c5576101008083540402835291602001916107f0565b820191906000526020600020905b8154815290600101906020018083116107d357829003601f168201915b50505050508152602001600382018054610809906118c7565b80601f0160208091040260200160405190810160405280929190818152602001828054610835906118c7565b80156108825780601f1061085757610100808354040283529160200191610882565b820191906000526020600020905b81548152906001019060200180831161086557829003601f168201915b50505050508152505081526020019060010190610620565b505050509250505092915050565b6108b0611214565b60015482106108d15760405162461bcd60e51b815260040161022890611912565b6108d9611214565b8281526000838152602081905260409020805461097d91906108fa906118c7565b80601f0160208091040260200160405190810160405280929190818152602001828054610926906118c7565b80156109735780601f1061094857610100808354040283529160200191610973565b820191906000526020600020905b81548152906001019060200180831161095657829003601f168201915b5050505050611106565b602080830191909152600084815280825260408082206001810154918501919091526002810154606085015285825291526003015467ffffffffffffffff8111156109ca576109ca611285565b604051908082528060200260200182016040528015610a2657816020015b610a136040518060800160405280606081526020016060815260200160608152602001606081525090565b8152602001906001900390816109e85790505b5060a082015260005b600084815260208190526040902060030154811015610c0357610a8d6000808681526020019081526020016000206004018281548110610a7157610a716118fc565b906000526020600020906004020160000180546108fa906118c7565b8260a001518281518110610aa357610aa36118fc565b602002602001015160000181905250610af76000808681526020019081526020016000206004018281548110610adb57610adb6118fc565b906000526020600020906004020160010180546108fa906118c7565b8260a001518281518110610b0d57610b0d6118fc565b602002602001015160200181905250610b616000808681526020019081526020016000206004018281548110610b4557610b456118fc565b906000526020600020906004020160020180546108fa906118c7565b8260a001518281518110610b7757610b776118fc565b602002602001015160400181905250610bcb6000808681526020019081526020016000206004018281548110610baf57610baf6118fc565b906000526020600020906004020160030180546108fa906118c7565b8260a001518281518110610be157610be16118fc565b6020026020010151606001819052508080610bfb906118ac565b915050610a2f565b5060008381526020819052604090206006018054610c2591906108fa906118c7565b60c08201526000838152602081815260408220600381015460808501528583529190526009015461010082019060ff166002811115610c6657610c66611476565b90816002811115610c7957610c79611476565b9052506000928352602083905260409092206007015460e08301525090565b6060806002836001548110610cbf5760405162461bcd60e51b815260040161022890611912565b816002811115610cd157610cd1611476565b60008281526020819052604090206009015460ff166002811115610cf757610cf7611476565b14610d325760405162461bcd60e51b815260206004820152600b60248201526a57726f6e6720706861736560a81b6044820152606401610228565b600085815260208181526040808320600481018054835181860281018601909452808452909460059092019385929084015b82821015610fde5783829060005260206000209060040201604051806080016040529081600082018054610d97906118c7565b80601f0160208091040260200160405190810160405280929190818152602001828054610dc3906118c7565b8015610e105780601f10610de557610100808354040283529160200191610e10565b820191906000526020600020905b815481529060010190602001808311610df357829003601f168201915b50505050508152602001600182018054610e29906118c7565b80601f0160208091040260200160405190810160405280929190818152602001828054610e55906118c7565b8015610ea25780601f10610e7757610100808354040283529160200191610ea2565b820191906000526020600020905b815481529060010190602001808311610e8557829003601f168201915b50505050508152602001600282018054610ebb906118c7565b80601f0160208091040260200160405190810160405280929190818152602001828054610ee7906118c7565b8015610f345780601f10610f0957610100808354040283529160200191610f34565b820191906000526020600020905b815481529060010190602001808311610f1757829003601f168201915b50505050508152602001600382018054610f4d906118c7565b80601f0160208091040260200160405190810160405280929190818152602001828054610f79906118c7565b8015610fc65780601f10610f9b57610100808354040283529160200191610fc6565b820191906000526020600020905b815481529060010190602001808311610fa957829003601f168201915b50505050508152505081526020019060010190610d64565b5050505091508080548060200260200160405190810160405280929190818152602001828054801561102f57602002820191906000526020600020905b81548152602001906001019080831161101b575b50505050509050935093505050915091565b6060600060015467ffffffffffffffff81111561106057611060611285565b604051908082528060200260200182016040528015611089578160200160208202803683370190505b50905060005b60015481101561051057600081815260208190526040902060090154825160ff909116908390839081106110c5576110c56118fc565b602002602001019060028111156110de576110de611476565b908160028111156110f1576110f1611476565b905250806110fe816118ac565b91505061108f565b60606000825167ffffffffffffffff81111561112457611124611285565b6040519080825280601f01601f19166020018201604052801561114e576020820181803683370190505b50905060008351601f611161919061193f565b905060205b81811161118757848101518382015261118060208261193f565b9050611166565b50909392505050565b82805461119c906118c7565b90600052602060002090601f0160209004810192826111be5760008555611204565b82601f106111d757805160ff1916838001178555611204565b82800160010185558215611204579182015b828111156112045782518255916020019190600101906111e9565b50611210929150611270565b5090565b60405180610120016040528060008152602001606081526020016000815260200160008152602001600081526020016060815260200160608152602001600081526020016000600281111561126b5761126b611476565b905290565b5b808211156112105760008155600101611271565b634e487b7160e01b600052604160045260246000fd5b600082601f8301126112ac57600080fd5b813567ffffffffffffffff808211156112c7576112c7611285565b604051601f8301601f19908116603f011681019082821181831017156112ef576112ef611285565b8160405283815286602085880101111561130857600080fd5b836020870160208301376000602085830101528094505050505092915050565b60006020828403121561133a57600080fd5b813567ffffffffffffffff81111561135157600080fd5b61135d8482850161129b565b949350505050565b600080600080600060a0868803121561137d57600080fd5b853567ffffffffffffffff8082111561139557600080fd5b6113a189838a0161129b565b965060208801359150808211156113b757600080fd5b6113c389838a0161129b565b9550604088013594506060880135935060808801359150808211156113e757600080fd5b506113f48882890161129b565b9150509295509295909350565b60006020828403121561141357600080fd5b5035919050565b60005b8381101561143557818101518382015260200161141d565b83811115611444576000848401525b50505050565b6000815180845261146281602086016020860161141a565b601f01601f19169290920160200192915050565b634e487b7160e01b600052602160045260246000fd5b600381106114aa57634e487b7160e01b600052602160045260246000fd5b9052565b60006101008083526114c28184018c61144a565b905089602084015288604084015287606084015282810360808401526114e8818861144a565b9150508460a08301526114fe60c083018561148c565b8260e08301529998505050505050505050565b600081518084526020808501808196508360051b8101915082860160005b858110156115b55782840389528151608081518187526115518288018261144a565b9150508682015186820388880152611569828261144a565b91505060408083015187830382890152611583838261144a565b92505050606080830151925086820381880152506115a1818361144a565b9a87019a955050509084019060010161152f565b5091979650505050505050565b60006101208251845260208301518160208601526115e28286018261144a565b91505060408301516040850152606083015160608501526080830151608085015260a083015184820360a086015261161a8282611511565b91505060c083015184820360c0860152611634828261144a565b91505060e083015160e0850152610100808401516116548287018261148c565b5090949350505050565b6000602080830181845280855180835260408601915060408160051b870101925083870160005b828110156116b357603f198886030184526116a18583516115c2565b94509285019290850190600101611685565b5092979650505050505050565b600080604083850312156116d357600080fd5b82359150602083013567ffffffffffffffff8111156116f157600080fd5b6116fd8582860161129b565b9150509250929050565b600081518084526020808501808196508360051b8101915082860160005b858110156115b55782840389528151608081518187526117478288018261144a565b915050868201518682038888015261175f828261144a565b91505060408083015187830382890152611779838261144a565b9250505060608083015192508682038188015250611797818361144a565b9a87019a9550505090840190600101611725565b6020815260006117be6020830184611707565b9392505050565b6020815260006117be60208301846115c2565b6040815260006117eb6040830185611707565b82810360208481019190915284518083528582019282019060005b8181101561182257845183529383019391830191600101611806565b5090979650505050505050565b6020808252825182820181905260009190848201906040850190845b8181101561186e5761185e83855161148c565b928401929184019160010161184b565b50909695505050505050565b6000825161188c81846020870161141a565b9190910192915050565b634e487b7160e01b600052601160045260246000fd5b60006000198214156118c0576118c0611896565b5060010190565b600181811c908216806118db57607f821691505b6020821081141561051057634e487b7160e01b600052602260045260246000fd5b634e487b7160e01b600052603260045260246000fd5b602080825260139082015272125b9d985b1a5908115b1958dd1a5bdb881251606a1b604082015260600190565b6000821982111561195257611952611896565b50019056fea2646970667358221220962a98e159037edd3f95b6f70442ad01a2deddceb4df5f0dbabc1dadd9fbf3a364736f6c63430008090033",
  "linkReferences": {},
  "deployedLinkReferences": {}
}