{
  "_format": "hh-sol-artifact-1",
  "contractName": "ElectionInfo",
  "sourceName": "contracts/Election.sol",
  "abi": [
    {
      "inputs": [
        {
          "internalType": "string",
          "name": "_name",
          "type": "string"
        },
        {
          "internalType": "uint256",
          "name": "_electionid",
          "type": "uint256"
        },
        {
          "internalType": "string",
          "name": "_party",
          "type": "string"
        },
        {
          "internalType": "string",
          "name": "_image_url",
          "type": "string"
        },
        {
          "internalType": "string",
          "name": "_party_image_url",
          "type": "string"
        }
      ],
      "name": "addCandidates",
      "outputs": [],
      "stateMutability": "nonpayable",
      "type": "function"
    },
    {
      "inputs": [
        {
          "internalType": "uint256",
          "name": "_electionid",
          "type": "uint256"
        },
        {
          "internalType": "uint256",
          "name": "_candidateID",
          "type": "uint256"
        },
        {
          "internalType": "string",
          "name": "_aadhar",
          "type": "string"
        }
      ],
      "name": "doVote",
      "outputs": [
        {
          "internalType": "uint256[]",
          "name": "",
          "type": "uint256[]"
        }
      ],
      "stateMutability": "nonpayable",
      "type": "function"
    },
    {
      "inputs": [
        {
          "internalType": "uint256",
          "name": "",
          "type": "uint256"
        }
      ],
      "name": "elections",
      "outputs": [
        {
          "internalType": "string",
          "name": "name",
          "type": "string"
        },
        {
          "internalType": "uint256",
          "name": "start_date",
          "type": "uint256"
        },
        {
          "internalType": "uint256",
          "name": "end_date",
          "type": "uint256"
        },
        {
          "internalType": "uint256",
          "name": "noOfCandidates",
          "type": "uint256"
        },
        {
          "internalType": "string",
          "name": "image_url",
          "type": "string"
        },
        {
          "internalType": "uint256",
          "name": "totalVoted",
          "type": "uint256"
        },
        {
          "internalType": "enum ElectionInfo.Phase",
          "name": "currPhase",
          "type": "uint8"
        },
        {
          "internalType": "address",
          "name": "ownerAddress",
          "type": "address"
        }
      ],
      "stateMutability": "view",
      "type": "function"
    },
    {
      "inputs": [
        {
          "internalType": "uint256",
          "name": "_electionid",
          "type": "uint256"
        }
      ],
      "name": "endVoting",
      "outputs": [],
      "stateMutability": "nonpayable",
      "type": "function"
    },
    {
      "inputs": [],
      "name": "getAllElections",
      "outputs": [
        {
          "components": [
            {
              "internalType": "string",
              "name": "name",
              "type": "string"
            },
            {
              "internalType": "uint256",
              "name": "start_date",
              "type": "uint256"
            },
            {
              "internalType": "uint256",
              "name": "end_date",
              "type": "uint256"
            },
            {
              "internalType": "uint256",
              "name": "noOfCandidates",
              "type": "uint256"
            },
            {
              "components": [
                {
                  "internalType": "string",
                  "name": "name",
                  "type": "string"
                },
                {
                  "internalType": "string",
                  "name": "party",
                  "type": "string"
                },
                {
                  "internalType": "string",
                  "name": "image_url",
                  "type": "string"
                },
                {
                  "internalType": "string",
                  "name": "party_image_url",
                  "type": "string"
                }
              ],
              "internalType": "struct ElectionInfo.Candidate[]",
              "name": "candidates",
              "type": "tuple[]"
            },
            {
              "internalType": "string",
              "name": "image_url",
              "type": "string"
            },
            {
              "internalType": "uint256",
              "name": "totalVoted",
              "type": "uint256"
            },
            {
              "internalType": "enum ElectionInfo.Phase",
              "name": "currPhase",
              "type": "uint8"
            }
          ],
          "internalType": "struct ElectionInfo.returnElection[]",
          "name": "",
          "type": "tuple[]"
        }
      ],
      "stateMutability": "view",
      "type": "function"
    },
    {
      "inputs": [
        {
          "internalType": "uint256",
          "name": "_electionid",
          "type": "uint256"
        }
      ],
      "name": "getCandidates",
      "outputs": [
        {
          "components": [
            {
              "internalType": "string",
              "name": "name",
              "type": "string"
            },
            {
              "internalType": "string",
              "name": "party",
              "type": "string"
            },
            {
              "internalType": "string",
              "name": "image_url",
              "type": "string"
            },
            {
              "internalType": "string",
              "name": "party_image_url",
              "type": "string"
            }
          ],
          "internalType": "struct ElectionInfo.Candidate[]",
          "name": "",
          "type": "tuple[]"
        }
      ],
      "stateMutability": "view",
      "type": "function"
    },
    {
      "inputs": [
        {
          "internalType": "uint256",
          "name": "_id",
          "type": "uint256"
        }
      ],
      "name": "getElectionById",
      "outputs": [
        {
          "components": [
            {
              "internalType": "string",
              "name": "name",
              "type": "string"
            },
            {
              "internalType": "uint256",
              "name": "start_date",
              "type": "uint256"
            },
            {
              "internalType": "uint256",
              "name": "end_date",
              "type": "uint256"
            },
            {
              "internalType": "uint256",
              "name": "noOfCandidates",
              "type": "uint256"
            },
            {
              "components": [
                {
                  "internalType": "string",
                  "name": "name",
                  "type": "string"
                },
                {
                  "internalType": "string",
                  "name": "party",
                  "type": "string"
                },
                {
                  "internalType": "string",
                  "name": "image_url",
                  "type": "string"
                },
                {
                  "internalType": "string",
                  "name": "party_image_url",
                  "type": "string"
                }
              ],
              "internalType": "struct ElectionInfo.Candidate[]",
              "name": "candidates",
              "type": "tuple[]"
            },
            {
              "internalType": "string",
              "name": "image_url",
              "type": "string"
            },
            {
              "internalType": "uint256",
              "name": "totalVoted",
              "type": "uint256"
            },
            {
              "internalType": "enum ElectionInfo.Phase",
              "name": "currPhase",
              "type": "uint8"
            }
          ],
          "internalType": "struct ElectionInfo.returnElection",
          "name": "",
          "type": "tuple"
        }
      ],
      "stateMutability": "view",
      "type": "function"
    },
    {
      "inputs": [
        {
          "internalType": "uint256",
          "name": "_electionid",
          "type": "uint256"
        }
      ],
      "name": "getElectionResults",
      "outputs": [
        {
          "components": [
            {
              "internalType": "string",
              "name": "name",
              "type": "string"
            },
            {
              "internalType": "string",
              "name": "party",
              "type": "string"
            },
            {
              "internalType": "string",
              "name": "image_url",
              "type": "string"
            },
            {
              "internalType": "string",
              "name": "party_image_url",
              "type": "string"
            }
          ],
          "internalType": "struct ElectionInfo.Candidate[]",
          "name": "",
          "type": "tuple[]"
        },
        {
          "internalType": "uint256[]",
          "name": "",
          "type": "uint256[]"
        }
      ],
      "stateMutability": "view",
      "type": "function"
    },
    {
      "inputs": [],
      "name": "getPhase",
      "outputs": [
        {
          "internalType": "enum ElectionInfo.Phase[]",
          "name": "",
          "type": "uint8[]"
        }
      ],
      "stateMutability": "view",
      "type": "function"
    },
    {
      "inputs": [
        {
          "internalType": "string",
          "name": "_aadhar",
          "type": "string"
        }
      ],
      "name": "hashAadhar",
      "outputs": [
        {
          "internalType": "bytes32",
          "name": "",
          "type": "bytes32"
        }
      ],
      "stateMutability": "pure",
      "type": "function"
    },
    {
      "inputs": [
        {
          "internalType": "string",
          "name": "_name",
          "type": "string"
        },
        {
          "internalType": "string",
          "name": "_image_url",
          "type": "string"
        },
        {
          "internalType": "uint256",
          "name": "_start_date",
          "type": "uint256"
        },
        {
          "internalType": "uint256",
          "name": "_end_date",
          "type": "uint256"
        }
      ],
      "name": "init",
      "outputs": [
        {
          "internalType": "uint256",
          "name": "",
          "type": "uint256"
        }
      ],
      "stateMutability": "nonpayable",
      "type": "function"
    },
    {
      "inputs": [],
      "name": "numberOfElections",
      "outputs": [
        {
          "internalType": "uint256",
          "name": "",
          "type": "uint256"
        }
      ],
      "stateMutability": "view",
      "type": "function"
    },
    {
      "inputs": [
        {
          "internalType": "uint256",
          "name": "_electionid",
          "type": "uint256"
        }
      ],
      "name": "startVoting",
      "outputs": [],
      "stateMutability": "nonpayable",
      "type": "function"
    }
  ],
  "bytecode": "0x608060405234801561001057600080fd5b50612153806100206000396000f3fe608060405234801561001057600080fd5b50600436106100cf5760003560e01c80637fd5f2681161008c578063cdc389f611610066578063cdc389f6146101c4578063e8ededa6146101cd578063eced0280146101ee578063ee50344a1461020357600080fd5b80637fd5f2681461017c57806387c8046414610191578063c6958b12146101a457600080fd5b806314e0d72b146100d4578063244fac27146100fa5780633d2f5bda1461010f5780633e39a7a5146101225780635e6fef0114610142578063649f89a514610169575b600080fd5b6100e76100e23660046119ae565b610223565b6040519081526020015b60405180910390f35b61010d6101083660046119eb565b610253565b005b61010d61011d366004611aa2565b610452565b610135610130366004611aa2565b610554565b6040516100f19190611bc5565b610155610150366004611aa2565b610888565b6040516100f1989796959493929190611c17565b61010d610177366004611aa2565b6109e5565b610184610ae1565b6040516100f19190611dad565b6100e761019f366004611e0f565b610b82565b6101b76101b2366004611aa2565b610cdb565b6040516100f19190611e83565b6100e760015481565b6101e06101db366004611aa2565b6110c2565b6040516100f1929190611ed1565b6101f661144d565b6040516100f19190611eff565b610216610211366004611f4a565b611512565b6040516100f19190611f9a565b6000816040516020016102369190611fad565b604051602081830303815290604052805190602001209050919050565b83600154811061027e5760405162461bcd60e51b815260040161027590611fc9565b60405180910390fd5b60008181526020819052604090206009015461010090046001600160a01b031633146102bc5760405162461bcd60e51b815260040161027590611ff6565b60008560015481106102e05760405162461bcd60e51b815260040161027590611fc9565b8160028111156102f2576102f2611bdf565b60008281526020819052604090206009015460ff16600281111561031857610318611bdf565b146103355760405162461bcd60e51b815260040161027590612064565b6103606040518060800160405280606081526020016060815260200160608152602001606081525090565b888152602080820188905260408083018890526060830187905260008a8152808352908120600490810180546001810182559083529183902084518051869594909302909101926103b69284929091019061181d565b5060208281015180516103cf926001850192019061181d565b50604082015180516103eb91600284019160209091019061181d565b506060820151805161040791600384019160209091019061181d565b50505060008881526020818152604082206005810180546001810182559084529183209091018290558982526003018054916104428361209f565b9190505550505050505050505050565b8060015481106104745760405162461bcd60e51b815260040161027590611fc9565b60008181526020819052604090206009015461010090046001600160a01b031633146104b25760405162461bcd60e51b815260040161027590611ff6565b60008260015481106104d65760405162461bcd60e51b815260040161027590611fc9565b8160028111156104e8576104e8611bdf565b60008281526020819052604090206009015460ff16600281111561050e5761050e611bdf565b1461052b5760405162461bcd60e51b815260040161027590612064565b600084815260208190526040902060090180546001919060ff191682805b021790555050505050565b60608160015481106105785760405162461bcd60e51b815260040161027590611fc9565b60008181526020819052604090206009015461010090046001600160a01b031633146105b65760405162461bcd60e51b815260040161027590611ff6565b60015483106105d75760405162461bcd60e51b815260040161027590611fc9565b60008381526020818152604080832060040180548251818502810185019093528083529193909284015b8282101561087b5783829060005260206000209060040201604051806080016040529081600082018054610634906120ba565b80601f0160208091040260200160405190810160405280929190818152602001828054610660906120ba565b80156106ad5780601f10610682576101008083540402835291602001916106ad565b820191906000526020600020905b81548152906001019060200180831161069057829003601f168201915b505050505081526020016001820180546106c6906120ba565b80601f01602080910402602001604051908101604052809291908181526020018280546106f2906120ba565b801561073f5780601f106107145761010080835404028352916020019161073f565b820191906000526020600020905b81548152906001019060200180831161072257829003601f168201915b50505050508152602001600282018054610758906120ba565b80601f0160208091040260200160405190810160405280929190818152602001828054610784906120ba565b80156107d15780601f106107a6576101008083540402835291602001916107d1565b820191906000526020600020905b8154815290600101906020018083116107b457829003601f168201915b505050505081526020016003820180546107ea906120ba565b80601f0160208091040260200160405190810160405280929190818152602001828054610816906120ba565b80156108635780601f1061083857610100808354040283529160200191610863565b820191906000526020600020905b81548152906001019060200180831161084657829003601f168201915b50505050508152505081526020019060010190610601565b5050505091505b50919050565b6000602081905290815260409020805481906108a3906120ba565b80601f01602080910402602001604051908101604052809291908181526020018280546108cf906120ba565b801561091c5780601f106108f15761010080835404028352916020019161091c565b820191906000526020600020905b8154815290600101906020018083116108ff57829003601f168201915b505050505090806001015490806002015490806003015490806006018054610943906120ba565b80601f016020809104026020016040519081016040528092919081815260200182805461096f906120ba565b80156109bc5780601f10610991576101008083540402835291602001916109bc565b820191906000526020600020905b81548152906001019060200180831161099f57829003601f168201915b50505050600783015460099093015491929160ff8116915061010090046001600160a01b031688565b806001548110610a075760405162461bcd60e51b815260040161027590611fc9565b60008181526020819052604090206009015461010090046001600160a01b03163314610a455760405162461bcd60e51b815260040161027590611ff6565b6001826001548110610a695760405162461bcd60e51b815260040161027590611fc9565b816002811115610a7b57610a7b611bdf565b60008281526020819052604090206009015460ff166002811115610aa157610aa1611bdf565b14610abe5760405162461bcd60e51b815260040161027590612064565b600084815260208190526040902060090180546002919060ff1916600183610549565b6060600060015467ffffffffffffffff811115610b0057610b0061190b565b604051908082528060200260200182016040528015610b3957816020015b610b266118a1565b815260200190600190039081610b1e5790505b50905060005b60015481101561088257610b5281610cdb565b828281518110610b6457610b646120ef565b60200260200101819052508080610b7a9061209f565b915050610b3f565b6001546000908152602081905260408120428411610bf25760405162461bcd60e51b815260206004820152602760248201527f54686520737461727420646174652073686f756c64206265206461746520696e6044820152662066757475726560c81b6064820152608401610275565b838311610c585760405162461bcd60e51b815260206004820152602e60248201527f54686520656e6420646174652073686f756c64206265206168656164206f662060448201526d746865207374617274206461746560901b6064820152608401610275565b8551610c6a908290602089019061181d565b506001818101859055600282018490556009820180546001600160a81b031916336101000260ff19161790556000600783018190556003830181905581549190610cb38361209f565b90915550508451610ccd906006830190602088019061181d565b505060015495945050505050565b610ce36118a1565b6001548210610d045760405162461bcd60e51b815260040161027590611fc9565b610d0c6118a1565b60008381526020819052604090208054610dad9190610d2a906120ba565b80601f0160208091040260200160405190810160405280929190818152602001828054610d56906120ba565b8015610da35780601f10610d7857610100808354040283529160200191610da3565b820191906000526020600020905b815481529060010190602001808311610d8657829003601f168201915b5050505050611793565b81526000838152602081815260408083206001810154838601526002810154918501919091528583529190526003015467ffffffffffffffff811115610df557610df561190b565b604051908082528060200260200182016040528015610e5157816020015b610e3e6040518060800160405280606081526020016060815260200160608152602001606081525090565b815260200190600190039081610e135790505b50608082015260005b60008481526020819052604090206003015481101561102e57610eb86000808681526020019081526020016000206004018281548110610e9c57610e9c6120ef565b90600052602060002090600402016000018054610d2a906120ba565b82608001518281518110610ece57610ece6120ef565b602002602001015160000181905250610f226000808681526020019081526020016000206004018281548110610f0657610f066120ef565b90600052602060002090600402016001018054610d2a906120ba565b82608001518281518110610f3857610f386120ef565b602002602001015160200181905250610f8c6000808681526020019081526020016000206004018281548110610f7057610f706120ef565b90600052602060002090600402016002018054610d2a906120ba565b82608001518281518110610fa257610fa26120ef565b602002602001015160400181905250610ff66000808681526020019081526020016000206004018281548110610fda57610fda6120ef565b90600052602060002090600402016003018054610d2a906120ba565b8260800151828151811061100c5761100c6120ef565b60200260200101516060018190525080806110269061209f565b915050610e5a565b50600083815260208190526040902060060180546110509190610d2a906120ba565b60a08201526000838152602081815260408220600381015460608501528583529190526009015460e082019060ff16600281111561109057611090611bdf565b908160028111156110a3576110a3611bdf565b9052506000928352602083905260409092206007015460c08301525090565b60608060028360015481106110e95760405162461bcd60e51b815260040161027590611fc9565b8160028111156110fb576110fb611bdf565b60008281526020819052604090206009015460ff16600281111561112157611121611bdf565b1461113e5760405162461bcd60e51b815260040161027590612064565b600085815260208181526040808320600481018054835181860281018601909452808452909460059092019385929084015b828210156113ea57838290600052602060002090600402016040518060800160405290816000820180546111a3906120ba565b80601f01602080910402602001604051908101604052809291908181526020018280546111cf906120ba565b801561121c5780601f106111f15761010080835404028352916020019161121c565b820191906000526020600020905b8154815290600101906020018083116111ff57829003601f168201915b50505050508152602001600182018054611235906120ba565b80601f0160208091040260200160405190810160405280929190818152602001828054611261906120ba565b80156112ae5780601f10611283576101008083540402835291602001916112ae565b820191906000526020600020905b81548152906001019060200180831161129157829003601f168201915b505050505081526020016002820180546112c7906120ba565b80601f01602080910402602001604051908101604052809291908181526020018280546112f3906120ba565b80156113405780601f1061131557610100808354040283529160200191611340565b820191906000526020600020905b81548152906001019060200180831161132357829003601f168201915b50505050508152602001600382018054611359906120ba565b80601f0160208091040260200160405190810160405280929190818152602001828054611385906120ba565b80156113d25780601f106113a7576101008083540402835291602001916113d2565b820191906000526020600020905b8154815290600101906020018083116113b557829003601f168201915b50505050508152505081526020019060010190611170565b5050505091508080548060200260200160405190810160405280929190818152602001828054801561143b57602002820191906000526020600020905b815481526020019060010190808311611427575b50505050509050935093505050915091565b6060600060015467ffffffffffffffff81111561146c5761146c61190b565b604051908082528060200260200182016040528015611495578160200160208202803683370190505b50905060005b60015481101561088257600081815260208190526040902060090154825160ff909116908390839081106114d1576114d16120ef565b602002602001019060028111156114ea576114ea611bdf565b908160028111156114fd576114fd611bdf565b9052508061150a8161209f565b91505061149b565b606060018460015481106115385760405162461bcd60e51b815260040161027590611fc9565b81600281111561154a5761154a611bdf565b60008281526020819052604090206009015460ff16600281111561157057611570611bdf565b1461158d5760405162461bcd60e51b815260040161027590612064565b600086815260208190526040902060030154851080156115ab575060015b6115ee5760405162461bcd60e51b8152602060048201526014602482015273125b9d985b1a590810d85b991a59185d1948125160621b6044820152606401610275565b6000808781526020019081526020016000206008016000856040516020016116169190611fad565b60408051601f198184030181529181528151602092830120835290820192909252016000205460ff161561168c5760405162461bcd60e51b815260206004820152601760248201527f566f7465722068617320616c726561647920766f7465640000000000000000006044820152606401610275565b60008681526020819052604090206005018054869081106116af576116af6120ef565b600091825260208220018054916116c58361209f565b9190505550600160008088815260200190815260200160002060080160006116ec87610223565b815260208082019290925260409081016000908120805460ff1916941515949094179093558883529082905281206007018054916117298361209f565b9091555050600086815260208181526040918290206005018054835181840281018401909452808452909183018282801561178357602002820191906000526020600020905b81548152602001906001019080831161176f575b5050505050925050509392505050565b60606000825167ffffffffffffffff8111156117b1576117b161190b565b6040519080825280601f01601f1916602001820160405280156117db576020820181803683370190505b50905060008351601f6117ee9190612105565b905060205b81811161181457848101518382015261180d602082612105565b90506117f3565b50909392505050565b828054611829906120ba565b90600052602060002090601f01602090048101928261184b5760008555611891565b82601f1061186457805160ff1916838001178555611891565b82800160010185558215611891579182015b82811115611891578251825591602001919060010190611876565b5061189d9291506118f6565b5090565b60405180610100016040528060608152602001600081526020016000815260200160008152602001606081526020016060815260200160008152602001600060028111156118f1576118f1611bdf565b905290565b5b8082111561189d57600081556001016118f7565b634e487b7160e01b600052604160045260246000fd5b600082601f83011261193257600080fd5b813567ffffffffffffffff8082111561194d5761194d61190b565b604051601f8301601f19908116603f011681019082821181831017156119755761197561190b565b8160405283815286602085880101111561198e57600080fd5b836020870160208301376000602085830101528094505050505092915050565b6000602082840312156119c057600080fd5b813567ffffffffffffffff8111156119d757600080fd5b6119e384828501611921565b949350505050565b600080600080600060a08688031215611a0357600080fd5b853567ffffffffffffffff80821115611a1b57600080fd5b611a2789838a01611921565b9650602088013595506040880135915080821115611a4457600080fd5b611a5089838a01611921565b94506060880135915080821115611a6657600080fd5b611a7289838a01611921565b93506080880135915080821115611a8857600080fd5b50611a9588828901611921565b9150509295509295909350565b600060208284031215611ab457600080fd5b5035919050565b60005b83811015611ad6578181015183820152602001611abe565b83811115611ae5576000848401525b50505050565b60008151808452611b03816020860160208601611abb565b601f01601f19169290920160200192915050565b6000815180845260208085019450848260051b860182860160005b85811015611bb8578383038952815160808151818652611b5482870182611aeb565b9150508682015185820388870152611b6c8282611aeb565b91505060408083015186830382880152611b868382611aeb565b9250505060608083015192508582038187015250611ba48183611aeb565b9a87019a9450505090840190600101611b32565b5090979650505050505050565b602081526000611bd86020830184611b17565b9392505050565b634e487b7160e01b600052602160045260246000fd5b60038110611c1357634e487b7160e01b600052602160045260246000fd5b9052565b6000610100808352611c2b8184018c611aeb565b90508960208401528860408401528760608401528281036080840152611c518188611aeb565b9150508460a0830152611c6760c0830185611bf5565b6001600160a01b039290921660e09190910152979650505050505050565b60006101008251818552611c9b82860182611aeb565b915050602080840151818601526040808501518187015260608086015181880152608080870151888603828a01528581518088528688019150868160051b890101878401935060005b82811015611d6557898203601f1901845284518051878452611d0888850182611aeb565b90508a8201518482038c860152611d1f8282611aeb565b915050898201518482038b860152611d378282611aeb565b91505088820151915083810389850152611d518183611aeb565b968b0196958b019593505050600101611ce4565b5060a08b015198508b810360a08d0152611d7f818a611aeb565b9850505050505050505060c083015160c085015260e0830151611da560e0860182611bf5565b509392505050565b6000602080830181845280855180835260408601915060408160051b870101925083870160005b82811015611e0257603f19888603018452611df0858351611c85565b94509285019290850190600101611dd4565b5092979650505050505050565b60008060008060808587031215611e2557600080fd5b843567ffffffffffffffff80821115611e3d57600080fd5b611e4988838901611921565b95506020870135915080821115611e5f57600080fd5b50611e6c87828801611921565b949794965050505060408301359260600135919050565b602081526000611bd86020830184611c85565b600081518084526020808501945080840160005b83811015611ec657815187529582019590820190600101611eaa565b509495945050505050565b604081526000611ee46040830185611b17565b8281036020840152611ef68185611e96565b95945050505050565b6020808252825182820181905260009190848201906040850190845b81811015611f3e57611f2e838551611bf5565b9284019291840191600101611f1b565b50909695505050505050565b600080600060608486031215611f5f57600080fd5b8335925060208401359150604084013567ffffffffffffffff811115611f8457600080fd5b611f9086828701611921565b9150509250925092565b602081526000611bd86020830184611e96565b60008251611fbf818460208701611abb565b9190910192915050565b602080825260139082015272125b9d985b1a5908115b1958dd1a5bdb881251606a1b604082015260600190565b60208082526048908201527f41636573732044656e6965642c796f75206172656e277420746865206f776e6560408201527f72206f662074686520656c656374696f6e2e77726f6e67206d6574616d61736b606082015267206164647265737360c01b608082015260a00190565b6020808252600b908201526a57726f6e6720706861736560a81b604082015260600190565b634e487b7160e01b600052601160045260246000fd5b60006000198214156120b3576120b3612089565b5060010190565b600181811c908216806120ce57607f821691505b6020821081141561088257634e487b7160e01b600052602260045260246000fd5b634e487b7160e01b600052603260045260246000fd5b6000821982111561211857612118612089565b50019056fea2646970667358221220ebbcff2791e925047791a32de7ec3410a85867781f47083c08a646574bbf461064736f6c63430008090033",
  "linkReferences": {},
  "deployedLinkReferences": {}
}