{"contracts/User.sol":{"UserInfo":{"abi":[{"inputs":[{"internalType":"string","name":"_name","type":"string"},{"internalType":"uint256","name":"_electionid","type":"uint256"},{"internalType":"string","name":"_party","type":"string"},{"internalType":"string","name":"_image_url","type":"string"},{"internalType":"string","name":"_party_image_url","type":"string"},{"internalType":"string","name":"_aadhar","type":"string"}],"name":"addCandidates","outputs":[],"stateMutability":"nonpayable","type":"function"},{"inputs":[{"internalType":"string","name":"_aadhar","type":"string"},{"internalType":"string","name":"password","type":"string"}],"name":"checkCredentials","outputs":[{"internalType":"bool","name":"","type":"bool"}],"stateMutability":"view","type":"function"},{"inputs":[{"internalType":"string","name":"_image_url","type":"string"},{"internalType":"string","name":"_aadhar","type":"string"},{"internalType":"string","name":"_name","type":"string"},{"internalType":"uint256","name":"_start_date","type":"uint256"},{"internalType":"uint256","name":"_end_date","type":"uint256"}],"name":"createElection","outputs":[{"internalType":"uint256","name":"","type":"uint256"}],"stateMutability":"nonpayable","type":"function"},{"inputs":[{"internalType":"string","name":"_name","type":"string"},{"internalType":"string","name":"_dob","type":"string"},{"internalType":"string","name":"_aadhar","type":"string"},{"internalType":"string","name":"password","type":"string"}],"name":"createUser","outputs":[{"internalType":"bytes32","name":"","type":"bytes32"}],"stateMutability":"nonpayable","type":"function"},{"inputs":[{"internalType":"uint256","name":"_electionid","type":"uint256"},{"internalType":"uint256","name":"_candidateID","type":"uint256"},{"internalType":"string","name":"_aadhar","type":"string"}],"name":"doVote","outputs":[{"internalType":"uint256[]","name":"","type":"uint256[]"}],"stateMutability":"nonpayable","type":"function"},{"inputs":[{"internalType":"uint256","name":"","type":"uint256"}],"name":"elections","outputs":[{"internalType":"string","name":"name","type":"string"},{"internalType":"uint256","name":"start_date","type":"uint256"},{"internalType":"uint256","name":"end_date","type":"uint256"},{"internalType":"uint256","name":"noOfCandidates","type":"uint256"},{"internalType":"string","name":"image_url","type":"string"},{"internalType":"uint256","name":"totalVoted","type":"uint256"},{"internalType":"enum ElectionInfo.Phase","name":"currPhase","type":"uint8"},{"internalType":"bytes32","name":"aadharhash","type":"bytes32"}],"stateMutability":"view","type":"function"},{"inputs":[{"internalType":"uint256","name":"_electionid","type":"uint256"},{"internalType":"string","name":"_aadhar","type":"string"}],"name":"endVoting","outputs":[],"stateMutability":"nonpayable","type":"function"},{"inputs":[],"name":"getAllElections","outputs":[{"components":[{"internalType":"string","name":"name","type":"string"},{"internalType":"uint256","name":"start_date","type":"uint256"},{"internalType":"uint256","name":"end_date","type":"uint256"},{"internalType":"uint256","name":"noOfCandidates","type":"uint256"},{"components":[{"internalType":"string","name":"name","type":"string"},{"internalType":"string","name":"party","type":"string"},{"internalType":"string","name":"image_url","type":"string"},{"internalType":"string","name":"party_image_url","type":"string"}],"internalType":"struct ElectionInfo.Candidate[]","name":"candidates","type":"tuple[]"},{"internalType":"string","name":"image_url","type":"string"},{"internalType":"uint256","name":"totalVoted","type":"uint256"},{"internalType":"enum ElectionInfo.Phase","name":"currPhase","type":"uint8"}],"internalType":"struct ElectionInfo.returnElection[]","name":"","type":"tuple[]"}],"stateMutability":"view","type":"function"},{"inputs":[{"internalType":"uint256","name":"_electionid","type":"uint256"},{"internalType":"string","name":"_aadhar","type":"string"}],"name":"getCandidates","outputs":[{"components":[{"internalType":"string","name":"name","type":"string"},{"internalType":"string","name":"party","type":"string"},{"internalType":"string","name":"image_url","type":"string"},{"internalType":"string","name":"party_image_url","type":"string"}],"internalType":"struct ElectionInfo.Candidate[]","name":"","type":"tuple[]"}],"stateMutability":"view","type":"function"},{"inputs":[{"internalType":"uint256","name":"_id","type":"uint256"}],"name":"getElectionById","outputs":[{"components":[{"internalType":"string","name":"name","type":"string"},{"internalType":"uint256","name":"start_date","type":"uint256"},{"internalType":"uint256","name":"end_date","type":"uint256"},{"internalType":"uint256","name":"noOfCandidates","type":"uint256"},{"components":[{"internalType":"string","name":"name","type":"string"},{"internalType":"string","name":"party","type":"string"},{"internalType":"string","name":"image_url","type":"string"},{"internalType":"string","name":"party_image_url","type":"string"}],"internalType":"struct ElectionInfo.Candidate[]","name":"candidates","type":"tuple[]"},{"internalType":"string","name":"image_url","type":"string"},{"internalType":"uint256","name":"totalVoted","type":"uint256"},{"internalType":"enum ElectionInfo.Phase","name":"currPhase","type":"uint8"}],"internalType":"struct ElectionInfo.returnElection","name":"","type":"tuple"}],"stateMutability":"view","type":"function"},{"inputs":[{"internalType":"uint256","name":"_electionid","type":"uint256"}],"name":"getElectionResults","outputs":[{"components":[{"internalType":"string","name":"name","type":"string"},{"internalType":"string","name":"party","type":"string"},{"internalType":"string","name":"image_url","type":"string"},{"internalType":"string","name":"party_image_url","type":"string"}],"internalType":"struct ElectionInfo.Candidate[]","name":"","type":"tuple[]"},{"internalType":"uint256[]","name":"","type":"uint256[]"}],"stateMutability":"view","type":"function"},{"inputs":[{"internalType":"string","name":"_aadhar","type":"string"}],"name":"getElections","outputs":[{"internalType":"uint256[]","name":"","type":"uint256[]"}],"stateMutability":"view","type":"function"},{"inputs":[],"name":"getPhase","outputs":[{"internalType":"enum ElectionInfo.Phase[]","name":"","type":"uint8[]"}],"stateMutability":"view","type":"function"},{"inputs":[{"internalType":"string","name":"_aadhar","type":"string"}],"name":"getUser","outputs":[{"components":[{"internalType":"uint256","name":"userId","type":"uint256"},{"internalType":"string","name":"name","type":"string"},{"internalType":"string","name":"dob","type":"string"},{"internalType":"bytes32","name":"aadharHash","type":"bytes32"},{"internalType":"uint256","name":"noOfElections","type":"uint256"},{"internalType":"uint256[]","name":"elections","type":"uint256[]"}],"internalType":"struct UserInfo.User","name":"","type":"tuple"}],"stateMutability":"view","type":"function"},{"inputs":[{"internalType":"string","name":"_aadhar","type":"string"}],"name":"hashAadhar","outputs":[{"internalType":"bytes32","name":"","type":"bytes32"}],"stateMutability":"pure","type":"function"},{"inputs":[{"internalType":"string","name":"_name","type":"string"},{"internalType":"string","name":"_image_url","type":"string"},{"internalType":"uint256","name":"_start_date","type":"uint256"},{"internalType":"uint256","name":"_end_date","type":"uint256"},{"internalType":"string","name":"_aadhar","type":"string"}],"name":"init","outputs":[{"internalType":"uint256","name":"","type":"uint256"}],"stateMutability":"nonpayable","type":"function"},{"inputs":[],"name":"initializer","outputs":[],"stateMutability":"nonpayable","type":"function"},{"inputs":[],"name":"noOfUsers","outputs":[{"internalType":"uint256","name":"","type":"uint256"}],"stateMutability":"view","type":"function"},{"inputs":[],"name":"numberOfElections","outputs":[{"internalType":"uint256","name":"","type":"uint256"}],"stateMutability":"view","type":"function"},{"inputs":[{"internalType":"uint256","name":"_electionid","type":"uint256"},{"internalType":"string","name":"_aadhar","type":"string"}],"name":"startVoting","outputs":[],"stateMutability":"nonpayable","type":"function"}],"evm":{"bytecode":{"linkReferences":{},"object":"608060405234801561001057600080fd5b50612ad4806100206000396000f3fe608060405234801561001057600080fd5b506004361061012c5760003560e01c80637fd5f268116100ad578063c6958b1211610071578063c6958b12146102a3578063cdc389f6146102c3578063e8ededa6146102cc578063eced0280146102ed578063ee50344a1461030257600080fd5b80637fd5f2681461022b57806392721cff14610240578063929f78d2146102605780639ce110d714610280578063b1330ca91461029057600080fd5b806331feb671116100f457806331feb671146101ab578063450a0a4b146101cb5780635e6fef01146101de5780636f7fcddb146102055780637b4d5c1b1461021857600080fd5b8063012ab8f11461013157806301934a831461015957806314e0d72b1461017057806319b99e031461018357806327271a9114610196575b600080fd5b61014461013f36600461204f565b610315565b60405190151581526020015b60405180910390f35b61016260045481565b604051908152602001610150565b61016261017e3660046120b2565b610398565b6101626101913660046120ee565b6103c8565b6101a96101a4366004612187565b6104f4565b005b6101be6101b93660046120b2565b6106e7565b60405161015091906122bc565b6101626101d9366004612364565b610946565b6101f16101ec3660046123ff565b610a9e565b604051610150989796959493929190612450565b6101626102133660046124b3565b610bf4565b6101a961022636600461255f565b610cf1565b610233610df1565b60405161015091906126db565b61025361024e36600461255f565b610e97565b604051610150919061273d565b61027361026e3660046120b2565b6111c7565b6040516101509190612792565b6101a96001600481905560009055565b6101a961029e36600461255f565b61128a565b6102b66102b13660046123ff565b611380565b60405161015091906127a5565b61016260015481565b6102df6102da3660046123ff565b611766565b6040516101509291906127b8565b6102f5611af1565b60405161015091906127e6565b610273610310366004612831565b611bb5565b60008061032184610398565b9050826040516020016103349190612880565b60408051601f1981840301815282825280516020918201206000858152600383529290922091926103669291016128d1565b60405160208183030381529060405280519060200120141561038c576001915050610392565b60009150505b92915050565b6000816040516020016103ab9190612880565b604051602081830303815290604052805190602001209050919050565b6000806103d486610398565b600081815260026020526040902060030154909150811461042b5760405162461bcd60e51b815260206004820152600c60248201526b24b73b30b634b2103ab9b2b960a11b60448201526064015b60405180910390fd5b8284106104865760405162461bcd60e51b8152602060048201526024808201527f537461727420446174652073686f756c64206265206265666f726520456e64206044820152634461746560e01b6064820152608401610422565b60008181526002602052604081206004018054916104a383612983565b9190505550600060016104b9878a88888c610946565b6104c3919061299e565b6000928352600260209081526040842060050180546001810182559085529320909201829055509695505050505050565b848160015482106105175760405162461bcd60e51b8152600401610422906129b5565b6000828152602081905260409020600a015461053282610398565b1461054f5760405162461bcd60e51b8152600401610422906129e2565b60008760015481106105735760405162461bcd60e51b8152600401610422906129b5565b81600281111561058557610585612418565b60008281526020819052604090206009015460ff1660028111156105ab576105ab612418565b146105c85760405162461bcd60e51b815260040161042290612a4b565b6105f36040518060800160405280606081526020016060815260200160608152602001606081525090565b8a815260208082018a905260408083018a90526060830189905260008c81528083529081206004908101805460018101825590835291839020845180518695949093029091019261064992849290910190611ebf565b5060208281015180516106629260018501920190611ebf565b506040820151805161067e916002840191602090910190611ebf565b506060820151805161069a916003840191602090910190611ebf565b50505060008a81526020818152604082206005810180546001810182559084529183209091018290558b82526003018054916106d583612983565b91905055505050505050505050505050565b6107236040518060c001604052806000815260200160608152602001606081526020016000801916815260200160008152602001606081525090565b600061072e83610398565b60008181526002602052604090206003015490915081146107805760405162461bcd60e51b815260206004820152600c60248201526b24b73b30b634b2103ab9b2b960a11b6044820152606401610422565b6000600260008381526020019081526020016000209050806040518060c0016040529081600082015481526020016001820180546107bd9061289c565b80601f01602080910402602001604051908101604052809291908181526020018280546107e99061289c565b80156108365780601f1061080b57610100808354040283529160200191610836565b820191906000526020600020905b81548152906001019060200180831161081957829003601f168201915b5050505050815260200160028201805461084f9061289c565b80601f016020809104026020016040519081016040528092919081815260200182805461087b9061289c565b80156108c85780601f1061089d576101008083540402835291602001916108c8565b820191906000526020600020905b8154815290600101906020018083116108ab57829003601f168201915b5050505050815260200160038201548152602001600482015481526020016005820180548060200260200160405190810160405280929190818152602001828054801561093457602002820191906000526020600020905b815481526020019060010190808311610920575b50505050508152505092505050919050565b60015460009081526020819052604081204285116109b65760405162461bcd60e51b815260206004820152602760248201527f54686520737461727420646174652073686f756c64206265206461746520696e6044820152662066757475726560c81b6064820152608401610422565b848411610a1c5760405162461bcd60e51b815260206004820152602e60248201527f54686520656e6420646174652073686f756c64206265206168656164206f662060448201526d746865207374617274206461746560901b6064820152608401610422565b8651610a2e90829060208a0190611ebf565b506001810185905560028101849055610a4683610398565b600a82015560098101805460ff19169055600060078201819055600382018190556001805491610a7583612983565b90915550508551610a8f9060068301906020890190611ebf565b50506001549695505050505050565b600060208190529081526040902080548190610ab99061289c565b80601f0160208091040260200160405190810160405280929190818152602001828054610ae59061289c565b8015610b325780601f10610b0757610100808354040283529160200191610b32565b820191906000526020600020905b815481529060010190602001808311610b1557829003601f168201915b505050505090806001015490806002015490806003015490806006018054610b599061289c565b80601f0160208091040260200160405190810160405280929190818152602001828054610b859061289c565b8015610bd25780601f10610ba757610100808354040283529160200191610bd2565b820191906000526020600020905b815481529060010190602001808311610bb557829003601f168201915b5050505060078301546009840154600a909401549293909260ff909116915088565b600080610c0084610398565b600081815260026020526040902060030154909150811415610c645760405162461bcd60e51b815260206004820152601c60248201527f416164686172732063616e6e6f74206265207573656420616761696e000000006044820152606401610422565b600081815260026020908152604090912087519091610c8a9160018401918a0190611ebf565b508551610ca09060028301906020890190611ebf565b506003808201839055600060048084018290555483558381526020918252604090208551610cd092870190611ebf565b5060048054906000610ce183612983565b9091555091979650505050505050565b81816001548210610d145760405162461bcd60e51b8152600401610422906129b5565b6000828152602081905260409020600a0154610d2f82610398565b14610d4c5760405162461bcd60e51b8152600401610422906129e2565b6001846001548110610d705760405162461bcd60e51b8152600401610422906129b5565b816002811115610d8257610d82612418565b60008281526020819052604090206009015460ff166002811115610da857610da8612418565b14610dc55760405162461bcd60e51b815260040161042290612a4b565b600086815260208190526040902060090180546002919060ff19166001835b0217905550505050505050565b606060006001546001600160401b03811115610e0f57610e0f611fad565b604051908082528060200260200182016040528015610e4857816020015b610e35611f43565b815260200190600190039081610e2d5790505b50905060005b600154811015610e9157610e6181611380565b828281518110610e7357610e73612a70565b60200260200101819052508080610e8990612983565b915050610e4e565b50919050565b606082826001548210610ebc5760405162461bcd60e51b8152600401610422906129b5565b6000828152602081905260409020600a0154610ed782610398565b14610ef45760405162461bcd60e51b8152600401610422906129e2565b6001548510610f155760405162461bcd60e51b8152600401610422906129b5565b60008581526020818152604080832060040180548251818502810185019093528083529193909284015b828210156111b95783829060005260206000209060040201604051806080016040529081600082018054610f729061289c565b80601f0160208091040260200160405190810160405280929190818152602001828054610f9e9061289c565b8015610feb5780601f10610fc057610100808354040283529160200191610feb565b820191906000526020600020905b815481529060010190602001808311610fce57829003601f168201915b505050505081526020016001820180546110049061289c565b80601f01602080910402602001604051908101604052809291908181526020018280546110309061289c565b801561107d5780601f106110525761010080835404028352916020019161107d565b820191906000526020600020905b81548152906001019060200180831161106057829003601f168201915b505050505081526020016002820180546110969061289c565b80601f01602080910402602001604051908101604052809291908181526020018280546110c29061289c565b801561110f5780601f106110e45761010080835404028352916020019161110f565b820191906000526020600020905b8154815290600101906020018083116110f257829003601f168201915b505050505081526020016003820180546111289061289c565b80601f01602080910402602001604051908101604052809291908181526020018280546111549061289c565b80156111a15780601f10611176576101008083540402835291602001916111a1565b820191906000526020600020905b81548152906001019060200180831161118457829003601f168201915b50505050508152505081526020019060010190610f3f565b505050509250505092915050565b606060006111d483610398565b60008181526002602052604090206003015490915081146112265760405162461bcd60e51b815260206004820152600c60248201526b24b73b30b634b2102ab9b2b960a11b6044820152606401610422565b6000818152600260209081526040918290206005018054835181840281018401909452808452909183018282801561127d57602002820191906000526020600020905b815481526020019060010190808311611269575b5050505050915050919050565b818160015482106112ad5760405162461bcd60e51b8152600401610422906129b5565b6000828152602081905260409020600a01546112c882610398565b146112e55760405162461bcd60e51b8152600401610422906129e2565b60008460015481106113095760405162461bcd60e51b8152600401610422906129b5565b81600281111561131b5761131b612418565b60008281526020819052604090206009015460ff16600281111561134157611341612418565b1461135e5760405162461bcd60e51b815260040161042290612a4b565b600086815260208190526040902060090180546001919060ff19168280610de4565b611388611f43565b60015482106113a95760405162461bcd60e51b8152600401610422906129b5565b6113b1611f43565b6000838152602081905260409020805461145291906113cf9061289c565b80601f01602080910402602001604051908101604052809291908181526020018280546113fb9061289c565b80156114485780601f1061141d57610100808354040283529160200191611448565b820191906000526020600020905b81548152906001019060200180831161142b57829003601f168201915b5050505050611e36565b8152600083815260208181526040808320600181015483860152600281015491850191909152858352919052600301546001600160401b0381111561149957611499611fad565b6040519080825280602002602001820160405280156114f557816020015b6114e26040518060800160405280606081526020016060815260200160608152602001606081525090565b8152602001906001900390816114b75790505b50608082015260005b6000848152602081905260409020600301548110156116d25761155c600080868152602001908152602001600020600401828154811061154057611540612a70565b906000526020600020906004020160000180546113cf9061289c565b8260800151828151811061157257611572612a70565b6020026020010151600001819052506115c660008086815260200190815260200160002060040182815481106115aa576115aa612a70565b906000526020600020906004020160010180546113cf9061289c565b826080015182815181106115dc576115dc612a70565b602002602001015160200181905250611630600080868152602001908152602001600020600401828154811061161457611614612a70565b906000526020600020906004020160020180546113cf9061289c565b8260800151828151811061164657611646612a70565b60200260200101516040018190525061169a600080868152602001908152602001600020600401828154811061167e5761167e612a70565b906000526020600020906004020160030180546113cf9061289c565b826080015182815181106116b0576116b0612a70565b60200260200101516060018190525080806116ca90612983565b9150506114fe565b50600083815260208190526040902060060180546116f491906113cf9061289c565b60a08201526000838152602081815260408220600381015460608501528583529190526009015460e082019060ff16600281111561173457611734612418565b9081600281111561174757611747612418565b9052506000928352602083905260409092206007015460c08301525090565b606080600283600154811061178d5760405162461bcd60e51b8152600401610422906129b5565b81600281111561179f5761179f612418565b60008281526020819052604090206009015460ff1660028111156117c5576117c5612418565b146117e25760405162461bcd60e51b815260040161042290612a4b565b600085815260208181526040808320600481018054835181860281018601909452808452909460059092019385929084015b82821015611a8e57838290600052602060002090600402016040518060800160405290816000820180546118479061289c565b80601f01602080910402602001604051908101604052809291908181526020018280546118739061289c565b80156118c05780601f10611895576101008083540402835291602001916118c0565b820191906000526020600020905b8154815290600101906020018083116118a357829003601f168201915b505050505081526020016001820180546118d99061289c565b80601f01602080910402602001604051908101604052809291908181526020018280546119059061289c565b80156119525780601f1061192757610100808354040283529160200191611952565b820191906000526020600020905b81548152906001019060200180831161193557829003601f168201915b5050505050815260200160028201805461196b9061289c565b80601f01602080910402602001604051908101604052809291908181526020018280546119979061289c565b80156119e45780601f106119b9576101008083540402835291602001916119e4565b820191906000526020600020905b8154815290600101906020018083116119c757829003601f168201915b505050505081526020016003820180546119fd9061289c565b80601f0160208091040260200160405190810160405280929190818152602001828054611a299061289c565b8015611a765780601f10611a4b57610100808354040283529160200191611a76565b820191906000526020600020905b815481529060010190602001808311611a5957829003601f168201915b50505050508152505081526020019060010190611814565b50505050915080805480602002602001604051908101604052809291908181526020018280548015611adf57602002820191906000526020600020905b815481526020019060010190808311611acb575b50505050509050935093505050915091565b606060006001546001600160401b03811115611b0f57611b0f611fad565b604051908082528060200260200182016040528015611b38578160200160208202803683370190505b50905060005b600154811015610e9157600081815260208190526040902060090154825160ff90911690839083908110611b7457611b74612a70565b60200260200101906002811115611b8d57611b8d612418565b90816002811115611ba057611ba0612418565b90525080611bad81612983565b915050611b3e565b60606001846001548110611bdb5760405162461bcd60e51b8152600401610422906129b5565b816002811115611bed57611bed612418565b60008281526020819052604090206009015460ff166002811115611c1357611c13612418565b14611c305760405162461bcd60e51b815260040161042290612a4b565b60008681526020819052604090206003015485108015611c4e575060015b611c915760405162461bcd60e51b8152602060048201526014602482015273125b9d985b1a590810d85b991a59185d1948125160621b6044820152606401610422565b600080878152602001908152602001600020600801600085604051602001611cb99190612880565b60408051601f198184030181529181528151602092830120835290820192909252016000205460ff1615611d2f5760405162461bcd60e51b815260206004820152601760248201527f566f7465722068617320616c726561647920766f7465640000000000000000006044820152606401610422565b6000868152602081905260409020600501805486908110611d5257611d52612a70565b60009182526020822001805491611d6883612983565b919050555060016000808881526020019081526020016000206008016000611d8f87610398565b815260208082019290925260409081016000908120805460ff191694151594909417909355888352908290528120600701805491611dcc83612983565b90915550506000868152602081815260409182902060050180548351818402810184019094528084529091830182828015611e2657602002820191906000526020600020905b815481526020019060010190808311611e12575b5050505050925050509392505050565b6060600082516001600160401b03811115611e5357611e53611fad565b6040519080825280601f01601f191660200182016040528015611e7d576020820181803683370190505b50905060008351601f611e909190612a86565b905060205b818111611eb6578481015183820152611eaf602082612a86565b9050611e95565b50909392505050565b828054611ecb9061289c565b90600052602060002090601f016020900481019282611eed5760008555611f33565b82601f10611f0657805160ff1916838001178555611f33565b82800160010185558215611f33579182015b82811115611f33578251825591602001919060010190611f18565b50611f3f929150611f98565b5090565b6040518061010001604052806060815260200160008152602001600081526020016000815260200160608152602001606081526020016000815260200160006002811115611f9357611f93612418565b905290565b5b80821115611f3f5760008155600101611f99565b634e487b7160e01b600052604160045260246000fd5b600082601f830112611fd457600080fd5b81356001600160401b0380821115611fee57611fee611fad565b604051601f8301601f19908116603f0116810190828211818310171561201657612016611fad565b8160405283815286602085880101111561202f57600080fd5b836020870160208301376000602085830101528094505050505092915050565b6000806040838503121561206257600080fd5b82356001600160401b038082111561207957600080fd5b61208586838701611fc3565b9350602085013591508082111561209b57600080fd5b506120a885828601611fc3565b9150509250929050565b6000602082840312156120c457600080fd5b81356001600160401b038111156120da57600080fd5b6120e684828501611fc3565b949350505050565b600080600080600060a0868803121561210657600080fd5b85356001600160401b038082111561211d57600080fd5b61212989838a01611fc3565b9650602088013591508082111561213f57600080fd5b61214b89838a01611fc3565b9550604088013591508082111561216157600080fd5b5061216e88828901611fc3565b9598949750949560608101359550608001359392505050565b60008060008060008060c087890312156121a057600080fd5b86356001600160401b03808211156121b757600080fd5b6121c38a838b01611fc3565b97506020890135965060408901359150808211156121e057600080fd5b6121ec8a838b01611fc3565b9550606089013591508082111561220257600080fd5b61220e8a838b01611fc3565b9450608089013591508082111561222457600080fd5b6122308a838b01611fc3565b935060a089013591508082111561224657600080fd5b5061225389828a01611fc3565b9150509295509295509295565b60005b8381101561227b578181015183820152602001612263565b8381111561228a576000848401525b50505050565b600081518084526122a8816020860160208601612260565b601f01601f19169290920160200192915050565b600060208083528351818401528084015160c060408501526122e160e0850182612290565b90506040850151601f19808684030160608701526122ff8383612290565b606088015160808881019190915288015160a08089019190915288015187820390920160c088015281518082529185019350600092508401905b808310156123595783518252928401926001929092019190840190612339565b509695505050505050565b600080600080600060a0868803121561237c57600080fd5b85356001600160401b038082111561239357600080fd5b61239f89838a01611fc3565b965060208801359150808211156123b557600080fd5b6123c189838a01611fc3565b9550604088013594506060880135935060808801359150808211156123e557600080fd5b506123f288828901611fc3565b9150509295509295909350565b60006020828403121561241157600080fd5b5035919050565b634e487b7160e01b600052602160045260246000fd5b6003811061244c57634e487b7160e01b600052602160045260246000fd5b9052565b60006101008083526124648184018c612290565b9050896020840152886040840152876060840152828103608084015261248a8188612290565b9150508460a08301526124a060c083018561242e565b8260e08301529998505050505050505050565b600080600080608085870312156124c957600080fd5b84356001600160401b03808211156124e057600080fd5b6124ec88838901611fc3565b9550602087013591508082111561250257600080fd5b61250e88838901611fc3565b9450604087013591508082111561252457600080fd5b61253088838901611fc3565b9350606087013591508082111561254657600080fd5b5061255387828801611fc3565b91505092959194509250565b6000806040838503121561257257600080fd5b8235915060208301356001600160401b0381111561258f57600080fd5b6120a885828601611fc3565b600081518084526020808501808196508360051b8101915082860160005b8581101561263f5782840389528151608081518187526125db82880182612290565b91505086820151868203888801526125f38282612290565b9150506040808301518783038289015261260d8382612290565b925050506060808301519250868203818801525061262b8183612290565b9a87019a95505050908401906001016125b9565b5091979650505050505050565b6000610100825181855261266282860182612290565b9150506020830151602085015260408301516040850152606083015160608501526080830151848203608086015261269a828261259b565b91505060a083015184820360a08601526126b48282612290565b91505060c083015160c085015260e08301516126d360e086018261242e565b509392505050565b6000602080830181845280855180835260408601915060408160051b870101925083870160005b8281101561273057603f1988860301845261271e85835161264c565b94509285019290850190600101612702565b5092979650505050505050565b602081526000612750602083018461259b565b9392505050565b600081518084526020808501945080840160005b838110156127875781518752958201959082019060010161276b565b509495945050505050565b6020815260006127506020830184612757565b602081526000612750602083018461264c565b6040815260006127cb604083018561259b565b82810360208401526127dd8185612757565b95945050505050565b6020808252825182820181905260009190848201906040850190845b818110156128255761281583855161242e565b9284019291840191600101612802565b50909695505050505050565b60008060006060848603121561284657600080fd5b833592506020840135915060408401356001600160401b0381111561286a57600080fd5b61287686828701611fc3565b9150509250925092565b60008251612892818460208701612260565b9190910192915050565b600181811c908216806128b057607f821691505b60208210811415610e9157634e487b7160e01b600052602260045260246000fd5b600080835481600182811c9150808316806128ed57607f831692505b602080841082141561290d57634e487b7160e01b86526022600452602486fd5b81801561292157600181146129325761295f565b60ff1986168952848901965061295f565b60008a81526020902060005b868110156129575781548b82015290850190830161293e565b505084890196505b509498975050505050505050565b634e487b7160e01b600052601160045260246000fd5b60006000198214156129975761299761296d565b5060010190565b6000828210156129b0576129b061296d565b500390565b602080825260139082015272125b9d985b1a5908115b1958dd1a5bdb881251606a1b604082015260600190565b60208082526043908201527f41636573732044656e6965642c796f75206172656e277420746865206f776e6560408201527f72206f662074686520656c656374696f6e2e20496e636f7272656374204161646060820152623430b960e91b608082015260a00190565b6020808252600b908201526a57726f6e6720706861736560a81b604082015260600190565b634e487b7160e01b600052603260045260246000fd5b60008219821115612a9957612a9961296d565b50019056fea2646970667358221220c9876e87f903f5420d97d9e11362ce3f4065d57862d9c6161d63dbf5b15f72e964736f6c63430008090033","opcodes":"PUSH1 0x80 PUSH1 0x40 MSTORE CALLVALUE DUP1 ISZERO PUSH2 0x10 JUMPI PUSH1 0x0 DUP1 REVERT JUMPDEST POP PUSH2 0x2AD4 DUP1 PUSH2 0x20 PUSH1 0x0 CODECOPY PUSH1 0x0 RETURN INVALID PUSH1 0x80 PUSH1 0x40 MSTORE CALLVALUE DUP1 ISZERO PUSH2 0x10 JUMPI PUSH1 0x0 DUP1 REVERT JUMPDEST POP PUSH1 0x4 CALLDATASIZE LT PUSH2 0x12C JUMPI PUSH1 0x0 CALLDATALOAD PUSH1 0xE0 SHR DUP1 PUSH4 0x7FD5F268 GT PUSH2 0xAD JUMPI DUP1 PUSH4 0xC6958B12 GT PUSH2 0x71 JUMPI DUP1 PUSH4 0xC6958B12 EQ PUSH2 0x2A3 JUMPI DUP1 PUSH4 0xCDC389F6 EQ PUSH2 0x2C3 JUMPI DUP1 PUSH4 0xE8EDEDA6 EQ PUSH2 0x2CC JUMPI DUP1 PUSH4 0xECED0280 EQ PUSH2 0x2ED JUMPI DUP1 PUSH4 0xEE50344A EQ PUSH2 0x302 JUMPI PUSH1 0x0 DUP1 REVERT JUMPDEST DUP1 PUSH4 0x7FD5F268 EQ PUSH2 0x22B JUMPI DUP1 PUSH4 0x92721CFF EQ PUSH2 0x240 JUMPI DUP1 PUSH4 0x929F78D2 EQ PUSH2 0x260 JUMPI DUP1 PUSH4 0x9CE110D7 EQ PUSH2 0x280 JUMPI DUP1 PUSH4 0xB1330CA9 EQ PUSH2 0x290 JUMPI PUSH1 0x0 DUP1 REVERT JUMPDEST DUP1 PUSH4 0x31FEB671 GT PUSH2 0xF4 JUMPI DUP1 PUSH4 0x31FEB671 EQ PUSH2 0x1AB JUMPI DUP1 PUSH4 0x450A0A4B EQ PUSH2 0x1CB JUMPI DUP1 PUSH4 0x5E6FEF01 EQ PUSH2 0x1DE JUMPI DUP1 PUSH4 0x6F7FCDDB EQ PUSH2 0x205 JUMPI DUP1 PUSH4 0x7B4D5C1B EQ PUSH2 0x218 JUMPI PUSH1 0x0 DUP1 REVERT JUMPDEST DUP1 PUSH4 0x12AB8F1 EQ PUSH2 0x131 JUMPI DUP1 PUSH4 0x1934A83 EQ PUSH2 0x159 JUMPI DUP1 PUSH4 0x14E0D72B EQ PUSH2 0x170 JUMPI DUP1 PUSH4 0x19B99E03 EQ PUSH2 0x183 JUMPI DUP1 PUSH4 0x27271A91 EQ PUSH2 0x196 JUMPI JUMPDEST PUSH1 0x0 DUP1 REVERT JUMPDEST PUSH2 0x144 PUSH2 0x13F CALLDATASIZE PUSH1 0x4 PUSH2 0x204F JUMP JUMPDEST PUSH2 0x315 JUMP JUMPDEST PUSH1 0x40 MLOAD SWAP1 ISZERO ISZERO DUP2 MSTORE PUSH1 0x20 ADD JUMPDEST PUSH1 0x40 MLOAD DUP1 SWAP2 SUB SWAP1 RETURN JUMPDEST PUSH2 0x162 PUSH1 0x4 SLOAD DUP2 JUMP JUMPDEST PUSH1 0x40 MLOAD SWAP1 DUP2 MSTORE PUSH1 0x20 ADD PUSH2 0x150 JUMP JUMPDEST PUSH2 0x162 PUSH2 0x17E CALLDATASIZE PUSH1 0x4 PUSH2 0x20B2 JUMP JUMPDEST PUSH2 0x398 JUMP JUMPDEST PUSH2 0x162 PUSH2 0x191 CALLDATASIZE PUSH1 0x4 PUSH2 0x20EE JUMP JUMPDEST PUSH2 0x3C8 JUMP JUMPDEST PUSH2 0x1A9 PUSH2 0x1A4 CALLDATASIZE PUSH1 0x4 PUSH2 0x2187 JUMP JUMPDEST PUSH2 0x4F4 JUMP JUMPDEST STOP JUMPDEST PUSH2 0x1BE PUSH2 0x1B9 CALLDATASIZE PUSH1 0x4 PUSH2 0x20B2 JUMP JUMPDEST PUSH2 0x6E7 JUMP JUMPDEST PUSH1 0x40 MLOAD PUSH2 0x150 SWAP2 SWAP1 PUSH2 0x22BC JUMP JUMPDEST PUSH2 0x162 PUSH2 0x1D9 CALLDATASIZE PUSH1 0x4 PUSH2 0x2364 JUMP JUMPDEST PUSH2 0x946 JUMP JUMPDEST PUSH2 0x1F1 PUSH2 0x1EC CALLDATASIZE PUSH1 0x4 PUSH2 0x23FF JUMP JUMPDEST PUSH2 0xA9E JUMP JUMPDEST PUSH1 0x40 MLOAD PUSH2 0x150 SWAP9 SWAP8 SWAP7 SWAP6 SWAP5 SWAP4 SWAP3 SWAP2 SWAP1 PUSH2 0x2450 JUMP JUMPDEST PUSH2 0x162 PUSH2 0x213 CALLDATASIZE PUSH1 0x4 PUSH2 0x24B3 JUMP JUMPDEST PUSH2 0xBF4 JUMP JUMPDEST PUSH2 0x1A9 PUSH2 0x226 CALLDATASIZE PUSH1 0x4 PUSH2 0x255F JUMP JUMPDEST PUSH2 0xCF1 JUMP JUMPDEST PUSH2 0x233 PUSH2 0xDF1 JUMP JUMPDEST PUSH1 0x40 MLOAD PUSH2 0x150 SWAP2 SWAP1 PUSH2 0x26DB JUMP JUMPDEST PUSH2 0x253 PUSH2 0x24E CALLDATASIZE PUSH1 0x4 PUSH2 0x255F JUMP JUMPDEST PUSH2 0xE97 JUMP JUMPDEST PUSH1 0x40 MLOAD PUSH2 0x150 SWAP2 SWAP1 PUSH2 0x273D JUMP JUMPDEST PUSH2 0x273 PUSH2 0x26E CALLDATASIZE PUSH1 0x4 PUSH2 0x20B2 JUMP JUMPDEST PUSH2 0x11C7 JUMP JUMPDEST PUSH1 0x40 MLOAD PUSH2 0x150 SWAP2 SWAP1 PUSH2 0x2792 JUMP JUMPDEST PUSH2 0x1A9 PUSH1 0x1 PUSH1 0x4 DUP2 SWAP1 SSTORE PUSH1 0x0 SWAP1 SSTORE JUMP JUMPDEST PUSH2 0x1A9 PUSH2 0x29E CALLDATASIZE PUSH1 0x4 PUSH2 0x255F JUMP JUMPDEST PUSH2 0x128A JUMP JUMPDEST PUSH2 0x2B6 PUSH2 0x2B1 CALLDATASIZE PUSH1 0x4 PUSH2 0x23FF JUMP JUMPDEST PUSH2 0x1380 JUMP JUMPDEST PUSH1 0x40 MLOAD PUSH2 0x150 SWAP2 SWAP1 PUSH2 0x27A5 JUMP JUMPDEST PUSH2 0x162 PUSH1 0x1 SLOAD DUP2 JUMP JUMPDEST PUSH2 0x2DF PUSH2 0x2DA CALLDATASIZE PUSH1 0x4 PUSH2 0x23FF JUMP JUMPDEST PUSH2 0x1766 JUMP JUMPDEST PUSH1 0x40 MLOAD PUSH2 0x150 SWAP3 SWAP2 SWAP1 PUSH2 0x27B8 JUMP JUMPDEST PUSH2 0x2F5 PUSH2 0x1AF1 JUMP JUMPDEST PUSH1 0x40 MLOAD PUSH2 0x150 SWAP2 SWAP1 PUSH2 0x27E6 JUMP JUMPDEST PUSH2 0x273 PUSH2 0x310 CALLDATASIZE PUSH1 0x4 PUSH2 0x2831 JUMP JUMPDEST PUSH2 0x1BB5 JUMP JUMPDEST PUSH1 0x0 DUP1 PUSH2 0x321 DUP5 PUSH2 0x398 JUMP JUMPDEST SWAP1 POP DUP3 PUSH1 0x40 MLOAD PUSH1 0x20 ADD PUSH2 0x334 SWAP2 SWAP1 PUSH2 0x2880 JUMP JUMPDEST PUSH1 0x40 DUP1 MLOAD PUSH1 0x1F NOT DUP2 DUP5 SUB ADD DUP2 MSTORE DUP3 DUP3 MSTORE DUP1 MLOAD PUSH1 0x20 SWAP2 DUP3 ADD KECCAK256 PUSH1 0x0 DUP6 DUP2 MSTORE PUSH1 0x3 DUP4 MSTORE SWAP3 SWAP1 SWAP3 KECCAK256 SWAP2 SWAP3 PUSH2 0x366 SWAP3 SWAP2 ADD PUSH2 0x28D1 JUMP JUMPDEST PUSH1 0x40 MLOAD PUSH1 0x20 DUP2 DUP4 SUB SUB DUP2 MSTORE SWAP1 PUSH1 0x40 MSTORE DUP1 MLOAD SWAP1 PUSH1 0x20 ADD KECCAK256 EQ ISZERO PUSH2 0x38C JUMPI PUSH1 0x1 SWAP2 POP POP PUSH2 0x392 JUMP JUMPDEST PUSH1 0x0 SWAP2 POP POP JUMPDEST SWAP3 SWAP2 POP POP JUMP JUMPDEST PUSH1 0x0 DUP2 PUSH1 0x40 MLOAD PUSH1 0x20 ADD PUSH2 0x3AB SWAP2 SWAP1 PUSH2 0x2880 JUMP JUMPDEST PUSH1 0x40 MLOAD PUSH1 0x20 DUP2 DUP4 SUB SUB DUP2 MSTORE SWAP1 PUSH1 0x40 MSTORE DUP1 MLOAD SWAP1 PUSH1 0x20 ADD KECCAK256 SWAP1 POP SWAP2 SWAP1 POP JUMP JUMPDEST PUSH1 0x0 DUP1 PUSH2 0x3D4 DUP7 PUSH2 0x398 JUMP JUMPDEST PUSH1 0x0 DUP2 DUP2 MSTORE PUSH1 0x2 PUSH1 0x20 MSTORE PUSH1 0x40 SWAP1 KECCAK256 PUSH1 0x3 ADD SLOAD SWAP1 SWAP2 POP DUP2 EQ PUSH2 0x42B JUMPI PUSH1 0x40 MLOAD PUSH3 0x461BCD PUSH1 0xE5 SHL DUP2 MSTORE PUSH1 0x20 PUSH1 0x4 DUP3 ADD MSTORE PUSH1 0xC PUSH1 0x24 DUP3 ADD MSTORE PUSH12 0x24B73B30B634B2103AB9B2B9 PUSH1 0xA1 SHL PUSH1 0x44 DUP3 ADD MSTORE PUSH1 0x64 ADD JUMPDEST PUSH1 0x40 MLOAD DUP1 SWAP2 SUB SWAP1 REVERT JUMPDEST DUP3 DUP5 LT PUSH2 0x486 JUMPI PUSH1 0x40 MLOAD PUSH3 0x461BCD PUSH1 0xE5 SHL DUP2 MSTORE PUSH1 0x20 PUSH1 0x4 DUP3 ADD MSTORE PUSH1 0x24 DUP1 DUP3 ADD MSTORE PUSH32 0x537461727420446174652073686F756C64206265206265666F726520456E6420 PUSH1 0x44 DUP3 ADD MSTORE PUSH4 0x44617465 PUSH1 0xE0 SHL PUSH1 0x64 DUP3 ADD MSTORE PUSH1 0x84 ADD PUSH2 0x422 JUMP JUMPDEST PUSH1 0x0 DUP2 DUP2 MSTORE PUSH1 0x2 PUSH1 0x20 MSTORE PUSH1 0x40 DUP2 KECCAK256 PUSH1 0x4 ADD DUP1 SLOAD SWAP2 PUSH2 0x4A3 DUP4 PUSH2 0x2983 JUMP JUMPDEST SWAP2 SWAP1 POP SSTORE POP PUSH1 0x0 PUSH1 0x1 PUSH2 0x4B9 DUP8 DUP11 DUP9 DUP9 DUP13 PUSH2 0x946 JUMP JUMPDEST PUSH2 0x4C3 SWAP2 SWAP1 PUSH2 0x299E JUMP JUMPDEST PUSH1 0x0 SWAP3 DUP4 MSTORE PUSH1 0x2 PUSH1 0x20 SWAP1 DUP2 MSTORE PUSH1 0x40 DUP5 KECCAK256 PUSH1 0x5 ADD DUP1 SLOAD PUSH1 0x1 DUP2 ADD DUP3 SSTORE SWAP1 DUP6 MSTORE SWAP4 KECCAK256 SWAP1 SWAP3 ADD DUP3 SWAP1 SSTORE POP SWAP7 SWAP6 POP POP POP POP POP POP JUMP JUMPDEST DUP5 DUP2 PUSH1 0x1 SLOAD DUP3 LT PUSH2 0x517 JUMPI PUSH1 0x40 MLOAD PUSH3 0x461BCD PUSH1 0xE5 SHL DUP2 MSTORE PUSH1 0x4 ADD PUSH2 0x422 SWAP1 PUSH2 0x29B5 JUMP JUMPDEST PUSH1 0x0 DUP3 DUP2 MSTORE PUSH1 0x20 DUP2 SWAP1 MSTORE PUSH1 0x40 SWAP1 KECCAK256 PUSH1 0xA ADD SLOAD PUSH2 0x532 DUP3 PUSH2 0x398 JUMP JUMPDEST EQ PUSH2 0x54F JUMPI PUSH1 0x40 MLOAD PUSH3 0x461BCD PUSH1 0xE5 SHL DUP2 MSTORE PUSH1 0x4 ADD PUSH2 0x422 SWAP1 PUSH2 0x29E2 JUMP JUMPDEST PUSH1 0x0 DUP8 PUSH1 0x1 SLOAD DUP2 LT PUSH2 0x573 JUMPI PUSH1 0x40 MLOAD PUSH3 0x461BCD PUSH1 0xE5 SHL DUP2 MSTORE PUSH1 0x4 ADD PUSH2 0x422 SWAP1 PUSH2 0x29B5 JUMP JUMPDEST DUP2 PUSH1 0x2 DUP2 GT ISZERO PUSH2 0x585 JUMPI PUSH2 0x585 PUSH2 0x2418 JUMP JUMPDEST PUSH1 0x0 DUP3 DUP2 MSTORE PUSH1 0x20 DUP2 SWAP1 MSTORE PUSH1 0x40 SWAP1 KECCAK256 PUSH1 0x9 ADD SLOAD PUSH1 0xFF AND PUSH1 0x2 DUP2 GT ISZERO PUSH2 0x5AB JUMPI PUSH2 0x5AB PUSH2 0x2418 JUMP JUMPDEST EQ PUSH2 0x5C8 JUMPI PUSH1 0x40 MLOAD PUSH3 0x461BCD PUSH1 0xE5 SHL DUP2 MSTORE PUSH1 0x4 ADD PUSH2 0x422 SWAP1 PUSH2 0x2A4B JUMP JUMPDEST PUSH2 0x5F3 PUSH1 0x40 MLOAD DUP1 PUSH1 0x80 ADD PUSH1 0x40 MSTORE DUP1 PUSH1 0x60 DUP2 MSTORE PUSH1 0x20 ADD PUSH1 0x60 DUP2 MSTORE PUSH1 0x20 ADD PUSH1 0x60 DUP2 MSTORE PUSH1 0x20 ADD PUSH1 0x60 DUP2 MSTORE POP SWAP1 JUMP JUMPDEST DUP11 DUP2 MSTORE PUSH1 0x20 DUP1 DUP3 ADD DUP11 SWAP1 MSTORE PUSH1 0x40 DUP1 DUP4 ADD DUP11 SWAP1 MSTORE PUSH1 0x60 DUP4 ADD DUP10 SWAP1 MSTORE PUSH1 0x0 DUP13 DUP2 MSTORE DUP1 DUP4 MSTORE SWAP1 DUP2 KECCAK256 PUSH1 0x4 SWAP1 DUP2 ADD DUP1 SLOAD PUSH1 0x1 DUP2 ADD DUP3 SSTORE SWAP1 DUP4 MSTORE SWAP2 DUP4 SWAP1 KECCAK256 DUP5 MLOAD DUP1 MLOAD DUP7 SWAP6 SWAP5 SWAP1 SWAP4 MUL SWAP1 SWAP2 ADD SWAP3 PUSH2 0x649 SWAP3 DUP5 SWAP3 SWAP1 SWAP2 ADD SWAP1 PUSH2 0x1EBF JUMP JUMPDEST POP PUSH1 0x20 DUP3 DUP2 ADD MLOAD DUP1 MLOAD PUSH2 0x662 SWAP3 PUSH1 0x1 DUP6 ADD SWAP3 ADD SWAP1 PUSH2 0x1EBF JUMP JUMPDEST POP PUSH1 0x40 DUP3 ADD MLOAD DUP1 MLOAD PUSH2 0x67E SWAP2 PUSH1 0x2 DUP5 ADD SWAP2 PUSH1 0x20 SWAP1 SWAP2 ADD SWAP1 PUSH2 0x1EBF JUMP JUMPDEST POP PUSH1 0x60 DUP3 ADD MLOAD DUP1 MLOAD PUSH2 0x69A SWAP2 PUSH1 0x3 DUP5 ADD SWAP2 PUSH1 0x20 SWAP1 SWAP2 ADD SWAP1 PUSH2 0x1EBF JUMP JUMPDEST POP POP POP PUSH1 0x0 DUP11 DUP2 MSTORE PUSH1 0x20 DUP2 DUP2 MSTORE PUSH1 0x40 DUP3 KECCAK256 PUSH1 0x5 DUP2 ADD DUP1 SLOAD PUSH1 0x1 DUP2 ADD DUP3 SSTORE SWAP1 DUP5 MSTORE SWAP2 DUP4 KECCAK256 SWAP1 SWAP2 ADD DUP3 SWAP1 SSTORE DUP12 DUP3 MSTORE PUSH1 0x3 ADD DUP1 SLOAD SWAP2 PUSH2 0x6D5 DUP4 PUSH2 0x2983 JUMP JUMPDEST SWAP2 SWAP1 POP SSTORE POP POP POP POP POP POP POP POP POP POP POP POP JUMP JUMPDEST PUSH2 0x723 PUSH1 0x40 MLOAD DUP1 PUSH1 0xC0 ADD PUSH1 0x40 MSTORE DUP1 PUSH1 0x0 DUP2 MSTORE PUSH1 0x20 ADD PUSH1 0x60 DUP2 MSTORE PUSH1 0x20 ADD PUSH1 0x60 DUP2 MSTORE PUSH1 0x20 ADD PUSH1 0x0 DUP1 NOT AND DUP2 MSTORE PUSH1 0x20 ADD PUSH1 0x0 DUP2 MSTORE PUSH1 0x20 ADD PUSH1 0x60 DUP2 MSTORE POP SWAP1 JUMP JUMPDEST PUSH1 0x0 PUSH2 0x72E DUP4 PUSH2 0x398 JUMP JUMPDEST PUSH1 0x0 DUP2 DUP2 MSTORE PUSH1 0x2 PUSH1 0x20 MSTORE PUSH1 0x40 SWAP1 KECCAK256 PUSH1 0x3 ADD SLOAD SWAP1 SWAP2 POP DUP2 EQ PUSH2 0x780 JUMPI PUSH1 0x40 MLOAD PUSH3 0x461BCD PUSH1 0xE5 SHL DUP2 MSTORE PUSH1 0x20 PUSH1 0x4 DUP3 ADD MSTORE PUSH1 0xC PUSH1 0x24 DUP3 ADD MSTORE PUSH12 0x24B73B30B634B2103AB9B2B9 PUSH1 0xA1 SHL PUSH1 0x44 DUP3 ADD MSTORE PUSH1 0x64 ADD PUSH2 0x422 JUMP JUMPDEST PUSH1 0x0 PUSH1 0x2 PUSH1 0x0 DUP4 DUP2 MSTORE PUSH1 0x20 ADD SWAP1 DUP2 MSTORE PUSH1 0x20 ADD PUSH1 0x0 KECCAK256 SWAP1 POP DUP1 PUSH1 0x40 MLOAD DUP1 PUSH1 0xC0 ADD PUSH1 0x40 MSTORE SWAP1 DUP2 PUSH1 0x0 DUP3 ADD SLOAD DUP2 MSTORE PUSH1 0x20 ADD PUSH1 0x1 DUP3 ADD DUP1 SLOAD PUSH2 0x7BD SWAP1 PUSH2 0x289C JUMP JUMPDEST DUP1 PUSH1 0x1F ADD PUSH1 0x20 DUP1 SWAP2 DIV MUL PUSH1 0x20 ADD PUSH1 0x40 MLOAD SWAP1 DUP2 ADD PUSH1 0x40 MSTORE DUP1 SWAP3 SWAP2 SWAP1 DUP2 DUP2 MSTORE PUSH1 0x20 ADD DUP3 DUP1 SLOAD PUSH2 0x7E9 SWAP1 PUSH2 0x289C JUMP JUMPDEST DUP1 ISZERO PUSH2 0x836 JUMPI DUP1 PUSH1 0x1F LT PUSH2 0x80B JUMPI PUSH2 0x100 DUP1 DUP4 SLOAD DIV MUL DUP4 MSTORE SWAP2 PUSH1 0x20 ADD SWAP2 PUSH2 0x836 JUMP JUMPDEST DUP3 ADD SWAP2 SWAP1 PUSH1 0x0 MSTORE PUSH1 0x20 PUSH1 0x0 KECCAK256 SWAP1 JUMPDEST DUP2 SLOAD DUP2 MSTORE SWAP1 PUSH1 0x1 ADD SWAP1 PUSH1 0x20 ADD DUP1 DUP4 GT PUSH2 0x819 JUMPI DUP3 SWAP1 SUB PUSH1 0x1F AND DUP3 ADD SWAP2 JUMPDEST POP POP POP POP POP DUP2 MSTORE PUSH1 0x20 ADD PUSH1 0x2 DUP3 ADD DUP1 SLOAD PUSH2 0x84F SWAP1 PUSH2 0x289C JUMP JUMPDEST DUP1 PUSH1 0x1F ADD PUSH1 0x20 DUP1 SWAP2 DIV MUL PUSH1 0x20 ADD PUSH1 0x40 MLOAD SWAP1 DUP2 ADD PUSH1 0x40 MSTORE DUP1 SWAP3 SWAP2 SWAP1 DUP2 DUP2 MSTORE PUSH1 0x20 ADD DUP3 DUP1 SLOAD PUSH2 0x87B SWAP1 PUSH2 0x289C JUMP JUMPDEST DUP1 ISZERO PUSH2 0x8C8 JUMPI DUP1 PUSH1 0x1F LT PUSH2 0x89D JUMPI PUSH2 0x100 DUP1 DUP4 SLOAD DIV MUL DUP4 MSTORE SWAP2 PUSH1 0x20 ADD SWAP2 PUSH2 0x8C8 JUMP JUMPDEST DUP3 ADD SWAP2 SWAP1 PUSH1 0x0 MSTORE PUSH1 0x20 PUSH1 0x0 KECCAK256 SWAP1 JUMPDEST DUP2 SLOAD DUP2 MSTORE SWAP1 PUSH1 0x1 ADD SWAP1 PUSH1 0x20 ADD DUP1 DUP4 GT PUSH2 0x8AB JUMPI DUP3 SWAP1 SUB PUSH1 0x1F AND DUP3 ADD SWAP2 JUMPDEST POP POP POP POP POP DUP2 MSTORE PUSH1 0x20 ADD PUSH1 0x3 DUP3 ADD SLOAD DUP2 MSTORE PUSH1 0x20 ADD PUSH1 0x4 DUP3 ADD SLOAD DUP2 MSTORE PUSH1 0x20 ADD PUSH1 0x5 DUP3 ADD DUP1 SLOAD DUP1 PUSH1 0x20 MUL PUSH1 0x20 ADD PUSH1 0x40 MLOAD SWAP1 DUP2 ADD PUSH1 0x40 MSTORE DUP1 SWAP3 SWAP2 SWAP1 DUP2 DUP2 MSTORE PUSH1 0x20 ADD DUP3 DUP1 SLOAD DUP1 ISZERO PUSH2 0x934 JUMPI PUSH1 0x20 MUL DUP3 ADD SWAP2 SWAP1 PUSH1 0x0 MSTORE PUSH1 0x20 PUSH1 0x0 KECCAK256 SWAP1 JUMPDEST DUP2 SLOAD DUP2 MSTORE PUSH1 0x20 ADD SWAP1 PUSH1 0x1 ADD SWAP1 DUP1 DUP4 GT PUSH2 0x920 JUMPI JUMPDEST POP POP POP POP POP DUP2 MSTORE POP POP SWAP3 POP POP POP SWAP2 SWAP1 POP JUMP JUMPDEST PUSH1 0x1 SLOAD PUSH1 0x0 SWAP1 DUP2 MSTORE PUSH1 0x20 DUP2 SWAP1 MSTORE PUSH1 0x40 DUP2 KECCAK256 TIMESTAMP DUP6 GT PUSH2 0x9B6 JUMPI PUSH1 0x40 MLOAD PUSH3 0x461BCD PUSH1 0xE5 SHL DUP2 MSTORE PUSH1 0x20 PUSH1 0x4 DUP3 ADD MSTORE PUSH1 0x27 PUSH1 0x24 DUP3 ADD MSTORE PUSH32 0x54686520737461727420646174652073686F756C64206265206461746520696E PUSH1 0x44 DUP3 ADD MSTORE PUSH7 0x20667574757265 PUSH1 0xC8 SHL PUSH1 0x64 DUP3 ADD MSTORE PUSH1 0x84 ADD PUSH2 0x422 JUMP JUMPDEST DUP5 DUP5 GT PUSH2 0xA1C JUMPI PUSH1 0x40 MLOAD PUSH3 0x461BCD PUSH1 0xE5 SHL DUP2 MSTORE PUSH1 0x20 PUSH1 0x4 DUP3 ADD MSTORE PUSH1 0x2E PUSH1 0x24 DUP3 ADD MSTORE PUSH32 0x54686520656E6420646174652073686F756C64206265206168656164206F6620 PUSH1 0x44 DUP3 ADD MSTORE PUSH14 0x7468652073746172742064617465 PUSH1 0x90 SHL PUSH1 0x64 DUP3 ADD MSTORE PUSH1 0x84 ADD PUSH2 0x422 JUMP JUMPDEST DUP7 MLOAD PUSH2 0xA2E SWAP1 DUP3 SWAP1 PUSH1 0x20 DUP11 ADD SWAP1 PUSH2 0x1EBF JUMP JUMPDEST POP PUSH1 0x1 DUP2 ADD DUP6 SWAP1 SSTORE PUSH1 0x2 DUP2 ADD DUP5 SWAP1 SSTORE PUSH2 0xA46 DUP4 PUSH2 0x398 JUMP JUMPDEST PUSH1 0xA DUP3 ADD SSTORE PUSH1 0x9 DUP2 ADD DUP1 SLOAD PUSH1 0xFF NOT AND SWAP1 SSTORE PUSH1 0x0 PUSH1 0x7 DUP3 ADD DUP2 SWAP1 SSTORE PUSH1 0x3 DUP3 ADD DUP2 SWAP1 SSTORE PUSH1 0x1 DUP1 SLOAD SWAP2 PUSH2 0xA75 DUP4 PUSH2 0x2983 JUMP JUMPDEST SWAP1 SWAP2 SSTORE POP POP DUP6 MLOAD PUSH2 0xA8F SWAP1 PUSH1 0x6 DUP4 ADD SWAP1 PUSH1 0x20 DUP10 ADD SWAP1 PUSH2 0x1EBF JUMP JUMPDEST POP POP PUSH1 0x1 SLOAD SWAP7 SWAP6 POP POP POP POP POP POP JUMP JUMPDEST PUSH1 0x0 PUSH1 0x20 DUP2 SWAP1 MSTORE SWAP1 DUP2 MSTORE PUSH1 0x40 SWAP1 KECCAK256 DUP1 SLOAD DUP2 SWAP1 PUSH2 0xAB9 SWAP1 PUSH2 0x289C JUMP JUMPDEST DUP1 PUSH1 0x1F ADD PUSH1 0x20 DUP1 SWAP2 DIV MUL PUSH1 0x20 ADD PUSH1 0x40 MLOAD SWAP1 DUP2 ADD PUSH1 0x40 MSTORE DUP1 SWAP3 SWAP2 SWAP1 DUP2 DUP2 MSTORE PUSH1 0x20 ADD DUP3 DUP1 SLOAD PUSH2 0xAE5 SWAP1 PUSH2 0x289C JUMP JUMPDEST DUP1 ISZERO PUSH2 0xB32 JUMPI DUP1 PUSH1 0x1F LT PUSH2 0xB07 JUMPI PUSH2 0x100 DUP1 DUP4 SLOAD DIV MUL DUP4 MSTORE SWAP2 PUSH1 0x20 ADD SWAP2 PUSH2 0xB32 JUMP JUMPDEST DUP3 ADD SWAP2 SWAP1 PUSH1 0x0 MSTORE PUSH1 0x20 PUSH1 0x0 KECCAK256 SWAP1 JUMPDEST DUP2 SLOAD DUP2 MSTORE SWAP1 PUSH1 0x1 ADD SWAP1 PUSH1 0x20 ADD DUP1 DUP4 GT PUSH2 0xB15 JUMPI DUP3 SWAP1 SUB PUSH1 0x1F AND DUP3 ADD SWAP2 JUMPDEST POP POP POP POP POP SWAP1 DUP1 PUSH1 0x1 ADD SLOAD SWAP1 DUP1 PUSH1 0x2 ADD SLOAD SWAP1 DUP1 PUSH1 0x3 ADD SLOAD SWAP1 DUP1 PUSH1 0x6 ADD DUP1 SLOAD PUSH2 0xB59 SWAP1 PUSH2 0x289C JUMP JUMPDEST DUP1 PUSH1 0x1F ADD PUSH1 0x20 DUP1 SWAP2 DIV MUL PUSH1 0x20 ADD PUSH1 0x40 MLOAD SWAP1 DUP2 ADD PUSH1 0x40 MSTORE DUP1 SWAP3 SWAP2 SWAP1 DUP2 DUP2 MSTORE PUSH1 0x20 ADD DUP3 DUP1 SLOAD PUSH2 0xB85 SWAP1 PUSH2 0x289C JUMP JUMPDEST DUP1 ISZERO PUSH2 0xBD2 JUMPI DUP1 PUSH1 0x1F LT PUSH2 0xBA7 JUMPI PUSH2 0x100 DUP1 DUP4 SLOAD DIV MUL DUP4 MSTORE SWAP2 PUSH1 0x20 ADD SWAP2 PUSH2 0xBD2 JUMP JUMPDEST DUP3 ADD SWAP2 SWAP1 PUSH1 0x0 MSTORE PUSH1 0x20 PUSH1 0x0 KECCAK256 SWAP1 JUMPDEST DUP2 SLOAD DUP2 MSTORE SWAP1 PUSH1 0x1 ADD SWAP1 PUSH1 0x20 ADD DUP1 DUP4 GT PUSH2 0xBB5 JUMPI DUP3 SWAP1 SUB PUSH1 0x1F AND DUP3 ADD SWAP2 JUMPDEST POP POP POP POP PUSH1 0x7 DUP4 ADD SLOAD PUSH1 0x9 DUP5 ADD SLOAD PUSH1 0xA SWAP1 SWAP5 ADD SLOAD SWAP3 SWAP4 SWAP1 SWAP3 PUSH1 0xFF SWAP1 SWAP2 AND SWAP2 POP DUP9 JUMP JUMPDEST PUSH1 0x0 DUP1 PUSH2 0xC00 DUP5 PUSH2 0x398 JUMP JUMPDEST PUSH1 0x0 DUP2 DUP2 MSTORE PUSH1 0x2 PUSH1 0x20 MSTORE PUSH1 0x40 SWAP1 KECCAK256 PUSH1 0x3 ADD SLOAD SWAP1 SWAP2 POP DUP2 EQ ISZERO PUSH2 0xC64 JUMPI PUSH1 0x40 MLOAD PUSH3 0x461BCD PUSH1 0xE5 SHL DUP2 MSTORE PUSH1 0x20 PUSH1 0x4 DUP3 ADD MSTORE PUSH1 0x1C PUSH1 0x24 DUP3 ADD MSTORE PUSH32 0x416164686172732063616E6E6F74206265207573656420616761696E00000000 PUSH1 0x44 DUP3 ADD MSTORE PUSH1 0x64 ADD PUSH2 0x422 JUMP JUMPDEST PUSH1 0x0 DUP2 DUP2 MSTORE PUSH1 0x2 PUSH1 0x20 SWAP1 DUP2 MSTORE PUSH1 0x40 SWAP1 SWAP2 KECCAK256 DUP8 MLOAD SWAP1 SWAP2 PUSH2 0xC8A SWAP2 PUSH1 0x1 DUP5 ADD SWAP2 DUP11 ADD SWAP1 PUSH2 0x1EBF JUMP JUMPDEST POP DUP6 MLOAD PUSH2 0xCA0 SWAP1 PUSH1 0x2 DUP4 ADD SWAP1 PUSH1 0x20 DUP10 ADD SWAP1 PUSH2 0x1EBF JUMP JUMPDEST POP PUSH1 0x3 DUP1 DUP3 ADD DUP4 SWAP1 SSTORE PUSH1 0x0 PUSH1 0x4 DUP1 DUP5 ADD DUP3 SWAP1 SSTORE SLOAD DUP4 SSTORE DUP4 DUP2 MSTORE PUSH1 0x20 SWAP2 DUP3 MSTORE PUSH1 0x40 SWAP1 KECCAK256 DUP6 MLOAD PUSH2 0xCD0 SWAP3 DUP8 ADD SWAP1 PUSH2 0x1EBF JUMP JUMPDEST POP PUSH1 0x4 DUP1 SLOAD SWAP1 PUSH1 0x0 PUSH2 0xCE1 DUP4 PUSH2 0x2983 JUMP JUMPDEST SWAP1 SWAP2 SSTORE POP SWAP2 SWAP8 SWAP7 POP POP POP POP POP POP POP JUMP JUMPDEST DUP2 DUP2 PUSH1 0x1 SLOAD DUP3 LT PUSH2 0xD14 JUMPI PUSH1 0x40 MLOAD PUSH3 0x461BCD PUSH1 0xE5 SHL DUP2 MSTORE PUSH1 0x4 ADD PUSH2 0x422 SWAP1 PUSH2 0x29B5 JUMP JUMPDEST PUSH1 0x0 DUP3 DUP2 MSTORE PUSH1 0x20 DUP2 SWAP1 MSTORE PUSH1 0x40 SWAP1 KECCAK256 PUSH1 0xA ADD SLOAD PUSH2 0xD2F DUP3 PUSH2 0x398 JUMP JUMPDEST EQ PUSH2 0xD4C JUMPI PUSH1 0x40 MLOAD PUSH3 0x461BCD PUSH1 0xE5 SHL DUP2 MSTORE PUSH1 0x4 ADD PUSH2 0x422 SWAP1 PUSH2 0x29E2 JUMP JUMPDEST PUSH1 0x1 DUP5 PUSH1 0x1 SLOAD DUP2 LT PUSH2 0xD70 JUMPI PUSH1 0x40 MLOAD PUSH3 0x461BCD PUSH1 0xE5 SHL DUP2 MSTORE PUSH1 0x4 ADD PUSH2 0x422 SWAP1 PUSH2 0x29B5 JUMP JUMPDEST DUP2 PUSH1 0x2 DUP2 GT ISZERO PUSH2 0xD82 JUMPI PUSH2 0xD82 PUSH2 0x2418 JUMP JUMPDEST PUSH1 0x0 DUP3 DUP2 MSTORE PUSH1 0x20 DUP2 SWAP1 MSTORE PUSH1 0x40 SWAP1 KECCAK256 PUSH1 0x9 ADD SLOAD PUSH1 0xFF AND PUSH1 0x2 DUP2 GT ISZERO PUSH2 0xDA8 JUMPI PUSH2 0xDA8 PUSH2 0x2418 JUMP JUMPDEST EQ PUSH2 0xDC5 JUMPI PUSH1 0x40 MLOAD PUSH3 0x461BCD PUSH1 0xE5 SHL DUP2 MSTORE PUSH1 0x4 ADD PUSH2 0x422 SWAP1 PUSH2 0x2A4B JUMP JUMPDEST PUSH1 0x0 DUP7 DUP2 MSTORE PUSH1 0x20 DUP2 SWAP1 MSTORE PUSH1 0x40 SWAP1 KECCAK256 PUSH1 0x9 ADD DUP1 SLOAD PUSH1 0x2 SWAP2 SWAP1 PUSH1 0xFF NOT AND PUSH1 0x1 DUP4 JUMPDEST MUL OR SWAP1 SSTORE POP POP POP POP POP POP POP JUMP JUMPDEST PUSH1 0x60 PUSH1 0x0 PUSH1 0x1 SLOAD PUSH1 0x1 PUSH1 0x1 PUSH1 0x40 SHL SUB DUP2 GT ISZERO PUSH2 0xE0F JUMPI PUSH2 0xE0F PUSH2 0x1FAD JUMP JUMPDEST PUSH1 0x40 MLOAD SWAP1 DUP1 DUP3 MSTORE DUP1 PUSH1 0x20 MUL PUSH1 0x20 ADD DUP3 ADD PUSH1 0x40 MSTORE DUP1 ISZERO PUSH2 0xE48 JUMPI DUP2 PUSH1 0x20 ADD JUMPDEST PUSH2 0xE35 PUSH2 0x1F43 JUMP JUMPDEST DUP2 MSTORE PUSH1 0x20 ADD SWAP1 PUSH1 0x1 SWAP1 SUB SWAP1 DUP2 PUSH2 0xE2D JUMPI SWAP1 POP JUMPDEST POP SWAP1 POP PUSH1 0x0 JUMPDEST PUSH1 0x1 SLOAD DUP2 LT ISZERO PUSH2 0xE91 JUMPI PUSH2 0xE61 DUP2 PUSH2 0x1380 JUMP JUMPDEST DUP3 DUP3 DUP2 MLOAD DUP2 LT PUSH2 0xE73 JUMPI PUSH2 0xE73 PUSH2 0x2A70 JUMP JUMPDEST PUSH1 0x20 MUL PUSH1 0x20 ADD ADD DUP2 SWAP1 MSTORE POP DUP1 DUP1 PUSH2 0xE89 SWAP1 PUSH2 0x2983 JUMP JUMPDEST SWAP2 POP POP PUSH2 0xE4E JUMP JUMPDEST POP SWAP2 SWAP1 POP JUMP JUMPDEST PUSH1 0x60 DUP3 DUP3 PUSH1 0x1 SLOAD DUP3 LT PUSH2 0xEBC JUMPI PUSH1 0x40 MLOAD PUSH3 0x461BCD PUSH1 0xE5 SHL DUP2 MSTORE PUSH1 0x4 ADD PUSH2 0x422 SWAP1 PUSH2 0x29B5 JUMP JUMPDEST PUSH1 0x0 DUP3 DUP2 MSTORE PUSH1 0x20 DUP2 SWAP1 MSTORE PUSH1 0x40 SWAP1 KECCAK256 PUSH1 0xA ADD SLOAD PUSH2 0xED7 DUP3 PUSH2 0x398 JUMP JUMPDEST EQ PUSH2 0xEF4 JUMPI PUSH1 0x40 MLOAD PUSH3 0x461BCD PUSH1 0xE5 SHL DUP2 MSTORE PUSH1 0x4 ADD PUSH2 0x422 SWAP1 PUSH2 0x29E2 JUMP JUMPDEST PUSH1 0x1 SLOAD DUP6 LT PUSH2 0xF15 JUMPI PUSH1 0x40 MLOAD PUSH3 0x461BCD PUSH1 0xE5 SHL DUP2 MSTORE PUSH1 0x4 ADD PUSH2 0x422 SWAP1 PUSH2 0x29B5 JUMP JUMPDEST PUSH1 0x0 DUP6 DUP2 MSTORE PUSH1 0x20 DUP2 DUP2 MSTORE PUSH1 0x40 DUP1 DUP4 KECCAK256 PUSH1 0x4 ADD DUP1 SLOAD DUP3 MLOAD DUP2 DUP6 MUL DUP2 ADD DUP6 ADD SWAP1 SWAP4 MSTORE DUP1 DUP4 MSTORE SWAP2 SWAP4 SWAP1 SWAP3 DUP5 ADD JUMPDEST DUP3 DUP3 LT ISZERO PUSH2 0x11B9 JUMPI DUP4 DUP3 SWAP1 PUSH1 0x0 MSTORE PUSH1 0x20 PUSH1 0x0 KECCAK256 SWAP1 PUSH1 0x4 MUL ADD PUSH1 0x40 MLOAD DUP1 PUSH1 0x80 ADD PUSH1 0x40 MSTORE SWAP1 DUP2 PUSH1 0x0 DUP3 ADD DUP1 SLOAD PUSH2 0xF72 SWAP1 PUSH2 0x289C JUMP JUMPDEST DUP1 PUSH1 0x1F ADD PUSH1 0x20 DUP1 SWAP2 DIV MUL PUSH1 0x20 ADD PUSH1 0x40 MLOAD SWAP1 DUP2 ADD PUSH1 0x40 MSTORE DUP1 SWAP3 SWAP2 SWAP1 DUP2 DUP2 MSTORE PUSH1 0x20 ADD DUP3 DUP1 SLOAD PUSH2 0xF9E SWAP1 PUSH2 0x289C JUMP JUMPDEST DUP1 ISZERO PUSH2 0xFEB JUMPI DUP1 PUSH1 0x1F LT PUSH2 0xFC0 JUMPI PUSH2 0x100 DUP1 DUP4 SLOAD DIV MUL DUP4 MSTORE SWAP2 PUSH1 0x20 ADD SWAP2 PUSH2 0xFEB JUMP JUMPDEST DUP3 ADD SWAP2 SWAP1 PUSH1 0x0 MSTORE PUSH1 0x20 PUSH1 0x0 KECCAK256 SWAP1 JUMPDEST DUP2 SLOAD DUP2 MSTORE SWAP1 PUSH1 0x1 ADD SWAP1 PUSH1 0x20 ADD DUP1 DUP4 GT PUSH2 0xFCE JUMPI DUP3 SWAP1 SUB PUSH1 0x1F AND DUP3 ADD SWAP2 JUMPDEST POP POP POP POP POP DUP2 MSTORE PUSH1 0x20 ADD PUSH1 0x1 DUP3 ADD DUP1 SLOAD PUSH2 0x1004 SWAP1 PUSH2 0x289C JUMP JUMPDEST DUP1 PUSH1 0x1F ADD PUSH1 0x20 DUP1 SWAP2 DIV MUL PUSH1 0x20 ADD PUSH1 0x40 MLOAD SWAP1 DUP2 ADD PUSH1 0x40 MSTORE DUP1 SWAP3 SWAP2 SWAP1 DUP2 DUP2 MSTORE PUSH1 0x20 ADD DUP3 DUP1 SLOAD PUSH2 0x1030 SWAP1 PUSH2 0x289C JUMP JUMPDEST DUP1 ISZERO PUSH2 0x107D JUMPI DUP1 PUSH1 0x1F LT PUSH2 0x1052 JUMPI PUSH2 0x100 DUP1 DUP4 SLOAD DIV MUL DUP4 MSTORE SWAP2 PUSH1 0x20 ADD SWAP2 PUSH2 0x107D JUMP JUMPDEST DUP3 ADD SWAP2 SWAP1 PUSH1 0x0 MSTORE PUSH1 0x20 PUSH1 0x0 KECCAK256 SWAP1 JUMPDEST DUP2 SLOAD DUP2 MSTORE SWAP1 PUSH1 0x1 ADD SWAP1 PUSH1 0x20 ADD DUP1 DUP4 GT PUSH2 0x1060 JUMPI DUP3 SWAP1 SUB PUSH1 0x1F AND DUP3 ADD SWAP2 JUMPDEST POP POP POP POP POP DUP2 MSTORE PUSH1 0x20 ADD PUSH1 0x2 DUP3 ADD DUP1 SLOAD PUSH2 0x1096 SWAP1 PUSH2 0x289C JUMP JUMPDEST DUP1 PUSH1 0x1F ADD PUSH1 0x20 DUP1 SWAP2 DIV MUL PUSH1 0x20 ADD PUSH1 0x40 MLOAD SWAP1 DUP2 ADD PUSH1 0x40 MSTORE DUP1 SWAP3 SWAP2 SWAP1 DUP2 DUP2 MSTORE PUSH1 0x20 ADD DUP3 DUP1 SLOAD PUSH2 0x10C2 SWAP1 PUSH2 0x289C JUMP JUMPDEST DUP1 ISZERO PUSH2 0x110F JUMPI DUP1 PUSH1 0x1F LT PUSH2 0x10E4 JUMPI PUSH2 0x100 DUP1 DUP4 SLOAD DIV MUL DUP4 MSTORE SWAP2 PUSH1 0x20 ADD SWAP2 PUSH2 0x110F JUMP JUMPDEST DUP3 ADD SWAP2 SWAP1 PUSH1 0x0 MSTORE PUSH1 0x20 PUSH1 0x0 KECCAK256 SWAP1 JUMPDEST DUP2 SLOAD DUP2 MSTORE SWAP1 PUSH1 0x1 ADD SWAP1 PUSH1 0x20 ADD DUP1 DUP4 GT PUSH2 0x10F2 JUMPI DUP3 SWAP1 SUB PUSH1 0x1F AND DUP3 ADD SWAP2 JUMPDEST POP POP POP POP POP DUP2 MSTORE PUSH1 0x20 ADD PUSH1 0x3 DUP3 ADD DUP1 SLOAD PUSH2 0x1128 SWAP1 PUSH2 0x289C JUMP JUMPDEST DUP1 PUSH1 0x1F ADD PUSH1 0x20 DUP1 SWAP2 DIV MUL PUSH1 0x20 ADD PUSH1 0x40 MLOAD SWAP1 DUP2 ADD PUSH1 0x40 MSTORE DUP1 SWAP3 SWAP2 SWAP1 DUP2 DUP2 MSTORE PUSH1 0x20 ADD DUP3 DUP1 SLOAD PUSH2 0x1154 SWAP1 PUSH2 0x289C JUMP JUMPDEST DUP1 ISZERO PUSH2 0x11A1 JUMPI DUP1 PUSH1 0x1F LT PUSH2 0x1176 JUMPI PUSH2 0x100 DUP1 DUP4 SLOAD DIV MUL DUP4 MSTORE SWAP2 PUSH1 0x20 ADD SWAP2 PUSH2 0x11A1 JUMP JUMPDEST DUP3 ADD SWAP2 SWAP1 PUSH1 0x0 MSTORE PUSH1 0x20 PUSH1 0x0 KECCAK256 SWAP1 JUMPDEST DUP2 SLOAD DUP2 MSTORE SWAP1 PUSH1 0x1 ADD SWAP1 PUSH1 0x20 ADD DUP1 DUP4 GT PUSH2 0x1184 JUMPI DUP3 SWAP1 SUB PUSH1 0x1F AND DUP3 ADD SWAP2 JUMPDEST POP POP POP POP POP DUP2 MSTORE POP POP DUP2 MSTORE PUSH1 0x20 ADD SWAP1 PUSH1 0x1 ADD SWAP1 PUSH2 0xF3F JUMP JUMPDEST POP POP POP POP SWAP3 POP POP POP SWAP3 SWAP2 POP POP JUMP JUMPDEST PUSH1 0x60 PUSH1 0x0 PUSH2 0x11D4 DUP4 PUSH2 0x398 JUMP JUMPDEST PUSH1 0x0 DUP2 DUP2 MSTORE PUSH1 0x2 PUSH1 0x20 MSTORE PUSH1 0x40 SWAP1 KECCAK256 PUSH1 0x3 ADD SLOAD SWAP1 SWAP2 POP DUP2 EQ PUSH2 0x1226 JUMPI PUSH1 0x40 MLOAD PUSH3 0x461BCD PUSH1 0xE5 SHL DUP2 MSTORE PUSH1 0x20 PUSH1 0x4 DUP3 ADD MSTORE PUSH1 0xC PUSH1 0x24 DUP3 ADD MSTORE PUSH12 0x24B73B30B634B2102AB9B2B9 PUSH1 0xA1 SHL PUSH1 0x44 DUP3 ADD MSTORE PUSH1 0x64 ADD PUSH2 0x422 JUMP JUMPDEST PUSH1 0x0 DUP2 DUP2 MSTORE PUSH1 0x2 PUSH1 0x20 SWAP1 DUP2 MSTORE PUSH1 0x40 SWAP2 DUP3 SWAP1 KECCAK256 PUSH1 0x5 ADD DUP1 SLOAD DUP4 MLOAD DUP2 DUP5 MUL DUP2 ADD DUP5 ADD SWAP1 SWAP5 MSTORE DUP1 DUP5 MSTORE SWAP1 SWAP2 DUP4 ADD DUP3 DUP3 DUP1 ISZERO PUSH2 0x127D JUMPI PUSH1 0x20 MUL DUP3 ADD SWAP2 SWAP1 PUSH1 0x0 MSTORE PUSH1 0x20 PUSH1 0x0 KECCAK256 SWAP1 JUMPDEST DUP2 SLOAD DUP2 MSTORE PUSH1 0x20 ADD SWAP1 PUSH1 0x1 ADD SWAP1 DUP1 DUP4 GT PUSH2 0x1269 JUMPI JUMPDEST POP POP POP POP POP SWAP2 POP POP SWAP2 SWAP1 POP JUMP JUMPDEST DUP2 DUP2 PUSH1 0x1 SLOAD DUP3 LT PUSH2 0x12AD JUMPI PUSH1 0x40 MLOAD PUSH3 0x461BCD PUSH1 0xE5 SHL DUP2 MSTORE PUSH1 0x4 ADD PUSH2 0x422 SWAP1 PUSH2 0x29B5 JUMP JUMPDEST PUSH1 0x0 DUP3 DUP2 MSTORE PUSH1 0x20 DUP2 SWAP1 MSTORE PUSH1 0x40 SWAP1 KECCAK256 PUSH1 0xA ADD SLOAD PUSH2 0x12C8 DUP3 PUSH2 0x398 JUMP JUMPDEST EQ PUSH2 0x12E5 JUMPI PUSH1 0x40 MLOAD PUSH3 0x461BCD PUSH1 0xE5 SHL DUP2 MSTORE PUSH1 0x4 ADD PUSH2 0x422 SWAP1 PUSH2 0x29E2 JUMP JUMPDEST PUSH1 0x0 DUP5 PUSH1 0x1 SLOAD DUP2 LT PUSH2 0x1309 JUMPI PUSH1 0x40 MLOAD PUSH3 0x461BCD PUSH1 0xE5 SHL DUP2 MSTORE PUSH1 0x4 ADD PUSH2 0x422 SWAP1 PUSH2 0x29B5 JUMP JUMPDEST DUP2 PUSH1 0x2 DUP2 GT ISZERO PUSH2 0x131B JUMPI PUSH2 0x131B PUSH2 0x2418 JUMP JUMPDEST PUSH1 0x0 DUP3 DUP2 MSTORE PUSH1 0x20 DUP2 SWAP1 MSTORE PUSH1 0x40 SWAP1 KECCAK256 PUSH1 0x9 ADD SLOAD PUSH1 0xFF AND PUSH1 0x2 DUP2 GT ISZERO PUSH2 0x1341 JUMPI PUSH2 0x1341 PUSH2 0x2418 JUMP JUMPDEST EQ PUSH2 0x135E JUMPI PUSH1 0x40 MLOAD PUSH3 0x461BCD PUSH1 0xE5 SHL DUP2 MSTORE PUSH1 0x4 ADD PUSH2 0x422 SWAP1 PUSH2 0x2A4B JUMP JUMPDEST PUSH1 0x0 DUP7 DUP2 MSTORE PUSH1 0x20 DUP2 SWAP1 MSTORE PUSH1 0x40 SWAP1 KECCAK256 PUSH1 0x9 ADD DUP1 SLOAD PUSH1 0x1 SWAP2 SWAP1 PUSH1 0xFF NOT AND DUP3 DUP1 PUSH2 0xDE4 JUMP JUMPDEST PUSH2 0x1388 PUSH2 0x1F43 JUMP JUMPDEST PUSH1 0x1 SLOAD DUP3 LT PUSH2 0x13A9 JUMPI PUSH1 0x40 MLOAD PUSH3 0x461BCD PUSH1 0xE5 SHL DUP2 MSTORE PUSH1 0x4 ADD PUSH2 0x422 SWAP1 PUSH2 0x29B5 JUMP JUMPDEST PUSH2 0x13B1 PUSH2 0x1F43 JUMP JUMPDEST PUSH1 0x0 DUP4 DUP2 MSTORE PUSH1 0x20 DUP2 SWAP1 MSTORE PUSH1 0x40 SWAP1 KECCAK256 DUP1 SLOAD PUSH2 0x1452 SWAP2 SWAP1 PUSH2 0x13CF SWAP1 PUSH2 0x289C JUMP JUMPDEST DUP1 PUSH1 0x1F ADD PUSH1 0x20 DUP1 SWAP2 DIV MUL PUSH1 0x20 ADD PUSH1 0x40 MLOAD SWAP1 DUP2 ADD PUSH1 0x40 MSTORE DUP1 SWAP3 SWAP2 SWAP1 DUP2 DUP2 MSTORE PUSH1 0x20 ADD DUP3 DUP1 SLOAD PUSH2 0x13FB SWAP1 PUSH2 0x289C JUMP JUMPDEST DUP1 ISZERO PUSH2 0x1448 JUMPI DUP1 PUSH1 0x1F LT PUSH2 0x141D JUMPI PUSH2 0x100 DUP1 DUP4 SLOAD DIV MUL DUP4 MSTORE SWAP2 PUSH1 0x20 ADD SWAP2 PUSH2 0x1448 JUMP JUMPDEST DUP3 ADD SWAP2 SWAP1 PUSH1 0x0 MSTORE PUSH1 0x20 PUSH1 0x0 KECCAK256 SWAP1 JUMPDEST DUP2 SLOAD DUP2 MSTORE SWAP1 PUSH1 0x1 ADD SWAP1 PUSH1 0x20 ADD DUP1 DUP4 GT PUSH2 0x142B JUMPI DUP3 SWAP1 SUB PUSH1 0x1F AND DUP3 ADD SWAP2 JUMPDEST POP POP POP POP POP PUSH2 0x1E36 JUMP JUMPDEST DUP2 MSTORE PUSH1 0x0 DUP4 DUP2 MSTORE PUSH1 0x20 DUP2 DUP2 MSTORE PUSH1 0x40 DUP1 DUP4 KECCAK256 PUSH1 0x1 DUP2 ADD SLOAD DUP4 DUP7 ADD MSTORE PUSH1 0x2 DUP2 ADD SLOAD SWAP2 DUP6 ADD SWAP2 SWAP1 SWAP2 MSTORE DUP6 DUP4 MSTORE SWAP2 SWAP1 MSTORE PUSH1 0x3 ADD SLOAD PUSH1 0x1 PUSH1 0x1 PUSH1 0x40 SHL SUB DUP2 GT ISZERO PUSH2 0x1499 JUMPI PUSH2 0x1499 PUSH2 0x1FAD JUMP JUMPDEST PUSH1 0x40 MLOAD SWAP1 DUP1 DUP3 MSTORE DUP1 PUSH1 0x20 MUL PUSH1 0x20 ADD DUP3 ADD PUSH1 0x40 MSTORE DUP1 ISZERO PUSH2 0x14F5 JUMPI DUP2 PUSH1 0x20 ADD JUMPDEST PUSH2 0x14E2 PUSH1 0x40 MLOAD DUP1 PUSH1 0x80 ADD PUSH1 0x40 MSTORE DUP1 PUSH1 0x60 DUP2 MSTORE PUSH1 0x20 ADD PUSH1 0x60 DUP2 MSTORE PUSH1 0x20 ADD PUSH1 0x60 DUP2 MSTORE PUSH1 0x20 ADD PUSH1 0x60 DUP2 MSTORE POP SWAP1 JUMP JUMPDEST DUP2 MSTORE PUSH1 0x20 ADD SWAP1 PUSH1 0x1 SWAP1 SUB SWAP1 DUP2 PUSH2 0x14B7 JUMPI SWAP1 POP JUMPDEST POP PUSH1 0x80 DUP3 ADD MSTORE PUSH1 0x0 JUMPDEST PUSH1 0x0 DUP5 DUP2 MSTORE PUSH1 0x20 DUP2 SWAP1 MSTORE PUSH1 0x40 SWAP1 KECCAK256 PUSH1 0x3 ADD SLOAD DUP2 LT ISZERO PUSH2 0x16D2 JUMPI PUSH2 0x155C PUSH1 0x0 DUP1 DUP7 DUP2 MSTORE PUSH1 0x20 ADD SWAP1 DUP2 MSTORE PUSH1 0x20 ADD PUSH1 0x0 KECCAK256 PUSH1 0x4 ADD DUP3 DUP2 SLOAD DUP2 LT PUSH2 0x1540 JUMPI PUSH2 0x1540 PUSH2 0x2A70 JUMP JUMPDEST SWAP1 PUSH1 0x0 MSTORE PUSH1 0x20 PUSH1 0x0 KECCAK256 SWAP1 PUSH1 0x4 MUL ADD PUSH1 0x0 ADD DUP1 SLOAD PUSH2 0x13CF SWAP1 PUSH2 0x289C JUMP JUMPDEST DUP3 PUSH1 0x80 ADD MLOAD DUP3 DUP2 MLOAD DUP2 LT PUSH2 0x1572 JUMPI PUSH2 0x1572 PUSH2 0x2A70 JUMP JUMPDEST PUSH1 0x20 MUL PUSH1 0x20 ADD ADD MLOAD PUSH1 0x0 ADD DUP2 SWAP1 MSTORE POP PUSH2 0x15C6 PUSH1 0x0 DUP1 DUP7 DUP2 MSTORE PUSH1 0x20 ADD SWAP1 DUP2 MSTORE PUSH1 0x20 ADD PUSH1 0x0 KECCAK256 PUSH1 0x4 ADD DUP3 DUP2 SLOAD DUP2 LT PUSH2 0x15AA JUMPI PUSH2 0x15AA PUSH2 0x2A70 JUMP JUMPDEST SWAP1 PUSH1 0x0 MSTORE PUSH1 0x20 PUSH1 0x0 KECCAK256 SWAP1 PUSH1 0x4 MUL ADD PUSH1 0x1 ADD DUP1 SLOAD PUSH2 0x13CF SWAP1 PUSH2 0x289C JUMP JUMPDEST DUP3 PUSH1 0x80 ADD MLOAD DUP3 DUP2 MLOAD DUP2 LT PUSH2 0x15DC JUMPI PUSH2 0x15DC PUSH2 0x2A70 JUMP JUMPDEST PUSH1 0x20 MUL PUSH1 0x20 ADD ADD MLOAD PUSH1 0x20 ADD DUP2 SWAP1 MSTORE POP PUSH2 0x1630 PUSH1 0x0 DUP1 DUP7 DUP2 MSTORE PUSH1 0x20 ADD SWAP1 DUP2 MSTORE PUSH1 0x20 ADD PUSH1 0x0 KECCAK256 PUSH1 0x4 ADD DUP3 DUP2 SLOAD DUP2 LT PUSH2 0x1614 JUMPI PUSH2 0x1614 PUSH2 0x2A70 JUMP JUMPDEST SWAP1 PUSH1 0x0 MSTORE PUSH1 0x20 PUSH1 0x0 KECCAK256 SWAP1 PUSH1 0x4 MUL ADD PUSH1 0x2 ADD DUP1 SLOAD PUSH2 0x13CF SWAP1 PUSH2 0x289C JUMP JUMPDEST DUP3 PUSH1 0x80 ADD MLOAD DUP3 DUP2 MLOAD DUP2 LT PUSH2 0x1646 JUMPI PUSH2 0x1646 PUSH2 0x2A70 JUMP JUMPDEST PUSH1 0x20 MUL PUSH1 0x20 ADD ADD MLOAD PUSH1 0x40 ADD DUP2 SWAP1 MSTORE POP PUSH2 0x169A PUSH1 0x0 DUP1 DUP7 DUP2 MSTORE PUSH1 0x20 ADD SWAP1 DUP2 MSTORE PUSH1 0x20 ADD PUSH1 0x0 KECCAK256 PUSH1 0x4 ADD DUP3 DUP2 SLOAD DUP2 LT PUSH2 0x167E JUMPI PUSH2 0x167E PUSH2 0x2A70 JUMP JUMPDEST SWAP1 PUSH1 0x0 MSTORE PUSH1 0x20 PUSH1 0x0 KECCAK256 SWAP1 PUSH1 0x4 MUL ADD PUSH1 0x3 ADD DUP1 SLOAD PUSH2 0x13CF SWAP1 PUSH2 0x289C JUMP JUMPDEST DUP3 PUSH1 0x80 ADD MLOAD DUP3 DUP2 MLOAD DUP2 LT PUSH2 0x16B0 JUMPI PUSH2 0x16B0 PUSH2 0x2A70 JUMP JUMPDEST PUSH1 0x20 MUL PUSH1 0x20 ADD ADD MLOAD PUSH1 0x60 ADD DUP2 SWAP1 MSTORE POP DUP1 DUP1 PUSH2 0x16CA SWAP1 PUSH2 0x2983 JUMP JUMPDEST SWAP2 POP POP PUSH2 0x14FE JUMP JUMPDEST POP PUSH1 0x0 DUP4 DUP2 MSTORE PUSH1 0x20 DUP2 SWAP1 MSTORE PUSH1 0x40 SWAP1 KECCAK256 PUSH1 0x6 ADD DUP1 SLOAD PUSH2 0x16F4 SWAP2 SWAP1 PUSH2 0x13CF SWAP1 PUSH2 0x289C JUMP JUMPDEST PUSH1 0xA0 DUP3 ADD MSTORE PUSH1 0x0 DUP4 DUP2 MSTORE PUSH1 0x20 DUP2 DUP2 MSTORE PUSH1 0x40 DUP3 KECCAK256 PUSH1 0x3 DUP2 ADD SLOAD PUSH1 0x60 DUP6 ADD MSTORE DUP6 DUP4 MSTORE SWAP2 SWAP1 MSTORE PUSH1 0x9 ADD SLOAD PUSH1 0xE0 DUP3 ADD SWAP1 PUSH1 0xFF AND PUSH1 0x2 DUP2 GT ISZERO PUSH2 0x1734 JUMPI PUSH2 0x1734 PUSH2 0x2418 JUMP JUMPDEST SWAP1 DUP2 PUSH1 0x2 DUP2 GT ISZERO PUSH2 0x1747 JUMPI PUSH2 0x1747 PUSH2 0x2418 JUMP JUMPDEST SWAP1 MSTORE POP PUSH1 0x0 SWAP3 DUP4 MSTORE PUSH1 0x20 DUP4 SWAP1 MSTORE PUSH1 0x40 SWAP1 SWAP3 KECCAK256 PUSH1 0x7 ADD SLOAD PUSH1 0xC0 DUP4 ADD MSTORE POP SWAP1 JUMP JUMPDEST PUSH1 0x60 DUP1 PUSH1 0x2 DUP4 PUSH1 0x1 SLOAD DUP2 LT PUSH2 0x178D JUMPI PUSH1 0x40 MLOAD PUSH3 0x461BCD PUSH1 0xE5 SHL DUP2 MSTORE PUSH1 0x4 ADD PUSH2 0x422 SWAP1 PUSH2 0x29B5 JUMP JUMPDEST DUP2 PUSH1 0x2 DUP2 GT ISZERO PUSH2 0x179F JUMPI PUSH2 0x179F PUSH2 0x2418 JUMP JUMPDEST PUSH1 0x0 DUP3 DUP2 MSTORE PUSH1 0x20 DUP2 SWAP1 MSTORE PUSH1 0x40 SWAP1 KECCAK256 PUSH1 0x9 ADD SLOAD PUSH1 0xFF AND PUSH1 0x2 DUP2 GT ISZERO PUSH2 0x17C5 JUMPI PUSH2 0x17C5 PUSH2 0x2418 JUMP JUMPDEST EQ PUSH2 0x17E2 JUMPI PUSH1 0x40 MLOAD PUSH3 0x461BCD PUSH1 0xE5 SHL DUP2 MSTORE PUSH1 0x4 ADD PUSH2 0x422 SWAP1 PUSH2 0x2A4B JUMP JUMPDEST PUSH1 0x0 DUP6 DUP2 MSTORE PUSH1 0x20 DUP2 DUP2 MSTORE PUSH1 0x40 DUP1 DUP4 KECCAK256 PUSH1 0x4 DUP2 ADD DUP1 SLOAD DUP4 MLOAD DUP2 DUP7 MUL DUP2 ADD DUP7 ADD SWAP1 SWAP5 MSTORE DUP1 DUP5 MSTORE SWAP1 SWAP5 PUSH1 0x5 SWAP1 SWAP3 ADD SWAP4 DUP6 SWAP3 SWAP1 DUP5 ADD JUMPDEST DUP3 DUP3 LT ISZERO PUSH2 0x1A8E JUMPI DUP4 DUP3 SWAP1 PUSH1 0x0 MSTORE PUSH1 0x20 PUSH1 0x0 KECCAK256 SWAP1 PUSH1 0x4 MUL ADD PUSH1 0x40 MLOAD DUP1 PUSH1 0x80 ADD PUSH1 0x40 MSTORE SWAP1 DUP2 PUSH1 0x0 DUP3 ADD DUP1 SLOAD PUSH2 0x1847 SWAP1 PUSH2 0x289C JUMP JUMPDEST DUP1 PUSH1 0x1F ADD PUSH1 0x20 DUP1 SWAP2 DIV MUL PUSH1 0x20 ADD PUSH1 0x40 MLOAD SWAP1 DUP2 ADD PUSH1 0x40 MSTORE DUP1 SWAP3 SWAP2 SWAP1 DUP2 DUP2 MSTORE PUSH1 0x20 ADD DUP3 DUP1 SLOAD PUSH2 0x1873 SWAP1 PUSH2 0x289C JUMP JUMPDEST DUP1 ISZERO PUSH2 0x18C0 JUMPI DUP1 PUSH1 0x1F LT PUSH2 0x1895 JUMPI PUSH2 0x100 DUP1 DUP4 SLOAD DIV MUL DUP4 MSTORE SWAP2 PUSH1 0x20 ADD SWAP2 PUSH2 0x18C0 JUMP JUMPDEST DUP3 ADD SWAP2 SWAP1 PUSH1 0x0 MSTORE PUSH1 0x20 PUSH1 0x0 KECCAK256 SWAP1 JUMPDEST DUP2 SLOAD DUP2 MSTORE SWAP1 PUSH1 0x1 ADD SWAP1 PUSH1 0x20 ADD DUP1 DUP4 GT PUSH2 0x18A3 JUMPI DUP3 SWAP1 SUB PUSH1 0x1F AND DUP3 ADD SWAP2 JUMPDEST POP POP POP POP POP DUP2 MSTORE PUSH1 0x20 ADD PUSH1 0x1 DUP3 ADD DUP1 SLOAD PUSH2 0x18D9 SWAP1 PUSH2 0x289C JUMP JUMPDEST DUP1 PUSH1 0x1F ADD PUSH1 0x20 DUP1 SWAP2 DIV MUL PUSH1 0x20 ADD PUSH1 0x40 MLOAD SWAP1 DUP2 ADD PUSH1 0x40 MSTORE DUP1 SWAP3 SWAP2 SWAP1 DUP2 DUP2 MSTORE PUSH1 0x20 ADD DUP3 DUP1 SLOAD PUSH2 0x1905 SWAP1 PUSH2 0x289C JUMP JUMPDEST DUP1 ISZERO PUSH2 0x1952 JUMPI DUP1 PUSH1 0x1F LT PUSH2 0x1927 JUMPI PUSH2 0x100 DUP1 DUP4 SLOAD DIV MUL DUP4 MSTORE SWAP2 PUSH1 0x20 ADD SWAP2 PUSH2 0x1952 JUMP JUMPDEST DUP3 ADD SWAP2 SWAP1 PUSH1 0x0 MSTORE PUSH1 0x20 PUSH1 0x0 KECCAK256 SWAP1 JUMPDEST DUP2 SLOAD DUP2 MSTORE SWAP1 PUSH1 0x1 ADD SWAP1 PUSH1 0x20 ADD DUP1 DUP4 GT PUSH2 0x1935 JUMPI DUP3 SWAP1 SUB PUSH1 0x1F AND DUP3 ADD SWAP2 JUMPDEST POP POP POP POP POP DUP2 MSTORE PUSH1 0x20 ADD PUSH1 0x2 DUP3 ADD DUP1 SLOAD PUSH2 0x196B SWAP1 PUSH2 0x289C JUMP JUMPDEST DUP1 PUSH1 0x1F ADD PUSH1 0x20 DUP1 SWAP2 DIV MUL PUSH1 0x20 ADD PUSH1 0x40 MLOAD SWAP1 DUP2 ADD PUSH1 0x40 MSTORE DUP1 SWAP3 SWAP2 SWAP1 DUP2 DUP2 MSTORE PUSH1 0x20 ADD DUP3 DUP1 SLOAD PUSH2 0x1997 SWAP1 PUSH2 0x289C JUMP JUMPDEST DUP1 ISZERO PUSH2 0x19E4 JUMPI DUP1 PUSH1 0x1F LT PUSH2 0x19B9 JUMPI PUSH2 0x100 DUP1 DUP4 SLOAD DIV MUL DUP4 MSTORE SWAP2 PUSH1 0x20 ADD SWAP2 PUSH2 0x19E4 JUMP JUMPDEST DUP3 ADD SWAP2 SWAP1 PUSH1 0x0 MSTORE PUSH1 0x20 PUSH1 0x0 KECCAK256 SWAP1 JUMPDEST DUP2 SLOAD DUP2 MSTORE SWAP1 PUSH1 0x1 ADD SWAP1 PUSH1 0x20 ADD DUP1 DUP4 GT PUSH2 0x19C7 JUMPI DUP3 SWAP1 SUB PUSH1 0x1F AND DUP3 ADD SWAP2 JUMPDEST POP POP POP POP POP DUP2 MSTORE PUSH1 0x20 ADD PUSH1 0x3 DUP3 ADD DUP1 SLOAD PUSH2 0x19FD SWAP1 PUSH2 0x289C JUMP JUMPDEST DUP1 PUSH1 0x1F ADD PUSH1 0x20 DUP1 SWAP2 DIV MUL PUSH1 0x20 ADD PUSH1 0x40 MLOAD SWAP1 DUP2 ADD PUSH1 0x40 MSTORE DUP1 SWAP3 SWAP2 SWAP1 DUP2 DUP2 MSTORE PUSH1 0x20 ADD DUP3 DUP1 SLOAD PUSH2 0x1A29 SWAP1 PUSH2 0x289C JUMP JUMPDEST DUP1 ISZERO PUSH2 0x1A76 JUMPI DUP1 PUSH1 0x1F LT PUSH2 0x1A4B JUMPI PUSH2 0x100 DUP1 DUP4 SLOAD DIV MUL DUP4 MSTORE SWAP2 PUSH1 0x20 ADD SWAP2 PUSH2 0x1A76 JUMP JUMPDEST DUP3 ADD SWAP2 SWAP1 PUSH1 0x0 MSTORE PUSH1 0x20 PUSH1 0x0 KECCAK256 SWAP1 JUMPDEST DUP2 SLOAD DUP2 MSTORE SWAP1 PUSH1 0x1 ADD SWAP1 PUSH1 0x20 ADD DUP1 DUP4 GT PUSH2 0x1A59 JUMPI DUP3 SWAP1 SUB PUSH1 0x1F AND DUP3 ADD SWAP2 JUMPDEST POP POP POP POP POP DUP2 MSTORE POP POP DUP2 MSTORE PUSH1 0x20 ADD SWAP1 PUSH1 0x1 ADD SWAP1 PUSH2 0x1814 JUMP JUMPDEST POP POP POP POP SWAP2 POP DUP1 DUP1 SLOAD DUP1 PUSH1 0x20 MUL PUSH1 0x20 ADD PUSH1 0x40 MLOAD SWAP1 DUP2 ADD PUSH1 0x40 MSTORE DUP1 SWAP3 SWAP2 SWAP1 DUP2 DUP2 MSTORE PUSH1 0x20 ADD DUP3 DUP1 SLOAD DUP1 ISZERO PUSH2 0x1ADF JUMPI PUSH1 0x20 MUL DUP3 ADD SWAP2 SWAP1 PUSH1 0x0 MSTORE PUSH1 0x20 PUSH1 0x0 KECCAK256 SWAP1 JUMPDEST DUP2 SLOAD DUP2 MSTORE PUSH1 0x20 ADD SWAP1 PUSH1 0x1 ADD SWAP1 DUP1 DUP4 GT PUSH2 0x1ACB JUMPI JUMPDEST POP POP POP POP POP SWAP1 POP SWAP4 POP SWAP4 POP POP POP SWAP2 POP SWAP2 JUMP JUMPDEST PUSH1 0x60 PUSH1 0x0 PUSH1 0x1 SLOAD PUSH1 0x1 PUSH1 0x1 PUSH1 0x40 SHL SUB DUP2 GT ISZERO PUSH2 0x1B0F JUMPI PUSH2 0x1B0F PUSH2 0x1FAD JUMP JUMPDEST PUSH1 0x40 MLOAD SWAP1 DUP1 DUP3 MSTORE DUP1 PUSH1 0x20 MUL PUSH1 0x20 ADD DUP3 ADD PUSH1 0x40 MSTORE DUP1 ISZERO PUSH2 0x1B38 JUMPI DUP2 PUSH1 0x20 ADD PUSH1 0x20 DUP3 MUL DUP1 CALLDATASIZE DUP4 CALLDATACOPY ADD SWAP1 POP JUMPDEST POP SWAP1 POP PUSH1 0x0 JUMPDEST PUSH1 0x1 SLOAD DUP2 LT ISZERO PUSH2 0xE91 JUMPI PUSH1 0x0 DUP2 DUP2 MSTORE PUSH1 0x20 DUP2 SWAP1 MSTORE PUSH1 0x40 SWAP1 KECCAK256 PUSH1 0x9 ADD SLOAD DUP3 MLOAD PUSH1 0xFF SWAP1 SWAP2 AND SWAP1 DUP4 SWAP1 DUP4 SWAP1 DUP2 LT PUSH2 0x1B74 JUMPI PUSH2 0x1B74 PUSH2 0x2A70 JUMP JUMPDEST PUSH1 0x20 MUL PUSH1 0x20 ADD ADD SWAP1 PUSH1 0x2 DUP2 GT ISZERO PUSH2 0x1B8D JUMPI PUSH2 0x1B8D PUSH2 0x2418 JUMP JUMPDEST SWAP1 DUP2 PUSH1 0x2 DUP2 GT ISZERO PUSH2 0x1BA0 JUMPI PUSH2 0x1BA0 PUSH2 0x2418 JUMP JUMPDEST SWAP1 MSTORE POP DUP1 PUSH2 0x1BAD DUP2 PUSH2 0x2983 JUMP JUMPDEST SWAP2 POP POP PUSH2 0x1B3E JUMP JUMPDEST PUSH1 0x60 PUSH1 0x1 DUP5 PUSH1 0x1 SLOAD DUP2 LT PUSH2 0x1BDB JUMPI PUSH1 0x40 MLOAD PUSH3 0x461BCD PUSH1 0xE5 SHL DUP2 MSTORE PUSH1 0x4 ADD PUSH2 0x422 SWAP1 PUSH2 0x29B5 JUMP JUMPDEST DUP2 PUSH1 0x2 DUP2 GT ISZERO PUSH2 0x1BED JUMPI PUSH2 0x1BED PUSH2 0x2418 JUMP JUMPDEST PUSH1 0x0 DUP3 DUP2 MSTORE PUSH1 0x20 DUP2 SWAP1 MSTORE PUSH1 0x40 SWAP1 KECCAK256 PUSH1 0x9 ADD SLOAD PUSH1 0xFF AND PUSH1 0x2 DUP2 GT ISZERO PUSH2 0x1C13 JUMPI PUSH2 0x1C13 PUSH2 0x2418 JUMP JUMPDEST EQ PUSH2 0x1C30 JUMPI PUSH1 0x40 MLOAD PUSH3 0x461BCD PUSH1 0xE5 SHL DUP2 MSTORE PUSH1 0x4 ADD PUSH2 0x422 SWAP1 PUSH2 0x2A4B JUMP JUMPDEST PUSH1 0x0 DUP7 DUP2 MSTORE PUSH1 0x20 DUP2 SWAP1 MSTORE PUSH1 0x40 SWAP1 KECCAK256 PUSH1 0x3 ADD SLOAD DUP6 LT DUP1 ISZERO PUSH2 0x1C4E JUMPI POP PUSH1 0x1 JUMPDEST PUSH2 0x1C91 JUMPI PUSH1 0x40 MLOAD PUSH3 0x461BCD PUSH1 0xE5 SHL DUP2 MSTORE PUSH1 0x20 PUSH1 0x4 DUP3 ADD MSTORE PUSH1 0x14 PUSH1 0x24 DUP3 ADD MSTORE PUSH20 0x125B9D985B1A590810D85B991A59185D19481251 PUSH1 0x62 SHL PUSH1 0x44 DUP3 ADD MSTORE PUSH1 0x64 ADD PUSH2 0x422 JUMP JUMPDEST PUSH1 0x0 DUP1 DUP8 DUP2 MSTORE PUSH1 0x20 ADD SWAP1 DUP2 MSTORE PUSH1 0x20 ADD PUSH1 0x0 KECCAK256 PUSH1 0x8 ADD PUSH1 0x0 DUP6 PUSH1 0x40 MLOAD PUSH1 0x20 ADD PUSH2 0x1CB9 SWAP2 SWAP1 PUSH2 0x2880 JUMP JUMPDEST PUSH1 0x40 DUP1 MLOAD PUSH1 0x1F NOT DUP2 DUP5 SUB ADD DUP2 MSTORE SWAP2 DUP2 MSTORE DUP2 MLOAD PUSH1 0x20 SWAP3 DUP4 ADD KECCAK256 DUP4 MSTORE SWAP1 DUP3 ADD SWAP3 SWAP1 SWAP3 MSTORE ADD PUSH1 0x0 KECCAK256 SLOAD PUSH1 0xFF AND ISZERO PUSH2 0x1D2F JUMPI PUSH1 0x40 MLOAD PUSH3 0x461BCD PUSH1 0xE5 SHL DUP2 MSTORE PUSH1 0x20 PUSH1 0x4 DUP3 ADD MSTORE PUSH1 0x17 PUSH1 0x24 DUP3 ADD MSTORE PUSH32 0x566F7465722068617320616C726561647920766F746564000000000000000000 PUSH1 0x44 DUP3 ADD MSTORE PUSH1 0x64 ADD PUSH2 0x422 JUMP JUMPDEST PUSH1 0x0 DUP7 DUP2 MSTORE PUSH1 0x20 DUP2 SWAP1 MSTORE PUSH1 0x40 SWAP1 KECCAK256 PUSH1 0x5 ADD DUP1 SLOAD DUP7 SWAP1 DUP2 LT PUSH2 0x1D52 JUMPI PUSH2 0x1D52 PUSH2 0x2A70 JUMP JUMPDEST PUSH1 0x0 SWAP2 DUP3 MSTORE PUSH1 0x20 DUP3 KECCAK256 ADD DUP1 SLOAD SWAP2 PUSH2 0x1D68 DUP4 PUSH2 0x2983 JUMP JUMPDEST SWAP2 SWAP1 POP SSTORE POP PUSH1 0x1 PUSH1 0x0 DUP1 DUP9 DUP2 MSTORE PUSH1 0x20 ADD SWAP1 DUP2 MSTORE PUSH1 0x20 ADD PUSH1 0x0 KECCAK256 PUSH1 0x8 ADD PUSH1 0x0 PUSH2 0x1D8F DUP8 PUSH2 0x398 JUMP JUMPDEST DUP2 MSTORE PUSH1 0x20 DUP1 DUP3 ADD SWAP3 SWAP1 SWAP3 MSTORE PUSH1 0x40 SWAP1 DUP2 ADD PUSH1 0x0 SWAP1 DUP2 KECCAK256 DUP1 SLOAD PUSH1 0xFF NOT AND SWAP5 ISZERO ISZERO SWAP5 SWAP1 SWAP5 OR SWAP1 SWAP4 SSTORE DUP9 DUP4 MSTORE SWAP1 DUP3 SWAP1 MSTORE DUP2 KECCAK256 PUSH1 0x7 ADD DUP1 SLOAD SWAP2 PUSH2 0x1DCC DUP4 PUSH2 0x2983 JUMP JUMPDEST SWAP1 SWAP2 SSTORE POP POP PUSH1 0x0 DUP7 DUP2 MSTORE PUSH1 0x20 DUP2 DUP2 MSTORE PUSH1 0x40 SWAP2 DUP3 SWAP1 KECCAK256 PUSH1 0x5 ADD DUP1 SLOAD DUP4 MLOAD DUP2 DUP5 MUL DUP2 ADD DUP5 ADD SWAP1 SWAP5 MSTORE DUP1 DUP5 MSTORE SWAP1 SWAP2 DUP4 ADD DUP3 DUP3 DUP1 ISZERO PUSH2 0x1E26 JUMPI PUSH1 0x20 MUL DUP3 ADD SWAP2 SWAP1 PUSH1 0x0 MSTORE PUSH1 0x20 PUSH1 0x0 KECCAK256 SWAP1 JUMPDEST DUP2 SLOAD DUP2 MSTORE PUSH1 0x20 ADD SWAP1 PUSH1 0x1 ADD SWAP1 DUP1 DUP4 GT PUSH2 0x1E12 JUMPI JUMPDEST POP POP POP POP POP SWAP3 POP POP POP SWAP4 SWAP3 POP POP POP JUMP JUMPDEST PUSH1 0x60 PUSH1 0x0 DUP3 MLOAD PUSH1 0x1 PUSH1 0x1 PUSH1 0x40 SHL SUB DUP2 GT ISZERO PUSH2 0x1E53 JUMPI PUSH2 0x1E53 PUSH2 0x1FAD JUMP JUMPDEST PUSH1 0x40 MLOAD SWAP1 DUP1 DUP3 MSTORE DUP1 PUSH1 0x1F ADD PUSH1 0x1F NOT AND PUSH1 0x20 ADD DUP3 ADD PUSH1 0x40 MSTORE DUP1 ISZERO PUSH2 0x1E7D JUMPI PUSH1 0x20 DUP3 ADD DUP2 DUP1 CALLDATASIZE DUP4 CALLDATACOPY ADD SWAP1 POP JUMPDEST POP SWAP1 POP PUSH1 0x0 DUP4 MLOAD PUSH1 0x1F PUSH2 0x1E90 SWAP2 SWAP1 PUSH2 0x2A86 JUMP JUMPDEST SWAP1 POP PUSH1 0x20 JUMPDEST DUP2 DUP2 GT PUSH2 0x1EB6 JUMPI DUP5 DUP2 ADD MLOAD DUP4 DUP3 ADD MSTORE PUSH2 0x1EAF PUSH1 0x20 DUP3 PUSH2 0x2A86 JUMP JUMPDEST SWAP1 POP PUSH2 0x1E95 JUMP JUMPDEST POP SWAP1 SWAP4 SWAP3 POP POP POP JUMP JUMPDEST DUP3 DUP1 SLOAD PUSH2 0x1ECB SWAP1 PUSH2 0x289C JUMP JUMPDEST SWAP1 PUSH1 0x0 MSTORE PUSH1 0x20 PUSH1 0x0 KECCAK256 SWAP1 PUSH1 0x1F ADD PUSH1 0x20 SWAP1 DIV DUP2 ADD SWAP3 DUP3 PUSH2 0x1EED JUMPI PUSH1 0x0 DUP6 SSTORE PUSH2 0x1F33 JUMP JUMPDEST DUP3 PUSH1 0x1F LT PUSH2 0x1F06 JUMPI DUP1 MLOAD PUSH1 0xFF NOT AND DUP4 DUP1 ADD OR DUP6 SSTORE PUSH2 0x1F33 JUMP JUMPDEST DUP3 DUP1 ADD PUSH1 0x1 ADD DUP6 SSTORE DUP3 ISZERO PUSH2 0x1F33 JUMPI SWAP2 DUP3 ADD JUMPDEST DUP3 DUP2 GT ISZERO PUSH2 0x1F33 JUMPI DUP3 MLOAD DUP3 SSTORE SWAP2 PUSH1 0x20 ADD SWAP2 SWAP1 PUSH1 0x1 ADD SWAP1 PUSH2 0x1F18 JUMP JUMPDEST POP PUSH2 0x1F3F SWAP3 SWAP2 POP PUSH2 0x1F98 JUMP JUMPDEST POP SWAP1 JUMP JUMPDEST PUSH1 0x40 MLOAD DUP1 PUSH2 0x100 ADD PUSH1 0x40 MSTORE DUP1 PUSH1 0x60 DUP2 MSTORE PUSH1 0x20 ADD PUSH1 0x0 DUP2 MSTORE PUSH1 0x20 ADD PUSH1 0x0 DUP2 MSTORE PUSH1 0x20 ADD PUSH1 0x0 DUP2 MSTORE PUSH1 0x20 ADD PUSH1 0x60 DUP2 MSTORE PUSH1 0x20 ADD PUSH1 0x60 DUP2 MSTORE PUSH1 0x20 ADD PUSH1 0x0 DUP2 MSTORE PUSH1 0x20 ADD PUSH1 0x0 PUSH1 0x2 DUP2 GT ISZERO PUSH2 0x1F93 JUMPI PUSH2 0x1F93 PUSH2 0x2418 JUMP JUMPDEST SWAP1 MSTORE SWAP1 JUMP JUMPDEST JUMPDEST DUP1 DUP3 GT ISZERO PUSH2 0x1F3F JUMPI PUSH1 0x0 DUP2 SSTORE PUSH1 0x1 ADD PUSH2 0x1F99 JUMP JUMPDEST PUSH4 0x4E487B71 PUSH1 0xE0 SHL PUSH1 0x0 MSTORE PUSH1 0x41 PUSH1 0x4 MSTORE PUSH1 0x24 PUSH1 0x0 REVERT JUMPDEST PUSH1 0x0 DUP3 PUSH1 0x1F DUP4 ADD SLT PUSH2 0x1FD4 JUMPI PUSH1 0x0 DUP1 REVERT JUMPDEST DUP2 CALLDATALOAD PUSH1 0x1 PUSH1 0x1 PUSH1 0x40 SHL SUB DUP1 DUP3 GT ISZERO PUSH2 0x1FEE JUMPI PUSH2 0x1FEE PUSH2 0x1FAD JUMP JUMPDEST PUSH1 0x40 MLOAD PUSH1 0x1F DUP4 ADD PUSH1 0x1F NOT SWAP1 DUP2 AND PUSH1 0x3F ADD AND DUP2 ADD SWAP1 DUP3 DUP3 GT DUP2 DUP4 LT OR ISZERO PUSH2 0x2016 JUMPI PUSH2 0x2016 PUSH2 0x1FAD JUMP JUMPDEST DUP2 PUSH1 0x40 MSTORE DUP4 DUP2 MSTORE DUP7 PUSH1 0x20 DUP6 DUP9 ADD ADD GT ISZERO PUSH2 0x202F JUMPI PUSH1 0x0 DUP1 REVERT JUMPDEST DUP4 PUSH1 0x20 DUP8 ADD PUSH1 0x20 DUP4 ADD CALLDATACOPY PUSH1 0x0 PUSH1 0x20 DUP6 DUP4 ADD ADD MSTORE DUP1 SWAP5 POP POP POP POP POP SWAP3 SWAP2 POP POP JUMP JUMPDEST PUSH1 0x0 DUP1 PUSH1 0x40 DUP4 DUP6 SUB SLT ISZERO PUSH2 0x2062 JUMPI PUSH1 0x0 DUP1 REVERT JUMPDEST DUP3 CALLDATALOAD PUSH1 0x1 PUSH1 0x1 PUSH1 0x40 SHL SUB DUP1 DUP3 GT ISZERO PUSH2 0x2079 JUMPI PUSH1 0x0 DUP1 REVERT JUMPDEST PUSH2 0x2085 DUP7 DUP4 DUP8 ADD PUSH2 0x1FC3 JUMP JUMPDEST SWAP4 POP PUSH1 0x20 DUP6 ADD CALLDATALOAD SWAP2 POP DUP1 DUP3 GT ISZERO PUSH2 0x209B JUMPI PUSH1 0x0 DUP1 REVERT JUMPDEST POP PUSH2 0x20A8 DUP6 DUP3 DUP7 ADD PUSH2 0x1FC3 JUMP JUMPDEST SWAP2 POP POP SWAP3 POP SWAP3 SWAP1 POP JUMP JUMPDEST PUSH1 0x0 PUSH1 0x20 DUP3 DUP5 SUB SLT ISZERO PUSH2 0x20C4 JUMPI PUSH1 0x0 DUP1 REVERT JUMPDEST DUP2 CALLDATALOAD PUSH1 0x1 PUSH1 0x1 PUSH1 0x40 SHL SUB DUP2 GT ISZERO PUSH2 0x20DA JUMPI PUSH1 0x0 DUP1 REVERT JUMPDEST PUSH2 0x20E6 DUP5 DUP3 DUP6 ADD PUSH2 0x1FC3 JUMP JUMPDEST SWAP5 SWAP4 POP POP POP POP JUMP JUMPDEST PUSH1 0x0 DUP1 PUSH1 0x0 DUP1 PUSH1 0x0 PUSH1 0xA0 DUP7 DUP9 SUB SLT ISZERO PUSH2 0x2106 JUMPI PUSH1 0x0 DUP1 REVERT JUMPDEST DUP6 CALLDATALOAD PUSH1 0x1 PUSH1 0x1 PUSH1 0x40 SHL SUB DUP1 DUP3 GT ISZERO PUSH2 0x211D JUMPI PUSH1 0x0 DUP1 REVERT JUMPDEST PUSH2 0x2129 DUP10 DUP4 DUP11 ADD PUSH2 0x1FC3 JUMP JUMPDEST SWAP7 POP PUSH1 0x20 DUP9 ADD CALLDATALOAD SWAP2 POP DUP1 DUP3 GT ISZERO PUSH2 0x213F JUMPI PUSH1 0x0 DUP1 REVERT JUMPDEST PUSH2 0x214B DUP10 DUP4 DUP11 ADD PUSH2 0x1FC3 JUMP JUMPDEST SWAP6 POP PUSH1 0x40 DUP9 ADD CALLDATALOAD SWAP2 POP DUP1 DUP3 GT ISZERO PUSH2 0x2161 JUMPI PUSH1 0x0 DUP1 REVERT JUMPDEST POP PUSH2 0x216E DUP9 DUP3 DUP10 ADD PUSH2 0x1FC3 JUMP JUMPDEST SWAP6 SWAP9 SWAP5 SWAP8 POP SWAP5 SWAP6 PUSH1 0x60 DUP2 ADD CALLDATALOAD SWAP6 POP PUSH1 0x80 ADD CALLDATALOAD SWAP4 SWAP3 POP POP POP JUMP JUMPDEST PUSH1 0x0 DUP1 PUSH1 0x0 DUP1 PUSH1 0x0 DUP1 PUSH1 0xC0 DUP8 DUP10 SUB SLT ISZERO PUSH2 0x21A0 JUMPI PUSH1 0x0 DUP1 REVERT JUMPDEST DUP7 CALLDATALOAD PUSH1 0x1 PUSH1 0x1 PUSH1 0x40 SHL SUB DUP1 DUP3 GT ISZERO PUSH2 0x21B7 JUMPI PUSH1 0x0 DUP1 REVERT JUMPDEST PUSH2 0x21C3 DUP11 DUP4 DUP12 ADD PUSH2 0x1FC3 JUMP JUMPDEST SWAP8 POP PUSH1 0x20 DUP10 ADD CALLDATALOAD SWAP7 POP PUSH1 0x40 DUP10 ADD CALLDATALOAD SWAP2 POP DUP1 DUP3 GT ISZERO PUSH2 0x21E0 JUMPI PUSH1 0x0 DUP1 REVERT JUMPDEST PUSH2 0x21EC DUP11 DUP4 DUP12 ADD PUSH2 0x1FC3 JUMP JUMPDEST SWAP6 POP PUSH1 0x60 DUP10 ADD CALLDATALOAD SWAP2 POP DUP1 DUP3 GT ISZERO PUSH2 0x2202 JUMPI PUSH1 0x0 DUP1 REVERT JUMPDEST PUSH2 0x220E DUP11 DUP4 DUP12 ADD PUSH2 0x1FC3 JUMP JUMPDEST SWAP5 POP PUSH1 0x80 DUP10 ADD CALLDATALOAD SWAP2 POP DUP1 DUP3 GT ISZERO PUSH2 0x2224 JUMPI PUSH1 0x0 DUP1 REVERT JUMPDEST PUSH2 0x2230 DUP11 DUP4 DUP12 ADD PUSH2 0x1FC3 JUMP JUMPDEST SWAP4 POP PUSH1 0xA0 DUP10 ADD CALLDATALOAD SWAP2 POP DUP1 DUP3 GT ISZERO PUSH2 0x2246 JUMPI PUSH1 0x0 DUP1 REVERT JUMPDEST POP PUSH2 0x2253 DUP10 DUP3 DUP11 ADD PUSH2 0x1FC3 JUMP JUMPDEST SWAP2 POP POP SWAP3 SWAP6 POP SWAP3 SWAP6 POP SWAP3 SWAP6 JUMP JUMPDEST PUSH1 0x0 JUMPDEST DUP4 DUP2 LT ISZERO PUSH2 0x227B JUMPI DUP2 DUP2 ADD MLOAD DUP4 DUP3 ADD MSTORE PUSH1 0x20 ADD PUSH2 0x2263 JUMP JUMPDEST DUP4 DUP2 GT ISZERO PUSH2 0x228A JUMPI PUSH1 0x0 DUP5 DUP5 ADD MSTORE JUMPDEST POP POP POP POP JUMP JUMPDEST PUSH1 0x0 DUP2 MLOAD DUP1 DUP5 MSTORE PUSH2 0x22A8 DUP2 PUSH1 0x20 DUP7 ADD PUSH1 0x20 DUP7 ADD PUSH2 0x2260 JUMP JUMPDEST PUSH1 0x1F ADD PUSH1 0x1F NOT AND SWAP3 SWAP1 SWAP3 ADD PUSH1 0x20 ADD SWAP3 SWAP2 POP POP JUMP JUMPDEST PUSH1 0x0 PUSH1 0x20 DUP1 DUP4 MSTORE DUP4 MLOAD DUP2 DUP5 ADD MSTORE DUP1 DUP5 ADD MLOAD PUSH1 0xC0 PUSH1 0x40 DUP6 ADD MSTORE PUSH2 0x22E1 PUSH1 0xE0 DUP6 ADD DUP3 PUSH2 0x2290 JUMP JUMPDEST SWAP1 POP PUSH1 0x40 DUP6 ADD MLOAD PUSH1 0x1F NOT DUP1 DUP7 DUP5 SUB ADD PUSH1 0x60 DUP8 ADD MSTORE PUSH2 0x22FF DUP4 DUP4 PUSH2 0x2290 JUMP JUMPDEST PUSH1 0x60 DUP9 ADD MLOAD PUSH1 0x80 DUP9 DUP2 ADD SWAP2 SWAP1 SWAP2 MSTORE DUP9 ADD MLOAD PUSH1 0xA0 DUP1 DUP10 ADD SWAP2 SWAP1 SWAP2 MSTORE DUP9 ADD MLOAD DUP8 DUP3 SUB SWAP1 SWAP3 ADD PUSH1 0xC0 DUP9 ADD MSTORE DUP2 MLOAD DUP1 DUP3 MSTORE SWAP2 DUP6 ADD SWAP4 POP PUSH1 0x0 SWAP3 POP DUP5 ADD SWAP1 JUMPDEST DUP1 DUP4 LT ISZERO PUSH2 0x2359 JUMPI DUP4 MLOAD DUP3 MSTORE SWAP3 DUP5 ADD SWAP3 PUSH1 0x1 SWAP3 SWAP1 SWAP3 ADD SWAP2 SWAP1 DUP5 ADD SWAP1 PUSH2 0x2339 JUMP JUMPDEST POP SWAP7 SWAP6 POP POP POP POP POP POP JUMP JUMPDEST PUSH1 0x0 DUP1 PUSH1 0x0 DUP1 PUSH1 0x0 PUSH1 0xA0 DUP7 DUP9 SUB SLT ISZERO PUSH2 0x237C JUMPI PUSH1 0x0 DUP1 REVERT JUMPDEST DUP6 CALLDATALOAD PUSH1 0x1 PUSH1 0x1 PUSH1 0x40 SHL SUB DUP1 DUP3 GT ISZERO PUSH2 0x2393 JUMPI PUSH1 0x0 DUP1 REVERT JUMPDEST PUSH2 0x239F DUP10 DUP4 DUP11 ADD PUSH2 0x1FC3 JUMP JUMPDEST SWAP7 POP PUSH1 0x20 DUP9 ADD CALLDATALOAD SWAP2 POP DUP1 DUP3 GT ISZERO PUSH2 0x23B5 JUMPI PUSH1 0x0 DUP1 REVERT JUMPDEST PUSH2 0x23C1 DUP10 DUP4 DUP11 ADD PUSH2 0x1FC3 JUMP JUMPDEST SWAP6 POP PUSH1 0x40 DUP9 ADD CALLDATALOAD SWAP5 POP PUSH1 0x60 DUP9 ADD CALLDATALOAD SWAP4 POP PUSH1 0x80 DUP9 ADD CALLDATALOAD SWAP2 POP DUP1 DUP3 GT ISZERO PUSH2 0x23E5 JUMPI PUSH1 0x0 DUP1 REVERT JUMPDEST POP PUSH2 0x23F2 DUP9 DUP3 DUP10 ADD PUSH2 0x1FC3 JUMP JUMPDEST SWAP2 POP POP SWAP3 SWAP6 POP SWAP3 SWAP6 SWAP1 SWAP4 POP JUMP JUMPDEST PUSH1 0x0 PUSH1 0x20 DUP3 DUP5 SUB SLT ISZERO PUSH2 0x2411 JUMPI PUSH1 0x0 DUP1 REVERT JUMPDEST POP CALLDATALOAD SWAP2 SWAP1 POP JUMP JUMPDEST PUSH4 0x4E487B71 PUSH1 0xE0 SHL PUSH1 0x0 MSTORE PUSH1 0x21 PUSH1 0x4 MSTORE PUSH1 0x24 PUSH1 0x0 REVERT JUMPDEST PUSH1 0x3 DUP2 LT PUSH2 0x244C JUMPI PUSH4 0x4E487B71 PUSH1 0xE0 SHL PUSH1 0x0 MSTORE PUSH1 0x21 PUSH1 0x4 MSTORE PUSH1 0x24 PUSH1 0x0 REVERT JUMPDEST SWAP1 MSTORE JUMP JUMPDEST PUSH1 0x0 PUSH2 0x100 DUP1 DUP4 MSTORE PUSH2 0x2464 DUP2 DUP5 ADD DUP13 PUSH2 0x2290 JUMP JUMPDEST SWAP1 POP DUP10 PUSH1 0x20 DUP5 ADD MSTORE DUP9 PUSH1 0x40 DUP5 ADD MSTORE DUP8 PUSH1 0x60 DUP5 ADD MSTORE DUP3 DUP2 SUB PUSH1 0x80 DUP5 ADD MSTORE PUSH2 0x248A DUP2 DUP9 PUSH2 0x2290 JUMP JUMPDEST SWAP2 POP POP DUP5 PUSH1 0xA0 DUP4 ADD MSTORE PUSH2 0x24A0 PUSH1 0xC0 DUP4 ADD DUP6 PUSH2 0x242E JUMP JUMPDEST DUP3 PUSH1 0xE0 DUP4 ADD MSTORE SWAP10 SWAP9 POP POP POP POP POP POP POP POP POP JUMP JUMPDEST PUSH1 0x0 DUP1 PUSH1 0x0 DUP1 PUSH1 0x80 DUP6 DUP8 SUB SLT ISZERO PUSH2 0x24C9 JUMPI PUSH1 0x0 DUP1 REVERT JUMPDEST DUP5 CALLDATALOAD PUSH1 0x1 PUSH1 0x1 PUSH1 0x40 SHL SUB DUP1 DUP3 GT ISZERO PUSH2 0x24E0 JUMPI PUSH1 0x0 DUP1 REVERT JUMPDEST PUSH2 0x24EC DUP9 DUP4 DUP10 ADD PUSH2 0x1FC3 JUMP JUMPDEST SWAP6 POP PUSH1 0x20 DUP8 ADD CALLDATALOAD SWAP2 POP DUP1 DUP3 GT ISZERO PUSH2 0x2502 JUMPI PUSH1 0x0 DUP1 REVERT JUMPDEST PUSH2 0x250E DUP9 DUP4 DUP10 ADD PUSH2 0x1FC3 JUMP JUMPDEST SWAP5 POP PUSH1 0x40 DUP8 ADD CALLDATALOAD SWAP2 POP DUP1 DUP3 GT ISZERO PUSH2 0x2524 JUMPI PUSH1 0x0 DUP1 REVERT JUMPDEST PUSH2 0x2530 DUP9 DUP4 DUP10 ADD PUSH2 0x1FC3 JUMP JUMPDEST SWAP4 POP PUSH1 0x60 DUP8 ADD CALLDATALOAD SWAP2 POP DUP1 DUP3 GT ISZERO PUSH2 0x2546 JUMPI PUSH1 0x0 DUP1 REVERT JUMPDEST POP PUSH2 0x2553 DUP8 DUP3 DUP9 ADD PUSH2 0x1FC3 JUMP JUMPDEST SWAP2 POP POP SWAP3 SWAP6 SWAP2 SWAP5 POP SWAP3 POP JUMP JUMPDEST PUSH1 0x0 DUP1 PUSH1 0x40 DUP4 DUP6 SUB SLT ISZERO PUSH2 0x2572 JUMPI PUSH1 0x0 DUP1 REVERT JUMPDEST DUP3 CALLDATALOAD SWAP2 POP PUSH1 0x20 DUP4 ADD CALLDATALOAD PUSH1 0x1 PUSH1 0x1 PUSH1 0x40 SHL SUB DUP2 GT ISZERO PUSH2 0x258F JUMPI PUSH1 0x0 DUP1 REVERT JUMPDEST PUSH2 0x20A8 DUP6 DUP3 DUP7 ADD PUSH2 0x1FC3 JUMP JUMPDEST PUSH1 0x0 DUP2 MLOAD DUP1 DUP5 MSTORE PUSH1 0x20 DUP1 DUP6 ADD DUP1 DUP2 SWAP7 POP DUP4 PUSH1 0x5 SHL DUP2 ADD SWAP2 POP DUP3 DUP7 ADD PUSH1 0x0 JUMPDEST DUP6 DUP2 LT ISZERO PUSH2 0x263F JUMPI DUP3 DUP5 SUB DUP10 MSTORE DUP2 MLOAD PUSH1 0x80 DUP2 MLOAD DUP2 DUP8 MSTORE PUSH2 0x25DB DUP3 DUP9 ADD DUP3 PUSH2 0x2290 JUMP JUMPDEST SWAP2 POP POP DUP7 DUP3 ADD MLOAD DUP7 DUP3 SUB DUP9 DUP9 ADD MSTORE PUSH2 0x25F3 DUP3 DUP3 PUSH2 0x2290 JUMP JUMPDEST SWAP2 POP POP PUSH1 0x40 DUP1 DUP4 ADD MLOAD DUP8 DUP4 SUB DUP3 DUP10 ADD MSTORE PUSH2 0x260D DUP4 DUP3 PUSH2 0x2290 JUMP JUMPDEST SWAP3 POP POP POP PUSH1 0x60 DUP1 DUP4 ADD MLOAD SWAP3 POP DUP7 DUP3 SUB DUP2 DUP9 ADD MSTORE POP PUSH2 0x262B DUP2 DUP4 PUSH2 0x2290 JUMP JUMPDEST SWAP11 DUP8 ADD SWAP11 SWAP6 POP POP POP SWAP1 DUP5 ADD SWAP1 PUSH1 0x1 ADD PUSH2 0x25B9 JUMP JUMPDEST POP SWAP2 SWAP8 SWAP7 POP POP POP POP POP POP POP JUMP JUMPDEST PUSH1 0x0 PUSH2 0x100 DUP3 MLOAD DUP2 DUP6 MSTORE PUSH2 0x2662 DUP3 DUP7 ADD DUP3 PUSH2 0x2290 JUMP JUMPDEST SWAP2 POP POP PUSH1 0x20 DUP4 ADD MLOAD PUSH1 0x20 DUP6 ADD MSTORE PUSH1 0x40 DUP4 ADD MLOAD PUSH1 0x40 DUP6 ADD MSTORE PUSH1 0x60 DUP4 ADD MLOAD PUSH1 0x60 DUP6 ADD MSTORE PUSH1 0x80 DUP4 ADD MLOAD DUP5 DUP3 SUB PUSH1 0x80 DUP7 ADD MSTORE PUSH2 0x269A DUP3 DUP3 PUSH2 0x259B JUMP JUMPDEST SWAP2 POP POP PUSH1 0xA0 DUP4 ADD MLOAD DUP5 DUP3 SUB PUSH1 0xA0 DUP7 ADD MSTORE PUSH2 0x26B4 DUP3 DUP3 PUSH2 0x2290 JUMP JUMPDEST SWAP2 POP POP PUSH1 0xC0 DUP4 ADD MLOAD PUSH1 0xC0 DUP6 ADD MSTORE PUSH1 0xE0 DUP4 ADD MLOAD PUSH2 0x26D3 PUSH1 0xE0 DUP7 ADD DUP3 PUSH2 0x242E JUMP JUMPDEST POP SWAP4 SWAP3 POP POP POP JUMP JUMPDEST PUSH1 0x0 PUSH1 0x20 DUP1 DUP4 ADD DUP2 DUP5 MSTORE DUP1 DUP6 MLOAD DUP1 DUP4 MSTORE PUSH1 0x40 DUP7 ADD SWAP2 POP PUSH1 0x40 DUP2 PUSH1 0x5 SHL DUP8 ADD ADD SWAP3 POP DUP4 DUP8 ADD PUSH1 0x0 JUMPDEST DUP3 DUP2 LT ISZERO PUSH2 0x2730 JUMPI PUSH1 0x3F NOT DUP9 DUP7 SUB ADD DUP5 MSTORE PUSH2 0x271E DUP6 DUP4 MLOAD PUSH2 0x264C JUMP JUMPDEST SWAP5 POP SWAP3 DUP6 ADD SWAP3 SWAP1 DUP6 ADD SWAP1 PUSH1 0x1 ADD PUSH2 0x2702 JUMP JUMPDEST POP SWAP3 SWAP8 SWAP7 POP POP POP POP POP POP POP JUMP JUMPDEST PUSH1 0x20 DUP2 MSTORE PUSH1 0x0 PUSH2 0x2750 PUSH1 0x20 DUP4 ADD DUP5 PUSH2 0x259B JUMP JUMPDEST SWAP4 SWAP3 POP POP POP JUMP JUMPDEST PUSH1 0x0 DUP2 MLOAD DUP1 DUP5 MSTORE PUSH1 0x20 DUP1 DUP6 ADD SWAP5 POP DUP1 DUP5 ADD PUSH1 0x0 JUMPDEST DUP4 DUP2 LT ISZERO PUSH2 0x2787 JUMPI DUP2 MLOAD DUP8 MSTORE SWAP6 DUP3 ADD SWAP6 SWAP1 DUP3 ADD SWAP1 PUSH1 0x1 ADD PUSH2 0x276B JUMP JUMPDEST POP SWAP5 SWAP6 SWAP5 POP POP POP POP POP JUMP JUMPDEST PUSH1 0x20 DUP2 MSTORE PUSH1 0x0 PUSH2 0x2750 PUSH1 0x20 DUP4 ADD DUP5 PUSH2 0x2757 JUMP JUMPDEST PUSH1 0x20 DUP2 MSTORE PUSH1 0x0 PUSH2 0x2750 PUSH1 0x20 DUP4 ADD DUP5 PUSH2 0x264C JUMP JUMPDEST PUSH1 0x40 DUP2 MSTORE PUSH1 0x0 PUSH2 0x27CB PUSH1 0x40 DUP4 ADD DUP6 PUSH2 0x259B JUMP JUMPDEST DUP3 DUP2 SUB PUSH1 0x20 DUP5 ADD MSTORE PUSH2 0x27DD DUP2 DUP6 PUSH2 0x2757 JUMP JUMPDEST SWAP6 SWAP5 POP POP POP POP POP JUMP JUMPDEST PUSH1 0x20 DUP1 DUP3 MSTORE DUP3 MLOAD DUP3 DUP3 ADD DUP2 SWAP1 MSTORE PUSH1 0x0 SWAP2 SWAP1 DUP5 DUP3 ADD SWAP1 PUSH1 0x40 DUP6 ADD SWAP1 DUP5 JUMPDEST DUP2 DUP2 LT ISZERO PUSH2 0x2825 JUMPI PUSH2 0x2815 DUP4 DUP6 MLOAD PUSH2 0x242E JUMP JUMPDEST SWAP3 DUP5 ADD SWAP3 SWAP2 DUP5 ADD SWAP2 PUSH1 0x1 ADD PUSH2 0x2802 JUMP JUMPDEST POP SWAP1 SWAP7 SWAP6 POP POP POP POP POP POP JUMP JUMPDEST PUSH1 0x0 DUP1 PUSH1 0x0 PUSH1 0x60 DUP5 DUP7 SUB SLT ISZERO PUSH2 0x2846 JUMPI PUSH1 0x0 DUP1 REVERT JUMPDEST DUP4 CALLDATALOAD SWAP3 POP PUSH1 0x20 DUP5 ADD CALLDATALOAD SWAP2 POP PUSH1 0x40 DUP5 ADD CALLDATALOAD PUSH1 0x1 PUSH1 0x1 PUSH1 0x40 SHL SUB DUP2 GT ISZERO PUSH2 0x286A JUMPI PUSH1 0x0 DUP1 REVERT JUMPDEST PUSH2 0x2876 DUP7 DUP3 DUP8 ADD PUSH2 0x1FC3 JUMP JUMPDEST SWAP2 POP POP SWAP3 POP SWAP3 POP SWAP3 JUMP JUMPDEST PUSH1 0x0 DUP3 MLOAD PUSH2 0x2892 DUP2 DUP5 PUSH1 0x20 DUP8 ADD PUSH2 0x2260 JUMP JUMPDEST SWAP2 SWAP1 SWAP2 ADD SWAP3 SWAP2 POP POP JUMP JUMPDEST PUSH1 0x1 DUP2 DUP2 SHR SWAP1 DUP3 AND DUP1 PUSH2 0x28B0 JUMPI PUSH1 0x7F DUP3 AND SWAP2 POP JUMPDEST PUSH1 0x20 DUP3 LT DUP2 EQ ISZERO PUSH2 0xE91 JUMPI PUSH4 0x4E487B71 PUSH1 0xE0 SHL PUSH1 0x0 MSTORE PUSH1 0x22 PUSH1 0x4 MSTORE PUSH1 0x24 PUSH1 0x0 REVERT JUMPDEST PUSH1 0x0 DUP1 DUP4 SLOAD DUP2 PUSH1 0x1 DUP3 DUP2 SHR SWAP2 POP DUP1 DUP4 AND DUP1 PUSH2 0x28ED JUMPI PUSH1 0x7F DUP4 AND SWAP3 POP JUMPDEST PUSH1 0x20 DUP1 DUP5 LT DUP3 EQ ISZERO PUSH2 0x290D JUMPI PUSH4 0x4E487B71 PUSH1 0xE0 SHL DUP7 MSTORE PUSH1 0x22 PUSH1 0x4 MSTORE PUSH1 0x24 DUP7 REVERT JUMPDEST DUP2 DUP1 ISZERO PUSH2 0x2921 JUMPI PUSH1 0x1 DUP2 EQ PUSH2 0x2932 JUMPI PUSH2 0x295F JUMP JUMPDEST PUSH1 0xFF NOT DUP7 AND DUP10 MSTORE DUP5 DUP10 ADD SWAP7 POP PUSH2 0x295F JUMP JUMPDEST PUSH1 0x0 DUP11 DUP2 MSTORE PUSH1 0x20 SWAP1 KECCAK256 PUSH1 0x0 JUMPDEST DUP7 DUP2 LT ISZERO PUSH2 0x2957 JUMPI DUP2 SLOAD DUP12 DUP3 ADD MSTORE SWAP1 DUP6 ADD SWAP1 DUP4 ADD PUSH2 0x293E JUMP JUMPDEST POP POP DUP5 DUP10 ADD SWAP7 POP JUMPDEST POP SWAP5 SWAP9 SWAP8 POP POP POP POP POP POP POP POP JUMP JUMPDEST PUSH4 0x4E487B71 PUSH1 0xE0 SHL PUSH1 0x0 MSTORE PUSH1 0x11 PUSH1 0x4 MSTORE PUSH1 0x24 PUSH1 0x0 REVERT JUMPDEST PUSH1 0x0 PUSH1 0x0 NOT DUP3 EQ ISZERO PUSH2 0x2997 JUMPI PUSH2 0x2997 PUSH2 0x296D JUMP JUMPDEST POP PUSH1 0x1 ADD SWAP1 JUMP JUMPDEST PUSH1 0x0 DUP3 DUP3 LT ISZERO PUSH2 0x29B0 JUMPI PUSH2 0x29B0 PUSH2 0x296D JUMP JUMPDEST POP SUB SWAP1 JUMP JUMPDEST PUSH1 0x20 DUP1 DUP3 MSTORE PUSH1 0x13 SWAP1 DUP3 ADD MSTORE PUSH19 0x125B9D985B1A5908115B1958DD1A5BDB881251 PUSH1 0x6A SHL PUSH1 0x40 DUP3 ADD MSTORE PUSH1 0x60 ADD SWAP1 JUMP JUMPDEST PUSH1 0x20 DUP1 DUP3 MSTORE PUSH1 0x43 SWAP1 DUP3 ADD MSTORE PUSH32 0x41636573732044656E6965642C796F75206172656E277420746865206F776E65 PUSH1 0x40 DUP3 ADD MSTORE PUSH32 0x72206F662074686520656C656374696F6E2E20496E636F727265637420416164 PUSH1 0x60 DUP3 ADD MSTORE PUSH3 0x3430B9 PUSH1 0xE9 SHL PUSH1 0x80 DUP3 ADD MSTORE PUSH1 0xA0 ADD SWAP1 JUMP JUMPDEST PUSH1 0x20 DUP1 DUP3 MSTORE PUSH1 0xB SWAP1 DUP3 ADD MSTORE PUSH11 0x57726F6E67207068617365 PUSH1 0xA8 SHL PUSH1 0x40 DUP3 ADD MSTORE PUSH1 0x60 ADD SWAP1 JUMP JUMPDEST PUSH4 0x4E487B71 PUSH1 0xE0 SHL PUSH1 0x0 MSTORE PUSH1 0x32 PUSH1 0x4 MSTORE PUSH1 0x24 PUSH1 0x0 REVERT JUMPDEST PUSH1 0x0 DUP3 NOT DUP3 GT ISZERO PUSH2 0x2A99 JUMPI PUSH2 0x2A99 PUSH2 0x296D JUMP JUMPDEST POP ADD SWAP1 JUMP INVALID LOG2 PUSH5 0x6970667358 0x22 SLT KECCAK256 0xC9 DUP8 PUSH15 0x87F903F5420D97D9E11362CE3F4065 0xD5 PUSH25 0x62D9C6161D63DBF5B15F72E964736F6C634300080900330000 "},"methodIdentifiers":{"addCandidates(string,uint256,string,string,string,string)":"27271a91","checkCredentials(string,string)":"012ab8f1","createElection(string,string,string,uint256,uint256)":"19b99e03","createUser(string,string,string,string)":"6f7fcddb","doVote(uint256,uint256,string)":"ee50344a","elections(uint256)":"5e6fef01","endVoting(uint256,string)":"7b4d5c1b","getAllElections()":"7fd5f268","getCandidates(uint256,string)":"92721cff","getElectionById(uint256)":"c6958b12","getElectionResults(uint256)":"e8ededa6","getElections(string)":"929f78d2","getPhase()":"eced0280","getUser(string)":"31feb671","hashAadhar(string)":"14e0d72b","init(string,string,uint256,uint256,string)":"450a0a4b","initializer()":"9ce110d7","noOfUsers()":"01934a83","numberOfElections()":"cdc389f6","startVoting(uint256,string)":"b1330ca9"}},"storageLayout":{"storage":[{"astId":68,"contract":"contracts/User.sol:UserInfo","label":"elections","offset":0,"slot":"0","type":"t_mapping(t_uint256,t_struct(Election)43_storage)"},{"astId":70,"contract":"contracts/User.sol:UserInfo","label":"numberOfElections","offset":0,"slot":"1","type":"t_uint256"},{"astId":861,"contract":"contracts/User.sol:UserInfo","label":"Users","offset":0,"slot":"2","type":"t_mapping(t_bytes32,t_struct(User)856_storage)"},{"astId":865,"contract":"contracts/User.sol:UserInfo","label":"login","offset":0,"slot":"3","type":"t_mapping(t_bytes32,t_string_storage)"},{"astId":867,"contract":"contracts/User.sol:UserInfo","label":"noOfUsers","offset":0,"slot":"4","type":"t_uint256"}],"types":{"t_array(t_struct(Candidate)14_storage)dyn_storage":{"base":"t_struct(Candidate)14_storage","encoding":"dynamic_array","label":"struct ElectionInfo.Candidate[]","numberOfBytes":"32"},"t_array(t_uint256)dyn_storage":{"base":"t_uint256","encoding":"dynamic_array","label":"uint256[]","numberOfBytes":"32"},"t_bool":{"encoding":"inplace","label":"bool","numberOfBytes":"1"},"t_bytes32":{"encoding":"inplace","label":"bytes32","numberOfBytes":"32"},"t_enum(Phase)5":{"encoding":"inplace","label":"enum ElectionInfo.Phase","numberOfBytes":"1"},"t_mapping(t_bytes32,t_bool)":{"encoding":"mapping","key":"t_bytes32","label":"mapping(bytes32 => bool)","numberOfBytes":"32","value":"t_bool"},"t_mapping(t_bytes32,t_string_storage)":{"encoding":"mapping","key":"t_bytes32","label":"mapping(bytes32 => string)","numberOfBytes":"32","value":"t_string_storage"},"t_mapping(t_bytes32,t_struct(User)856_storage)":{"encoding":"mapping","key":"t_bytes32","label":"mapping(bytes32 => struct UserInfo.User)","numberOfBytes":"32","value":"t_struct(User)856_storage"},"t_mapping(t_uint256,t_struct(Election)43_storage)":{"encoding":"mapping","key":"t_uint256","label":"mapping(uint256 => struct ElectionInfo.Election)","numberOfBytes":"32","value":"t_struct(Election)43_storage"},"t_string_storage":{"encoding":"bytes","label":"string","numberOfBytes":"32"},"t_struct(Candidate)14_storage":{"encoding":"inplace","label":"struct ElectionInfo.Candidate","members":[{"astId":7,"contract":"contracts/User.sol:UserInfo","label":"name","offset":0,"slot":"0","type":"t_string_storage"},{"astId":9,"contract":"contracts/User.sol:UserInfo","label":"party","offset":0,"slot":"1","type":"t_string_storage"},{"astId":11,"contract":"contracts/User.sol:UserInfo","label":"image_url","offset":0,"slot":"2","type":"t_string_storage"},{"astId":13,"contract":"contracts/User.sol:UserInfo","label":"party_image_url","offset":0,"slot":"3","type":"t_string_storage"}],"numberOfBytes":"128"},"t_struct(Election)43_storage":{"encoding":"inplace","label":"struct ElectionInfo.Election","members":[{"astId":16,"contract":"contracts/User.sol:UserInfo","label":"name","offset":0,"slot":"0","type":"t_string_storage"},{"astId":18,"contract":"contracts/User.sol:UserInfo","label":"start_date","offset":0,"slot":"1","type":"t_uint256"},{"astId":20,"contract":"contracts/User.sol:UserInfo","label":"end_date","offset":0,"slot":"2","type":"t_uint256"},{"astId":22,"contract":"contracts/User.sol:UserInfo","label":"noOfCandidates","offset":0,"slot":"3","type":"t_uint256"},{"astId":26,"contract":"contracts/User.sol:UserInfo","label":"candidates","offset":0,"slot":"4","type":"t_array(t_struct(Candidate)14_storage)dyn_storage"},{"astId":29,"contract":"contracts/User.sol:UserInfo","label":"numberOfVotes","offset":0,"slot":"5","type":"t_array(t_uint256)dyn_storage"},{"astId":31,"contract":"contracts/User.sol:UserInfo","label":"image_url","offset":0,"slot":"6","type":"t_string_storage"},{"astId":33,"contract":"contracts/User.sol:UserInfo","label":"totalVoted","offset":0,"slot":"7","type":"t_uint256"},{"astId":37,"contract":"contracts/User.sol:UserInfo","label":"voted","offset":0,"slot":"8","type":"t_mapping(t_bytes32,t_bool)"},{"astId":40,"contract":"contracts/User.sol:UserInfo","label":"currPhase","offset":0,"slot":"9","type":"t_enum(Phase)5"},{"astId":42,"contract":"contracts/User.sol:UserInfo","label":"aadharhash","offset":0,"slot":"10","type":"t_bytes32"}],"numberOfBytes":"352"},"t_struct(User)856_storage":{"encoding":"inplace","label":"struct UserInfo.User","members":[{"astId":844,"contract":"contracts/User.sol:UserInfo","label":"userId","offset":0,"slot":"0","type":"t_uint256"},{"astId":846,"contract":"contracts/User.sol:UserInfo","label":"name","offset":0,"slot":"1","type":"t_string_storage"},{"astId":848,"contract":"contracts/User.sol:UserInfo","label":"dob","offset":0,"slot":"2","type":"t_string_storage"},{"astId":850,"contract":"contracts/User.sol:UserInfo","label":"aadharHash","offset":0,"slot":"3","type":"t_bytes32"},{"astId":852,"contract":"contracts/User.sol:UserInfo","label":"noOfElections","offset":0,"slot":"4","type":"t_uint256"},{"astId":855,"contract":"contracts/User.sol:UserInfo","label":"elections","offset":0,"slot":"5","type":"t_array(t_uint256)dyn_storage"}],"numberOfBytes":"192"},"t_uint256":{"encoding":"inplace","label":"uint256","numberOfBytes":"32"}}}}}}