{"contracts/Election.sol":{"ElectionInfo":{"abi":[{"inputs":[{"internalType":"string","name":"_name","type":"string"},{"internalType":"uint256","name":"_electionid","type":"uint256"}],"name":"addCandidates","outputs":[],"stateMutability":"nonpayable","type":"function"},{"inputs":[{"internalType":"uint256","name":"_electionid","type":"uint256"},{"internalType":"uint256","name":"_candidateID","type":"uint256"},{"internalType":"string","name":"_aadhar","type":"string"}],"name":"doVote","outputs":[{"internalType":"uint256[]","name":"","type":"uint256[]"}],"stateMutability":"nonpayable","type":"function"},{"inputs":[{"internalType":"uint256","name":"","type":"uint256"}],"name":"elections","outputs":[{"internalType":"string","name":"name","type":"string"},{"internalType":"uint256","name":"start_date","type":"uint256"},{"internalType":"uint256","name":"end_date","type":"uint256"},{"internalType":"uint256","name":"totalVoted","type":"uint256"},{"internalType":"enum ElectionInfo.Phase","name":"currPhase","type":"uint8"},{"internalType":"address","name":"ownerAddress","type":"address"}],"stateMutability":"view","type":"function"},{"inputs":[{"internalType":"uint256","name":"_electionid","type":"uint256"}],"name":"endVoting","outputs":[],"stateMutability":"nonpayable","type":"function"},{"inputs":[{"internalType":"uint256","name":"_electionid","type":"uint256"}],"name":"getElectionResults","outputs":[{"internalType":"string[]","name":"","type":"string[]"},{"internalType":"uint256[]","name":"","type":"uint256[]"},{"internalType":"enum ElectionInfo.Phase","name":"","type":"uint8"}],"stateMutability":"view","type":"function"},{"inputs":[{"internalType":"string","name":"_aadhar","type":"string"}],"name":"hashAadhar","outputs":[{"internalType":"bytes32","name":"","type":"bytes32"}],"stateMutability":"pure","type":"function"},{"inputs":[{"internalType":"string","name":"_name","type":"string"},{"internalType":"uint256","name":"_start_date","type":"uint256"},{"internalType":"uint256","name":"_end_date","type":"uint256"}],"name":"init","outputs":[{"internalType":"uint256","name":"","type":"uint256"}],"stateMutability":"nonpayable","type":"function"},{"inputs":[],"name":"numberOfElections","outputs":[{"internalType":"uint256","name":"","type":"uint256"}],"stateMutability":"view","type":"function"},{"inputs":[{"internalType":"uint256","name":"_electionid","type":"uint256"}],"name":"startVoting","outputs":[],"stateMutability":"nonpayable","type":"function"}],"evm":{"bytecode":{"linkReferences":{},"object":"6080604052600060015534801561001557600080fd5b50610ee1806100256000396000f3fe608060405234801561001057600080fd5b50600436106100935760003560e01c80639fedb89a116100665780639fedb89a1461010b578063ade49c7d1461011e578063cdc389f614610131578063e8ededa61461013a578063ee50344a1461015c57600080fd5b806314e0d72b146100985780633d2f5bda146100be5780635e6fef01146100d3578063649f89a5146100f8575b600080fd5b6100ab6100a6366004610a93565b61017c565b6040519081526020015b60405180910390f35b6100d16100cc366004610ad0565b6101ac565b005b6100e66100e1366004610ad0565b610265565b6040516100b596959493929190610b7d565b6100d1610106366004610ad0565b61032f565b6100d1610119366004610bcd565b6103d9565b6100ab61012c366004610c12565b6104bb565b6100ab60015481565b61014d610148366004610ad0565b6105f6565b6040516100b593929190610c9b565b61016f61016a366004610d18565b610749565b6040516100b59190610d68565b60008160405160200161018f9190610d82565b604051602081830303815290604052805190602001209050919050565b600081815260208190526040902060070154819061010090046001600160a01b031633146101f55760405162461bcd60e51b81526004016101ec90610d9e565b60405180910390fd5b6000828160008281526020819052604090206007015460ff16600281111561021f5761021f610b45565b1461023c5760405162461bcd60e51b81526004016101ec90610e0c565b600084815260208190526040902060070180546001919060ff191682805b021790555050505050565b60006020819052908152604090208054819061028090610e31565b80601f01602080910402602001604051908101604052809291908181526020018280546102ac90610e31565b80156102f95780601f106102ce576101008083540402835291602001916102f9565b820191906000526020600020905b8154815290600101906020018083116102dc57829003601f168201915b505050506001830154600284015460058501546007909501549394919390925060ff81169061010090046001600160a01b031686565b600081815260208190526040902060070154819061010090046001600160a01b0316331461036f5760405162461bcd60e51b81526004016101ec90610d9e565b6001828160008281526020819052604090206007015460ff16600281111561039957610399610b45565b146103b65760405162461bcd60e51b81526004016101ec90610e0c565b600084815260208190526040902060070180546002919060ff191660018361025a565b600081815260208190526040902060070154819061010090046001600160a01b031633146104195760405162461bcd60e51b81526004016101ec90610d9e565b6000828160008281526020819052604090206007015460ff16600281111561044357610443610b45565b146104605760405162461bcd60e51b81526004016101ec90610e0c565b60008481526020818152604082206003018054600181018255908352918190208751610493939190910191880190610957565b5050506000918252506020818152604082206004018054600181018255908352908220015550565b600154600090815260208190526040812042841161052b5760405162461bcd60e51b815260206004820152602760248201527f54686520737461727420646174652073686f756c64206265206461746520696e6044820152662066757475726560c81b60648201526084016101ec565b8383116105915760405162461bcd60e51b815260206004820152602e60248201527f54686520656e6420646174652073686f756c64206265206168656164206f662060448201526d746865207374617274206461746560901b60648201526084016101ec565b84516105a39082906020880190610957565b506001818101859055600282018490556007820180546001600160a81b031916336101000260ff1916179055600060058301819055815491906105e583610e6c565b909155505060015495945050505050565b60008181526020818152604080832060078101546003820180548451818702810187019095528085526060968796909592946004019360ff1692918591879084015b828210156106e457838290600052602060002001805461065790610e31565b80601f016020809104026020016040519081016040528092919081815260200182805461068390610e31565b80156106d05780601f106106a5576101008083540402835291602001916106d0565b820191906000526020600020905b8154815290600101906020018083116106b357829003601f168201915b505050505081526020019060010190610638565b5050505092508180548060200260200160405190810160405280929190818152602001828054801561073557602002820191906000526020600020905b815481526020019060010190808311610721575b505050505091509250925092509193909250565b60606001848160008281526020819052604090206007015460ff16600281111561077557610775610b45565b146107925760405162461bcd60e51b81526004016101ec90610e0c565b60005b60008781526020819052604090206005015481101561086257846040516020016107bf9190610d82565b60408051601f19818403018152918152815160209283012060008a81529283905291206006018054839081106107f7576107f7610e95565b906000526020600020015414156108505760405162461bcd60e51b815260206004820152601760248201527f566f7465722068617320616c726561647920766f74656400000000000000000060448201526064016101ec565b8061085a81610e6c565b915050610795565b50600086815260208190526040902060040180548690811061088657610886610e95565b6000918252602082200180549161089c83610e6c565b909155505060008681526020819052604090206006016108bb8561017c565b81546001810183556000928352602080842090910191909155878252819052604081206005018054916108ed83610e6c565b9091555050600086815260208181526040918290206004018054835181840281018401909452808452909183018282801561094757602002820191906000526020600020905b815481526020019060010190808311610933575b5050505050925050509392505050565b82805461096390610e31565b90600052602060002090601f01602090048101928261098557600085556109cb565b82601f1061099e57805160ff19168380011785556109cb565b828001600101855582156109cb579182015b828111156109cb5782518255916020019190600101906109b0565b506109d79291506109db565b5090565b5b808211156109d757600081556001016109dc565b634e487b7160e01b600052604160045260246000fd5b600082601f830112610a1757600080fd5b813567ffffffffffffffff80821115610a3257610a326109f0565b604051601f8301601f19908116603f01168101908282118183101715610a5a57610a5a6109f0565b81604052838152866020858801011115610a7357600080fd5b836020870160208301376000602085830101528094505050505092915050565b600060208284031215610aa557600080fd5b813567ffffffffffffffff811115610abc57600080fd5b610ac884828501610a06565b949350505050565b600060208284031215610ae257600080fd5b5035919050565b60005b83811015610b04578181015183820152602001610aec565b83811115610b13576000848401525b50505050565b60008151808452610b31816020860160208601610ae9565b601f01601f19169290920160200192915050565b634e487b7160e01b600052602160045260246000fd5b60038110610b7957634e487b7160e01b600052602160045260246000fd5b9052565b60c081526000610b9060c0830189610b19565b9050866020830152856040830152846060830152610bb16080830185610b5b565b6001600160a01b039290921660a0919091015295945050505050565b60008060408385031215610be057600080fd5b823567ffffffffffffffff811115610bf757600080fd5b610c0385828601610a06565b95602094909401359450505050565b600080600060608486031215610c2757600080fd5b833567ffffffffffffffff811115610c3e57600080fd5b610c4a86828701610a06565b9660208601359650604090950135949350505050565b600081518084526020808501945080840160005b83811015610c9057815187529582019590820190600101610c74565b509495945050505050565b6000606082016060835280865180835260808501915060808160051b8601019250602080890160005b83811015610cf257607f19888703018552610ce0868351610b19565b95509382019390820190600101610cc4565b505085840381870152505050610d088186610c60565b915050610ac86040830184610b5b565b600080600060608486031215610d2d57600080fd5b8335925060208401359150604084013567ffffffffffffffff811115610d5257600080fd5b610d5e86828701610a06565b9150509250925092565b602081526000610d7b6020830184610c60565b9392505050565b60008251610d94818460208701610ae9565b9190910192915050565b60208082526048908201527f41636573732044656e6965642c796f75206172656e277420746865206f776e6560408201527f72206f662074686520656c656374696f6e2e77726f6e67206d6574616d61736b606082015267206164647265737360c01b608082015260a00190565b6020808252600b908201526a57726f6e6720706861736560a81b604082015260600190565b600181811c90821680610e4557607f821691505b60208210811415610e6657634e487b7160e01b600052602260045260246000fd5b50919050565b6000600019821415610e8e57634e487b7160e01b600052601160045260246000fd5b5060010190565b634e487b7160e01b600052603260045260246000fdfea26469706673582212200ebbc547687aa9e78a96e0b9990ecda392ea39cf2332c53e74ee347acf790d9f64736f6c63430008090033","opcodes":"PUSH1 0x80 PUSH1 0x40 MSTORE PUSH1 0x0 PUSH1 0x1 SSTORE CALLVALUE DUP1 ISZERO PUSH2 0x15 JUMPI PUSH1 0x0 DUP1 REVERT JUMPDEST POP PUSH2 0xEE1 DUP1 PUSH2 0x25 PUSH1 0x0 CODECOPY PUSH1 0x0 RETURN INVALID PUSH1 0x80 PUSH1 0x40 MSTORE CALLVALUE DUP1 ISZERO PUSH2 0x10 JUMPI PUSH1 0x0 DUP1 REVERT JUMPDEST POP PUSH1 0x4 CALLDATASIZE LT PUSH2 0x93 JUMPI PUSH1 0x0 CALLDATALOAD PUSH1 0xE0 SHR DUP1 PUSH4 0x9FEDB89A GT PUSH2 0x66 JUMPI DUP1 PUSH4 0x9FEDB89A EQ PUSH2 0x10B JUMPI DUP1 PUSH4 0xADE49C7D EQ PUSH2 0x11E JUMPI DUP1 PUSH4 0xCDC389F6 EQ PUSH2 0x131 JUMPI DUP1 PUSH4 0xE8EDEDA6 EQ PUSH2 0x13A JUMPI DUP1 PUSH4 0xEE50344A EQ PUSH2 0x15C JUMPI PUSH1 0x0 DUP1 REVERT JUMPDEST DUP1 PUSH4 0x14E0D72B EQ PUSH2 0x98 JUMPI DUP1 PUSH4 0x3D2F5BDA EQ PUSH2 0xBE JUMPI DUP1 PUSH4 0x5E6FEF01 EQ PUSH2 0xD3 JUMPI DUP1 PUSH4 0x649F89A5 EQ PUSH2 0xF8 JUMPI JUMPDEST PUSH1 0x0 DUP1 REVERT JUMPDEST PUSH2 0xAB PUSH2 0xA6 CALLDATASIZE PUSH1 0x4 PUSH2 0xA93 JUMP JUMPDEST PUSH2 0x17C JUMP JUMPDEST PUSH1 0x40 MLOAD SWAP1 DUP2 MSTORE PUSH1 0x20 ADD JUMPDEST PUSH1 0x40 MLOAD DUP1 SWAP2 SUB SWAP1 RETURN JUMPDEST PUSH2 0xD1 PUSH2 0xCC CALLDATASIZE PUSH1 0x4 PUSH2 0xAD0 JUMP JUMPDEST PUSH2 0x1AC JUMP JUMPDEST STOP JUMPDEST PUSH2 0xE6 PUSH2 0xE1 CALLDATASIZE PUSH1 0x4 PUSH2 0xAD0 JUMP JUMPDEST PUSH2 0x265 JUMP JUMPDEST PUSH1 0x40 MLOAD PUSH2 0xB5 SWAP7 SWAP6 SWAP5 SWAP4 SWAP3 SWAP2 SWAP1 PUSH2 0xB7D JUMP JUMPDEST PUSH2 0xD1 PUSH2 0x106 CALLDATASIZE PUSH1 0x4 PUSH2 0xAD0 JUMP JUMPDEST PUSH2 0x32F JUMP JUMPDEST PUSH2 0xD1 PUSH2 0x119 CALLDATASIZE PUSH1 0x4 PUSH2 0xBCD JUMP JUMPDEST PUSH2 0x3D9 JUMP JUMPDEST PUSH2 0xAB PUSH2 0x12C CALLDATASIZE PUSH1 0x4 PUSH2 0xC12 JUMP JUMPDEST PUSH2 0x4BB JUMP JUMPDEST PUSH2 0xAB PUSH1 0x1 SLOAD DUP2 JUMP JUMPDEST PUSH2 0x14D PUSH2 0x148 CALLDATASIZE PUSH1 0x4 PUSH2 0xAD0 JUMP JUMPDEST PUSH2 0x5F6 JUMP JUMPDEST PUSH1 0x40 MLOAD PUSH2 0xB5 SWAP4 SWAP3 SWAP2 SWAP1 PUSH2 0xC9B JUMP JUMPDEST PUSH2 0x16F PUSH2 0x16A CALLDATASIZE PUSH1 0x4 PUSH2 0xD18 JUMP JUMPDEST PUSH2 0x749 JUMP JUMPDEST PUSH1 0x40 MLOAD PUSH2 0xB5 SWAP2 SWAP1 PUSH2 0xD68 JUMP JUMPDEST PUSH1 0x0 DUP2 PUSH1 0x40 MLOAD PUSH1 0x20 ADD PUSH2 0x18F SWAP2 SWAP1 PUSH2 0xD82 JUMP JUMPDEST PUSH1 0x40 MLOAD PUSH1 0x20 DUP2 DUP4 SUB SUB DUP2 MSTORE SWAP1 PUSH1 0x40 MSTORE DUP1 MLOAD SWAP1 PUSH1 0x20 ADD KECCAK256 SWAP1 POP SWAP2 SWAP1 POP JUMP JUMPDEST PUSH1 0x0 DUP2 DUP2 MSTORE PUSH1 0x20 DUP2 SWAP1 MSTORE PUSH1 0x40 SWAP1 KECCAK256 PUSH1 0x7 ADD SLOAD DUP2 SWAP1 PUSH2 0x100 SWAP1 DIV PUSH1 0x1 PUSH1 0x1 PUSH1 0xA0 SHL SUB AND CALLER EQ PUSH2 0x1F5 JUMPI PUSH1 0x40 MLOAD PUSH3 0x461BCD PUSH1 0xE5 SHL DUP2 MSTORE PUSH1 0x4 ADD PUSH2 0x1EC SWAP1 PUSH2 0xD9E JUMP JUMPDEST PUSH1 0x40 MLOAD DUP1 SWAP2 SUB SWAP1 REVERT JUMPDEST PUSH1 0x0 DUP3 DUP2 PUSH1 0x0 DUP3 DUP2 MSTORE PUSH1 0x20 DUP2 SWAP1 MSTORE PUSH1 0x40 SWAP1 KECCAK256 PUSH1 0x7 ADD SLOAD PUSH1 0xFF AND PUSH1 0x2 DUP2 GT ISZERO PUSH2 0x21F JUMPI PUSH2 0x21F PUSH2 0xB45 JUMP JUMPDEST EQ PUSH2 0x23C JUMPI PUSH1 0x40 MLOAD PUSH3 0x461BCD PUSH1 0xE5 SHL DUP2 MSTORE PUSH1 0x4 ADD PUSH2 0x1EC SWAP1 PUSH2 0xE0C JUMP JUMPDEST PUSH1 0x0 DUP5 DUP2 MSTORE PUSH1 0x20 DUP2 SWAP1 MSTORE PUSH1 0x40 SWAP1 KECCAK256 PUSH1 0x7 ADD DUP1 SLOAD PUSH1 0x1 SWAP2 SWAP1 PUSH1 0xFF NOT AND DUP3 DUP1 JUMPDEST MUL OR SWAP1 SSTORE POP POP POP POP POP JUMP JUMPDEST PUSH1 0x0 PUSH1 0x20 DUP2 SWAP1 MSTORE SWAP1 DUP2 MSTORE PUSH1 0x40 SWAP1 KECCAK256 DUP1 SLOAD DUP2 SWAP1 PUSH2 0x280 SWAP1 PUSH2 0xE31 JUMP JUMPDEST DUP1 PUSH1 0x1F ADD PUSH1 0x20 DUP1 SWAP2 DIV MUL PUSH1 0x20 ADD PUSH1 0x40 MLOAD SWAP1 DUP2 ADD PUSH1 0x40 MSTORE DUP1 SWAP3 SWAP2 SWAP1 DUP2 DUP2 MSTORE PUSH1 0x20 ADD DUP3 DUP1 SLOAD PUSH2 0x2AC SWAP1 PUSH2 0xE31 JUMP JUMPDEST DUP1 ISZERO PUSH2 0x2F9 JUMPI DUP1 PUSH1 0x1F LT PUSH2 0x2CE JUMPI PUSH2 0x100 DUP1 DUP4 SLOAD DIV MUL DUP4 MSTORE SWAP2 PUSH1 0x20 ADD SWAP2 PUSH2 0x2F9 JUMP JUMPDEST DUP3 ADD SWAP2 SWAP1 PUSH1 0x0 MSTORE PUSH1 0x20 PUSH1 0x0 KECCAK256 SWAP1 JUMPDEST DUP2 SLOAD DUP2 MSTORE SWAP1 PUSH1 0x1 ADD SWAP1 PUSH1 0x20 ADD DUP1 DUP4 GT PUSH2 0x2DC JUMPI DUP3 SWAP1 SUB PUSH1 0x1F AND DUP3 ADD SWAP2 JUMPDEST POP POP POP POP PUSH1 0x1 DUP4 ADD SLOAD PUSH1 0x2 DUP5 ADD SLOAD PUSH1 0x5 DUP6 ADD SLOAD PUSH1 0x7 SWAP1 SWAP6 ADD SLOAD SWAP4 SWAP5 SWAP2 SWAP4 SWAP1 SWAP3 POP PUSH1 0xFF DUP2 AND SWAP1 PUSH2 0x100 SWAP1 DIV PUSH1 0x1 PUSH1 0x1 PUSH1 0xA0 SHL SUB AND DUP7 JUMP JUMPDEST PUSH1 0x0 DUP2 DUP2 MSTORE PUSH1 0x20 DUP2 SWAP1 MSTORE PUSH1 0x40 SWAP1 KECCAK256 PUSH1 0x7 ADD SLOAD DUP2 SWAP1 PUSH2 0x100 SWAP1 DIV PUSH1 0x1 PUSH1 0x1 PUSH1 0xA0 SHL SUB AND CALLER EQ PUSH2 0x36F JUMPI PUSH1 0x40 MLOAD PUSH3 0x461BCD PUSH1 0xE5 SHL DUP2 MSTORE PUSH1 0x4 ADD PUSH2 0x1EC SWAP1 PUSH2 0xD9E JUMP JUMPDEST PUSH1 0x1 DUP3 DUP2 PUSH1 0x0 DUP3 DUP2 MSTORE PUSH1 0x20 DUP2 SWAP1 MSTORE PUSH1 0x40 SWAP1 KECCAK256 PUSH1 0x7 ADD SLOAD PUSH1 0xFF AND PUSH1 0x2 DUP2 GT ISZERO PUSH2 0x399 JUMPI PUSH2 0x399 PUSH2 0xB45 JUMP JUMPDEST EQ PUSH2 0x3B6 JUMPI PUSH1 0x40 MLOAD PUSH3 0x461BCD PUSH1 0xE5 SHL DUP2 MSTORE PUSH1 0x4 ADD PUSH2 0x1EC SWAP1 PUSH2 0xE0C JUMP JUMPDEST PUSH1 0x0 DUP5 DUP2 MSTORE PUSH1 0x20 DUP2 SWAP1 MSTORE PUSH1 0x40 SWAP1 KECCAK256 PUSH1 0x7 ADD DUP1 SLOAD PUSH1 0x2 SWAP2 SWAP1 PUSH1 0xFF NOT AND PUSH1 0x1 DUP4 PUSH2 0x25A JUMP JUMPDEST PUSH1 0x0 DUP2 DUP2 MSTORE PUSH1 0x20 DUP2 SWAP1 MSTORE PUSH1 0x40 SWAP1 KECCAK256 PUSH1 0x7 ADD SLOAD DUP2 SWAP1 PUSH2 0x100 SWAP1 DIV PUSH1 0x1 PUSH1 0x1 PUSH1 0xA0 SHL SUB AND CALLER EQ PUSH2 0x419 JUMPI PUSH1 0x40 MLOAD PUSH3 0x461BCD PUSH1 0xE5 SHL DUP2 MSTORE PUSH1 0x4 ADD PUSH2 0x1EC SWAP1 PUSH2 0xD9E JUMP JUMPDEST PUSH1 0x0 DUP3 DUP2 PUSH1 0x0 DUP3 DUP2 MSTORE PUSH1 0x20 DUP2 SWAP1 MSTORE PUSH1 0x40 SWAP1 KECCAK256 PUSH1 0x7 ADD SLOAD PUSH1 0xFF AND PUSH1 0x2 DUP2 GT ISZERO PUSH2 0x443 JUMPI PUSH2 0x443 PUSH2 0xB45 JUMP JUMPDEST EQ PUSH2 0x460 JUMPI PUSH1 0x40 MLOAD PUSH3 0x461BCD PUSH1 0xE5 SHL DUP2 MSTORE PUSH1 0x4 ADD PUSH2 0x1EC SWAP1 PUSH2 0xE0C JUMP JUMPDEST PUSH1 0x0 DUP5 DUP2 MSTORE PUSH1 0x20 DUP2 DUP2 MSTORE PUSH1 0x40 DUP3 KECCAK256 PUSH1 0x3 ADD DUP1 SLOAD PUSH1 0x1 DUP2 ADD DUP3 SSTORE SWAP1 DUP4 MSTORE SWAP2 DUP2 SWAP1 KECCAK256 DUP8 MLOAD PUSH2 0x493 SWAP4 SWAP2 SWAP1 SWAP2 ADD SWAP2 DUP9 ADD SWAP1 PUSH2 0x957 JUMP JUMPDEST POP POP POP PUSH1 0x0 SWAP2 DUP3 MSTORE POP PUSH1 0x20 DUP2 DUP2 MSTORE PUSH1 0x40 DUP3 KECCAK256 PUSH1 0x4 ADD DUP1 SLOAD PUSH1 0x1 DUP2 ADD DUP3 SSTORE SWAP1 DUP4 MSTORE SWAP1 DUP3 KECCAK256 ADD SSTORE POP JUMP JUMPDEST PUSH1 0x1 SLOAD PUSH1 0x0 SWAP1 DUP2 MSTORE PUSH1 0x20 DUP2 SWAP1 MSTORE PUSH1 0x40 DUP2 KECCAK256 TIMESTAMP DUP5 GT PUSH2 0x52B JUMPI PUSH1 0x40 MLOAD PUSH3 0x461BCD PUSH1 0xE5 SHL DUP2 MSTORE PUSH1 0x20 PUSH1 0x4 DUP3 ADD MSTORE PUSH1 0x27 PUSH1 0x24 DUP3 ADD MSTORE PUSH32 0x54686520737461727420646174652073686F756C64206265206461746520696E PUSH1 0x44 DUP3 ADD MSTORE PUSH7 0x20667574757265 PUSH1 0xC8 SHL PUSH1 0x64 DUP3 ADD MSTORE PUSH1 0x84 ADD PUSH2 0x1EC JUMP JUMPDEST DUP4 DUP4 GT PUSH2 0x591 JUMPI PUSH1 0x40 MLOAD PUSH3 0x461BCD PUSH1 0xE5 SHL DUP2 MSTORE PUSH1 0x20 PUSH1 0x4 DUP3 ADD MSTORE PUSH1 0x2E PUSH1 0x24 DUP3 ADD MSTORE PUSH32 0x54686520656E6420646174652073686F756C64206265206168656164206F6620 PUSH1 0x44 DUP3 ADD MSTORE PUSH14 0x7468652073746172742064617465 PUSH1 0x90 SHL PUSH1 0x64 DUP3 ADD MSTORE PUSH1 0x84 ADD PUSH2 0x1EC JUMP JUMPDEST DUP5 MLOAD PUSH2 0x5A3 SWAP1 DUP3 SWAP1 PUSH1 0x20 DUP9 ADD SWAP1 PUSH2 0x957 JUMP JUMPDEST POP PUSH1 0x1 DUP2 DUP2 ADD DUP6 SWAP1 SSTORE PUSH1 0x2 DUP3 ADD DUP5 SWAP1 SSTORE PUSH1 0x7 DUP3 ADD DUP1 SLOAD PUSH1 0x1 PUSH1 0x1 PUSH1 0xA8 SHL SUB NOT AND CALLER PUSH2 0x100 MUL PUSH1 0xFF NOT AND OR SWAP1 SSTORE PUSH1 0x0 PUSH1 0x5 DUP4 ADD DUP2 SWAP1 SSTORE DUP2 SLOAD SWAP2 SWAP1 PUSH2 0x5E5 DUP4 PUSH2 0xE6C JUMP JUMPDEST SWAP1 SWAP2 SSTORE POP POP PUSH1 0x1 SLOAD SWAP6 SWAP5 POP POP POP POP POP JUMP JUMPDEST PUSH1 0x0 DUP2 DUP2 MSTORE PUSH1 0x20 DUP2 DUP2 MSTORE PUSH1 0x40 DUP1 DUP4 KECCAK256 PUSH1 0x7 DUP2 ADD SLOAD PUSH1 0x3 DUP3 ADD DUP1 SLOAD DUP5 MLOAD DUP2 DUP8 MUL DUP2 ADD DUP8 ADD SWAP1 SWAP6 MSTORE DUP1 DUP6 MSTORE PUSH1 0x60 SWAP7 DUP8 SWAP7 SWAP1 SWAP6 SWAP3 SWAP5 PUSH1 0x4 ADD SWAP4 PUSH1 0xFF AND SWAP3 SWAP2 DUP6 SWAP2 DUP8 SWAP1 DUP5 ADD JUMPDEST DUP3 DUP3 LT ISZERO PUSH2 0x6E4 JUMPI DUP4 DUP3 SWAP1 PUSH1 0x0 MSTORE PUSH1 0x20 PUSH1 0x0 KECCAK256 ADD DUP1 SLOAD PUSH2 0x657 SWAP1 PUSH2 0xE31 JUMP JUMPDEST DUP1 PUSH1 0x1F ADD PUSH1 0x20 DUP1 SWAP2 DIV MUL PUSH1 0x20 ADD PUSH1 0x40 MLOAD SWAP1 DUP2 ADD PUSH1 0x40 MSTORE DUP1 SWAP3 SWAP2 SWAP1 DUP2 DUP2 MSTORE PUSH1 0x20 ADD DUP3 DUP1 SLOAD PUSH2 0x683 SWAP1 PUSH2 0xE31 JUMP JUMPDEST DUP1 ISZERO PUSH2 0x6D0 JUMPI DUP1 PUSH1 0x1F LT PUSH2 0x6A5 JUMPI PUSH2 0x100 DUP1 DUP4 SLOAD DIV MUL DUP4 MSTORE SWAP2 PUSH1 0x20 ADD SWAP2 PUSH2 0x6D0 JUMP JUMPDEST DUP3 ADD SWAP2 SWAP1 PUSH1 0x0 MSTORE PUSH1 0x20 PUSH1 0x0 KECCAK256 SWAP1 JUMPDEST DUP2 SLOAD DUP2 MSTORE SWAP1 PUSH1 0x1 ADD SWAP1 PUSH1 0x20 ADD DUP1 DUP4 GT PUSH2 0x6B3 JUMPI DUP3 SWAP1 SUB PUSH1 0x1F AND DUP3 ADD SWAP2 JUMPDEST POP POP POP POP POP DUP2 MSTORE PUSH1 0x20 ADD SWAP1 PUSH1 0x1 ADD SWAP1 PUSH2 0x638 JUMP JUMPDEST POP POP POP POP SWAP3 POP DUP2 DUP1 SLOAD DUP1 PUSH1 0x20 MUL PUSH1 0x20 ADD PUSH1 0x40 MLOAD SWAP1 DUP2 ADD PUSH1 0x40 MSTORE DUP1 SWAP3 SWAP2 SWAP1 DUP2 DUP2 MSTORE PUSH1 0x20 ADD DUP3 DUP1 SLOAD DUP1 ISZERO PUSH2 0x735 JUMPI PUSH1 0x20 MUL DUP3 ADD SWAP2 SWAP1 PUSH1 0x0 MSTORE PUSH1 0x20 PUSH1 0x0 KECCAK256 SWAP1 JUMPDEST DUP2 SLOAD DUP2 MSTORE PUSH1 0x20 ADD SWAP1 PUSH1 0x1 ADD SWAP1 DUP1 DUP4 GT PUSH2 0x721 JUMPI JUMPDEST POP POP POP POP POP SWAP2 POP SWAP3 POP SWAP3 POP SWAP3 POP SWAP2 SWAP4 SWAP1 SWAP3 POP JUMP JUMPDEST PUSH1 0x60 PUSH1 0x1 DUP5 DUP2 PUSH1 0x0 DUP3 DUP2 MSTORE PUSH1 0x20 DUP2 SWAP1 MSTORE PUSH1 0x40 SWAP1 KECCAK256 PUSH1 0x7 ADD SLOAD PUSH1 0xFF AND PUSH1 0x2 DUP2 GT ISZERO PUSH2 0x775 JUMPI PUSH2 0x775 PUSH2 0xB45 JUMP JUMPDEST EQ PUSH2 0x792 JUMPI PUSH1 0x40 MLOAD PUSH3 0x461BCD PUSH1 0xE5 SHL DUP2 MSTORE PUSH1 0x4 ADD PUSH2 0x1EC SWAP1 PUSH2 0xE0C JUMP JUMPDEST PUSH1 0x0 JUMPDEST PUSH1 0x0 DUP8 DUP2 MSTORE PUSH1 0x20 DUP2 SWAP1 MSTORE PUSH1 0x40 SWAP1 KECCAK256 PUSH1 0x5 ADD SLOAD DUP2 LT ISZERO PUSH2 0x862 JUMPI DUP5 PUSH1 0x40 MLOAD PUSH1 0x20 ADD PUSH2 0x7BF SWAP2 SWAP1 PUSH2 0xD82 JUMP JUMPDEST PUSH1 0x40 DUP1 MLOAD PUSH1 0x1F NOT DUP2 DUP5 SUB ADD DUP2 MSTORE SWAP2 DUP2 MSTORE DUP2 MLOAD PUSH1 0x20 SWAP3 DUP4 ADD KECCAK256 PUSH1 0x0 DUP11 DUP2 MSTORE SWAP3 DUP4 SWAP1 MSTORE SWAP2 KECCAK256 PUSH1 0x6 ADD DUP1 SLOAD DUP4 SWAP1 DUP2 LT PUSH2 0x7F7 JUMPI PUSH2 0x7F7 PUSH2 0xE95 JUMP JUMPDEST SWAP1 PUSH1 0x0 MSTORE PUSH1 0x20 PUSH1 0x0 KECCAK256 ADD SLOAD EQ ISZERO PUSH2 0x850 JUMPI PUSH1 0x40 MLOAD PUSH3 0x461BCD PUSH1 0xE5 SHL DUP2 MSTORE PUSH1 0x20 PUSH1 0x4 DUP3 ADD MSTORE PUSH1 0x17 PUSH1 0x24 DUP3 ADD MSTORE PUSH32 0x566F7465722068617320616C726561647920766F746564000000000000000000 PUSH1 0x44 DUP3 ADD MSTORE PUSH1 0x64 ADD PUSH2 0x1EC JUMP JUMPDEST DUP1 PUSH2 0x85A DUP2 PUSH2 0xE6C JUMP JUMPDEST SWAP2 POP POP PUSH2 0x795 JUMP JUMPDEST POP PUSH1 0x0 DUP7 DUP2 MSTORE PUSH1 0x20 DUP2 SWAP1 MSTORE PUSH1 0x40 SWAP1 KECCAK256 PUSH1 0x4 ADD DUP1 SLOAD DUP7 SWAP1 DUP2 LT PUSH2 0x886 JUMPI PUSH2 0x886 PUSH2 0xE95 JUMP JUMPDEST PUSH1 0x0 SWAP2 DUP3 MSTORE PUSH1 0x20 DUP3 KECCAK256 ADD DUP1 SLOAD SWAP2 PUSH2 0x89C DUP4 PUSH2 0xE6C JUMP JUMPDEST SWAP1 SWAP2 SSTORE POP POP PUSH1 0x0 DUP7 DUP2 MSTORE PUSH1 0x20 DUP2 SWAP1 MSTORE PUSH1 0x40 SWAP1 KECCAK256 PUSH1 0x6 ADD PUSH2 0x8BB DUP6 PUSH2 0x17C JUMP JUMPDEST DUP2 SLOAD PUSH1 0x1 DUP2 ADD DUP4 SSTORE PUSH1 0x0 SWAP3 DUP4 MSTORE PUSH1 0x20 DUP1 DUP5 KECCAK256 SWAP1 SWAP2 ADD SWAP2 SWAP1 SWAP2 SSTORE DUP8 DUP3 MSTORE DUP2 SWAP1 MSTORE PUSH1 0x40 DUP2 KECCAK256 PUSH1 0x5 ADD DUP1 SLOAD SWAP2 PUSH2 0x8ED DUP4 PUSH2 0xE6C JUMP JUMPDEST SWAP1 SWAP2 SSTORE POP POP PUSH1 0x0 DUP7 DUP2 MSTORE PUSH1 0x20 DUP2 DUP2 MSTORE PUSH1 0x40 SWAP2 DUP3 SWAP1 KECCAK256 PUSH1 0x4 ADD DUP1 SLOAD DUP4 MLOAD DUP2 DUP5 MUL DUP2 ADD DUP5 ADD SWAP1 SWAP5 MSTORE DUP1 DUP5 MSTORE SWAP1 SWAP2 DUP4 ADD DUP3 DUP3 DUP1 ISZERO PUSH2 0x947 JUMPI PUSH1 0x20 MUL DUP3 ADD SWAP2 SWAP1 PUSH1 0x0 MSTORE PUSH1 0x20 PUSH1 0x0 KECCAK256 SWAP1 JUMPDEST DUP2 SLOAD DUP2 MSTORE PUSH1 0x20 ADD SWAP1 PUSH1 0x1 ADD SWAP1 DUP1 DUP4 GT PUSH2 0x933 JUMPI JUMPDEST POP POP POP POP POP SWAP3 POP POP POP SWAP4 SWAP3 POP POP POP JUMP JUMPDEST DUP3 DUP1 SLOAD PUSH2 0x963 SWAP1 PUSH2 0xE31 JUMP JUMPDEST SWAP1 PUSH1 0x0 MSTORE PUSH1 0x20 PUSH1 0x0 KECCAK256 SWAP1 PUSH1 0x1F ADD PUSH1 0x20 SWAP1 DIV DUP2 ADD SWAP3 DUP3 PUSH2 0x985 JUMPI PUSH1 0x0 DUP6 SSTORE PUSH2 0x9CB JUMP JUMPDEST DUP3 PUSH1 0x1F LT PUSH2 0x99E JUMPI DUP1 MLOAD PUSH1 0xFF NOT AND DUP4 DUP1 ADD OR DUP6 SSTORE PUSH2 0x9CB JUMP JUMPDEST DUP3 DUP1 ADD PUSH1 0x1 ADD DUP6 SSTORE DUP3 ISZERO PUSH2 0x9CB JUMPI SWAP2 DUP3 ADD JUMPDEST DUP3 DUP2 GT ISZERO PUSH2 0x9CB JUMPI DUP3 MLOAD DUP3 SSTORE SWAP2 PUSH1 0x20 ADD SWAP2 SWAP1 PUSH1 0x1 ADD SWAP1 PUSH2 0x9B0 JUMP JUMPDEST POP PUSH2 0x9D7 SWAP3 SWAP2 POP PUSH2 0x9DB JUMP JUMPDEST POP SWAP1 JUMP JUMPDEST JUMPDEST DUP1 DUP3 GT ISZERO PUSH2 0x9D7 JUMPI PUSH1 0x0 DUP2 SSTORE PUSH1 0x1 ADD PUSH2 0x9DC JUMP JUMPDEST PUSH4 0x4E487B71 PUSH1 0xE0 SHL PUSH1 0x0 MSTORE PUSH1 0x41 PUSH1 0x4 MSTORE PUSH1 0x24 PUSH1 0x0 REVERT JUMPDEST PUSH1 0x0 DUP3 PUSH1 0x1F DUP4 ADD SLT PUSH2 0xA17 JUMPI PUSH1 0x0 DUP1 REVERT JUMPDEST DUP2 CALLDATALOAD PUSH8 0xFFFFFFFFFFFFFFFF DUP1 DUP3 GT ISZERO PUSH2 0xA32 JUMPI PUSH2 0xA32 PUSH2 0x9F0 JUMP JUMPDEST PUSH1 0x40 MLOAD PUSH1 0x1F DUP4 ADD PUSH1 0x1F NOT SWAP1 DUP2 AND PUSH1 0x3F ADD AND DUP2 ADD SWAP1 DUP3 DUP3 GT DUP2 DUP4 LT OR ISZERO PUSH2 0xA5A JUMPI PUSH2 0xA5A PUSH2 0x9F0 JUMP JUMPDEST DUP2 PUSH1 0x40 MSTORE DUP4 DUP2 MSTORE DUP7 PUSH1 0x20 DUP6 DUP9 ADD ADD GT ISZERO PUSH2 0xA73 JUMPI PUSH1 0x0 DUP1 REVERT JUMPDEST DUP4 PUSH1 0x20 DUP8 ADD PUSH1 0x20 DUP4 ADD CALLDATACOPY PUSH1 0x0 PUSH1 0x20 DUP6 DUP4 ADD ADD MSTORE DUP1 SWAP5 POP POP POP POP POP SWAP3 SWAP2 POP POP JUMP JUMPDEST PUSH1 0x0 PUSH1 0x20 DUP3 DUP5 SUB SLT ISZERO PUSH2 0xAA5 JUMPI PUSH1 0x0 DUP1 REVERT JUMPDEST DUP2 CALLDATALOAD PUSH8 0xFFFFFFFFFFFFFFFF DUP2 GT ISZERO PUSH2 0xABC JUMPI PUSH1 0x0 DUP1 REVERT JUMPDEST PUSH2 0xAC8 DUP5 DUP3 DUP6 ADD PUSH2 0xA06 JUMP JUMPDEST SWAP5 SWAP4 POP POP POP POP JUMP JUMPDEST PUSH1 0x0 PUSH1 0x20 DUP3 DUP5 SUB SLT ISZERO PUSH2 0xAE2 JUMPI PUSH1 0x0 DUP1 REVERT JUMPDEST POP CALLDATALOAD SWAP2 SWAP1 POP JUMP JUMPDEST PUSH1 0x0 JUMPDEST DUP4 DUP2 LT ISZERO PUSH2 0xB04 JUMPI DUP2 DUP2 ADD MLOAD DUP4 DUP3 ADD MSTORE PUSH1 0x20 ADD PUSH2 0xAEC JUMP JUMPDEST DUP4 DUP2 GT ISZERO PUSH2 0xB13 JUMPI PUSH1 0x0 DUP5 DUP5 ADD MSTORE JUMPDEST POP POP POP POP JUMP JUMPDEST PUSH1 0x0 DUP2 MLOAD DUP1 DUP5 MSTORE PUSH2 0xB31 DUP2 PUSH1 0x20 DUP7 ADD PUSH1 0x20 DUP7 ADD PUSH2 0xAE9 JUMP JUMPDEST PUSH1 0x1F ADD PUSH1 0x1F NOT AND SWAP3 SWAP1 SWAP3 ADD PUSH1 0x20 ADD SWAP3 SWAP2 POP POP JUMP JUMPDEST PUSH4 0x4E487B71 PUSH1 0xE0 SHL PUSH1 0x0 MSTORE PUSH1 0x21 PUSH1 0x4 MSTORE PUSH1 0x24 PUSH1 0x0 REVERT JUMPDEST PUSH1 0x3 DUP2 LT PUSH2 0xB79 JUMPI PUSH4 0x4E487B71 PUSH1 0xE0 SHL PUSH1 0x0 MSTORE PUSH1 0x21 PUSH1 0x4 MSTORE PUSH1 0x24 PUSH1 0x0 REVERT JUMPDEST SWAP1 MSTORE JUMP JUMPDEST PUSH1 0xC0 DUP2 MSTORE PUSH1 0x0 PUSH2 0xB90 PUSH1 0xC0 DUP4 ADD DUP10 PUSH2 0xB19 JUMP JUMPDEST SWAP1 POP DUP7 PUSH1 0x20 DUP4 ADD MSTORE DUP6 PUSH1 0x40 DUP4 ADD MSTORE DUP5 PUSH1 0x60 DUP4 ADD MSTORE PUSH2 0xBB1 PUSH1 0x80 DUP4 ADD DUP6 PUSH2 0xB5B JUMP JUMPDEST PUSH1 0x1 PUSH1 0x1 PUSH1 0xA0 SHL SUB SWAP3 SWAP1 SWAP3 AND PUSH1 0xA0 SWAP2 SWAP1 SWAP2 ADD MSTORE SWAP6 SWAP5 POP POP POP POP POP JUMP JUMPDEST PUSH1 0x0 DUP1 PUSH1 0x40 DUP4 DUP6 SUB SLT ISZERO PUSH2 0xBE0 JUMPI PUSH1 0x0 DUP1 REVERT JUMPDEST DUP3 CALLDATALOAD PUSH8 0xFFFFFFFFFFFFFFFF DUP2 GT ISZERO PUSH2 0xBF7 JUMPI PUSH1 0x0 DUP1 REVERT JUMPDEST PUSH2 0xC03 DUP6 DUP3 DUP7 ADD PUSH2 0xA06 JUMP JUMPDEST SWAP6 PUSH1 0x20 SWAP5 SWAP1 SWAP5 ADD CALLDATALOAD SWAP5 POP POP POP POP JUMP JUMPDEST PUSH1 0x0 DUP1 PUSH1 0x0 PUSH1 0x60 DUP5 DUP7 SUB SLT ISZERO PUSH2 0xC27 JUMPI PUSH1 0x0 DUP1 REVERT JUMPDEST DUP4 CALLDATALOAD PUSH8 0xFFFFFFFFFFFFFFFF DUP2 GT ISZERO PUSH2 0xC3E JUMPI PUSH1 0x0 DUP1 REVERT JUMPDEST PUSH2 0xC4A DUP7 DUP3 DUP8 ADD PUSH2 0xA06 JUMP JUMPDEST SWAP7 PUSH1 0x20 DUP7 ADD CALLDATALOAD SWAP7 POP PUSH1 0x40 SWAP1 SWAP6 ADD CALLDATALOAD SWAP5 SWAP4 POP POP POP POP JUMP JUMPDEST PUSH1 0x0 DUP2 MLOAD DUP1 DUP5 MSTORE PUSH1 0x20 DUP1 DUP6 ADD SWAP5 POP DUP1 DUP5 ADD PUSH1 0x0 JUMPDEST DUP4 DUP2 LT ISZERO PUSH2 0xC90 JUMPI DUP2 MLOAD DUP8 MSTORE SWAP6 DUP3 ADD SWAP6 SWAP1 DUP3 ADD SWAP1 PUSH1 0x1 ADD PUSH2 0xC74 JUMP JUMPDEST POP SWAP5 SWAP6 SWAP5 POP POP POP POP POP JUMP JUMPDEST PUSH1 0x0 PUSH1 0x60 DUP3 ADD PUSH1 0x60 DUP4 MSTORE DUP1 DUP7 MLOAD DUP1 DUP4 MSTORE PUSH1 0x80 DUP6 ADD SWAP2 POP PUSH1 0x80 DUP2 PUSH1 0x5 SHL DUP7 ADD ADD SWAP3 POP PUSH1 0x20 DUP1 DUP10 ADD PUSH1 0x0 JUMPDEST DUP4 DUP2 LT ISZERO PUSH2 0xCF2 JUMPI PUSH1 0x7F NOT DUP9 DUP8 SUB ADD DUP6 MSTORE PUSH2 0xCE0 DUP7 DUP4 MLOAD PUSH2 0xB19 JUMP JUMPDEST SWAP6 POP SWAP4 DUP3 ADD SWAP4 SWAP1 DUP3 ADD SWAP1 PUSH1 0x1 ADD PUSH2 0xCC4 JUMP JUMPDEST POP POP DUP6 DUP5 SUB DUP2 DUP8 ADD MSTORE POP POP POP PUSH2 0xD08 DUP2 DUP7 PUSH2 0xC60 JUMP JUMPDEST SWAP2 POP POP PUSH2 0xAC8 PUSH1 0x40 DUP4 ADD DUP5 PUSH2 0xB5B JUMP JUMPDEST PUSH1 0x0 DUP1 PUSH1 0x0 PUSH1 0x60 DUP5 DUP7 SUB SLT ISZERO PUSH2 0xD2D JUMPI PUSH1 0x0 DUP1 REVERT JUMPDEST DUP4 CALLDATALOAD SWAP3 POP PUSH1 0x20 DUP5 ADD CALLDATALOAD SWAP2 POP PUSH1 0x40 DUP5 ADD CALLDATALOAD PUSH8 0xFFFFFFFFFFFFFFFF DUP2 GT ISZERO PUSH2 0xD52 JUMPI PUSH1 0x0 DUP1 REVERT JUMPDEST PUSH2 0xD5E DUP7 DUP3 DUP8 ADD PUSH2 0xA06 JUMP JUMPDEST SWAP2 POP POP SWAP3 POP SWAP3 POP SWAP3 JUMP JUMPDEST PUSH1 0x20 DUP2 MSTORE PUSH1 0x0 PUSH2 0xD7B PUSH1 0x20 DUP4 ADD DUP5 PUSH2 0xC60 JUMP JUMPDEST SWAP4 SWAP3 POP POP POP JUMP JUMPDEST PUSH1 0x0 DUP3 MLOAD PUSH2 0xD94 DUP2 DUP5 PUSH1 0x20 DUP8 ADD PUSH2 0xAE9 JUMP JUMPDEST SWAP2 SWAP1 SWAP2 ADD SWAP3 SWAP2 POP POP JUMP JUMPDEST PUSH1 0x20 DUP1 DUP3 MSTORE PUSH1 0x48 SWAP1 DUP3 ADD MSTORE PUSH32 0x41636573732044656E6965642C796F75206172656E277420746865206F776E65 PUSH1 0x40 DUP3 ADD MSTORE PUSH32 0x72206F662074686520656C656374696F6E2E77726F6E67206D6574616D61736B PUSH1 0x60 DUP3 ADD MSTORE PUSH8 0x2061646472657373 PUSH1 0xC0 SHL PUSH1 0x80 DUP3 ADD MSTORE PUSH1 0xA0 ADD SWAP1 JUMP JUMPDEST PUSH1 0x20 DUP1 DUP3 MSTORE PUSH1 0xB SWAP1 DUP3 ADD MSTORE PUSH11 0x57726F6E67207068617365 PUSH1 0xA8 SHL PUSH1 0x40 DUP3 ADD MSTORE PUSH1 0x60 ADD SWAP1 JUMP JUMPDEST PUSH1 0x1 DUP2 DUP2 SHR SWAP1 DUP3 AND DUP1 PUSH2 0xE45 JUMPI PUSH1 0x7F DUP3 AND SWAP2 POP JUMPDEST PUSH1 0x20 DUP3 LT DUP2 EQ ISZERO PUSH2 0xE66 JUMPI PUSH4 0x4E487B71 PUSH1 0xE0 SHL PUSH1 0x0 MSTORE PUSH1 0x22 PUSH1 0x4 MSTORE PUSH1 0x24 PUSH1 0x0 REVERT JUMPDEST POP SWAP2 SWAP1 POP JUMP JUMPDEST PUSH1 0x0 PUSH1 0x0 NOT DUP3 EQ ISZERO PUSH2 0xE8E JUMPI PUSH4 0x4E487B71 PUSH1 0xE0 SHL PUSH1 0x0 MSTORE PUSH1 0x11 PUSH1 0x4 MSTORE PUSH1 0x24 PUSH1 0x0 REVERT JUMPDEST POP PUSH1 0x1 ADD SWAP1 JUMP JUMPDEST PUSH4 0x4E487B71 PUSH1 0xE0 SHL PUSH1 0x0 MSTORE PUSH1 0x32 PUSH1 0x4 MSTORE PUSH1 0x24 PUSH1 0x0 REVERT INVALID LOG2 PUSH5 0x6970667358 0x22 SLT KECCAK256 0xE 0xBB 0xC5 SELFBALANCE PUSH9 0x7AA9E78A96E0B9990E 0xCD LOG3 SWAP3 0xEA CODECOPY 0xCF 0x23 ORIGIN 0xC5 RETURNDATACOPY PUSH21 0xEE347ACF790D9F64736F6C63430008090033000000 "},"methodIdentifiers":{"addCandidates(string,uint256)":"9fedb89a","doVote(uint256,uint256,string)":"ee50344a","elections(uint256)":"5e6fef01","endVoting(uint256)":"649f89a5","getElectionResults(uint256)":"e8ededa6","hashAadhar(string)":"14e0d72b","init(string,uint256,uint256)":"ade49c7d","numberOfElections()":"cdc389f6","startVoting(uint256)":"3d2f5bda"}},"storageLayout":{"storage":[{"astId":40,"contract":"contracts/Election.sol:ElectionInfo","label":"elections","offset":0,"slot":"0","type":"t_mapping(t_uint256,t_struct(Election)35_storage)"},{"astId":43,"contract":"contracts/Election.sol:ElectionInfo","label":"numberOfElections","offset":0,"slot":"1","type":"t_uint256"}],"types":{"t_address":{"encoding":"inplace","label":"address","numberOfBytes":"20"},"t_array(t_bytes32)dyn_storage":{"base":"t_bytes32","encoding":"dynamic_array","label":"bytes32[]","numberOfBytes":"32"},"t_array(t_string_storage)dyn_storage":{"base":"t_string_storage","encoding":"dynamic_array","label":"string[]","numberOfBytes":"32"},"t_array(t_uint256)dyn_storage":{"base":"t_uint256","encoding":"dynamic_array","label":"uint256[]","numberOfBytes":"32"},"t_bytes32":{"encoding":"inplace","label":"bytes32","numberOfBytes":"32"},"t_enum(Phase)12":{"encoding":"inplace","label":"enum ElectionInfo.Phase","numberOfBytes":"1"},"t_mapping(t_uint256,t_struct(Election)35_storage)":{"encoding":"mapping","key":"t_uint256","label":"mapping(uint256 => struct ElectionInfo.Election)","numberOfBytes":"32","value":"t_struct(Election)35_storage"},"t_string_storage":{"encoding":"bytes","label":"string","numberOfBytes":"32"},"t_struct(Election)35_storage":{"encoding":"inplace","label":"struct ElectionInfo.Election","members":[{"astId":14,"contract":"contracts/Election.sol:ElectionInfo","label":"name","offset":0,"slot":"0","type":"t_string_storage"},{"astId":16,"contract":"contracts/Election.sol:ElectionInfo","label":"start_date","offset":0,"slot":"1","type":"t_uint256"},{"astId":18,"contract":"contracts/Election.sol:ElectionInfo","label":"end_date","offset":0,"slot":"2","type":"t_uint256"},{"astId":21,"contract":"contracts/Election.sol:ElectionInfo","label":"candidates","offset":0,"slot":"3","type":"t_array(t_string_storage)dyn_storage"},{"astId":24,"contract":"contracts/Election.sol:ElectionInfo","label":"numberOfVotes","offset":0,"slot":"4","type":"t_array(t_uint256)dyn_storage"},{"astId":26,"contract":"contracts/Election.sol:ElectionInfo","label":"totalVoted","offset":0,"slot":"5","type":"t_uint256"},{"astId":29,"contract":"contracts/Election.sol:ElectionInfo","label":"voted","offset":0,"slot":"6","type":"t_array(t_bytes32)dyn_storage"},{"astId":32,"contract":"contracts/Election.sol:ElectionInfo","label":"currPhase","offset":0,"slot":"7","type":"t_enum(Phase)12"},{"astId":34,"contract":"contracts/Election.sol:ElectionInfo","label":"ownerAddress","offset":1,"slot":"7","type":"t_address"}],"numberOfBytes":"256"},"t_uint256":{"encoding":"inplace","label":"uint256","numberOfBytes":"32"}}}}}}