{
  "_format": "hh-sol-artifact-1",
  "contractName": "UserInfo",
  "sourceName": "contracts/User.sol",
  "abi": [
    {
      "inputs": [
        {
          "internalType": "string",
          "name": "_name",
          "type": "string"
        },
        {
          "internalType": "uint256",
          "name": "_electionid",
          "type": "uint256"
        },
        {
          "internalType": "string",
          "name": "_party",
          "type": "string"
        },
        {
          "internalType": "string",
          "name": "_image_url",
          "type": "string"
        },
        {
          "internalType": "string",
          "name": "_party_image_url",
          "type": "string"
        },
        {
          "internalType": "string",
          "name": "_aadhar",
          "type": "string"
        },
        {
          "internalType": "string",
          "name": "_password",
          "type": "string"
        }
      ],
      "name": "addCandidates",
      "outputs": [],
      "stateMutability": "nonpayable",
      "type": "function"
    },
    {
      "inputs": [
        {
          "internalType": "string",
          "name": "_aadhar",
          "type": "string"
        },
        {
          "internalType": "string",
          "name": "password",
          "type": "string"
        }
      ],
      "name": "checkCredentials",
      "outputs": [
        {
          "internalType": "bool",
          "name": "",
          "type": "bool"
        }
      ],
      "stateMutability": "view",
      "type": "function"
    },
    {
      "inputs": [
        {
          "internalType": "string",
          "name": "_image_url",
          "type": "string"
        },
        {
          "internalType": "string",
          "name": "_aadhar",
          "type": "string"
        },
        {
          "internalType": "string",
          "name": "_name",
          "type": "string"
        },
        {
          "internalType": "uint256",
          "name": "_start_date",
          "type": "uint256"
        },
        {
          "internalType": "uint256",
          "name": "_end_date",
          "type": "uint256"
        },
        {
          "internalType": "string",
          "name": "_password",
          "type": "string"
        }
      ],
      "name": "createElection",
      "outputs": [
        {
          "internalType": "uint256",
          "name": "",
          "type": "uint256"
        }
      ],
      "stateMutability": "nonpayable",
      "type": "function"
    },
    {
      "inputs": [
        {
          "internalType": "string",
          "name": "_name",
          "type": "string"
        },
        {
          "internalType": "string",
          "name": "_dob",
          "type": "string"
        },
        {
          "internalType": "string",
          "name": "_aadhar",
          "type": "string"
        },
        {
          "internalType": "string",
          "name": "password",
          "type": "string"
        }
      ],
      "name": "createUser",
      "outputs": [
        {
          "internalType": "bytes32",
          "name": "",
          "type": "bytes32"
        }
      ],
      "stateMutability": "nonpayable",
      "type": "function"
    },
    {
      "inputs": [
        {
          "internalType": "uint256",
          "name": "_electionid",
          "type": "uint256"
        },
        {
          "internalType": "uint256",
          "name": "_candidateID",
          "type": "uint256"
        },
        {
          "internalType": "string",
          "name": "_aadhar",
          "type": "string"
        }
      ],
      "name": "doVote",
      "outputs": [
        {
          "internalType": "uint256[]",
          "name": "",
          "type": "uint256[]"
        }
      ],
      "stateMutability": "nonpayable",
      "type": "function"
    },
    {
      "inputs": [
        {
          "internalType": "uint256",
          "name": "",
          "type": "uint256"
        }
      ],
      "name": "elections",
      "outputs": [
        {
          "internalType": "string",
          "name": "name",
          "type": "string"
        },
        {
          "internalType": "uint256",
          "name": "start_date",
          "type": "uint256"
        },
        {
          "internalType": "uint256",
          "name": "end_date",
          "type": "uint256"
        },
        {
          "internalType": "uint256",
          "name": "noOfCandidates",
          "type": "uint256"
        },
        {
          "internalType": "string",
          "name": "image_url",
          "type": "string"
        },
        {
          "internalType": "uint256",
          "name": "totalVoted",
          "type": "uint256"
        },
        {
          "internalType": "enum ElectionInfo.Phase",
          "name": "currPhase",
          "type": "uint8"
        },
        {
          "internalType": "bytes32",
          "name": "aadharhash",
          "type": "bytes32"
        }
      ],
      "stateMutability": "view",
      "type": "function"
    },
    {
      "inputs": [
        {
          "internalType": "uint256",
          "name": "_electionid",
          "type": "uint256"
        },
        {
          "internalType": "string",
          "name": "_aadhar",
          "type": "string"
        },
        {
          "internalType": "string",
          "name": "_password",
          "type": "string"
        }
      ],
      "name": "endVoting",
      "outputs": [],
      "stateMutability": "nonpayable",
      "type": "function"
    },
    {
      "inputs": [],
      "name": "getAllElections",
      "outputs": [
        {
          "components": [
            {
              "internalType": "string",
              "name": "name",
              "type": "string"
            },
            {
              "internalType": "uint256",
              "name": "start_date",
              "type": "uint256"
            },
            {
              "internalType": "uint256",
              "name": "end_date",
              "type": "uint256"
            },
            {
              "internalType": "uint256",
              "name": "noOfCandidates",
              "type": "uint256"
            },
            {
              "components": [
                {
                  "internalType": "string",
                  "name": "name",
                  "type": "string"
                },
                {
                  "internalType": "string",
                  "name": "party",
                  "type": "string"
                },
                {
                  "internalType": "string",
                  "name": "image_url",
                  "type": "string"
                },
                {
                  "internalType": "string",
                  "name": "party_image_url",
                  "type": "string"
                }
              ],
              "internalType": "struct ElectionInfo.Candidate[]",
              "name": "candidates",
              "type": "tuple[]"
            },
            {
              "internalType": "string",
              "name": "image_url",
              "type": "string"
            },
            {
              "internalType": "uint256",
              "name": "totalVoted",
              "type": "uint256"
            },
            {
              "internalType": "enum ElectionInfo.Phase",
              "name": "currPhase",
              "type": "uint8"
            }
          ],
          "internalType": "struct ElectionInfo.returnElection[]",
          "name": "",
          "type": "tuple[]"
        }
      ],
      "stateMutability": "view",
      "type": "function"
    },
    {
      "inputs": [
        {
          "internalType": "uint256",
          "name": "_electionid",
          "type": "uint256"
        },
        {
          "internalType": "string",
          "name": "_aadhar",
          "type": "string"
        }
      ],
      "name": "getCandidates",
      "outputs": [
        {
          "components": [
            {
              "internalType": "string",
              "name": "name",
              "type": "string"
            },
            {
              "internalType": "string",
              "name": "party",
              "type": "string"
            },
            {
              "internalType": "string",
              "name": "image_url",
              "type": "string"
            },
            {
              "internalType": "string",
              "name": "party_image_url",
              "type": "string"
            }
          ],
          "internalType": "struct ElectionInfo.Candidate[]",
          "name": "",
          "type": "tuple[]"
        }
      ],
      "stateMutability": "view",
      "type": "function"
    },
    {
      "inputs": [
        {
          "internalType": "uint256",
          "name": "_id",
          "type": "uint256"
        }
      ],
      "name": "getElectionById",
      "outputs": [
        {
          "components": [
            {
              "internalType": "string",
              "name": "name",
              "type": "string"
            },
            {
              "internalType": "uint256",
              "name": "start_date",
              "type": "uint256"
            },
            {
              "internalType": "uint256",
              "name": "end_date",
              "type": "uint256"
            },
            {
              "internalType": "uint256",
              "name": "noOfCandidates",
              "type": "uint256"
            },
            {
              "components": [
                {
                  "internalType": "string",
                  "name": "name",
                  "type": "string"
                },
                {
                  "internalType": "string",
                  "name": "party",
                  "type": "string"
                },
                {
                  "internalType": "string",
                  "name": "image_url",
                  "type": "string"
                },
                {
                  "internalType": "string",
                  "name": "party_image_url",
                  "type": "string"
                }
              ],
              "internalType": "struct ElectionInfo.Candidate[]",
              "name": "candidates",
              "type": "tuple[]"
            },
            {
              "internalType": "string",
              "name": "image_url",
              "type": "string"
            },
            {
              "internalType": "uint256",
              "name": "totalVoted",
              "type": "uint256"
            },
            {
              "internalType": "enum ElectionInfo.Phase",
              "name": "currPhase",
              "type": "uint8"
            }
          ],
          "internalType": "struct ElectionInfo.returnElection",
          "name": "",
          "type": "tuple"
        }
      ],
      "stateMutability": "view",
      "type": "function"
    },
    {
      "inputs": [
        {
          "internalType": "uint256",
          "name": "_electionid",
          "type": "uint256"
        }
      ],
      "name": "getElectionResults",
      "outputs": [
        {
          "components": [
            {
              "internalType": "string",
              "name": "name",
              "type": "string"
            },
            {
              "internalType": "string",
              "name": "party",
              "type": "string"
            },
            {
              "internalType": "string",
              "name": "image_url",
              "type": "string"
            },
            {
              "internalType": "string",
              "name": "party_image_url",
              "type": "string"
            }
          ],
          "internalType": "struct ElectionInfo.Candidate[]",
          "name": "",
          "type": "tuple[]"
        },
        {
          "internalType": "uint256[]",
          "name": "",
          "type": "uint256[]"
        }
      ],
      "stateMutability": "view",
      "type": "function"
    },
    {
      "inputs": [
        {
          "internalType": "string",
          "name": "_aadhar",
          "type": "string"
        }
      ],
      "name": "getElections",
      "outputs": [
        {
          "internalType": "uint256[]",
          "name": "",
          "type": "uint256[]"
        }
      ],
      "stateMutability": "view",
      "type": "function"
    },
    {
      "inputs": [],
      "name": "getPhase",
      "outputs": [
        {
          "internalType": "enum ElectionInfo.Phase[]",
          "name": "",
          "type": "uint8[]"
        }
      ],
      "stateMutability": "view",
      "type": "function"
    },
    {
      "inputs": [
        {
          "internalType": "string",
          "name": "_aadhar",
          "type": "string"
        }
      ],
      "name": "getUser",
      "outputs": [
        {
          "components": [
            {
              "internalType": "uint256",
              "name": "userId",
              "type": "uint256"
            },
            {
              "internalType": "string",
              "name": "name",
              "type": "string"
            },
            {
              "internalType": "string",
              "name": "dob",
              "type": "string"
            },
            {
              "internalType": "bytes32",
              "name": "aadharHash",
              "type": "bytes32"
            },
            {
              "internalType": "uint256",
              "name": "noOfElections",
              "type": "uint256"
            },
            {
              "internalType": "uint256[]",
              "name": "elections",
              "type": "uint256[]"
            }
          ],
          "internalType": "struct UserInfo.User",
          "name": "",
          "type": "tuple"
        }
      ],
      "stateMutability": "view",
      "type": "function"
    },
    {
      "inputs": [
        {
          "internalType": "string",
          "name": "_aadhar",
          "type": "string"
        }
      ],
      "name": "hashAadhar",
      "outputs": [
        {
          "internalType": "bytes32",
          "name": "",
          "type": "bytes32"
        }
      ],
      "stateMutability": "pure",
      "type": "function"
    },
    {
      "inputs": [
        {
          "internalType": "string",
          "name": "_name",
          "type": "string"
        },
        {
          "internalType": "string",
          "name": "_image_url",
          "type": "string"
        },
        {
          "internalType": "uint256",
          "name": "_start_date",
          "type": "uint256"
        },
        {
          "internalType": "uint256",
          "name": "_end_date",
          "type": "uint256"
        },
        {
          "internalType": "string",
          "name": "_aadhar",
          "type": "string"
        }
      ],
      "name": "init",
      "outputs": [
        {
          "internalType": "uint256",
          "name": "",
          "type": "uint256"
        }
      ],
      "stateMutability": "nonpayable",
      "type": "function"
    },
    {
      "inputs": [],
      "name": "initializer",
      "outputs": [],
      "stateMutability": "nonpayable",
      "type": "function"
    },
    {
      "inputs": [],
      "name": "noOfUsers",
      "outputs": [
        {
          "internalType": "uint256",
          "name": "",
          "type": "uint256"
        }
      ],
      "stateMutability": "view",
      "type": "function"
    },
    {
      "inputs": [],
      "name": "numberOfElections",
      "outputs": [
        {
          "internalType": "uint256",
          "name": "",
          "type": "uint256"
        }
      ],
      "stateMutability": "view",
      "type": "function"
    },
    {
      "inputs": [
        {
          "internalType": "uint256",
          "name": "_electionid",
          "type": "uint256"
        },
        {
          "internalType": "string",
          "name": "_aadhar",
          "type": "string"
        },
        {
          "internalType": "string",
          "name": "_password",
          "type": "string"
        }
      ],
      "name": "startVoting",
      "outputs": [],
      "stateMutability": "nonpayable",
      "type": "function"
    }
  ],
  "bytecode": "0x608060405234801561001057600080fd5b50612c92806100206000396000f3fe608060405234801561001057600080fd5b506004361061012c5760003560e01c806392721cff116100ad578063cdc389f611610071578063cdc389f6146102b0578063dec65678146102b9578063e8ededa6146102cc578063eced0280146102ed578063ee50344a1461030257600080fd5b806392721cff1461022d578063929f78d21461024d5780639bd7d56f1461026d5780639ce110d714610280578063c6958b121461029057600080fd5b8063450a0a4b116100f4578063450a0a4b146101b857806353812c8c146101cb5780635e6fef01146101de5780636f7fcddb146102055780637fd5f2681461021857600080fd5b8063012ab8f11461013157806301934a8314610159578063075022721461017057806314e0d72b1461018557806331feb67114610198575b600080fd5b61014461013f366004612130565b610315565b60405190151581526020015b60405180910390f35b61016260045481565b604051908152602001610150565b61018361017e366004612193565b610398565b005b6101626101933660046121ff565b6103db565b6101ab6101a63660046121ff565b61040b565b6040516101509190612297565b6101626101c636600461233f565b61066a565b6101626101d93660046123da565b6107c2565b6101f16101ec366004612498565b610915565b6040516101509897969594939291906124e9565b61016261021336600461254c565b610a6b565b610220610b68565b6040516101509190612738565b61024061023b36600461279a565b610c0e565b60405161015091906127d6565b61026061025b3660046121ff565b610f3e565b604051610150919061282b565b61018361027b366004612193565b611001565b6101836001600481905560009055565b6102a361029e366004612498565b611036565b604051610150919061283e565b61016260015481565b6101836102c7366004612851565b61141c565b6102df6102da366004612498565b61145e565b604051610150929190612950565b6102f56117e9565b604051610150919061297e565b6102606103103660046129c9565b6118ad565b600080610321846103db565b9050826040516020016103349190612a0e565b60408051601f198184030181528282528051602091820120600085815260038352929092209192610366929101612a5f565b60405160208183030381529060405280519060200120141561038c576001915050610392565b60009150505b92915050565b6103a28282610315565b15156001146103cc5760405162461bcd60e51b81526004016103c390612afb565b60405180910390fd5b6103d68383611b2e565b505050565b6000816040516020016103ee9190612a0e565b604051602081830303815290604052805190602001209050919050565b6104476040518060c001604052806000815260200160608152602001606081526020016000801916815260200160008152602001606081525090565b6000610452836103db565b60008181526002602052604090206003015490915081146104a45760405162461bcd60e51b815260206004820152600c60248201526b24b73b30b634b2103ab9b2b960a11b60448201526064016103c3565b6000600260008381526020019081526020016000209050806040518060c0016040529081600082015481526020016001820180546104e190612a2a565b80601f016020809104026020016040519081016040528092919081815260200182805461050d90612a2a565b801561055a5780601f1061052f5761010080835404028352916020019161055a565b820191906000526020600020905b81548152906001019060200180831161053d57829003601f168201915b5050505050815260200160028201805461057390612a2a565b80601f016020809104026020016040519081016040528092919081815260200182805461059f90612a2a565b80156105ec5780601f106105c1576101008083540402835291602001916105ec565b820191906000526020600020905b8154815290600101906020018083116105cf57829003601f168201915b5050505050815260200160038201548152602001600482015481526020016005820180548060200260200160405190810160405280929190818152602001828054801561065857602002820191906000526020600020905b815481526020019060010190808311610644575b50505050508152505092505050919050565b60015460009081526020819052604081204285116106da5760405162461bcd60e51b815260206004820152602760248201527f54686520737461727420646174652073686f756c64206265206461746520696e6044820152662066757475726560c81b60648201526084016103c3565b8484116107405760405162461bcd60e51b815260206004820152602e60248201527f54686520656e6420646174652073686f756c64206265206168656164206f662060448201526d746865207374617274206461746560901b60648201526084016103c3565b865161075290829060208a0190611fa0565b50600181018590556002810184905561076a836103db565b600a82015560098101805460ff1916905560006007820181905560038201819055600180549161079983612b41565b909155505085516107b39060068301906020890190611fa0565b50506001549695505050505050565b6000806107ce876103db565b60008181526002602052604090206003015490915081146108205760405162461bcd60e51b815260206004820152600c60248201526b24b73b30b634b2103ab9b2b960a11b60448201526064016103c3565b61082a8784610315565b151560011461084b5760405162461bcd60e51b81526004016103c390612afb565b8385106108a65760405162461bcd60e51b8152602060048201526024808201527f537461727420446174652073686f756c64206265206265666f726520456e64206044820152634461746560e01b60648201526084016103c3565b60008181526002602052604081206004018054916108c383612b41565b9190505550600060016108d9888b89898d61066a565b6108e39190612b5c565b600092835260026020908152604084206005018054600181018255908552932090920182905550979650505050505050565b60006020819052908152604090208054819061093090612a2a565b80601f016020809104026020016040519081016040528092919081815260200182805461095c90612a2a565b80156109a95780601f1061097e576101008083540402835291602001916109a9565b820191906000526020600020905b81548152906001019060200180831161098c57829003601f168201915b5050505050908060010154908060020154908060030154908060060180546109d090612a2a565b80601f01602080910402602001604051908101604052809291908181526020018280546109fc90612a2a565b8015610a495780601f10610a1e57610100808354040283529160200191610a49565b820191906000526020600020905b815481529060010190602001808311610a2c57829003601f168201915b5050505060078301546009840154600a909401549293909260ff909116915088565b600080610a77846103db565b600081815260026020526040902060030154909150811415610adb5760405162461bcd60e51b815260206004820152601c60248201527f416164686172732063616e6e6f74206265207573656420616761696e0000000060448201526064016103c3565b600081815260026020908152604090912087519091610b019160018401918a0190611fa0565b508551610b179060028301906020890190611fa0565b506003808201839055600060048084018290555483558381526020918252604090208551610b4792870190611fa0565b5060048054906000610b5883612b41565b9091555091979650505050505050565b606060006001546001600160401b03811115610b8657610b8661208e565b604051908082528060200260200182016040528015610bbf57816020015b610bac612024565b815260200190600190039081610ba45790505b50905060005b600154811015610c0857610bd881611036565b828281518110610bea57610bea612b73565b60200260200101819052508080610c0090612b41565b915050610bc5565b50919050565b606082826001548210610c335760405162461bcd60e51b81526004016103c390612b89565b6000828152602081905260409020600a0154610c4e826103db565b14610c6b5760405162461bcd60e51b81526004016103c390612bb6565b6001548510610c8c5760405162461bcd60e51b81526004016103c390612b89565b60008581526020818152604080832060040180548251818502810185019093528083529193909284015b82821015610f305783829060005260206000209060040201604051806080016040529081600082018054610ce990612a2a565b80601f0160208091040260200160405190810160405280929190818152602001828054610d1590612a2a565b8015610d625780601f10610d3757610100808354040283529160200191610d62565b820191906000526020600020905b815481529060010190602001808311610d4557829003601f168201915b50505050508152602001600182018054610d7b90612a2a565b80601f0160208091040260200160405190810160405280929190818152602001828054610da790612a2a565b8015610df45780601f10610dc957610100808354040283529160200191610df4565b820191906000526020600020905b815481529060010190602001808311610dd757829003601f168201915b50505050508152602001600282018054610e0d90612a2a565b80601f0160208091040260200160405190810160405280929190818152602001828054610e3990612a2a565b8015610e865780601f10610e5b57610100808354040283529160200191610e86565b820191906000526020600020905b815481529060010190602001808311610e6957829003601f168201915b50505050508152602001600382018054610e9f90612a2a565b80601f0160208091040260200160405190810160405280929190818152602001828054610ecb90612a2a565b8015610f185780601f10610eed57610100808354040283529160200191610f18565b820191906000526020600020905b815481529060010190602001808311610efb57829003601f168201915b50505050508152505081526020019060010190610cb6565b505050509250505092915050565b60606000610f4b836103db565b6000818152600260205260409020600301549091508114610f9d5760405162461bcd60e51b815260206004820152600c60248201526b24b73b30b634b2102ab9b2b960a11b60448201526064016103c3565b60008181526002602090815260409182902060050180548351818402810184019094528084529091830182828015610ff457602002820191906000526020600020905b815481526020019060010190808311610fe0575b5050505050915050919050565b61100b8282610315565b151560011461102c5760405162461bcd60e51b81526004016103c390612afb565b6103d68383611c2e565b61103e612024565b600154821061105f5760405162461bcd60e51b81526004016103c390612b89565b611067612024565b60008381526020819052604090208054611108919061108590612a2a565b80601f01602080910402602001604051908101604052809291908181526020018280546110b190612a2a565b80156110fe5780601f106110d3576101008083540402835291602001916110fe565b820191906000526020600020905b8154815290600101906020018083116110e157829003601f168201915b5050505050611d24565b8152600083815260208181526040808320600181015483860152600281015491850191909152858352919052600301546001600160401b0381111561114f5761114f61208e565b6040519080825280602002602001820160405280156111ab57816020015b6111986040518060800160405280606081526020016060815260200160608152602001606081525090565b81526020019060019003908161116d5790505b50608082015260005b6000848152602081905260409020600301548110156113885761121260008086815260200190815260200160002060040182815481106111f6576111f6612b73565b9060005260206000209060040201600001805461108590612a2a565b8260800151828151811061122857611228612b73565b60200260200101516000018190525061127c600080868152602001908152602001600020600401828154811061126057611260612b73565b9060005260206000209060040201600101805461108590612a2a565b8260800151828151811061129257611292612b73565b6020026020010151602001819052506112e660008086815260200190815260200160002060040182815481106112ca576112ca612b73565b9060005260206000209060040201600201805461108590612a2a565b826080015182815181106112fc576112fc612b73565b602002602001015160400181905250611350600080868152602001908152602001600020600401828154811061133457611334612b73565b9060005260206000209060040201600301805461108590612a2a565b8260800151828151811061136657611366612b73565b602002602001015160600181905250808061138090612b41565b9150506111b4565b50600083815260208190526040902060060180546113aa919061108590612a2a565b60a08201526000838152602081815260408220600381015460608501528583529190526009015460e082019060ff1660028111156113ea576113ea6124b1565b908160028111156113fd576113fd6124b1565b9052506000928352602083905260409092206007015460c08301525090565b6114268282610315565b15156001146114475760405162461bcd60e51b81526004016103c390612afb565b611455878787878787611dad565b50505050505050565b60608060028360015481106114855760405162461bcd60e51b81526004016103c390612b89565b816002811115611497576114976124b1565b60008281526020819052604090206009015460ff1660028111156114bd576114bd6124b1565b146114da5760405162461bcd60e51b81526004016103c390612c1f565b600085815260208181526040808320600481018054835181860281018601909452808452909460059092019385929084015b82821015611786578382906000526020600020906004020160405180608001604052908160008201805461153f90612a2a565b80601f016020809104026020016040519081016040528092919081815260200182805461156b90612a2a565b80156115b85780601f1061158d576101008083540402835291602001916115b8565b820191906000526020600020905b81548152906001019060200180831161159b57829003601f168201915b505050505081526020016001820180546115d190612a2a565b80601f01602080910402602001604051908101604052809291908181526020018280546115fd90612a2a565b801561164a5780601f1061161f5761010080835404028352916020019161164a565b820191906000526020600020905b81548152906001019060200180831161162d57829003601f168201915b5050505050815260200160028201805461166390612a2a565b80601f016020809104026020016040519081016040528092919081815260200182805461168f90612a2a565b80156116dc5780601f106116b1576101008083540402835291602001916116dc565b820191906000526020600020905b8154815290600101906020018083116116bf57829003601f168201915b505050505081526020016003820180546116f590612a2a565b80601f016020809104026020016040519081016040528092919081815260200182805461172190612a2a565b801561176e5780601f106117435761010080835404028352916020019161176e565b820191906000526020600020905b81548152906001019060200180831161175157829003601f168201915b5050505050815250508152602001906001019061150c565b505050509150808054806020026020016040519081016040528092919081815260200182805480156117d757602002820191906000526020600020905b8154815260200190600101908083116117c3575b50505050509050935093505050915091565b606060006001546001600160401b038111156118075761180761208e565b604051908082528060200260200182016040528015611830578160200160208202803683370190505b50905060005b600154811015610c0857600081815260208190526040902060090154825160ff9091169083908390811061186c5761186c612b73565b60200260200101906002811115611885576118856124b1565b90816002811115611898576118986124b1565b905250806118a581612b41565b915050611836565b606060018460015481106118d35760405162461bcd60e51b81526004016103c390612b89565b8160028111156118e5576118e56124b1565b60008281526020819052604090206009015460ff16600281111561190b5761190b6124b1565b146119285760405162461bcd60e51b81526004016103c390612c1f565b60008681526020819052604090206003015485108015611946575060015b6119895760405162461bcd60e51b8152602060048201526014602482015273125b9d985b1a590810d85b991a59185d1948125160621b60448201526064016103c3565b6000808781526020019081526020016000206008016000856040516020016119b19190612a0e565b60408051601f198184030181529181528151602092830120835290820192909252016000205460ff1615611a275760405162461bcd60e51b815260206004820152601760248201527f566f7465722068617320616c726561647920766f74656400000000000000000060448201526064016103c3565b6000868152602081905260409020600501805486908110611a4a57611a4a612b73565b60009182526020822001805491611a6083612b41565b919050555060016000808881526020019081526020016000206008016000611a87876103db565b815260208082019290925260409081016000908120805460ff191694151594909417909355888352908290528120600701805491611ac483612b41565b90915550506000868152602081815260409182902060050180548351818402810184019094528084529091830182828015611b1e57602002820191906000526020600020905b815481526020019060010190808311611b0a575b5050505050925050509392505050565b81816001548210611b515760405162461bcd60e51b81526004016103c390612b89565b6000828152602081905260409020600a0154611b6c826103db565b14611b895760405162461bcd60e51b81526004016103c390612bb6565b6001846001548110611bad5760405162461bcd60e51b81526004016103c390612b89565b816002811115611bbf57611bbf6124b1565b60008281526020819052604090206009015460ff166002811115611be557611be56124b1565b14611c025760405162461bcd60e51b81526004016103c390612c1f565b600086815260208190526040902060090180546002919060ff19166001835b0217905550505050505050565b81816001548210611c515760405162461bcd60e51b81526004016103c390612b89565b6000828152602081905260409020600a0154611c6c826103db565b14611c895760405162461bcd60e51b81526004016103c390612bb6565b6000846001548110611cad5760405162461bcd60e51b81526004016103c390612b89565b816002811115611cbf57611cbf6124b1565b60008281526020819052604090206009015460ff166002811115611ce557611ce56124b1565b14611d025760405162461bcd60e51b81526004016103c390612c1f565b600086815260208190526040902060090180546001919060ff19168280611c21565b6060600082516001600160401b03811115611d4157611d4161208e565b6040519080825280601f01601f191660200182016040528015611d6b576020820181803683370190505b50905060008351601f611d7e9190612c44565b905060205b818111611da4578481015183820152611d9d602082612c44565b9050611d83565b50909392505050565b84816001548210611dd05760405162461bcd60e51b81526004016103c390612b89565b6000828152602081905260409020600a0154611deb826103db565b14611e085760405162461bcd60e51b81526004016103c390612bb6565b6000876001548110611e2c5760405162461bcd60e51b81526004016103c390612b89565b816002811115611e3e57611e3e6124b1565b60008281526020819052604090206009015460ff166002811115611e6457611e646124b1565b14611e815760405162461bcd60e51b81526004016103c390612c1f565b611eac6040518060800160405280606081526020016060815260200160608152602001606081525090565b8a815260208082018a905260408083018a90526060830189905260008c815280835290812060049081018054600181018255908352918390208451805186959490930290910192611f0292849290910190611fa0565b506020828101518051611f1b9260018501920190611fa0565b5060408201518051611f37916002840191602090910190611fa0565b5060608201518051611f53916003840191602090910190611fa0565b50505060008a81526020818152604082206005810180546001810182559084529183209091018290558b8252600301805491611f8e83612b41565b91905055505050505050505050505050565b828054611fac90612a2a565b90600052602060002090601f016020900481019282611fce5760008555612014565b82601f10611fe757805160ff1916838001178555612014565b82800160010185558215612014579182015b82811115612014578251825591602001919060010190611ff9565b50612020929150612079565b5090565b6040518061010001604052806060815260200160008152602001600081526020016000815260200160608152602001606081526020016000815260200160006002811115612074576120746124b1565b905290565b5b80821115612020576000815560010161207a565b634e487b7160e01b600052604160045260246000fd5b600082601f8301126120b557600080fd5b81356001600160401b03808211156120cf576120cf61208e565b604051601f8301601f19908116603f011681019082821181831017156120f7576120f761208e565b8160405283815286602085880101111561211057600080fd5b836020870160208301376000602085830101528094505050505092915050565b6000806040838503121561214357600080fd5b82356001600160401b038082111561215a57600080fd5b612166868387016120a4565b9350602085013591508082111561217c57600080fd5b50612189858286016120a4565b9150509250929050565b6000806000606084860312156121a857600080fd5b8335925060208401356001600160401b03808211156121c657600080fd5b6121d2878388016120a4565b935060408601359150808211156121e857600080fd5b506121f5868287016120a4565b9150509250925092565b60006020828403121561221157600080fd5b81356001600160401b0381111561222757600080fd5b612233848285016120a4565b949350505050565b60005b8381101561225657818101518382015260200161223e565b83811115612265576000848401525b50505050565b6000815180845261228381602086016020860161223b565b601f01601f19169290920160200192915050565b600060208083528351818401528084015160c060408501526122bc60e085018261226b565b90506040850151601f19808684030160608701526122da838361226b565b606088015160808881019190915288015160a08089019190915288015187820390920160c088015281518082529185019350600092508401905b808310156123345783518252928401926001929092019190840190612314565b509695505050505050565b600080600080600060a0868803121561235757600080fd5b85356001600160401b038082111561236e57600080fd5b61237a89838a016120a4565b9650602088013591508082111561239057600080fd5b61239c89838a016120a4565b9550604088013594506060880135935060808801359150808211156123c057600080fd5b506123cd888289016120a4565b9150509295509295909350565b60008060008060008060c087890312156123f357600080fd5b86356001600160401b038082111561240a57600080fd5b6124168a838b016120a4565b9750602089013591508082111561242c57600080fd5b6124388a838b016120a4565b9650604089013591508082111561244e57600080fd5b61245a8a838b016120a4565b9550606089013594506080890135935060a089013591508082111561247e57600080fd5b5061248b89828a016120a4565b9150509295509295509295565b6000602082840312156124aa57600080fd5b5035919050565b634e487b7160e01b600052602160045260246000fd5b600381106124e557634e487b7160e01b600052602160045260246000fd5b9052565b60006101008083526124fd8184018c61226b565b90508960208401528860408401528760608401528281036080840152612523818861226b565b9150508460a083015261253960c08301856124c7565b8260e08301529998505050505050505050565b6000806000806080858703121561256257600080fd5b84356001600160401b038082111561257957600080fd5b612585888389016120a4565b9550602087013591508082111561259b57600080fd5b6125a7888389016120a4565b945060408701359150808211156125bd57600080fd5b6125c9888389016120a4565b935060608701359150808211156125df57600080fd5b506125ec878288016120a4565b91505092959194509250565b600081518084526020808501808196508360051b8101915082860160005b8581101561269c5782840389528151608081518187526126388288018261226b565b9150508682015186820388880152612650828261226b565b9150506040808301518783038289015261266a838261226b565b9250505060608083015192508682038188015250612688818361226b565b9a87019a9550505090840190600101612616565b5091979650505050505050565b600061010082518185526126bf8286018261226b565b915050602083015160208501526040830151604085015260608301516060850152608083015184820360808601526126f782826125f8565b91505060a083015184820360a0860152612711828261226b565b91505060c083015160c085015260e083015161273060e08601826124c7565b509392505050565b6000602080830181845280855180835260408601915060408160051b870101925083870160005b8281101561278d57603f1988860301845261277b8583516126a9565b9450928501929085019060010161275f565b5092979650505050505050565b600080604083850312156127ad57600080fd5b8235915060208301356001600160401b038111156127ca57600080fd5b612189858286016120a4565b6020815260006127e960208301846125f8565b9392505050565b600081518084526020808501945080840160005b8381101561282057815187529582019590820190600101612804565b509495945050505050565b6020815260006127e960208301846127f0565b6020815260006127e960208301846126a9565b600080600080600080600060e0888a03121561286c57600080fd5b87356001600160401b038082111561288357600080fd5b61288f8b838c016120a4565b985060208a0135975060408a01359150808211156128ac57600080fd5b6128b88b838c016120a4565b965060608a01359150808211156128ce57600080fd5b6128da8b838c016120a4565b955060808a01359150808211156128f057600080fd5b6128fc8b838c016120a4565b945060a08a013591508082111561291257600080fd5b61291e8b838c016120a4565b935060c08a013591508082111561293457600080fd5b506129418a828b016120a4565b91505092959891949750929550565b60408152600061296360408301856125f8565b828103602084015261297581856127f0565b95945050505050565b6020808252825182820181905260009190848201906040850190845b818110156129bd576129ad8385516124c7565b928401929184019160010161299a565b50909695505050505050565b6000806000606084860312156129de57600080fd5b833592506020840135915060408401356001600160401b03811115612a0257600080fd5b6121f5868287016120a4565b60008251612a2081846020870161223b565b9190910192915050565b600181811c90821680612a3e57607f821691505b60208210811415610c0857634e487b7160e01b600052602260045260246000fd5b600080835481600182811c915080831680612a7b57607f831692505b6020808410821415612a9b57634e487b7160e01b86526022600452602486fd5b818015612aaf5760018114612ac057612aed565b60ff19861689528489019650612aed565b60008a81526020902060005b86811015612ae55781548b820152908501908301612acc565b505084890196505b509498975050505050505050565b602080825260169082015275155cd95c881b9bdd08185d5d1a195b9d1a58d85d195960521b604082015260600190565b634e487b7160e01b600052601160045260246000fd5b6000600019821415612b5557612b55612b2b565b5060010190565b600082821015612b6e57612b6e612b2b565b500390565b634e487b7160e01b600052603260045260246000fd5b602080825260139082015272125b9d985b1a5908115b1958dd1a5bdb881251606a1b604082015260600190565b60208082526043908201527f41636573732044656e6965642c796f75206172656e277420746865206f776e6560408201527f72206f662074686520656c656374696f6e2e20496e636f7272656374204161646060820152623430b960e91b608082015260a00190565b6020808252600b908201526a57726f6e6720706861736560a81b604082015260600190565b60008219821115612c5757612c57612b2b565b50019056fea264697066735822122076bd675687ad7116740bf0b101d358ffe9620a4a947a5ff90a9cf271b006085f64736f6c63430008090033",
  "linkReferences": {},
  "deployedLinkReferences": {}
}