{
  "_format": "hh-sol-artifact-1",
  "contractName": "UserInfo",
  "sourceName": "contracts/User.sol",
  "abi": [
    {
      "inputs": [
        {
          "internalType": "string",
          "name": "_name",
          "type": "string"
        },
        {
          "internalType": "uint256",
          "name": "_electionid",
          "type": "uint256"
        },
        {
          "internalType": "string",
          "name": "_party",
          "type": "string"
        },
        {
          "internalType": "string",
          "name": "_image_url",
          "type": "string"
        },
        {
          "internalType": "string",
          "name": "_party_image_url",
          "type": "string"
        }
      ],
      "name": "addCandidates",
      "outputs": [],
      "stateMutability": "nonpayable",
      "type": "function"
    },
    {
      "inputs": [
        {
          "internalType": "string",
          "name": "_aadhar",
          "type": "string"
        },
        {
          "internalType": "string",
          "name": "password",
          "type": "string"
        }
      ],
      "name": "checkCredentials",
      "outputs": [
        {
          "internalType": "bool",
          "name": "",
          "type": "bool"
        }
      ],
      "stateMutability": "view",
      "type": "function"
    },
    {
      "inputs": [
        {
          "internalType": "string",
          "name": "_image_url",
          "type": "string"
        },
        {
          "internalType": "string",
          "name": "_aadhar",
          "type": "string"
        },
        {
          "internalType": "string",
          "name": "_name",
          "type": "string"
        },
        {
          "internalType": "uint256",
          "name": "_start_date",
          "type": "uint256"
        },
        {
          "internalType": "uint256",
          "name": "_end_date",
          "type": "uint256"
        }
      ],
      "name": "createElection",
      "outputs": [
        {
          "internalType": "uint256",
          "name": "",
          "type": "uint256"
        }
      ],
      "stateMutability": "nonpayable",
      "type": "function"
    },
    {
      "inputs": [
        {
          "internalType": "string",
          "name": "_name",
          "type": "string"
        },
        {
          "internalType": "string",
          "name": "_dob",
          "type": "string"
        },
        {
          "internalType": "string",
          "name": "_aadhar",
          "type": "string"
        },
        {
          "internalType": "address",
          "name": "_addr",
          "type": "address"
        },
        {
          "internalType": "string",
          "name": "password",
          "type": "string"
        }
      ],
      "name": "createUser",
      "outputs": [
        {
          "internalType": "bytes32",
          "name": "",
          "type": "bytes32"
        }
      ],
      "stateMutability": "nonpayable",
      "type": "function"
    },
    {
      "inputs": [
        {
          "internalType": "uint256",
          "name": "_electionid",
          "type": "uint256"
        },
        {
          "internalType": "uint256",
          "name": "_candidateID",
          "type": "uint256"
        },
        {
          "internalType": "string",
          "name": "_aadhar",
          "type": "string"
        }
      ],
      "name": "doVote",
      "outputs": [
        {
          "internalType": "uint256[]",
          "name": "",
          "type": "uint256[]"
        }
      ],
      "stateMutability": "nonpayable",
      "type": "function"
    },
    {
      "inputs": [
        {
          "internalType": "uint256",
          "name": "",
          "type": "uint256"
        }
      ],
      "name": "elections",
      "outputs": [
        {
          "internalType": "string",
          "name": "name",
          "type": "string"
        },
        {
          "internalType": "uint256",
          "name": "start_date",
          "type": "uint256"
        },
        {
          "internalType": "uint256",
          "name": "end_date",
          "type": "uint256"
        },
        {
          "internalType": "uint256",
          "name": "noOfCandidates",
          "type": "uint256"
        },
        {
          "internalType": "string",
          "name": "image_url",
          "type": "string"
        },
        {
          "internalType": "uint256",
          "name": "totalVoted",
          "type": "uint256"
        },
        {
          "internalType": "enum ElectionInfo.Phase",
          "name": "currPhase",
          "type": "uint8"
        },
        {
          "internalType": "address",
          "name": "ownerAddress",
          "type": "address"
        }
      ],
      "stateMutability": "view",
      "type": "function"
    },
    {
      "inputs": [
        {
          "internalType": "uint256",
          "name": "_electionid",
          "type": "uint256"
        }
      ],
      "name": "endVoting",
      "outputs": [],
      "stateMutability": "nonpayable",
      "type": "function"
    },
    {
      "inputs": [],
      "name": "getAllElections",
      "outputs": [
        {
          "components": [
            {
              "internalType": "string",
              "name": "name",
              "type": "string"
            },
            {
              "internalType": "uint256",
              "name": "start_date",
              "type": "uint256"
            },
            {
              "internalType": "uint256",
              "name": "end_date",
              "type": "uint256"
            },
            {
              "internalType": "uint256",
              "name": "noOfCandidates",
              "type": "uint256"
            },
            {
              "components": [
                {
                  "internalType": "string",
                  "name": "name",
                  "type": "string"
                },
                {
                  "internalType": "string",
                  "name": "party",
                  "type": "string"
                },
                {
                  "internalType": "string",
                  "name": "image_url",
                  "type": "string"
                },
                {
                  "internalType": "string",
                  "name": "party_image_url",
                  "type": "string"
                }
              ],
              "internalType": "struct ElectionInfo.Candidate[]",
              "name": "candidates",
              "type": "tuple[]"
            },
            {
              "internalType": "string",
              "name": "image_url",
              "type": "string"
            },
            {
              "internalType": "uint256",
              "name": "totalVoted",
              "type": "uint256"
            },
            {
              "internalType": "enum ElectionInfo.Phase",
              "name": "currPhase",
              "type": "uint8"
            }
          ],
          "internalType": "struct ElectionInfo.returnElection[]",
          "name": "",
          "type": "tuple[]"
        }
      ],
      "stateMutability": "view",
      "type": "function"
    },
    {
      "inputs": [
        {
          "internalType": "uint256",
          "name": "_electionid",
          "type": "uint256"
        }
      ],
      "name": "getCandidates",
      "outputs": [
        {
          "components": [
            {
              "internalType": "string",
              "name": "name",
              "type": "string"
            },
            {
              "internalType": "string",
              "name": "party",
              "type": "string"
            },
            {
              "internalType": "string",
              "name": "image_url",
              "type": "string"
            },
            {
              "internalType": "string",
              "name": "party_image_url",
              "type": "string"
            }
          ],
          "internalType": "struct ElectionInfo.Candidate[]",
          "name": "",
          "type": "tuple[]"
        }
      ],
      "stateMutability": "view",
      "type": "function"
    },
    {
      "inputs": [
        {
          "internalType": "uint256",
          "name": "_id",
          "type": "uint256"
        }
      ],
      "name": "getElectionById",
      "outputs": [
        {
          "components": [
            {
              "internalType": "string",
              "name": "name",
              "type": "string"
            },
            {
              "internalType": "uint256",
              "name": "start_date",
              "type": "uint256"
            },
            {
              "internalType": "uint256",
              "name": "end_date",
              "type": "uint256"
            },
            {
              "internalType": "uint256",
              "name": "noOfCandidates",
              "type": "uint256"
            },
            {
              "components": [
                {
                  "internalType": "string",
                  "name": "name",
                  "type": "string"
                },
                {
                  "internalType": "string",
                  "name": "party",
                  "type": "string"
                },
                {
                  "internalType": "string",
                  "name": "image_url",
                  "type": "string"
                },
                {
                  "internalType": "string",
                  "name": "party_image_url",
                  "type": "string"
                }
              ],
              "internalType": "struct ElectionInfo.Candidate[]",
              "name": "candidates",
              "type": "tuple[]"
            },
            {
              "internalType": "string",
              "name": "image_url",
              "type": "string"
            },
            {
              "internalType": "uint256",
              "name": "totalVoted",
              "type": "uint256"
            },
            {
              "internalType": "enum ElectionInfo.Phase",
              "name": "currPhase",
              "type": "uint8"
            }
          ],
          "internalType": "struct ElectionInfo.returnElection",
          "name": "",
          "type": "tuple"
        }
      ],
      "stateMutability": "view",
      "type": "function"
    },
    {
      "inputs": [
        {
          "internalType": "uint256",
          "name": "_electionid",
          "type": "uint256"
        }
      ],
      "name": "getElectionResults",
      "outputs": [
        {
          "components": [
            {
              "internalType": "string",
              "name": "name",
              "type": "string"
            },
            {
              "internalType": "string",
              "name": "party",
              "type": "string"
            },
            {
              "internalType": "string",
              "name": "image_url",
              "type": "string"
            },
            {
              "internalType": "string",
              "name": "party_image_url",
              "type": "string"
            }
          ],
          "internalType": "struct ElectionInfo.Candidate[]",
          "name": "",
          "type": "tuple[]"
        },
        {
          "internalType": "uint256[]",
          "name": "",
          "type": "uint256[]"
        }
      ],
      "stateMutability": "view",
      "type": "function"
    },
    {
      "inputs": [
        {
          "internalType": "string",
          "name": "_aadhar",
          "type": "string"
        }
      ],
      "name": "getElections",
      "outputs": [
        {
          "internalType": "uint256[]",
          "name": "",
          "type": "uint256[]"
        }
      ],
      "stateMutability": "view",
      "type": "function"
    },
    {
      "inputs": [],
      "name": "getPhase",
      "outputs": [
        {
          "internalType": "enum ElectionInfo.Phase[]",
          "name": "",
          "type": "uint8[]"
        }
      ],
      "stateMutability": "view",
      "type": "function"
    },
    {
      "inputs": [
        {
          "internalType": "string",
          "name": "_aadhar",
          "type": "string"
        },
        {
          "internalType": "address",
          "name": "_addr",
          "type": "address"
        }
      ],
      "name": "getUser",
      "outputs": [
        {
          "components": [
            {
              "internalType": "uint256",
              "name": "userId",
              "type": "uint256"
            },
            {
              "internalType": "string",
              "name": "name",
              "type": "string"
            },
            {
              "internalType": "string",
              "name": "dob",
              "type": "string"
            },
            {
              "internalType": "bytes32",
              "name": "aadharHash",
              "type": "bytes32"
            },
            {
              "internalType": "bytes32",
              "name": "metamaskHash",
              "type": "bytes32"
            },
            {
              "internalType": "uint256",
              "name": "noOfElections",
              "type": "uint256"
            },
            {
              "internalType": "uint256[]",
              "name": "elections",
              "type": "uint256[]"
            }
          ],
          "internalType": "struct UserInfo.User",
          "name": "",
          "type": "tuple"
        }
      ],
      "stateMutability": "view",
      "type": "function"
    },
    {
      "inputs": [
        {
          "internalType": "string",
          "name": "_aadhar",
          "type": "string"
        }
      ],
      "name": "hashAadhar",
      "outputs": [
        {
          "internalType": "bytes32",
          "name": "",
          "type": "bytes32"
        }
      ],
      "stateMutability": "pure",
      "type": "function"
    },
    {
      "inputs": [
        {
          "internalType": "string",
          "name": "_name",
          "type": "string"
        },
        {
          "internalType": "string",
          "name": "_image_url",
          "type": "string"
        },
        {
          "internalType": "uint256",
          "name": "_start_date",
          "type": "uint256"
        },
        {
          "internalType": "uint256",
          "name": "_end_date",
          "type": "uint256"
        }
      ],
      "name": "init",
      "outputs": [
        {
          "internalType": "uint256",
          "name": "",
          "type": "uint256"
        }
      ],
      "stateMutability": "nonpayable",
      "type": "function"
    },
    {
      "inputs": [],
      "name": "initializer",
      "outputs": [],
      "stateMutability": "nonpayable",
      "type": "function"
    },
    {
      "inputs": [],
      "name": "noOfUsers",
      "outputs": [
        {
          "internalType": "uint256",
          "name": "",
          "type": "uint256"
        }
      ],
      "stateMutability": "view",
      "type": "function"
    },
    {
      "inputs": [],
      "name": "numberOfElections",
      "outputs": [
        {
          "internalType": "uint256",
          "name": "",
          "type": "uint256"
        }
      ],
      "stateMutability": "view",
      "type": "function"
    },
    {
      "inputs": [
        {
          "internalType": "uint256",
          "name": "_electionid",
          "type": "uint256"
        }
      ],
      "name": "startVoting",
      "outputs": [],
      "stateMutability": "nonpayable",
      "type": "function"
    }
  ],
  "bytecode": "0x608060405234801561001057600080fd5b50612bb5806100206000396000f3fe608060405234801561001057600080fd5b506004361061012c5760003560e01c80637fd5f268116100ad578063c6958b1211610071578063c6958b12146102a3578063cdc389f6146102c3578063e8ededa6146102cc578063eced0280146102ed578063ee50344a1461030257600080fd5b80637fd5f2681461022b57806387c8046414610240578063929f78d2146102535780639ce110d714610273578063b7c6fb651461028357600080fd5b8063244fac27116100f4578063244fac27146101a95780633d2f5bda146101be5780633e39a7a5146101d15780635e6fef01146101f1578063649f89a51461021857600080fd5b80630114effb14610131578063012ab8f11461015757806301934a831461017a57806314e0d72b1461018357806319b99e0314610196575b600080fd5b61014461013f3660046121a0565b610315565b6040519081526020015b60405180910390f35b61016a61016536600461225d565b61042c565b604051901515815260200161014e565b61014460045481565b6101446101913660046122c0565b6104af565b6101446101a43660046122fc565b6104df565b6101bc6101b7366004612395565b610675565b005b6101bc6101cc36600461241b565b61086b565b6101e46101df36600461241b565b61096d565b60405161014e9190612541565b6102046101ff36600461241b565b610ca1565b60405161014e989796959493929190612593565b6101bc61022636600461241b565b610dfe565b610233610efa565b60405161014e9190612690565b61014461024e3660046126f2565b610f9a565b6102666102613660046122c0565b6110f3565b60405161014e91906127a0565b6101bc6001600481905560009055565b6102966102913660046127b3565b6111b6565b60405161014e9190612800565b6102b66102b136600461241b565b611493565b60405161014e919061288a565b61014460015481565b6102df6102da36600461241b565b611879565b60405161014e92919061289d565b6102f5611c04565b60405161014e91906128c2565b61026661031036600461290d565b611cc8565b600080610321856104af565b60008181526002602052604090206003015490915081141561038a5760405162461bcd60e51b815260206004820152601c60248201527f416164686172732063616e6e6f74206265207573656420616761696e0000000060448201526064015b60405180910390fd5b6000818152600260209081526040909120885190916103b09160018401918b0190611ff4565b5086516103c690600283019060208a0190611ff4565b50600381018290556103d785611f49565b60048083019190915560006005830181905590548255828152600360209081526040909120855161040a92870190611ff4565b506004805490600061041b83612972565b909155509198975050505050505050565b600080610438846104af565b90508260405160200161044b919061298d565b60408051601f19818403018152828252805160209182012060008581526003835292909220919261047d9291016129de565b6040516020818303038152906040528051906020012014156104a35760019150506104a9565b60009150505b92915050565b6000816040516020016104c2919061298d565b604051602081830303815290604052805190602001209050919050565b6000806104eb866104af565b600081815260026020526040902060030154909150811461053d5760405162461bcd60e51b815260206004820152600c60248201526b24b73b30b634b2103ab9b2b960a11b6044820152606401610381565b8284106105985760405162461bcd60e51b8152602060048201526024808201527f537461727420446174652073686f756c64206265206265666f726520456e64206044820152634461746560e01b6064820152608401610381565b600081815260026020908152604091829020915133916105cd9183910160609190911b6001600160601b031916815260140190565b604051602081830303815290604052805190602001208260040154146106055760405162461bcd60e51b815260040161038190612a7a565b600083815260026020526040812060050180549161062283612972565b919050555060006001610637898c8a8a610f9a565b6106419190612ae8565b6000948552600260209081526040862060060180546001810182559087529520909401849055509198975050505050505050565b8360015481106106975760405162461bcd60e51b815260040161038190612aff565b60008181526020819052604090206009015461010090046001600160a01b031633146106d55760405162461bcd60e51b815260040161038190612a7a565b60008560015481106106f95760405162461bcd60e51b815260040161038190612aff565b81600281111561070b5761070b61255b565b60008281526020819052604090206009015460ff1660028111156107315761073161255b565b1461074e5760405162461bcd60e51b815260040161038190612b2c565b6107796040518060800160405280606081526020016060815260200160608152602001606081525090565b888152602080820188905260408083018890526060830187905260008a8152808352908120600490810180546001810182559083529183902084518051869594909302909101926107cf92849290910190611ff4565b5060208281015180516107e89260018501920190611ff4565b5060408201518051610804916002840191602090910190611ff4565b5060608201518051610820916003840191602090910190611ff4565b505050600088815260208181526040822060058101805460018101825590845291832090910182905589825260030180549161085b83612972565b9190505550505050505050505050565b80600154811061088d5760405162461bcd60e51b815260040161038190612aff565b60008181526020819052604090206009015461010090046001600160a01b031633146108cb5760405162461bcd60e51b815260040161038190612a7a565b60008260015481106108ef5760405162461bcd60e51b815260040161038190612aff565b8160028111156109015761090161255b565b60008281526020819052604090206009015460ff1660028111156109275761092761255b565b146109445760405162461bcd60e51b815260040161038190612b2c565b600084815260208190526040902060090180546001919060ff191682805b021790555050505050565b60608160015481106109915760405162461bcd60e51b815260040161038190612aff565b60008181526020819052604090206009015461010090046001600160a01b031633146109cf5760405162461bcd60e51b815260040161038190612a7a565b60015483106109f05760405162461bcd60e51b815260040161038190612aff565b60008381526020818152604080832060040180548251818502810185019093528083529193909284015b82821015610c945783829060005260206000209060040201604051806080016040529081600082018054610a4d906129a9565b80601f0160208091040260200160405190810160405280929190818152602001828054610a79906129a9565b8015610ac65780601f10610a9b57610100808354040283529160200191610ac6565b820191906000526020600020905b815481529060010190602001808311610aa957829003601f168201915b50505050508152602001600182018054610adf906129a9565b80601f0160208091040260200160405190810160405280929190818152602001828054610b0b906129a9565b8015610b585780601f10610b2d57610100808354040283529160200191610b58565b820191906000526020600020905b815481529060010190602001808311610b3b57829003601f168201915b50505050508152602001600282018054610b71906129a9565b80601f0160208091040260200160405190810160405280929190818152602001828054610b9d906129a9565b8015610bea5780601f10610bbf57610100808354040283529160200191610bea565b820191906000526020600020905b815481529060010190602001808311610bcd57829003601f168201915b50505050508152602001600382018054610c03906129a9565b80601f0160208091040260200160405190810160405280929190818152602001828054610c2f906129a9565b8015610c7c5780601f10610c5157610100808354040283529160200191610c7c565b820191906000526020600020905b815481529060010190602001808311610c5f57829003601f168201915b50505050508152505081526020019060010190610a1a565b5050505091505b50919050565b600060208190529081526040902080548190610cbc906129a9565b80601f0160208091040260200160405190810160405280929190818152602001828054610ce8906129a9565b8015610d355780601f10610d0a57610100808354040283529160200191610d35565b820191906000526020600020905b815481529060010190602001808311610d1857829003601f168201915b505050505090806001015490806002015490806003015490806006018054610d5c906129a9565b80601f0160208091040260200160405190810160405280929190818152602001828054610d88906129a9565b8015610dd55780601f10610daa57610100808354040283529160200191610dd5565b820191906000526020600020905b815481529060010190602001808311610db857829003601f168201915b50505050600783015460099093015491929160ff8116915061010090046001600160a01b031688565b806001548110610e205760405162461bcd60e51b815260040161038190612aff565b60008181526020819052604090206009015461010090046001600160a01b03163314610e5e5760405162461bcd60e51b815260040161038190612a7a565b6001826001548110610e825760405162461bcd60e51b815260040161038190612aff565b816002811115610e9457610e9461255b565b60008281526020819052604090206009015460ff166002811115610eba57610eba61255b565b14610ed75760405162461bcd60e51b815260040161038190612b2c565b600084815260208190526040902060090180546002919060ff1916600183610962565b606060006001546001600160401b03811115610f1857610f186120e2565b604051908082528060200260200182016040528015610f5157816020015b610f3e612078565b815260200190600190039081610f365790505b50905060005b600154811015610c9b57610f6a81611493565b828281518110610f7c57610f7c612b51565b60200260200101819052508080610f9290612972565b915050610f57565b600154600090815260208190526040812042841161100a5760405162461bcd60e51b815260206004820152602760248201527f54686520737461727420646174652073686f756c64206265206461746520696e6044820152662066757475726560c81b6064820152608401610381565b8383116110705760405162461bcd60e51b815260206004820152602e60248201527f54686520656e6420646174652073686f756c64206265206168656164206f662060448201526d746865207374617274206461746560901b6064820152608401610381565b85516110829082906020890190611ff4565b506001818101859055600282018490556009820180546001600160a81b031916336101000260ff191617905560006007830181905560038301819055815491906110cb83612972565b909155505084516110e59060068301906020880190611ff4565b505060015495945050505050565b60606000611100836104af565b60008181526002602052604090206003015490915081146111525760405162461bcd60e51b815260206004820152600c60248201526b24b73b30b634b2102ab9b2b960a11b6044820152606401610381565b600081815260026020908152604091829020600601805483518184028101840190945280845290918301828280156111a957602002820191906000526020600020905b815481526020019060010190808311611195575b5050505050915050919050565b6040805160e08101825260008082526060602083018190529282018390528282018190526080820181905260a082015260c081019190915260006111f9846104af565b600081815260026020526040902060030154909150811461124b5760405162461bcd60e51b815260206004820152600c60248201526b24b73b30b634b2103ab9b2b960a11b6044820152606401610381565b60008181526002602090815260409182902091516001600160601b0319606087901b1691810191909152603401604051602081830303815290604052805190602001208160040154146112d95760405162461bcd60e51b815260206004820152601660248201527557726f6e67206d6574616d61736b206164647265737360501b6044820152606401610381565b806040518060e0016040529081600082015481526020016001820180546112ff906129a9565b80601f016020809104026020016040519081016040528092919081815260200182805461132b906129a9565b80156113785780601f1061134d57610100808354040283529160200191611378565b820191906000526020600020905b81548152906001019060200180831161135b57829003601f168201915b50505050508152602001600282018054611391906129a9565b80601f01602080910402602001604051908101604052809291908181526020018280546113bd906129a9565b801561140a5780601f106113df5761010080835404028352916020019161140a565b820191906000526020600020905b8154815290600101906020018083116113ed57829003601f168201915b505050505081526020016003820154815260200160048201548152602001600582015481526020016006820180548060200260200160405190810160405280929190818152602001828054801561148057602002820191906000526020600020905b81548152602001906001019080831161146c575b5050505050815250509250505092915050565b61149b612078565b60015482106114bc5760405162461bcd60e51b815260040161038190612aff565b6114c4612078565b6000838152602081905260409020805461156591906114e2906129a9565b80601f016020809104026020016040519081016040528092919081815260200182805461150e906129a9565b801561155b5780601f106115305761010080835404028352916020019161155b565b820191906000526020600020905b81548152906001019060200180831161153e57829003601f168201915b5050505050611f6b565b8152600083815260208181526040808320600181015483860152600281015491850191909152858352919052600301546001600160401b038111156115ac576115ac6120e2565b60405190808252806020026020018201604052801561160857816020015b6115f56040518060800160405280606081526020016060815260200160608152602001606081525090565b8152602001906001900390816115ca5790505b50608082015260005b6000848152602081905260409020600301548110156117e55761166f600080868152602001908152602001600020600401828154811061165357611653612b51565b906000526020600020906004020160000180546114e2906129a9565b8260800151828151811061168557611685612b51565b6020026020010151600001819052506116d960008086815260200190815260200160002060040182815481106116bd576116bd612b51565b906000526020600020906004020160010180546114e2906129a9565b826080015182815181106116ef576116ef612b51565b602002602001015160200181905250611743600080868152602001908152602001600020600401828154811061172757611727612b51565b906000526020600020906004020160020180546114e2906129a9565b8260800151828151811061175957611759612b51565b6020026020010151604001819052506117ad600080868152602001908152602001600020600401828154811061179157611791612b51565b906000526020600020906004020160030180546114e2906129a9565b826080015182815181106117c3576117c3612b51565b60200260200101516060018190525080806117dd90612972565b915050611611565b506000838152602081905260409020600601805461180791906114e2906129a9565b60a08201526000838152602081815260408220600381015460608501528583529190526009015460e082019060ff1660028111156118475761184761255b565b9081600281111561185a5761185a61255b565b9052506000928352602083905260409092206007015460c08301525090565b60608060028360015481106118a05760405162461bcd60e51b815260040161038190612aff565b8160028111156118b2576118b261255b565b60008281526020819052604090206009015460ff1660028111156118d8576118d861255b565b146118f55760405162461bcd60e51b815260040161038190612b2c565b600085815260208181526040808320600481018054835181860281018601909452808452909460059092019385929084015b82821015611ba1578382906000526020600020906004020160405180608001604052908160008201805461195a906129a9565b80601f0160208091040260200160405190810160405280929190818152602001828054611986906129a9565b80156119d35780601f106119a8576101008083540402835291602001916119d3565b820191906000526020600020905b8154815290600101906020018083116119b657829003601f168201915b505050505081526020016001820180546119ec906129a9565b80601f0160208091040260200160405190810160405280929190818152602001828054611a18906129a9565b8015611a655780601f10611a3a57610100808354040283529160200191611a65565b820191906000526020600020905b815481529060010190602001808311611a4857829003601f168201915b50505050508152602001600282018054611a7e906129a9565b80601f0160208091040260200160405190810160405280929190818152602001828054611aaa906129a9565b8015611af75780601f10611acc57610100808354040283529160200191611af7565b820191906000526020600020905b815481529060010190602001808311611ada57829003601f168201915b50505050508152602001600382018054611b10906129a9565b80601f0160208091040260200160405190810160405280929190818152602001828054611b3c906129a9565b8015611b895780601f10611b5e57610100808354040283529160200191611b89565b820191906000526020600020905b815481529060010190602001808311611b6c57829003601f168201915b50505050508152505081526020019060010190611927565b50505050915080805480602002602001604051908101604052809291908181526020018280548015611bf257602002820191906000526020600020905b815481526020019060010190808311611bde575b50505050509050935093505050915091565b606060006001546001600160401b03811115611c2257611c226120e2565b604051908082528060200260200182016040528015611c4b578160200160208202803683370190505b50905060005b600154811015610c9b57600081815260208190526040902060090154825160ff90911690839083908110611c8757611c87612b51565b60200260200101906002811115611ca057611ca061255b565b90816002811115611cb357611cb361255b565b90525080611cc081612972565b915050611c51565b60606001846001548110611cee5760405162461bcd60e51b815260040161038190612aff565b816002811115611d0057611d0061255b565b60008281526020819052604090206009015460ff166002811115611d2657611d2661255b565b14611d435760405162461bcd60e51b815260040161038190612b2c565b60008681526020819052604090206003015485108015611d61575060015b611da45760405162461bcd60e51b8152602060048201526014602482015273125b9d985b1a590810d85b991a59185d1948125160621b6044820152606401610381565b600080878152602001908152602001600020600801600085604051602001611dcc919061298d565b60408051601f198184030181529181528151602092830120835290820192909252016000205460ff1615611e425760405162461bcd60e51b815260206004820152601760248201527f566f7465722068617320616c726561647920766f7465640000000000000000006044820152606401610381565b6000868152602081905260409020600501805486908110611e6557611e65612b51565b60009182526020822001805491611e7b83612972565b919050555060016000808881526020019081526020016000206008016000611ea2876104af565b815260208082019290925260409081016000908120805460ff191694151594909417909355888352908290528120600701805491611edf83612972565b90915550506000868152602081815260409182902060050180548351818402810184019094528084529091830182828015611f3957602002820191906000526020600020905b815481526020019060010190808311611f25575b5050505050925050509392505050565b6040516001600160601b0319606083901b1660208201526000906034016104c2565b6060600082516001600160401b03811115611f8857611f886120e2565b6040519080825280601f01601f191660200182016040528015611fb2576020820181803683370190505b50905060008351601f611fc59190612b67565b905060205b818111611feb578481015183820152611fe4602082612b67565b9050611fca565b50909392505050565b828054612000906129a9565b90600052602060002090601f0160209004810192826120225760008555612068565b82601f1061203b57805160ff1916838001178555612068565b82800160010185558215612068579182015b8281111561206857825182559160200191906001019061204d565b506120749291506120cd565b5090565b60405180610100016040528060608152602001600081526020016000815260200160008152602001606081526020016060815260200160008152602001600060028111156120c8576120c861255b565b905290565b5b8082111561207457600081556001016120ce565b634e487b7160e01b600052604160045260246000fd5b600082601f83011261210957600080fd5b81356001600160401b0380821115612123576121236120e2565b604051601f8301601f19908116603f0116810190828211818310171561214b5761214b6120e2565b8160405283815286602085880101111561216457600080fd5b836020870160208301376000602085830101528094505050505092915050565b80356001600160a01b038116811461219b57600080fd5b919050565b600080600080600060a086880312156121b857600080fd5b85356001600160401b03808211156121cf57600080fd5b6121db89838a016120f8565b965060208801359150808211156121f157600080fd5b6121fd89838a016120f8565b9550604088013591508082111561221357600080fd5b61221f89838a016120f8565b945061222d60608901612184565b9350608088013591508082111561224357600080fd5b50612250888289016120f8565b9150509295509295909350565b6000806040838503121561227057600080fd5b82356001600160401b038082111561228757600080fd5b612293868387016120f8565b935060208501359150808211156122a957600080fd5b506122b6858286016120f8565b9150509250929050565b6000602082840312156122d257600080fd5b81356001600160401b038111156122e857600080fd5b6122f4848285016120f8565b949350505050565b600080600080600060a0868803121561231457600080fd5b85356001600160401b038082111561232b57600080fd5b61233789838a016120f8565b9650602088013591508082111561234d57600080fd5b61235989838a016120f8565b9550604088013591508082111561236f57600080fd5b5061237c888289016120f8565b9598949750949560608101359550608001359392505050565b600080600080600060a086880312156123ad57600080fd5b85356001600160401b03808211156123c457600080fd5b6123d089838a016120f8565b96506020880135955060408801359150808211156123ed57600080fd5b6123f989838a016120f8565b9450606088013591508082111561240f57600080fd5b61222d89838a016120f8565b60006020828403121561242d57600080fd5b5035919050565b60005b8381101561244f578181015183820152602001612437565b8381111561245e576000848401525b50505050565b6000815180845261247c816020860160208601612434565b601f01601f19169290920160200192915050565b600081518084526020808501808196508360051b8101915082860160005b858110156125345782840389528151608081518187526124d082880182612464565b91505086820151868203888801526124e88282612464565b915050604080830151878303828901526125028382612464565b92505050606080830151925086820381880152506125208183612464565b9a87019a95505050908401906001016124ae565b5091979650505050505050565b6020815260006125546020830184612490565b9392505050565b634e487b7160e01b600052602160045260246000fd5b6003811061258f57634e487b7160e01b600052602160045260246000fd5b9052565b60006101008083526125a78184018c612464565b905089602084015288604084015287606084015282810360808401526125cd8188612464565b9150508460a08301526125e360c0830185612571565b6001600160a01b039290921660e09190910152979650505050505050565b6000610100825181855261261782860182612464565b9150506020830151602085015260408301516040850152606083015160608501526080830151848203608086015261264f8282612490565b91505060a083015184820360a08601526126698282612464565b91505060c083015160c085015260e083015161268860e0860182612571565b509392505050565b6000602080830181845280855180835260408601915060408160051b870101925083870160005b828110156126e557603f198886030184526126d3858351612601565b945092850192908501906001016126b7565b5092979650505050505050565b6000806000806080858703121561270857600080fd5b84356001600160401b038082111561271f57600080fd5b61272b888389016120f8565b9550602087013591508082111561274157600080fd5b5061274e878288016120f8565b949794965050505060408301359260600135919050565b600081518084526020808501945080840160005b8381101561279557815187529582019590820190600101612779565b509495945050505050565b6020815260006125546020830184612765565b600080604083850312156127c657600080fd5b82356001600160401b038111156127dc57600080fd5b6127e8858286016120f8565b9250506127f760208401612184565b90509250929050565b60208152815160208201526000602083015160e06040840152612827610100840182612464565b90506040840151601f19808584030160608601526128458383612464565b925060608601516080860152608086015160a086015260a086015160c086015260c08601519150808584030160e0860152506128818282612765565b95945050505050565b6020815260006125546020830184612601565b6040815260006128b06040830185612490565b82810360208401526128818185612765565b6020808252825182820181905260009190848201906040850190845b81811015612901576128f1838551612571565b92840192918401916001016128de565b50909695505050505050565b60008060006060848603121561292257600080fd5b833592506020840135915060408401356001600160401b0381111561294657600080fd5b612952868287016120f8565b9150509250925092565b634e487b7160e01b600052601160045260246000fd5b60006000198214156129865761298661295c565b5060010190565b6000825161299f818460208701612434565b9190910192915050565b600181811c908216806129bd57607f821691505b60208210811415610c9b57634e487b7160e01b600052602260045260246000fd5b600080835481600182811c9150808316806129fa57607f831692505b6020808410821415612a1a57634e487b7160e01b86526022600452602486fd5b818015612a2e5760018114612a3f57612a6c565b60ff19861689528489019650612a6c565b60008a81526020902060005b86811015612a645781548b820152908501908301612a4b565b505084890196505b509498975050505050505050565b60208082526048908201527f41636573732044656e6965642c796f75206172656e277420746865206f776e6560408201527f72206f662074686520656c656374696f6e2e77726f6e67206d6574616d61736b606082015267206164647265737360c01b608082015260a00190565b600082821015612afa57612afa61295c565b500390565b602080825260139082015272125b9d985b1a5908115b1958dd1a5bdb881251606a1b604082015260600190565b6020808252600b908201526a57726f6e6720706861736560a81b604082015260600190565b634e487b7160e01b600052603260045260246000fd5b60008219821115612b7a57612b7a61295c565b50019056fea264697066735822122078509bc8b864123d8ed35cb3a35e2424d34c8d82cb99c729f371a2b07993aae664736f6c63430008090033",
  "linkReferences": {},
  "deployedLinkReferences": {}
}