{
  "_format": "hh-sol-artifact-1",
  "contractName": "UserInfo",
  "sourceName": "contracts/User.sol",
  "abi": [
    {
      "inputs": [
        {
          "internalType": "string",
          "name": "_name",
          "type": "string"
        },
        {
          "internalType": "uint256",
          "name": "_electionid",
          "type": "uint256"
        },
        {
          "internalType": "string",
          "name": "_party",
          "type": "string"
        },
        {
          "internalType": "string",
          "name": "_image_url",
          "type": "string"
        },
        {
          "internalType": "string",
          "name": "_party_image_url",
          "type": "string"
        }
      ],
      "name": "addCandidates",
      "outputs": [],
      "stateMutability": "nonpayable",
      "type": "function"
    },
    {
      "inputs": [
        {
          "internalType": "string",
          "name": "_aadhar",
          "type": "string"
        },
        {
          "internalType": "string",
          "name": "password",
          "type": "string"
        }
      ],
      "name": "checkCredentials",
      "outputs": [
        {
          "internalType": "bool",
          "name": "",
          "type": "bool"
        }
      ],
      "stateMutability": "view",
      "type": "function"
    },
    {
      "inputs": [
        {
          "internalType": "string",
          "name": "_image_url",
          "type": "string"
        },
        {
          "internalType": "string",
          "name": "_aadhar",
          "type": "string"
        },
        {
          "internalType": "string",
          "name": "_name",
          "type": "string"
        },
        {
          "internalType": "uint256",
          "name": "_start_date",
          "type": "uint256"
        },
        {
          "internalType": "uint256",
          "name": "_end_date",
          "type": "uint256"
        }
      ],
      "name": "createElection",
      "outputs": [
        {
          "internalType": "uint256",
          "name": "",
          "type": "uint256"
        }
      ],
      "stateMutability": "nonpayable",
      "type": "function"
    },
    {
      "inputs": [
        {
          "internalType": "string",
          "name": "_name",
          "type": "string"
        },
        {
          "internalType": "string",
          "name": "_dob",
          "type": "string"
        },
        {
          "internalType": "string",
          "name": "_aadhar",
          "type": "string"
        },
        {
          "internalType": "address",
          "name": "_addr",
          "type": "address"
        },
        {
          "internalType": "string",
          "name": "password",
          "type": "string"
        }
      ],
      "name": "createUser",
      "outputs": [
        {
          "internalType": "bytes32",
          "name": "",
          "type": "bytes32"
        }
      ],
      "stateMutability": "nonpayable",
      "type": "function"
    },
    {
      "inputs": [
        {
          "internalType": "uint256",
          "name": "_electionid",
          "type": "uint256"
        },
        {
          "internalType": "uint256",
          "name": "_candidateID",
          "type": "uint256"
        },
        {
          "internalType": "string",
          "name": "_aadhar",
          "type": "string"
        }
      ],
      "name": "doVote",
      "outputs": [
        {
          "internalType": "uint256[]",
          "name": "",
          "type": "uint256[]"
        }
      ],
      "stateMutability": "nonpayable",
      "type": "function"
    },
    {
      "inputs": [
        {
          "internalType": "uint256",
          "name": "",
          "type": "uint256"
        }
      ],
      "name": "elections",
      "outputs": [
        {
          "internalType": "string",
          "name": "name",
          "type": "string"
        },
        {
          "internalType": "uint256",
          "name": "start_date",
          "type": "uint256"
        },
        {
          "internalType": "uint256",
          "name": "end_date",
          "type": "uint256"
        },
        {
          "internalType": "uint256",
          "name": "noOfCandidates",
          "type": "uint256"
        },
        {
          "internalType": "string",
          "name": "image_url",
          "type": "string"
        },
        {
          "internalType": "uint256",
          "name": "totalVoted",
          "type": "uint256"
        },
        {
          "internalType": "enum ElectionInfo.Phase",
          "name": "currPhase",
          "type": "uint8"
        },
        {
          "internalType": "address",
          "name": "ownerAddress",
          "type": "address"
        }
      ],
      "stateMutability": "view",
      "type": "function"
    },
    {
      "inputs": [
        {
          "internalType": "uint256",
          "name": "_electionid",
          "type": "uint256"
        }
      ],
      "name": "endVoting",
      "outputs": [],
      "stateMutability": "nonpayable",
      "type": "function"
    },
    {
      "inputs": [
        {
          "internalType": "uint256",
          "name": "_electionid",
          "type": "uint256"
        }
      ],
      "name": "getCandidates",
      "outputs": [
        {
          "components": [
            {
              "internalType": "string",
              "name": "name",
              "type": "string"
            },
            {
              "internalType": "string",
              "name": "party",
              "type": "string"
            },
            {
              "internalType": "string",
              "name": "image_url",
              "type": "string"
            },
            {
              "internalType": "string",
              "name": "party_image_url",
              "type": "string"
            }
          ],
          "internalType": "struct ElectionInfo.Candidate[]",
          "name": "",
          "type": "tuple[]"
        }
      ],
      "stateMutability": "view",
      "type": "function"
    },
    {
      "inputs": [
        {
          "internalType": "uint256",
          "name": "_electionid",
          "type": "uint256"
        }
      ],
      "name": "getElectionResults",
      "outputs": [
        {
          "components": [
            {
              "internalType": "string",
              "name": "name",
              "type": "string"
            },
            {
              "internalType": "string",
              "name": "party",
              "type": "string"
            },
            {
              "internalType": "string",
              "name": "image_url",
              "type": "string"
            },
            {
              "internalType": "string",
              "name": "party_image_url",
              "type": "string"
            }
          ],
          "internalType": "struct ElectionInfo.Candidate[]",
          "name": "",
          "type": "tuple[]"
        },
        {
          "internalType": "uint256[]",
          "name": "",
          "type": "uint256[]"
        }
      ],
      "stateMutability": "view",
      "type": "function"
    },
    {
      "inputs": [
        {
          "internalType": "string",
          "name": "_aadhar",
          "type": "string"
        }
      ],
      "name": "getElections",
      "outputs": [
        {
          "internalType": "uint256[]",
          "name": "",
          "type": "uint256[]"
        }
      ],
      "stateMutability": "view",
      "type": "function"
    },
    {
      "inputs": [
        {
          "internalType": "string",
          "name": "_aadhar",
          "type": "string"
        },
        {
          "internalType": "address",
          "name": "_addr",
          "type": "address"
        }
      ],
      "name": "getUser",
      "outputs": [
        {
          "components": [
            {
              "internalType": "uint256",
              "name": "userId",
              "type": "uint256"
            },
            {
              "internalType": "string",
              "name": "name",
              "type": "string"
            },
            {
              "internalType": "string",
              "name": "dob",
              "type": "string"
            },
            {
              "internalType": "bytes32",
              "name": "aadharHash",
              "type": "bytes32"
            },
            {
              "internalType": "bytes32",
              "name": "metamaskHash",
              "type": "bytes32"
            },
            {
              "internalType": "uint256",
              "name": "noOfElections",
              "type": "uint256"
            },
            {
              "internalType": "uint256[]",
              "name": "elections",
              "type": "uint256[]"
            }
          ],
          "internalType": "struct UserInfo.User",
          "name": "",
          "type": "tuple"
        }
      ],
      "stateMutability": "view",
      "type": "function"
    },
    {
      "inputs": [
        {
          "internalType": "string",
          "name": "_aadhar",
          "type": "string"
        }
      ],
      "name": "hashAadhar",
      "outputs": [
        {
          "internalType": "bytes32",
          "name": "",
          "type": "bytes32"
        }
      ],
      "stateMutability": "pure",
      "type": "function"
    },
    {
      "inputs": [
        {
          "internalType": "string",
          "name": "_name",
          "type": "string"
        },
        {
          "internalType": "string",
          "name": "_image_url",
          "type": "string"
        },
        {
          "internalType": "uint256",
          "name": "_start_date",
          "type": "uint256"
        },
        {
          "internalType": "uint256",
          "name": "_end_date",
          "type": "uint256"
        }
      ],
      "name": "init",
      "outputs": [
        {
          "internalType": "uint256",
          "name": "",
          "type": "uint256"
        }
      ],
      "stateMutability": "nonpayable",
      "type": "function"
    },
    {
      "inputs": [],
      "name": "initializer",
      "outputs": [],
      "stateMutability": "nonpayable",
      "type": "function"
    },
    {
      "inputs": [],
      "name": "noOfUsers",
      "outputs": [
        {
          "internalType": "uint256",
          "name": "",
          "type": "uint256"
        }
      ],
      "stateMutability": "view",
      "type": "function"
    },
    {
      "inputs": [],
      "name": "numberOfElections",
      "outputs": [
        {
          "internalType": "uint256",
          "name": "",
          "type": "uint256"
        }
      ],
      "stateMutability": "view",
      "type": "function"
    },
    {
      "inputs": [
        {
          "internalType": "uint256",
          "name": "_electionid",
          "type": "uint256"
        }
      ],
      "name": "startVoting",
      "outputs": [],
      "stateMutability": "nonpayable",
      "type": "function"
    }
  ],
  "bytecode": "0x608060405234801561001057600080fd5b506123b9806100206000396000f3fe608060405234801561001057600080fd5b506004361061010b5760003560e01c80635e6fef01116100a25780639ce110d7116100715780639ce110d71461023d578063b7c6fb651461024d578063cdc389f61461026d578063e8ededa614610276578063ee50344a1461029757600080fd5b80635e6fef01146101d0578063649f89a5146101f757806387c804641461020a578063929f78d21461021d57600080fd5b806319b99e03116100de57806319b99e0314610175578063244fac27146101885780633d2f5bda1461019d5780633e39a7a5146101b057600080fd5b80630114effb14610110578063012ab8f11461013657806301934a831461015957806314e0d72b14610162575b600080fd5b61012361011e366004611b0e565b6102aa565b6040519081526020015b60405180910390f35b610149610144366004611bcc565b6103c1565b604051901515815260200161012d565b61012360045481565b610123610170366004611c30565b610444565b610123610183366004611c6d565b610474565b61019b610196366004611d07565b61060a565b005b61019b6101ab366004611d8e565b610800565b6101c36101be366004611d8e565b610902565b60405161012d9190611eb4565b6101e36101de366004611d8e565b610c36565b60405161012d989796959493929190611ee4565b61019b610205366004611d8e565b610d93565b610123610218366004611f69565b610e8f565b61023061022b366004611c30565b610fe8565b60405161012d9190612018565b61019b6001600481905560009055565b61026061025b36600461202b565b6110ab565b60405161012d9190612079565b61012360015481565b610289610284366004611d8e565b611388565b60405161012d929190612103565b6102306102a5366004612128565b611713565b6000806102b685610444565b60008181526002602052604090206003015490915081141561031f5760405162461bcd60e51b815260206004820152601c60248201527f416164686172732063616e6e6f74206265207573656420616761696e0000000060448201526064015b60405180910390fd5b6000818152600260209081526040909120885190916103459160018401918b01906119b6565b50865161035b90600283019060208a01906119b6565b506003810182905561036c85611994565b60048083019190915560006005830181905590548255828152600360209081526040909120855161039f928701906119b6565b50600480549060006103b08361218e565b909155509198975050505050505050565b6000806103cd84610444565b9050826040516020016103e091906121a9565b60408051601f1981840301815282825280516020918201206000858152600383529290922091926104129291016121fa565b60405160208183030381529060405280519060200120141561043857600191505061043e565b60009150505b92915050565b60008160405160200161045791906121a9565b604051602081830303815290604052805190602001209050919050565b60008061048086610444565b60008181526002602052604090206003015490915081146104d25760405162461bcd60e51b815260206004820152600c60248201526b24b73b30b634b2103ab9b2b960a11b6044820152606401610316565b82841061052d5760405162461bcd60e51b8152602060048201526024808201527f537461727420446174652073686f756c64206265206265666f726520456e64206044820152634461746560e01b6064820152608401610316565b600081815260026020908152604091829020915133916105629183910160609190911b6001600160601b031916815260140190565b6040516020818303038152906040528051906020012082600401541461059a5760405162461bcd60e51b815260040161031690612296565b60008381526002602052604081206005018054916105b78361218e565b9190505550600060016105cc898c8a8a610e8f565b6105d69190612304565b6000948552600260209081526040862060060180546001810182559087529520909401849055509198975050505050505050565b83600154811061062c5760405162461bcd60e51b81526004016103169061231b565b60008181526020819052604090206009015461010090046001600160a01b0316331461066a5760405162461bcd60e51b815260040161031690612296565b600085600154811061068e5760405162461bcd60e51b81526004016103169061231b565b8160028111156106a0576106a0611ece565b60008281526020819052604090206009015460ff1660028111156106c6576106c6611ece565b146106e35760405162461bcd60e51b815260040161031690612348565b61070e6040518060800160405280606081526020016060815260200160608152602001606081525090565b888152602080820188905260408083018890526060830187905260008a815280835290812060049081018054600181018255908352918390208451805186959490930290910192610764928492909101906119b6565b50602082810151805161077d92600185019201906119b6565b50604082015180516107999160028401916020909101906119b6565b50606082015180516107b59160038401916020909101906119b6565b50505060008881526020818152604082206005810180546001810182559084529183209091018290558982526003018054916107f08361218e565b9190505550505050505050505050565b8060015481106108225760405162461bcd60e51b81526004016103169061231b565b60008181526020819052604090206009015461010090046001600160a01b031633146108605760405162461bcd60e51b815260040161031690612296565b60008260015481106108845760405162461bcd60e51b81526004016103169061231b565b81600281111561089657610896611ece565b60008281526020819052604090206009015460ff1660028111156108bc576108bc611ece565b146108d95760405162461bcd60e51b815260040161031690612348565b600084815260208190526040902060090180546001919060ff191682805b021790555050505050565b60608160015481106109265760405162461bcd60e51b81526004016103169061231b565b60008181526020819052604090206009015461010090046001600160a01b031633146109645760405162461bcd60e51b815260040161031690612296565b60015483106109855760405162461bcd60e51b81526004016103169061231b565b60008381526020818152604080832060040180548251818502810185019093528083529193909284015b82821015610c2957838290600052602060002090600402016040518060800160405290816000820180546109e2906121c5565b80601f0160208091040260200160405190810160405280929190818152602001828054610a0e906121c5565b8015610a5b5780601f10610a3057610100808354040283529160200191610a5b565b820191906000526020600020905b815481529060010190602001808311610a3e57829003601f168201915b50505050508152602001600182018054610a74906121c5565b80601f0160208091040260200160405190810160405280929190818152602001828054610aa0906121c5565b8015610aed5780601f10610ac257610100808354040283529160200191610aed565b820191906000526020600020905b815481529060010190602001808311610ad057829003601f168201915b50505050508152602001600282018054610b06906121c5565b80601f0160208091040260200160405190810160405280929190818152602001828054610b32906121c5565b8015610b7f5780601f10610b5457610100808354040283529160200191610b7f565b820191906000526020600020905b815481529060010190602001808311610b6257829003601f168201915b50505050508152602001600382018054610b98906121c5565b80601f0160208091040260200160405190810160405280929190818152602001828054610bc4906121c5565b8015610c115780601f10610be657610100808354040283529160200191610c11565b820191906000526020600020905b815481529060010190602001808311610bf457829003601f168201915b505050505081525050815260200190600101906109af565b5050505091505b50919050565b600060208190529081526040902080548190610c51906121c5565b80601f0160208091040260200160405190810160405280929190818152602001828054610c7d906121c5565b8015610cca5780601f10610c9f57610100808354040283529160200191610cca565b820191906000526020600020905b815481529060010190602001808311610cad57829003601f168201915b505050505090806001015490806002015490806003015490806006018054610cf1906121c5565b80601f0160208091040260200160405190810160405280929190818152602001828054610d1d906121c5565b8015610d6a5780601f10610d3f57610100808354040283529160200191610d6a565b820191906000526020600020905b815481529060010190602001808311610d4d57829003601f168201915b50505050600783015460099093015491929160ff8116915061010090046001600160a01b031688565b806001548110610db55760405162461bcd60e51b81526004016103169061231b565b60008181526020819052604090206009015461010090046001600160a01b03163314610df35760405162461bcd60e51b815260040161031690612296565b6001826001548110610e175760405162461bcd60e51b81526004016103169061231b565b816002811115610e2957610e29611ece565b60008281526020819052604090206009015460ff166002811115610e4f57610e4f611ece565b14610e6c5760405162461bcd60e51b815260040161031690612348565b600084815260208190526040902060090180546002919060ff19166001836108f7565b6001546000908152602081905260408120428411610eff5760405162461bcd60e51b815260206004820152602760248201527f54686520737461727420646174652073686f756c64206265206461746520696e6044820152662066757475726560c81b6064820152608401610316565b838311610f655760405162461bcd60e51b815260206004820152602e60248201527f54686520656e6420646174652073686f756c64206265206168656164206f662060448201526d746865207374617274206461746560901b6064820152608401610316565b8551610f7790829060208901906119b6565b506001818101859055600282018490556009820180546001600160a81b031916336101000260ff19161790556000600783018190556003830181905581549190610fc08361218e565b90915550508451610fda90600683019060208801906119b6565b505060015495945050505050565b60606000610ff583610444565b60008181526002602052604090206003015490915081146110475760405162461bcd60e51b815260206004820152600c60248201526b24b73b30b634b2102ab9b2b960a11b6044820152606401610316565b6000818152600260209081526040918290206006018054835181840281018401909452808452909183018282801561109e57602002820191906000526020600020905b81548152602001906001019080831161108a575b5050505050915050919050565b6040805160e08101825260008082526060602083018190529282018390528282018190526080820181905260a082015260c081019190915260006110ee84610444565b60008181526002602052604090206003015490915081146111405760405162461bcd60e51b815260206004820152600c60248201526b24b73b30b634b2103ab9b2b960a11b6044820152606401610316565b60008181526002602090815260409182902091516001600160601b0319606087901b1691810191909152603401604051602081830303815290604052805190602001208160040154146111ce5760405162461bcd60e51b815260206004820152601660248201527557726f6e67206d6574616d61736b206164647265737360501b6044820152606401610316565b806040518060e0016040529081600082015481526020016001820180546111f4906121c5565b80601f0160208091040260200160405190810160405280929190818152602001828054611220906121c5565b801561126d5780601f106112425761010080835404028352916020019161126d565b820191906000526020600020905b81548152906001019060200180831161125057829003601f168201915b50505050508152602001600282018054611286906121c5565b80601f01602080910402602001604051908101604052809291908181526020018280546112b2906121c5565b80156112ff5780601f106112d4576101008083540402835291602001916112ff565b820191906000526020600020905b8154815290600101906020018083116112e257829003601f168201915b505050505081526020016003820154815260200160048201548152602001600582015481526020016006820180548060200260200160405190810160405280929190818152602001828054801561137557602002820191906000526020600020905b815481526020019060010190808311611361575b5050505050815250509250505092915050565b60608060028360015481106113af5760405162461bcd60e51b81526004016103169061231b565b8160028111156113c1576113c1611ece565b60008281526020819052604090206009015460ff1660028111156113e7576113e7611ece565b146114045760405162461bcd60e51b815260040161031690612348565b600085815260208181526040808320600481018054835181860281018601909452808452909460059092019385929084015b828210156116b05783829060005260206000209060040201604051806080016040529081600082018054611469906121c5565b80601f0160208091040260200160405190810160405280929190818152602001828054611495906121c5565b80156114e25780601f106114b7576101008083540402835291602001916114e2565b820191906000526020600020905b8154815290600101906020018083116114c557829003601f168201915b505050505081526020016001820180546114fb906121c5565b80601f0160208091040260200160405190810160405280929190818152602001828054611527906121c5565b80156115745780601f1061154957610100808354040283529160200191611574565b820191906000526020600020905b81548152906001019060200180831161155757829003601f168201915b5050505050815260200160028201805461158d906121c5565b80601f01602080910402602001604051908101604052809291908181526020018280546115b9906121c5565b80156116065780601f106115db57610100808354040283529160200191611606565b820191906000526020600020905b8154815290600101906020018083116115e957829003601f168201915b5050505050815260200160038201805461161f906121c5565b80601f016020809104026020016040519081016040528092919081815260200182805461164b906121c5565b80156116985780601f1061166d57610100808354040283529160200191611698565b820191906000526020600020905b81548152906001019060200180831161167b57829003601f168201915b50505050508152505081526020019060010190611436565b5050505091508080548060200260200160405190810160405280929190818152602001828054801561170157602002820191906000526020600020905b8154815260200190600101908083116116ed575b50505050509050935093505050915091565b606060018460015481106117395760405162461bcd60e51b81526004016103169061231b565b81600281111561174b5761174b611ece565b60008281526020819052604090206009015460ff16600281111561177157611771611ece565b1461178e5760405162461bcd60e51b815260040161031690612348565b600086815260208190526040902060030154851080156117ac575060015b6117ef5760405162461bcd60e51b8152602060048201526014602482015273125b9d985b1a590810d85b991a59185d1948125160621b6044820152606401610316565b60008087815260200190815260200160002060080160008560405160200161181791906121a9565b60408051601f198184030181529181528151602092830120835290820192909252016000205460ff161561188d5760405162461bcd60e51b815260206004820152601760248201527f566f7465722068617320616c726561647920766f7465640000000000000000006044820152606401610316565b60008681526020819052604090206005018054869081106118b0576118b061236d565b600091825260208220018054916118c68361218e565b9190505550600160008088815260200190815260200160002060080160006118ed87610444565b815260208082019290925260409081016000908120805460ff19169415159490941790935588835290829052812060070180549161192a8361218e565b9091555050600086815260208181526040918290206005018054835181840281018401909452808452909183018282801561198457602002820191906000526020600020905b815481526020019060010190808311611970575b5050505050925050509392505050565b6040516001600160601b0319606083901b166020820152600090603401610457565b8280546119c2906121c5565b90600052602060002090601f0160209004810192826119e45760008555611a2a565b82601f106119fd57805160ff1916838001178555611a2a565b82800160010185558215611a2a579182015b82811115611a2a578251825591602001919060010190611a0f565b50611a36929150611a3a565b5090565b5b80821115611a365760008155600101611a3b565b634e487b7160e01b600052604160045260246000fd5b600082601f830112611a7657600080fd5b813567ffffffffffffffff80821115611a9157611a91611a4f565b604051601f8301601f19908116603f01168101908282118183101715611ab957611ab9611a4f565b81604052838152866020858801011115611ad257600080fd5b836020870160208301376000602085830101528094505050505092915050565b80356001600160a01b0381168114611b0957600080fd5b919050565b600080600080600060a08688031215611b2657600080fd5b853567ffffffffffffffff80821115611b3e57600080fd5b611b4a89838a01611a65565b96506020880135915080821115611b6057600080fd5b611b6c89838a01611a65565b95506040880135915080821115611b8257600080fd5b611b8e89838a01611a65565b9450611b9c60608901611af2565b93506080880135915080821115611bb257600080fd5b50611bbf88828901611a65565b9150509295509295909350565b60008060408385031215611bdf57600080fd5b823567ffffffffffffffff80821115611bf757600080fd5b611c0386838701611a65565b93506020850135915080821115611c1957600080fd5b50611c2685828601611a65565b9150509250929050565b600060208284031215611c4257600080fd5b813567ffffffffffffffff811115611c5957600080fd5b611c6584828501611a65565b949350505050565b600080600080600060a08688031215611c8557600080fd5b853567ffffffffffffffff80821115611c9d57600080fd5b611ca989838a01611a65565b96506020880135915080821115611cbf57600080fd5b611ccb89838a01611a65565b95506040880135915080821115611ce157600080fd5b50611cee88828901611a65565b9598949750949560608101359550608001359392505050565b600080600080600060a08688031215611d1f57600080fd5b853567ffffffffffffffff80821115611d3757600080fd5b611d4389838a01611a65565b9650602088013595506040880135915080821115611d6057600080fd5b611d6c89838a01611a65565b94506060880135915080821115611d8257600080fd5b611b9c89838a01611a65565b600060208284031215611da057600080fd5b5035919050565b60005b83811015611dc2578181015183820152602001611daa565b83811115611dd1576000848401525b50505050565b60008151808452611def816020860160208601611da7565b601f01601f19169290920160200192915050565b600081518084526020808501808196508360051b8101915082860160005b85811015611ea7578284038952815160808151818752611e4382880182611dd7565b9150508682015186820388880152611e5b8282611dd7565b91505060408083015187830382890152611e758382611dd7565b9250505060608083015192508682038188015250611e938183611dd7565b9a87019a9550505090840190600101611e21565b5091979650505050505050565b602081526000611ec76020830184611e03565b9392505050565b634e487b7160e01b600052602160045260246000fd5b6000610100808352611ef88184018c611dd7565b90508960208401528860408401528760608401528281036080840152611f1e8188611dd7565b9150508460a083015260038410611f4557634e487b7160e01b600052602160045260246000fd5b60c08201939093526001600160a01b039190911660e0909101529695505050505050565b60008060008060808587031215611f7f57600080fd5b843567ffffffffffffffff80821115611f9757600080fd5b611fa388838901611a65565b95506020870135915080821115611fb957600080fd5b50611fc687828801611a65565b949794965050505060408301359260600135919050565b600081518084526020808501945080840160005b8381101561200d57815187529582019590820190600101611ff1565b509495945050505050565b602081526000611ec76020830184611fdd565b6000806040838503121561203e57600080fd5b823567ffffffffffffffff81111561205557600080fd5b61206185828601611a65565b92505061207060208401611af2565b90509250929050565b60208152815160208201526000602083015160e060408401526120a0610100840182611dd7565b90506040840151601f19808584030160608601526120be8383611dd7565b925060608601516080860152608086015160a086015260a086015160c086015260c08601519150808584030160e0860152506120fa8282611fdd565b95945050505050565b6040815260006121166040830185611e03565b82810360208401526120fa8185611fdd565b60008060006060848603121561213d57600080fd5b8335925060208401359150604084013567ffffffffffffffff81111561216257600080fd5b61216e86828701611a65565b9150509250925092565b634e487b7160e01b600052601160045260246000fd5b60006000198214156121a2576121a2612178565b5060010190565b600082516121bb818460208701611da7565b9190910192915050565b600181811c908216806121d957607f821691505b60208210811415610c3057634e487b7160e01b600052602260045260246000fd5b600080835481600182811c91508083168061221657607f831692505b602080841082141561223657634e487b7160e01b86526022600452602486fd5b81801561224a576001811461225b57612288565b60ff19861689528489019650612288565b60008a81526020902060005b868110156122805781548b820152908501908301612267565b505084890196505b509498975050505050505050565b60208082526048908201527f41636573732044656e6965642c796f75206172656e277420746865206f776e6560408201527f72206f662074686520656c656374696f6e2e77726f6e67206d6574616d61736b606082015267206164647265737360c01b608082015260a00190565b60008282101561231657612316612178565b500390565b602080825260139082015272125b9d985b1a5908115b1958dd1a5bdb881251606a1b604082015260600190565b6020808252600b908201526a57726f6e6720706861736560a81b604082015260600190565b634e487b7160e01b600052603260045260246000fdfea2646970667358221220f4efeca4e3bb8217232d875187e951e34be830133b369127f0cbee22b950846f64736f6c63430008090033",
  "linkReferences": {},
  "deployedLinkReferences": {}
}