{
  "_format": "hh-sol-artifact-1",
  "contractName": "UserInfo",
  "sourceName": "contracts/User.sol",
  "abi": [
    {
      "inputs": [
        {
          "internalType": "string",
          "name": "_name",
          "type": "string"
        },
        {
          "internalType": "uint256",
          "name": "_electionid",
          "type": "uint256"
        },
        {
          "internalType": "string",
          "name": "_party",
          "type": "string"
        },
        {
          "internalType": "string",
          "name": "_image_url",
          "type": "string"
        },
        {
          "internalType": "string",
          "name": "_party_image_url",
          "type": "string"
        }
      ],
      "name": "addCandidates",
      "outputs": [],
      "stateMutability": "nonpayable",
      "type": "function"
    },
    {
      "inputs": [
        {
          "internalType": "uint256",
          "name": "_id",
          "type": "uint256"
        },
        {
          "internalType": "string",
          "name": "password",
          "type": "string"
        }
      ],
      "name": "checkCredentials",
      "outputs": [
        {
          "internalType": "bool",
          "name": "",
          "type": "bool"
        }
      ],
      "stateMutability": "view",
      "type": "function"
    },
    {
      "inputs": [
        {
          "internalType": "uint256",
          "name": "_userid",
          "type": "uint256"
        },
        {
          "internalType": "string",
          "name": "_image_url",
          "type": "string"
        },
        {
          "internalType": "string",
          "name": "_aadhar",
          "type": "string"
        },
        {
          "internalType": "string",
          "name": "_name",
          "type": "string"
        },
        {
          "internalType": "uint256",
          "name": "_start_date",
          "type": "uint256"
        },
        {
          "internalType": "uint256",
          "name": "_end_date",
          "type": "uint256"
        }
      ],
      "name": "createElection",
      "outputs": [],
      "stateMutability": "nonpayable",
      "type": "function"
    },
    {
      "inputs": [
        {
          "internalType": "string",
          "name": "_name",
          "type": "string"
        },
        {
          "internalType": "string",
          "name": "_dob",
          "type": "string"
        },
        {
          "internalType": "string",
          "name": "_aadhar",
          "type": "string"
        },
        {
          "internalType": "address",
          "name": "_addr",
          "type": "address"
        },
        {
          "internalType": "string",
          "name": "password",
          "type": "string"
        }
      ],
      "name": "createUser",
      "outputs": [
        {
          "internalType": "uint256",
          "name": "",
          "type": "uint256"
        }
      ],
      "stateMutability": "nonpayable",
      "type": "function"
    },
    {
      "inputs": [
        {
          "internalType": "uint256",
          "name": "_electionid",
          "type": "uint256"
        },
        {
          "internalType": "uint256",
          "name": "_candidateID",
          "type": "uint256"
        },
        {
          "internalType": "string",
          "name": "_aadhar",
          "type": "string"
        }
      ],
      "name": "doVote",
      "outputs": [
        {
          "internalType": "uint256[]",
          "name": "",
          "type": "uint256[]"
        }
      ],
      "stateMutability": "nonpayable",
      "type": "function"
    },
    {
      "inputs": [
        {
          "internalType": "uint256",
          "name": "",
          "type": "uint256"
        }
      ],
      "name": "elections",
      "outputs": [
        {
          "internalType": "string",
          "name": "name",
          "type": "string"
        },
        {
          "internalType": "uint256",
          "name": "start_date",
          "type": "uint256"
        },
        {
          "internalType": "uint256",
          "name": "end_date",
          "type": "uint256"
        },
        {
          "internalType": "uint256",
          "name": "noOfCandidates",
          "type": "uint256"
        },
        {
          "internalType": "string",
          "name": "image_url",
          "type": "string"
        },
        {
          "internalType": "uint256",
          "name": "totalVoted",
          "type": "uint256"
        },
        {
          "internalType": "enum ElectionInfo.Phase",
          "name": "currPhase",
          "type": "uint8"
        },
        {
          "internalType": "address",
          "name": "ownerAddress",
          "type": "address"
        }
      ],
      "stateMutability": "view",
      "type": "function"
    },
    {
      "inputs": [
        {
          "internalType": "uint256",
          "name": "_electionid",
          "type": "uint256"
        }
      ],
      "name": "endVoting",
      "outputs": [],
      "stateMutability": "nonpayable",
      "type": "function"
    },
    {
      "inputs": [
        {
          "internalType": "uint256",
          "name": "_electionid",
          "type": "uint256"
        }
      ],
      "name": "getCandidates",
      "outputs": [
        {
          "components": [
            {
              "internalType": "string",
              "name": "name",
              "type": "string"
            },
            {
              "internalType": "string",
              "name": "party",
              "type": "string"
            },
            {
              "internalType": "string",
              "name": "image_url",
              "type": "string"
            },
            {
              "internalType": "string",
              "name": "party_image_url",
              "type": "string"
            }
          ],
          "internalType": "struct ElectionInfo.Candidate[]",
          "name": "",
          "type": "tuple[]"
        }
      ],
      "stateMutability": "view",
      "type": "function"
    },
    {
      "inputs": [
        {
          "internalType": "uint256",
          "name": "_electionid",
          "type": "uint256"
        }
      ],
      "name": "getElectionResults",
      "outputs": [
        {
          "components": [
            {
              "internalType": "string",
              "name": "name",
              "type": "string"
            },
            {
              "internalType": "string",
              "name": "party",
              "type": "string"
            },
            {
              "internalType": "string",
              "name": "image_url",
              "type": "string"
            },
            {
              "internalType": "string",
              "name": "party_image_url",
              "type": "string"
            }
          ],
          "internalType": "struct ElectionInfo.Candidate[]",
          "name": "",
          "type": "tuple[]"
        },
        {
          "internalType": "uint256[]",
          "name": "",
          "type": "uint256[]"
        }
      ],
      "stateMutability": "view",
      "type": "function"
    },
    {
      "inputs": [
        {
          "internalType": "uint256",
          "name": "_id",
          "type": "uint256"
        }
      ],
      "name": "getElections",
      "outputs": [
        {
          "internalType": "uint256[]",
          "name": "",
          "type": "uint256[]"
        }
      ],
      "stateMutability": "view",
      "type": "function"
    },
    {
      "inputs": [
        {
          "internalType": "uint256",
          "name": "_id",
          "type": "uint256"
        },
        {
          "internalType": "string",
          "name": "_aadhar",
          "type": "string"
        },
        {
          "internalType": "address",
          "name": "_addr",
          "type": "address"
        }
      ],
      "name": "getUser",
      "outputs": [
        {
          "components": [
            {
              "internalType": "uint256",
              "name": "userId",
              "type": "uint256"
            },
            {
              "internalType": "string",
              "name": "name",
              "type": "string"
            },
            {
              "internalType": "string",
              "name": "dob",
              "type": "string"
            },
            {
              "internalType": "bytes32",
              "name": "aadharHash",
              "type": "bytes32"
            },
            {
              "internalType": "bytes32",
              "name": "metamaskHash",
              "type": "bytes32"
            },
            {
              "internalType": "uint256",
              "name": "noOfElections",
              "type": "uint256"
            },
            {
              "internalType": "uint256[]",
              "name": "elections",
              "type": "uint256[]"
            }
          ],
          "internalType": "struct UserInfo.User",
          "name": "",
          "type": "tuple"
        }
      ],
      "stateMutability": "view",
      "type": "function"
    },
    {
      "inputs": [
        {
          "internalType": "string",
          "name": "_aadhar",
          "type": "string"
        }
      ],
      "name": "hashAadhar",
      "outputs": [
        {
          "internalType": "bytes32",
          "name": "",
          "type": "bytes32"
        }
      ],
      "stateMutability": "pure",
      "type": "function"
    },
    {
      "inputs": [
        {
          "internalType": "string",
          "name": "_name",
          "type": "string"
        },
        {
          "internalType": "string",
          "name": "_image_url",
          "type": "string"
        },
        {
          "internalType": "uint256",
          "name": "_start_date",
          "type": "uint256"
        },
        {
          "internalType": "uint256",
          "name": "_end_date",
          "type": "uint256"
        }
      ],
      "name": "init",
      "outputs": [
        {
          "internalType": "uint256",
          "name": "",
          "type": "uint256"
        }
      ],
      "stateMutability": "nonpayable",
      "type": "function"
    },
    {
      "inputs": [],
      "name": "initializer",
      "outputs": [],
      "stateMutability": "nonpayable",
      "type": "function"
    },
    {
      "inputs": [],
      "name": "noOfUsers",
      "outputs": [
        {
          "internalType": "uint256",
          "name": "",
          "type": "uint256"
        }
      ],
      "stateMutability": "view",
      "type": "function"
    },
    {
      "inputs": [],
      "name": "numberOfElections",
      "outputs": [
        {
          "internalType": "uint256",
          "name": "",
          "type": "uint256"
        }
      ],
      "stateMutability": "view",
      "type": "function"
    },
    {
      "inputs": [
        {
          "internalType": "uint256",
          "name": "_electionid",
          "type": "uint256"
        }
      ],
      "name": "startVoting",
      "outputs": [],
      "stateMutability": "nonpayable",
      "type": "function"
    }
  ],
  "bytecode": "0x608060405234801561001057600080fd5b50612463806100206000396000f3fe608060405234801561001057600080fd5b506004361061010b5760003560e01c8063649f89a5116100a2578063b1c0fbf611610071578063b1c0fbf614610239578063cdc389f614610259578063cdff0b7b14610262578063e8ededa614610275578063ee50344a1461029657600080fd5b8063649f89a5146101e1578063684e29d7146101f457806387c80464146102175780639ce110d71461022a57600080fd5b80633d2f5bda116100de5780633d2f5bda146101675780633e39a7a51461017a57806345a360211461019a5780635e6fef01146101ba57600080fd5b80630114effb1461011057806301934a831461013657806314e0d72b1461013f578063244fac2714610152575b600080fd5b61012361011e366004611bc5565b6102a9565b6040519081526020015b60405180910390f35b61012360045481565b61012361014d366004611c83565b610410565b610165610160366004611cc0565b610440565b005b610165610175366004611d47565b610636565b61018d610188366004611d47565b610738565b60405161012d9190611e6a565b6101ad6101a8366004611e84565b610a6c565b60405161012d9190611f16565b6101cd6101c8366004611d47565b610d99565b60405161012d989796959493929190611fb6565b6101656101ef366004611d47565b610ef6565b61020761020236600461203b565b610ff2565b604051901515815260200161012d565b610123610225366004612082565b611065565b61016560006004819055600155565b61024c610247366004611d47565b6111be565b60405161012d91906120f6565b61012360015481565b610165610270366004612109565b611265565b610288610283366004611d47565b61143f565b60405161012d9291906121ad565b61024c6102a43660046121d2565b6117ca565b6000805b60045481101561035557846040516020016102c89190612222565b60408051601f1981840301815291815281516020928301206000848152600290935291206003015414156103435760405162461bcd60e51b815260206004820152601c60248201527f416164686172732063616e6e6f74206265207573656420616761696e0000000060448201526064015b60405180910390fd5b8061034d81612254565b9150506102ad565b5060045460009081526002602090815260409091208751909161037f9160018401918a0190611a6d565b5085516103959060028301906020890190611a6d565b5061039f85610410565b60038201556103ad84611a4b565b6004808301919091556000600583018190559054808355815260036020908152604090912084516103e092860190611a6d565b50600480549060006103f183612254565b91905055506001600454610405919061226f565b979650505050505050565b6000816040516020016104239190612222565b604051602081830303815290604052805190602001209050919050565b8360015481106104625760405162461bcd60e51b815260040161033a90612286565b60008181526020819052604090206009015461010090046001600160a01b031633146104a05760405162461bcd60e51b815260040161033a906122b3565b60008560015481106104c45760405162461bcd60e51b815260040161033a90612286565b8160028111156104d6576104d6611fa0565b60008281526020819052604090206009015460ff1660028111156104fc576104fc611fa0565b146105195760405162461bcd60e51b815260040161033a90612321565b6105446040518060800160405280606081526020016060815260200160608152602001606081525090565b888152602080820188905260408083018890526060830187905260008a81528083529081206004908101805460018101825590835291839020845180518695949093029091019261059a92849290910190611a6d565b5060208281015180516105b39260018501920190611a6d565b50604082015180516105cf916002840191602090910190611a6d565b50606082015180516105eb916003840191602090910190611a6d565b505050600088815260208181526040822060058101805460018101825590845291832090910182905589825260030180549161062683612254565b9190505550505050505050505050565b8060015481106106585760405162461bcd60e51b815260040161033a90612286565b60008181526020819052604090206009015461010090046001600160a01b031633146106965760405162461bcd60e51b815260040161033a906122b3565b60008260015481106106ba5760405162461bcd60e51b815260040161033a90612286565b8160028111156106cc576106cc611fa0565b60008281526020819052604090206009015460ff1660028111156106f2576106f2611fa0565b1461070f5760405162461bcd60e51b815260040161033a90612321565b600084815260208190526040902060090180546001919060ff191682805b021790555050505050565b606081600154811061075c5760405162461bcd60e51b815260040161033a90612286565b60008181526020819052604090206009015461010090046001600160a01b0316331461079a5760405162461bcd60e51b815260040161033a906122b3565b60015483106107bb5760405162461bcd60e51b815260040161033a90612286565b60008381526020818152604080832060040180548251818502810185019093528083529193909284015b82821015610a5f578382906000526020600020906004020160405180608001604052908160008201805461081890612346565b80601f016020809104026020016040519081016040528092919081815260200182805461084490612346565b80156108915780601f1061086657610100808354040283529160200191610891565b820191906000526020600020905b81548152906001019060200180831161087457829003601f168201915b505050505081526020016001820180546108aa90612346565b80601f01602080910402602001604051908101604052809291908181526020018280546108d690612346565b80156109235780601f106108f857610100808354040283529160200191610923565b820191906000526020600020905b81548152906001019060200180831161090657829003601f168201915b5050505050815260200160028201805461093c90612346565b80601f016020809104026020016040519081016040528092919081815260200182805461096890612346565b80156109b55780601f1061098a576101008083540402835291602001916109b5565b820191906000526020600020905b81548152906001019060200180831161099857829003601f168201915b505050505081526020016003820180546109ce90612346565b80601f01602080910402602001604051908101604052809291908181526020018280546109fa90612346565b8015610a475780601f10610a1c57610100808354040283529160200191610a47565b820191906000526020600020905b815481529060010190602001808311610a2a57829003601f168201915b505050505081525050815260200190600101906107e5565b5050505091505b50919050565b6040805160e08101825260008082526060602083018190529282018390528282018190526080820181905260a082015260c08101919091526004548410610ae65760405162461bcd60e51b815260206004820152600e60248201526d125b9d985b1a59081d5cd95c925160921b604482015260640161033a565b6000848152600260209081526040918290209151610b0691869101612222565b60405160208183030381529060405280519060200120816003015414610b645760405162461bcd60e51b81526020600482015260136024820152722bb937b7339030b0b23430b910373ab6b132b960691b604482015260640161033a565b6040516001600160601b0319606085901b16602082015260340160405160208183030381529060405280519060200120816004015414610bdf5760405162461bcd60e51b815260206004820152601660248201527557726f6e67206d6574616d61736b206164647265737360501b604482015260640161033a565b806040518060e001604052908160008201548152602001600182018054610c0590612346565b80601f0160208091040260200160405190810160405280929190818152602001828054610c3190612346565b8015610c7e5780601f10610c5357610100808354040283529160200191610c7e565b820191906000526020600020905b815481529060010190602001808311610c6157829003601f168201915b50505050508152602001600282018054610c9790612346565b80601f0160208091040260200160405190810160405280929190818152602001828054610cc390612346565b8015610d105780601f10610ce557610100808354040283529160200191610d10565b820191906000526020600020905b815481529060010190602001808311610cf357829003601f168201915b5050505050815260200160038201548152602001600482015481526020016005820154815260200160068201805480602002602001604051908101604052809291908181526020018280548015610d8657602002820191906000526020600020905b815481526020019060010190808311610d72575b5050505050815250509150509392505050565b600060208190529081526040902080548190610db490612346565b80601f0160208091040260200160405190810160405280929190818152602001828054610de090612346565b8015610e2d5780601f10610e0257610100808354040283529160200191610e2d565b820191906000526020600020905b815481529060010190602001808311610e1057829003601f168201915b505050505090806001015490806002015490806003015490806006018054610e5490612346565b80601f0160208091040260200160405190810160405280929190818152602001828054610e8090612346565b8015610ecd5780601f10610ea257610100808354040283529160200191610ecd565b820191906000526020600020905b815481529060010190602001808311610eb057829003601f168201915b50505050600783015460099093015491929160ff8116915061010090046001600160a01b031688565b806001548110610f185760405162461bcd60e51b815260040161033a90612286565b60008181526020819052604090206009015461010090046001600160a01b03163314610f565760405162461bcd60e51b815260040161033a906122b3565b6001826001548110610f7a5760405162461bcd60e51b815260040161033a90612286565b816002811115610f8c57610f8c611fa0565b60008281526020819052604090206009015460ff166002811115610fb257610fb2611fa0565b14610fcf5760405162461bcd60e51b815260040161033a90612321565b600084815260208190526040902060090180546002919060ff191660018361072d565b6000816040516020016110059190612222565b60408051601f19818403018152828252805160209182012060008781526003835292909220919261103792910161237b565b60405160208183030381529060405280519060200120141561105b5750600161105f565b5060005b92915050565b60015460009081526020819052604081204284116110d55760405162461bcd60e51b815260206004820152602760248201527f54686520737461727420646174652073686f756c64206265206461746520696e6044820152662066757475726560c81b606482015260840161033a565b83831161113b5760405162461bcd60e51b815260206004820152602e60248201527f54686520656e6420646174652073686f756c64206265206168656164206f662060448201526d746865207374617274206461746560901b606482015260840161033a565b855161114d9082906020890190611a6d565b506001818101859055600282018490556009820180546001600160a81b031916336101000260ff1916179055600060078301819055600383018190558154919061119683612254565b909155505084516111b09060068301906020880190611a6d565b505060015495945050505050565b606060045482106112025760405162461bcd60e51b815260206004820152600e60248201526d125b9d985b1a5908155cd95c925160921b604482015260640161033a565b6000828152600260209081526040918290206006018054835181840281018401909452808452909183018282801561125957602002820191906000526020600020905b815481526020019060010190808311611245575b50505050509050919050565b60045486106112a75760405162461bcd60e51b815260206004820152600e60248201526d125b9d985b1a59081d5cd95c925160921b604482015260640161033a565b8082106113025760405162461bcd60e51b8152602060048201526024808201527f537461727420446174652073686f756c64206265206265666f726520456e64206044820152634461746560e01b606482015260840161033a565b6000868152600260209081526040918290209151339161132491889101612222565b604051602081830303815290604052805190602001208260030154146113825760405162461bcd60e51b81526020600482015260136024820152722bb937b7339030b0b23430b910373ab6b132b960691b604482015260640161033a565b6040516001600160601b0319606083901b166020820152603401604051602081830303815290604052805190602001208260040154146113d45760405162461bcd60e51b815260040161033a906122b3565b60008881526002602052604081206005018054916113f183612254565b909155505060008881526002602052604090206006016001611415878a8888611065565b61141f919061226f565b815460018101835560009283526020909220909101555050505050505050565b60608060028360015481106114665760405162461bcd60e51b815260040161033a90612286565b81600281111561147857611478611fa0565b60008281526020819052604090206009015460ff16600281111561149e5761149e611fa0565b146114bb5760405162461bcd60e51b815260040161033a90612321565b600085815260208181526040808320600481018054835181860281018601909452808452909460059092019385929084015b82821015611767578382906000526020600020906004020160405180608001604052908160008201805461152090612346565b80601f016020809104026020016040519081016040528092919081815260200182805461154c90612346565b80156115995780601f1061156e57610100808354040283529160200191611599565b820191906000526020600020905b81548152906001019060200180831161157c57829003601f168201915b505050505081526020016001820180546115b290612346565b80601f01602080910402602001604051908101604052809291908181526020018280546115de90612346565b801561162b5780601f106116005761010080835404028352916020019161162b565b820191906000526020600020905b81548152906001019060200180831161160e57829003601f168201915b5050505050815260200160028201805461164490612346565b80601f016020809104026020016040519081016040528092919081815260200182805461167090612346565b80156116bd5780601f10611692576101008083540402835291602001916116bd565b820191906000526020600020905b8154815290600101906020018083116116a057829003601f168201915b505050505081526020016003820180546116d690612346565b80601f016020809104026020016040519081016040528092919081815260200182805461170290612346565b801561174f5780601f106117245761010080835404028352916020019161174f565b820191906000526020600020905b81548152906001019060200180831161173257829003601f168201915b505050505081525050815260200190600101906114ed565b505050509150808054806020026020016040519081016040528092919081815260200182805480156117b857602002820191906000526020600020905b8154815260200190600101908083116117a4575b50505050509050935093505050915091565b606060018460015481106117f05760405162461bcd60e51b815260040161033a90612286565b81600281111561180257611802611fa0565b60008281526020819052604090206009015460ff16600281111561182857611828611fa0565b146118455760405162461bcd60e51b815260040161033a90612321565b60008681526020819052604090206003015485108015611863575060015b6118a65760405162461bcd60e51b8152602060048201526014602482015273125b9d985b1a590810d85b991a59185d1948125160621b604482015260640161033a565b6000808781526020019081526020016000206008016000856040516020016118ce9190612222565b60408051601f198184030181529181528151602092830120835290820192909252016000205460ff16156119445760405162461bcd60e51b815260206004820152601760248201527f566f7465722068617320616c726561647920766f746564000000000000000000604482015260640161033a565b600086815260208190526040902060050180548690811061196757611967612417565b6000918252602082200180549161197d83612254565b9190505550600160008088815260200190815260200160002060080160006119a487610410565b815260208082019290925260409081016000908120805460ff1916941515949094179093558883529082905281206007018054916119e183612254565b90915550506000868152602081815260409182902060050180548351818402810184019094528084529091830182828015611a3b57602002820191906000526020600020905b815481526020019060010190808311611a27575b5050505050925050509392505050565b6040516001600160601b0319606083901b166020820152600090603401610423565b828054611a7990612346565b90600052602060002090601f016020900481019282611a9b5760008555611ae1565b82601f10611ab457805160ff1916838001178555611ae1565b82800160010185558215611ae1579182015b82811115611ae1578251825591602001919060010190611ac6565b50611aed929150611af1565b5090565b5b80821115611aed5760008155600101611af2565b634e487b7160e01b600052604160045260246000fd5b600082601f830112611b2d57600080fd5b813567ffffffffffffffff80821115611b4857611b48611b06565b604051601f8301601f19908116603f01168101908282118183101715611b7057611b70611b06565b81604052838152866020858801011115611b8957600080fd5b836020870160208301376000602085830101528094505050505092915050565b80356001600160a01b0381168114611bc057600080fd5b919050565b600080600080600060a08688031215611bdd57600080fd5b853567ffffffffffffffff80821115611bf557600080fd5b611c0189838a01611b1c565b96506020880135915080821115611c1757600080fd5b611c2389838a01611b1c565b95506040880135915080821115611c3957600080fd5b611c4589838a01611b1c565b9450611c5360608901611ba9565b93506080880135915080821115611c6957600080fd5b50611c7688828901611b1c565b9150509295509295909350565b600060208284031215611c9557600080fd5b813567ffffffffffffffff811115611cac57600080fd5b611cb884828501611b1c565b949350505050565b600080600080600060a08688031215611cd857600080fd5b853567ffffffffffffffff80821115611cf057600080fd5b611cfc89838a01611b1c565b9650602088013595506040880135915080821115611d1957600080fd5b611d2589838a01611b1c565b94506060880135915080821115611d3b57600080fd5b611c5389838a01611b1c565b600060208284031215611d5957600080fd5b5035919050565b60005b83811015611d7b578181015183820152602001611d63565b83811115611d8a576000848401525b50505050565b60008151808452611da8816020860160208601611d60565b601f01601f19169290920160200192915050565b6000815180845260208085019450848260051b860182860160005b85811015611e5d578383038952815160808151818652611df982870182611d90565b9150508682015185820388870152611e118282611d90565b91505060408083015186830382880152611e2b8382611d90565b9250505060608083015192508582038187015250611e498183611d90565b9a87019a9450505090840190600101611dd7565b5090979650505050505050565b602081526000611e7d6020830184611dbc565b9392505050565b600080600060608486031215611e9957600080fd5b83359250602084013567ffffffffffffffff811115611eb757600080fd5b611ec386828701611b1c565b925050611ed260408501611ba9565b90509250925092565b600081518084526020808501945080840160005b83811015611f0b57815187529582019590820190600101611eef565b509495945050505050565b60208152815160208201526000602083015160e06040840152611f3d610100840182611d90565b90506040840151601f1980858403016060860152611f5b8383611d90565b925060608601516080860152608086015160a086015260a086015160c086015260c08601519150808584030160e086015250611f978282611edb565b95945050505050565b634e487b7160e01b600052602160045260246000fd5b6000610100808352611fca8184018c611d90565b90508960208401528860408401528760608401528281036080840152611ff08188611d90565b9150508460a08301526003841061201757634e487b7160e01b600052602160045260246000fd5b60c08201939093526001600160a01b039190911660e0909101529695505050505050565b6000806040838503121561204e57600080fd5b82359150602083013567ffffffffffffffff81111561206c57600080fd5b61207885828601611b1c565b9150509250929050565b6000806000806080858703121561209857600080fd5b843567ffffffffffffffff808211156120b057600080fd5b6120bc88838901611b1c565b955060208701359150808211156120d257600080fd5b506120df87828801611b1c565b949794965050505060408301359260600135919050565b602081526000611e7d6020830184611edb565b60008060008060008060c0878903121561212257600080fd5b86359550602087013567ffffffffffffffff8082111561214157600080fd5b61214d8a838b01611b1c565b9650604089013591508082111561216357600080fd5b61216f8a838b01611b1c565b9550606089013591508082111561218557600080fd5b5061219289828a01611b1c565b9350506080870135915060a087013590509295509295509295565b6040815260006121c06040830185611dbc565b8281036020840152611f978185611edb565b6000806000606084860312156121e757600080fd5b8335925060208401359150604084013567ffffffffffffffff81111561220c57600080fd5b61221886828701611b1c565b9150509250925092565b60008251612234818460208701611d60565b9190910192915050565b634e487b7160e01b600052601160045260246000fd5b60006000198214156122685761226861223e565b5060010190565b6000828210156122815761228161223e565b500390565b602080825260139082015272125b9d985b1a5908115b1958dd1a5bdb881251606a1b604082015260600190565b60208082526048908201527f41636573732044656e6965642c796f75206172656e277420746865206f776e6560408201527f72206f662074686520656c656374696f6e2e77726f6e67206d6574616d61736b606082015267206164647265737360c01b608082015260a00190565b6020808252600b908201526a57726f6e6720706861736560a81b604082015260600190565b600181811c9082168061235a57607f821691505b60208210811415610a6657634e487b7160e01b600052602260045260246000fd5b600080835481600182811c91508083168061239757607f831692505b60208084108214156123b757634e487b7160e01b86526022600452602486fd5b8180156123cb57600181146123dc57612409565b60ff19861689528489019650612409565b60008a81526020902060005b868110156124015781548b8201529085019083016123e8565b505084890196505b509498975050505050505050565b634e487b7160e01b600052603260045260246000fdfea26469706673582212209aa9013987ba424c6036291aa70ef34fe7e5f5c0ba4b79e6c5ad21bc8c3ebe8464736f6c63430008090033",
  "linkReferences": {},
  "deployedLinkReferences": {}
}