{
  "_format": "hh-sol-artifact-1",
  "contractName": "UserInfo",
  "sourceName": "contracts/User.sol",
  "abi": [
    {
      "inputs": [
        {
          "internalType": "string",
          "name": "_name",
          "type": "string"
        },
        {
          "internalType": "uint256",
          "name": "_electionid",
          "type": "uint256"
        },
        {
          "internalType": "string",
          "name": "_party",
          "type": "string"
        },
        {
          "internalType": "string",
          "name": "_image_url",
          "type": "string"
        },
        {
          "internalType": "string",
          "name": "_party_image_url",
          "type": "string"
        },
        {
          "internalType": "string",
          "name": "_aadhar",
          "type": "string"
        }
      ],
      "name": "addCandidates",
      "outputs": [],
      "stateMutability": "nonpayable",
      "type": "function"
    },
    {
      "inputs": [
        {
          "internalType": "string",
          "name": "_aadhar",
          "type": "string"
        },
        {
          "internalType": "string",
          "name": "password",
          "type": "string"
        }
      ],
      "name": "checkCredentials",
      "outputs": [
        {
          "internalType": "bool",
          "name": "",
          "type": "bool"
        }
      ],
      "stateMutability": "view",
      "type": "function"
    },
    {
      "inputs": [
        {
          "internalType": "string",
          "name": "_image_url",
          "type": "string"
        },
        {
          "internalType": "string",
          "name": "_aadhar",
          "type": "string"
        },
        {
          "internalType": "string",
          "name": "_name",
          "type": "string"
        },
        {
          "internalType": "uint256",
          "name": "_start_date",
          "type": "uint256"
        },
        {
          "internalType": "uint256",
          "name": "_end_date",
          "type": "uint256"
        }
      ],
      "name": "createElection",
      "outputs": [
        {
          "internalType": "uint256",
          "name": "",
          "type": "uint256"
        }
      ],
      "stateMutability": "nonpayable",
      "type": "function"
    },
    {
      "inputs": [
        {
          "internalType": "string",
          "name": "_name",
          "type": "string"
        },
        {
          "internalType": "string",
          "name": "_dob",
          "type": "string"
        },
        {
          "internalType": "string",
          "name": "_aadhar",
          "type": "string"
        },
        {
          "internalType": "string",
          "name": "password",
          "type": "string"
        }
      ],
      "name": "createUser",
      "outputs": [
        {
          "internalType": "bytes32",
          "name": "",
          "type": "bytes32"
        }
      ],
      "stateMutability": "nonpayable",
      "type": "function"
    },
    {
      "inputs": [
        {
          "internalType": "uint256",
          "name": "_electionid",
          "type": "uint256"
        },
        {
          "internalType": "uint256",
          "name": "_candidateID",
          "type": "uint256"
        },
        {
          "internalType": "string",
          "name": "_aadhar",
          "type": "string"
        }
      ],
      "name": "doVote",
      "outputs": [
        {
          "internalType": "uint256[]",
          "name": "",
          "type": "uint256[]"
        }
      ],
      "stateMutability": "nonpayable",
      "type": "function"
    },
    {
      "inputs": [
        {
          "internalType": "uint256",
          "name": "",
          "type": "uint256"
        }
      ],
      "name": "elections",
      "outputs": [
        {
          "internalType": "string",
          "name": "name",
          "type": "string"
        },
        {
          "internalType": "uint256",
          "name": "start_date",
          "type": "uint256"
        },
        {
          "internalType": "uint256",
          "name": "end_date",
          "type": "uint256"
        },
        {
          "internalType": "uint256",
          "name": "noOfCandidates",
          "type": "uint256"
        },
        {
          "internalType": "string",
          "name": "image_url",
          "type": "string"
        },
        {
          "internalType": "uint256",
          "name": "totalVoted",
          "type": "uint256"
        },
        {
          "internalType": "enum ElectionInfo.Phase",
          "name": "currPhase",
          "type": "uint8"
        },
        {
          "internalType": "bytes32",
          "name": "aadharhash",
          "type": "bytes32"
        }
      ],
      "stateMutability": "view",
      "type": "function"
    },
    {
      "inputs": [
        {
          "internalType": "uint256",
          "name": "_electionid",
          "type": "uint256"
        },
        {
          "internalType": "string",
          "name": "_aadhar",
          "type": "string"
        }
      ],
      "name": "endVoting",
      "outputs": [],
      "stateMutability": "nonpayable",
      "type": "function"
    },
    {
      "inputs": [],
      "name": "getAllElections",
      "outputs": [
        {
          "components": [
            {
              "internalType": "string",
              "name": "name",
              "type": "string"
            },
            {
              "internalType": "uint256",
              "name": "start_date",
              "type": "uint256"
            },
            {
              "internalType": "uint256",
              "name": "end_date",
              "type": "uint256"
            },
            {
              "internalType": "uint256",
              "name": "noOfCandidates",
              "type": "uint256"
            },
            {
              "components": [
                {
                  "internalType": "string",
                  "name": "name",
                  "type": "string"
                },
                {
                  "internalType": "string",
                  "name": "party",
                  "type": "string"
                },
                {
                  "internalType": "string",
                  "name": "image_url",
                  "type": "string"
                },
                {
                  "internalType": "string",
                  "name": "party_image_url",
                  "type": "string"
                }
              ],
              "internalType": "struct ElectionInfo.Candidate[]",
              "name": "candidates",
              "type": "tuple[]"
            },
            {
              "internalType": "string",
              "name": "image_url",
              "type": "string"
            },
            {
              "internalType": "uint256",
              "name": "totalVoted",
              "type": "uint256"
            },
            {
              "internalType": "enum ElectionInfo.Phase",
              "name": "currPhase",
              "type": "uint8"
            }
          ],
          "internalType": "struct ElectionInfo.returnElection[]",
          "name": "",
          "type": "tuple[]"
        }
      ],
      "stateMutability": "view",
      "type": "function"
    },
    {
      "inputs": [
        {
          "internalType": "uint256",
          "name": "_electionid",
          "type": "uint256"
        },
        {
          "internalType": "string",
          "name": "_aadhar",
          "type": "string"
        }
      ],
      "name": "getCandidates",
      "outputs": [
        {
          "components": [
            {
              "internalType": "string",
              "name": "name",
              "type": "string"
            },
            {
              "internalType": "string",
              "name": "party",
              "type": "string"
            },
            {
              "internalType": "string",
              "name": "image_url",
              "type": "string"
            },
            {
              "internalType": "string",
              "name": "party_image_url",
              "type": "string"
            }
          ],
          "internalType": "struct ElectionInfo.Candidate[]",
          "name": "",
          "type": "tuple[]"
        }
      ],
      "stateMutability": "view",
      "type": "function"
    },
    {
      "inputs": [
        {
          "internalType": "uint256",
          "name": "_id",
          "type": "uint256"
        }
      ],
      "name": "getElectionById",
      "outputs": [
        {
          "components": [
            {
              "internalType": "string",
              "name": "name",
              "type": "string"
            },
            {
              "internalType": "uint256",
              "name": "start_date",
              "type": "uint256"
            },
            {
              "internalType": "uint256",
              "name": "end_date",
              "type": "uint256"
            },
            {
              "internalType": "uint256",
              "name": "noOfCandidates",
              "type": "uint256"
            },
            {
              "components": [
                {
                  "internalType": "string",
                  "name": "name",
                  "type": "string"
                },
                {
                  "internalType": "string",
                  "name": "party",
                  "type": "string"
                },
                {
                  "internalType": "string",
                  "name": "image_url",
                  "type": "string"
                },
                {
                  "internalType": "string",
                  "name": "party_image_url",
                  "type": "string"
                }
              ],
              "internalType": "struct ElectionInfo.Candidate[]",
              "name": "candidates",
              "type": "tuple[]"
            },
            {
              "internalType": "string",
              "name": "image_url",
              "type": "string"
            },
            {
              "internalType": "uint256",
              "name": "totalVoted",
              "type": "uint256"
            },
            {
              "internalType": "enum ElectionInfo.Phase",
              "name": "currPhase",
              "type": "uint8"
            }
          ],
          "internalType": "struct ElectionInfo.returnElection",
          "name": "",
          "type": "tuple"
        }
      ],
      "stateMutability": "view",
      "type": "function"
    },
    {
      "inputs": [
        {
          "internalType": "uint256",
          "name": "_electionid",
          "type": "uint256"
        }
      ],
      "name": "getElectionResults",
      "outputs": [
        {
          "components": [
            {
              "internalType": "string",
              "name": "name",
              "type": "string"
            },
            {
              "internalType": "string",
              "name": "party",
              "type": "string"
            },
            {
              "internalType": "string",
              "name": "image_url",
              "type": "string"
            },
            {
              "internalType": "string",
              "name": "party_image_url",
              "type": "string"
            }
          ],
          "internalType": "struct ElectionInfo.Candidate[]",
          "name": "",
          "type": "tuple[]"
        },
        {
          "internalType": "uint256[]",
          "name": "",
          "type": "uint256[]"
        }
      ],
      "stateMutability": "view",
      "type": "function"
    },
    {
      "inputs": [
        {
          "internalType": "string",
          "name": "_aadhar",
          "type": "string"
        }
      ],
      "name": "getElections",
      "outputs": [
        {
          "internalType": "uint256[]",
          "name": "",
          "type": "uint256[]"
        }
      ],
      "stateMutability": "view",
      "type": "function"
    },
    {
      "inputs": [],
      "name": "getPhase",
      "outputs": [
        {
          "internalType": "enum ElectionInfo.Phase[]",
          "name": "",
          "type": "uint8[]"
        }
      ],
      "stateMutability": "view",
      "type": "function"
    },
    {
      "inputs": [
        {
          "internalType": "string",
          "name": "_aadhar",
          "type": "string"
        }
      ],
      "name": "getUser",
      "outputs": [
        {
          "components": [
            {
              "internalType": "uint256",
              "name": "userId",
              "type": "uint256"
            },
            {
              "internalType": "string",
              "name": "name",
              "type": "string"
            },
            {
              "internalType": "string",
              "name": "dob",
              "type": "string"
            },
            {
              "internalType": "bytes32",
              "name": "aadharHash",
              "type": "bytes32"
            },
            {
              "internalType": "uint256",
              "name": "noOfElections",
              "type": "uint256"
            },
            {
              "internalType": "uint256[]",
              "name": "elections",
              "type": "uint256[]"
            }
          ],
          "internalType": "struct UserInfo.User",
          "name": "",
          "type": "tuple"
        }
      ],
      "stateMutability": "view",
      "type": "function"
    },
    {
      "inputs": [
        {
          "internalType": "string",
          "name": "_aadhar",
          "type": "string"
        }
      ],
      "name": "hashAadhar",
      "outputs": [
        {
          "internalType": "bytes32",
          "name": "",
          "type": "bytes32"
        }
      ],
      "stateMutability": "pure",
      "type": "function"
    },
    {
      "inputs": [
        {
          "internalType": "string",
          "name": "_name",
          "type": "string"
        },
        {
          "internalType": "string",
          "name": "_image_url",
          "type": "string"
        },
        {
          "internalType": "uint256",
          "name": "_start_date",
          "type": "uint256"
        },
        {
          "internalType": "uint256",
          "name": "_end_date",
          "type": "uint256"
        },
        {
          "internalType": "string",
          "name": "_aadhar",
          "type": "string"
        }
      ],
      "name": "init",
      "outputs": [
        {
          "internalType": "uint256",
          "name": "",
          "type": "uint256"
        }
      ],
      "stateMutability": "nonpayable",
      "type": "function"
    },
    {
      "inputs": [],
      "name": "initializer",
      "outputs": [],
      "stateMutability": "nonpayable",
      "type": "function"
    },
    {
      "inputs": [],
      "name": "noOfUsers",
      "outputs": [
        {
          "internalType": "uint256",
          "name": "",
          "type": "uint256"
        }
      ],
      "stateMutability": "view",
      "type": "function"
    },
    {
      "inputs": [],
      "name": "numberOfElections",
      "outputs": [
        {
          "internalType": "uint256",
          "name": "",
          "type": "uint256"
        }
      ],
      "stateMutability": "view",
      "type": "function"
    },
    {
      "inputs": [
        {
          "internalType": "uint256",
          "name": "_electionid",
          "type": "uint256"
        },
        {
          "internalType": "string",
          "name": "_aadhar",
          "type": "string"
        }
      ],
      "name": "startVoting",
      "outputs": [],
      "stateMutability": "nonpayable",
      "type": "function"
    }
  ],
  "bytecode": "0x608060405234801561001057600080fd5b50612ad4806100206000396000f3fe608060405234801561001057600080fd5b506004361061012c5760003560e01c80637fd5f268116100ad578063c6958b1211610071578063c6958b12146102a3578063cdc389f6146102c3578063e8ededa6146102cc578063eced0280146102ed578063ee50344a1461030257600080fd5b80637fd5f2681461022b57806392721cff14610240578063929f78d2146102605780639ce110d714610280578063b1330ca91461029057600080fd5b806331feb671116100f457806331feb671146101ab578063450a0a4b146101cb5780635e6fef01146101de5780636f7fcddb146102055780637b4d5c1b1461021857600080fd5b8063012ab8f11461013157806301934a831461015957806314e0d72b1461017057806319b99e031461018357806327271a9114610196575b600080fd5b61014461013f36600461204f565b610315565b60405190151581526020015b60405180910390f35b61016260045481565b604051908152602001610150565b61016261017e3660046120b2565b610398565b6101626101913660046120ee565b6103c8565b6101a96101a4366004612187565b6104f4565b005b6101be6101b93660046120b2565b6106e7565b60405161015091906122bc565b6101626101d9366004612364565b610946565b6101f16101ec3660046123ff565b610a9e565b604051610150989796959493929190612450565b6101626102133660046124b3565b610bf4565b6101a961022636600461255f565b610cf1565b610233610df1565b60405161015091906126db565b61025361024e36600461255f565b610e97565b604051610150919061273d565b61027361026e3660046120b2565b6111c7565b6040516101509190612792565b6101a96001600481905560009055565b6101a961029e36600461255f565b61128a565b6102b66102b13660046123ff565b611380565b60405161015091906127a5565b61016260015481565b6102df6102da3660046123ff565b611766565b6040516101509291906127b8565b6102f5611af1565b60405161015091906127e6565b610273610310366004612831565b611bb5565b60008061032184610398565b9050826040516020016103349190612880565b60408051601f1981840301815282825280516020918201206000858152600383529290922091926103669291016128d1565b60405160208183030381529060405280519060200120141561038c576001915050610392565b60009150505b92915050565b6000816040516020016103ab9190612880565b604051602081830303815290604052805190602001209050919050565b6000806103d486610398565b600081815260026020526040902060030154909150811461042b5760405162461bcd60e51b815260206004820152600c60248201526b24b73b30b634b2103ab9b2b960a11b60448201526064015b60405180910390fd5b8284106104865760405162461bcd60e51b8152602060048201526024808201527f537461727420446174652073686f756c64206265206265666f726520456e64206044820152634461746560e01b6064820152608401610422565b60008181526002602052604081206004018054916104a383612983565b9190505550600060016104b9878a88888c610946565b6104c3919061299e565b6000928352600260209081526040842060050180546001810182559085529320909201829055509695505050505050565b848160015482106105175760405162461bcd60e51b8152600401610422906129b5565b6000828152602081905260409020600a015461053282610398565b1461054f5760405162461bcd60e51b8152600401610422906129e2565b60008760015481106105735760405162461bcd60e51b8152600401610422906129b5565b81600281111561058557610585612418565b60008281526020819052604090206009015460ff1660028111156105ab576105ab612418565b146105c85760405162461bcd60e51b815260040161042290612a4b565b6105f36040518060800160405280606081526020016060815260200160608152602001606081525090565b8a815260208082018a905260408083018a90526060830189905260008c81528083529081206004908101805460018101825590835291839020845180518695949093029091019261064992849290910190611ebf565b5060208281015180516106629260018501920190611ebf565b506040820151805161067e916002840191602090910190611ebf565b506060820151805161069a916003840191602090910190611ebf565b50505060008a81526020818152604082206005810180546001810182559084529183209091018290558b82526003018054916106d583612983565b91905055505050505050505050505050565b6107236040518060c001604052806000815260200160608152602001606081526020016000801916815260200160008152602001606081525090565b600061072e83610398565b60008181526002602052604090206003015490915081146107805760405162461bcd60e51b815260206004820152600c60248201526b24b73b30b634b2103ab9b2b960a11b6044820152606401610422565b6000600260008381526020019081526020016000209050806040518060c0016040529081600082015481526020016001820180546107bd9061289c565b80601f01602080910402602001604051908101604052809291908181526020018280546107e99061289c565b80156108365780601f1061080b57610100808354040283529160200191610836565b820191906000526020600020905b81548152906001019060200180831161081957829003601f168201915b5050505050815260200160028201805461084f9061289c565b80601f016020809104026020016040519081016040528092919081815260200182805461087b9061289c565b80156108c85780601f1061089d576101008083540402835291602001916108c8565b820191906000526020600020905b8154815290600101906020018083116108ab57829003601f168201915b5050505050815260200160038201548152602001600482015481526020016005820180548060200260200160405190810160405280929190818152602001828054801561093457602002820191906000526020600020905b815481526020019060010190808311610920575b50505050508152505092505050919050565b60015460009081526020819052604081204285116109b65760405162461bcd60e51b815260206004820152602760248201527f54686520737461727420646174652073686f756c64206265206461746520696e6044820152662066757475726560c81b6064820152608401610422565b848411610a1c5760405162461bcd60e51b815260206004820152602e60248201527f54686520656e6420646174652073686f756c64206265206168656164206f662060448201526d746865207374617274206461746560901b6064820152608401610422565b8651610a2e90829060208a0190611ebf565b506001810185905560028101849055610a4683610398565b600a82015560098101805460ff19169055600060078201819055600382018190556001805491610a7583612983565b90915550508551610a8f9060068301906020890190611ebf565b50506001549695505050505050565b600060208190529081526040902080548190610ab99061289c565b80601f0160208091040260200160405190810160405280929190818152602001828054610ae59061289c565b8015610b325780601f10610b0757610100808354040283529160200191610b32565b820191906000526020600020905b815481529060010190602001808311610b1557829003601f168201915b505050505090806001015490806002015490806003015490806006018054610b599061289c565b80601f0160208091040260200160405190810160405280929190818152602001828054610b859061289c565b8015610bd25780601f10610ba757610100808354040283529160200191610bd2565b820191906000526020600020905b815481529060010190602001808311610bb557829003601f168201915b5050505060078301546009840154600a909401549293909260ff909116915088565b600080610c0084610398565b600081815260026020526040902060030154909150811415610c645760405162461bcd60e51b815260206004820152601c60248201527f416164686172732063616e6e6f74206265207573656420616761696e000000006044820152606401610422565b600081815260026020908152604090912087519091610c8a9160018401918a0190611ebf565b508551610ca09060028301906020890190611ebf565b506003808201839055600060048084018290555483558381526020918252604090208551610cd092870190611ebf565b5060048054906000610ce183612983565b9091555091979650505050505050565b81816001548210610d145760405162461bcd60e51b8152600401610422906129b5565b6000828152602081905260409020600a0154610d2f82610398565b14610d4c5760405162461bcd60e51b8152600401610422906129e2565b6001846001548110610d705760405162461bcd60e51b8152600401610422906129b5565b816002811115610d8257610d82612418565b60008281526020819052604090206009015460ff166002811115610da857610da8612418565b14610dc55760405162461bcd60e51b815260040161042290612a4b565b600086815260208190526040902060090180546002919060ff19166001835b0217905550505050505050565b606060006001546001600160401b03811115610e0f57610e0f611fad565b604051908082528060200260200182016040528015610e4857816020015b610e35611f43565b815260200190600190039081610e2d5790505b50905060005b600154811015610e9157610e6181611380565b828281518110610e7357610e73612a70565b60200260200101819052508080610e8990612983565b915050610e4e565b50919050565b606082826001548210610ebc5760405162461bcd60e51b8152600401610422906129b5565b6000828152602081905260409020600a0154610ed782610398565b14610ef45760405162461bcd60e51b8152600401610422906129e2565b6001548510610f155760405162461bcd60e51b8152600401610422906129b5565b60008581526020818152604080832060040180548251818502810185019093528083529193909284015b828210156111b95783829060005260206000209060040201604051806080016040529081600082018054610f729061289c565b80601f0160208091040260200160405190810160405280929190818152602001828054610f9e9061289c565b8015610feb5780601f10610fc057610100808354040283529160200191610feb565b820191906000526020600020905b815481529060010190602001808311610fce57829003601f168201915b505050505081526020016001820180546110049061289c565b80601f01602080910402602001604051908101604052809291908181526020018280546110309061289c565b801561107d5780601f106110525761010080835404028352916020019161107d565b820191906000526020600020905b81548152906001019060200180831161106057829003601f168201915b505050505081526020016002820180546110969061289c565b80601f01602080910402602001604051908101604052809291908181526020018280546110c29061289c565b801561110f5780601f106110e45761010080835404028352916020019161110f565b820191906000526020600020905b8154815290600101906020018083116110f257829003601f168201915b505050505081526020016003820180546111289061289c565b80601f01602080910402602001604051908101604052809291908181526020018280546111549061289c565b80156111a15780601f10611176576101008083540402835291602001916111a1565b820191906000526020600020905b81548152906001019060200180831161118457829003601f168201915b50505050508152505081526020019060010190610f3f565b505050509250505092915050565b606060006111d483610398565b60008181526002602052604090206003015490915081146112265760405162461bcd60e51b815260206004820152600c60248201526b24b73b30b634b2102ab9b2b960a11b6044820152606401610422565b6000818152600260209081526040918290206005018054835181840281018401909452808452909183018282801561127d57602002820191906000526020600020905b815481526020019060010190808311611269575b5050505050915050919050565b818160015482106112ad5760405162461bcd60e51b8152600401610422906129b5565b6000828152602081905260409020600a01546112c882610398565b146112e55760405162461bcd60e51b8152600401610422906129e2565b60008460015481106113095760405162461bcd60e51b8152600401610422906129b5565b81600281111561131b5761131b612418565b60008281526020819052604090206009015460ff16600281111561134157611341612418565b1461135e5760405162461bcd60e51b815260040161042290612a4b565b600086815260208190526040902060090180546001919060ff19168280610de4565b611388611f43565b60015482106113a95760405162461bcd60e51b8152600401610422906129b5565b6113b1611f43565b6000838152602081905260409020805461145291906113cf9061289c565b80601f01602080910402602001604051908101604052809291908181526020018280546113fb9061289c565b80156114485780601f1061141d57610100808354040283529160200191611448565b820191906000526020600020905b81548152906001019060200180831161142b57829003601f168201915b5050505050611e36565b8152600083815260208181526040808320600181015483860152600281015491850191909152858352919052600301546001600160401b0381111561149957611499611fad565b6040519080825280602002602001820160405280156114f557816020015b6114e26040518060800160405280606081526020016060815260200160608152602001606081525090565b8152602001906001900390816114b75790505b50608082015260005b6000848152602081905260409020600301548110156116d25761155c600080868152602001908152602001600020600401828154811061154057611540612a70565b906000526020600020906004020160000180546113cf9061289c565b8260800151828151811061157257611572612a70565b6020026020010151600001819052506115c660008086815260200190815260200160002060040182815481106115aa576115aa612a70565b906000526020600020906004020160010180546113cf9061289c565b826080015182815181106115dc576115dc612a70565b602002602001015160200181905250611630600080868152602001908152602001600020600401828154811061161457611614612a70565b906000526020600020906004020160020180546113cf9061289c565b8260800151828151811061164657611646612a70565b60200260200101516040018190525061169a600080868152602001908152602001600020600401828154811061167e5761167e612a70565b906000526020600020906004020160030180546113cf9061289c565b826080015182815181106116b0576116b0612a70565b60200260200101516060018190525080806116ca90612983565b9150506114fe565b50600083815260208190526040902060060180546116f491906113cf9061289c565b60a08201526000838152602081815260408220600381015460608501528583529190526009015460e082019060ff16600281111561173457611734612418565b9081600281111561174757611747612418565b9052506000928352602083905260409092206007015460c08301525090565b606080600283600154811061178d5760405162461bcd60e51b8152600401610422906129b5565b81600281111561179f5761179f612418565b60008281526020819052604090206009015460ff1660028111156117c5576117c5612418565b146117e25760405162461bcd60e51b815260040161042290612a4b565b600085815260208181526040808320600481018054835181860281018601909452808452909460059092019385929084015b82821015611a8e57838290600052602060002090600402016040518060800160405290816000820180546118479061289c565b80601f01602080910402602001604051908101604052809291908181526020018280546118739061289c565b80156118c05780601f10611895576101008083540402835291602001916118c0565b820191906000526020600020905b8154815290600101906020018083116118a357829003601f168201915b505050505081526020016001820180546118d99061289c565b80601f01602080910402602001604051908101604052809291908181526020018280546119059061289c565b80156119525780601f1061192757610100808354040283529160200191611952565b820191906000526020600020905b81548152906001019060200180831161193557829003601f168201915b5050505050815260200160028201805461196b9061289c565b80601f01602080910402602001604051908101604052809291908181526020018280546119979061289c565b80156119e45780601f106119b9576101008083540402835291602001916119e4565b820191906000526020600020905b8154815290600101906020018083116119c757829003601f168201915b505050505081526020016003820180546119fd9061289c565b80601f0160208091040260200160405190810160405280929190818152602001828054611a299061289c565b8015611a765780601f10611a4b57610100808354040283529160200191611a76565b820191906000526020600020905b815481529060010190602001808311611a5957829003601f168201915b50505050508152505081526020019060010190611814565b50505050915080805480602002602001604051908101604052809291908181526020018280548015611adf57602002820191906000526020600020905b815481526020019060010190808311611acb575b50505050509050935093505050915091565b606060006001546001600160401b03811115611b0f57611b0f611fad565b604051908082528060200260200182016040528015611b38578160200160208202803683370190505b50905060005b600154811015610e9157600081815260208190526040902060090154825160ff90911690839083908110611b7457611b74612a70565b60200260200101906002811115611b8d57611b8d612418565b90816002811115611ba057611ba0612418565b90525080611bad81612983565b915050611b3e565b60606001846001548110611bdb5760405162461bcd60e51b8152600401610422906129b5565b816002811115611bed57611bed612418565b60008281526020819052604090206009015460ff166002811115611c1357611c13612418565b14611c305760405162461bcd60e51b815260040161042290612a4b565b60008681526020819052604090206003015485108015611c4e575060015b611c915760405162461bcd60e51b8152602060048201526014602482015273125b9d985b1a590810d85b991a59185d1948125160621b6044820152606401610422565b600080878152602001908152602001600020600801600085604051602001611cb99190612880565b60408051601f198184030181529181528151602092830120835290820192909252016000205460ff1615611d2f5760405162461bcd60e51b815260206004820152601760248201527f566f7465722068617320616c726561647920766f7465640000000000000000006044820152606401610422565b6000868152602081905260409020600501805486908110611d5257611d52612a70565b60009182526020822001805491611d6883612983565b919050555060016000808881526020019081526020016000206008016000611d8f87610398565b815260208082019290925260409081016000908120805460ff191694151594909417909355888352908290528120600701805491611dcc83612983565b90915550506000868152602081815260409182902060050180548351818402810184019094528084529091830182828015611e2657602002820191906000526020600020905b815481526020019060010190808311611e12575b5050505050925050509392505050565b6060600082516001600160401b03811115611e5357611e53611fad565b6040519080825280601f01601f191660200182016040528015611e7d576020820181803683370190505b50905060008351601f611e909190612a86565b905060205b818111611eb6578481015183820152611eaf602082612a86565b9050611e95565b50909392505050565b828054611ecb9061289c565b90600052602060002090601f016020900481019282611eed5760008555611f33565b82601f10611f0657805160ff1916838001178555611f33565b82800160010185558215611f33579182015b82811115611f33578251825591602001919060010190611f18565b50611f3f929150611f98565b5090565b6040518061010001604052806060815260200160008152602001600081526020016000815260200160608152602001606081526020016000815260200160006002811115611f9357611f93612418565b905290565b5b80821115611f3f5760008155600101611f99565b634e487b7160e01b600052604160045260246000fd5b600082601f830112611fd457600080fd5b81356001600160401b0380821115611fee57611fee611fad565b604051601f8301601f19908116603f0116810190828211818310171561201657612016611fad565b8160405283815286602085880101111561202f57600080fd5b836020870160208301376000602085830101528094505050505092915050565b6000806040838503121561206257600080fd5b82356001600160401b038082111561207957600080fd5b61208586838701611fc3565b9350602085013591508082111561209b57600080fd5b506120a885828601611fc3565b9150509250929050565b6000602082840312156120c457600080fd5b81356001600160401b038111156120da57600080fd5b6120e684828501611fc3565b949350505050565b600080600080600060a0868803121561210657600080fd5b85356001600160401b038082111561211d57600080fd5b61212989838a01611fc3565b9650602088013591508082111561213f57600080fd5b61214b89838a01611fc3565b9550604088013591508082111561216157600080fd5b5061216e88828901611fc3565b9598949750949560608101359550608001359392505050565b60008060008060008060c087890312156121a057600080fd5b86356001600160401b03808211156121b757600080fd5b6121c38a838b01611fc3565b97506020890135965060408901359150808211156121e057600080fd5b6121ec8a838b01611fc3565b9550606089013591508082111561220257600080fd5b61220e8a838b01611fc3565b9450608089013591508082111561222457600080fd5b6122308a838b01611fc3565b935060a089013591508082111561224657600080fd5b5061225389828a01611fc3565b9150509295509295509295565b60005b8381101561227b578181015183820152602001612263565b8381111561228a576000848401525b50505050565b600081518084526122a8816020860160208601612260565b601f01601f19169290920160200192915050565b600060208083528351818401528084015160c060408501526122e160e0850182612290565b90506040850151601f19808684030160608701526122ff8383612290565b606088015160808881019190915288015160a08089019190915288015187820390920160c088015281518082529185019350600092508401905b808310156123595783518252928401926001929092019190840190612339565b509695505050505050565b600080600080600060a0868803121561237c57600080fd5b85356001600160401b038082111561239357600080fd5b61239f89838a01611fc3565b965060208801359150808211156123b557600080fd5b6123c189838a01611fc3565b9550604088013594506060880135935060808801359150808211156123e557600080fd5b506123f288828901611fc3565b9150509295509295909350565b60006020828403121561241157600080fd5b5035919050565b634e487b7160e01b600052602160045260246000fd5b6003811061244c57634e487b7160e01b600052602160045260246000fd5b9052565b60006101008083526124648184018c612290565b9050896020840152886040840152876060840152828103608084015261248a8188612290565b9150508460a08301526124a060c083018561242e565b8260e08301529998505050505050505050565b600080600080608085870312156124c957600080fd5b84356001600160401b03808211156124e057600080fd5b6124ec88838901611fc3565b9550602087013591508082111561250257600080fd5b61250e88838901611fc3565b9450604087013591508082111561252457600080fd5b61253088838901611fc3565b9350606087013591508082111561254657600080fd5b5061255387828801611fc3565b91505092959194509250565b6000806040838503121561257257600080fd5b8235915060208301356001600160401b0381111561258f57600080fd5b6120a885828601611fc3565b600081518084526020808501808196508360051b8101915082860160005b8581101561263f5782840389528151608081518187526125db82880182612290565b91505086820151868203888801526125f38282612290565b9150506040808301518783038289015261260d8382612290565b925050506060808301519250868203818801525061262b8183612290565b9a87019a95505050908401906001016125b9565b5091979650505050505050565b6000610100825181855261266282860182612290565b9150506020830151602085015260408301516040850152606083015160608501526080830151848203608086015261269a828261259b565b91505060a083015184820360a08601526126b48282612290565b91505060c083015160c085015260e08301516126d360e086018261242e565b509392505050565b6000602080830181845280855180835260408601915060408160051b870101925083870160005b8281101561273057603f1988860301845261271e85835161264c565b94509285019290850190600101612702565b5092979650505050505050565b602081526000612750602083018461259b565b9392505050565b600081518084526020808501945080840160005b838110156127875781518752958201959082019060010161276b565b509495945050505050565b6020815260006127506020830184612757565b602081526000612750602083018461264c565b6040815260006127cb604083018561259b565b82810360208401526127dd8185612757565b95945050505050565b6020808252825182820181905260009190848201906040850190845b818110156128255761281583855161242e565b9284019291840191600101612802565b50909695505050505050565b60008060006060848603121561284657600080fd5b833592506020840135915060408401356001600160401b0381111561286a57600080fd5b61287686828701611fc3565b9150509250925092565b60008251612892818460208701612260565b9190910192915050565b600181811c908216806128b057607f821691505b60208210811415610e9157634e487b7160e01b600052602260045260246000fd5b600080835481600182811c9150808316806128ed57607f831692505b602080841082141561290d57634e487b7160e01b86526022600452602486fd5b81801561292157600181146129325761295f565b60ff1986168952848901965061295f565b60008a81526020902060005b868110156129575781548b82015290850190830161293e565b505084890196505b509498975050505050505050565b634e487b7160e01b600052601160045260246000fd5b60006000198214156129975761299761296d565b5060010190565b6000828210156129b0576129b061296d565b500390565b602080825260139082015272125b9d985b1a5908115b1958dd1a5bdb881251606a1b604082015260600190565b60208082526043908201527f41636573732044656e6965642c796f75206172656e277420746865206f776e6560408201527f72206f662074686520656c656374696f6e2e20496e636f7272656374204161646060820152623430b960e91b608082015260a00190565b6020808252600b908201526a57726f6e6720706861736560a81b604082015260600190565b634e487b7160e01b600052603260045260246000fd5b60008219821115612a9957612a9961296d565b50019056fea2646970667358221220c9876e87f903f5420d97d9e11362ce3f4065d57862d9c6161d63dbf5b15f72e964736f6c63430008090033",
  "linkReferences": {},
  "deployedLinkReferences": {}
}